{
  "abi": [
    {
      "inputs": [
        {
          "internalType": "address",
          "name": "DAO",
          "type": "address"
        },
        {
          "internalType": "address",
          "name": "_stablecoin",
          "type": "address"
        },
        {
          "internalType": "address",
          "name": "_GBL",
          "type": "address"
        },
        {
          "internalType": "address",
          "name": "_underwriter",
          "type": "address"
        }
      ],
      "stateMutability": "nonpayable",
      "type": "constructor"
    },
    {
      "anonymous": false,
      "inputs": [
        {
          "indexed": true,
          "internalType": "uint256",
          "name": "id",
          "type": "uint256"
        },
        {
          "indexed": false,
          "internalType": "uint256",
          "name": "principalDefaulted",
          "type": "uint256"
        },
        {
          "indexed": false,
          "internalType": "uint256",
          "name": "priorNetDefaults",
          "type": "uint256"
        },
        {
          "indexed": false,
          "internalType": "uint256",
          "name": "currentNetDefaults",
          "type": "uint256"
        }
      ],
      "name": "DefaultMarked",
      "type": "event"
    },
    {
      "anonymous": false,
      "inputs": [
        {
          "indexed": true,
          "internalType": "uint256",
          "name": "id",
          "type": "uint256"
        },
        {
          "indexed": false,
          "internalType": "uint256",
          "name": "amount",
          "type": "uint256"
        },
        {
          "indexed": true,
          "internalType": "address",
          "name": "payee",
          "type": "address"
        },
        {
          "indexed": false,
          "internalType": "bool",
          "name": "resolved",
          "type": "bool"
        }
      ],
      "name": "DefaultResolved",
      "type": "event"
    },
    {
      "anonymous": false,
      "inputs": [
        {
          "indexed": true,
          "internalType": "address",
          "name": "toAsset",
          "type": "address"
        },
        {
          "indexed": false,
          "internalType": "uint256",
          "name": "amountForConversion",
          "type": "uint256"
        },
        {
          "indexed": false,
          "internalType": "uint256",
          "name": "amountConverted",
          "type": "uint256"
        }
      ],
      "name": "InterestConverted",
      "type": "event"
    },
    {
      "anonymous": false,
      "inputs": [
        {
          "indexed": true,
          "internalType": "uint256",
          "name": "id",
          "type": "uint256"
        },
        {
          "indexed": false,
          "internalType": "uint256",
          "name": "amount",
          "type": "uint256"
        },
        {
          "indexed": true,
          "internalType": "address",
          "name": "payee",
          "type": "address"
        }
      ],
      "name": "InterestSupplied",
      "type": "event"
    },
    {
      "anonymous": false,
      "inputs": [
        {
          "indexed": true,
          "internalType": "uint256",
          "name": "id",
          "type": "uint256"
        },
        {
          "indexed": false,
          "internalType": "uint256",
          "name": "amount",
          "type": "uint256"
        },
        {
          "indexed": false,
          "internalType": "uint256",
          "name": "principal",
          "type": "uint256"
        },
        {
          "indexed": false,
          "internalType": "uint256",
          "name": "interest",
          "type": "uint256"
        },
        {
          "indexed": false,
          "internalType": "uint256",
          "name": "lateFee",
          "type": "uint256"
        }
      ],
      "name": "LoanCalled",
      "type": "event"
    },
    {
      "anonymous": false,
      "inputs": [
        {
          "indexed": true,
          "internalType": "address",
          "name": "previousOwner",
          "type": "address"
        },
        {
          "indexed": true,
          "internalType": "address",
          "name": "newOwner",
          "type": "address"
        }
      ],
      "name": "OwnershipTransferred",
      "type": "event"
    },
    {
      "anonymous": false,
      "inputs": [
        {
          "indexed": true,
          "internalType": "address",
          "name": "previousOwner",
          "type": "address"
        },
        {
          "indexed": true,
          "internalType": "address",
          "name": "newOwner",
          "type": "address"
        }
      ],
      "name": "OwnershipTransferredAndLocked",
      "type": "event"
    },
    {
      "anonymous": false,
      "inputs": [
        {
          "indexed": true,
          "internalType": "uint256",
          "name": "id",
          "type": "uint256"
        },
        {
          "indexed": true,
          "internalType": "address",
          "name": "payee",
          "type": "address"
        },
        {
          "indexed": false,
          "internalType": "uint256",
          "name": "amount",
          "type": "uint256"
        },
        {
          "indexed": false,
          "internalType": "uint256",
          "name": "principal",
          "type": "uint256"
        },
        {
          "indexed": false,
          "internalType": "uint256",
          "name": "interest",
          "type": "uint256"
        },
        {
          "indexed": false,
          "internalType": "uint256",
          "name": "lateFee",
          "type": "uint256"
        },
        {
          "indexed": false,
          "internalType": "uint256",
          "name": "nextPaymentDue",
          "type": "uint256"
        }
      ],
      "name": "PaymentMade",
      "type": "event"
    },
    {
      "anonymous": false,
      "inputs": [
        {
          "indexed": true,
          "internalType": "uint256",
          "name": "id",
          "type": "uint256"
        }
      ],
      "name": "RepaidMarked",
      "type": "event"
    },
    {
      "anonymous": false,
      "inputs": [
        {
          "indexed": true,
          "internalType": "uint256",
          "name": "id",
          "type": "uint256"
        }
      ],
      "name": "RequestCancelled",
      "type": "event"
    },
    {
      "anonymous": false,
      "inputs": [
        {
          "indexed": true,
          "internalType": "address",
          "name": "borrower",
          "type": "address"
        },
        {
          "indexed": false,
          "internalType": "address",
          "name": "requestedBy",
          "type": "address"
        },
        {
          "indexed": true,
          "internalType": "uint256",
          "name": "id",
          "type": "uint256"
        },
        {
          "indexed": false,
          "internalType": "uint256",
          "name": "borrowAmount",
          "type": "uint256"
        },
        {
          "indexed": false,
          "internalType": "uint256",
          "name": "APR",
          "type": "uint256"
        },
        {
          "indexed": false,
          "internalType": "uint256",
          "name": "APRLateFee",
          "type": "uint256"
        },
        {
          "indexed": false,
          "internalType": "uint256",
          "name": "term",
          "type": "uint256"
        },
        {
          "indexed": false,
          "internalType": "uint256",
          "name": "paymentInterval",
          "type": "uint256"
        },
        {
          "indexed": false,
          "internalType": "uint256",
          "name": "requestExpiry",
          "type": "uint256"
        },
        {
          "indexed": false,
          "internalType": "uint256",
          "name": "gracePeriod",
          "type": "uint256"
        },
        {
          "indexed": true,
          "internalType": "int8",
          "name": "paymentSchedule",
          "type": "int8"
        }
      ],
      "name": "RequestCreated",
      "type": "event"
    },
    {
      "anonymous": false,
      "inputs": [
        {
          "indexed": true,
          "internalType": "uint256",
          "name": "id",
          "type": "uint256"
        },
        {
          "indexed": false,
          "internalType": "uint256",
          "name": "principal",
          "type": "uint256"
        },
        {
          "indexed": true,
          "internalType": "address",
          "name": "borrower",
          "type": "address"
        },
        {
          "indexed": false,
          "internalType": "uint256",
          "name": "paymentDueBy",
          "type": "uint256"
        }
      ],
      "name": "RequestFunded",
      "type": "event"
    },
    {
      "anonymous": false,
      "inputs": [
        {
          "indexed": false,
          "internalType": "uint256",
          "name": "returnAmount",
          "type": "uint256"
        },
        {
          "indexed": false,
          "internalType": "address",
          "name": "srcToken",
          "type": "address"
        },
        {
          "indexed": false,
          "internalType": "uint256",
          "name": "amount",
          "type": "uint256"
        },
        {
          "indexed": false,
          "internalType": "uint256",
          "name": "minReturn",
          "type": "uint256"
        },
        {
          "indexed": false,
          "internalType": "bytes32[]",
          "name": "pools",
          "type": "bytes32[]"
        }
      ],
      "name": "SwapExecuted_2e95b6c8",
      "type": "event"
    },
    {
      "anonymous": false,
      "inputs": [
        {
          "indexed": false,
          "internalType": "uint256",
          "name": "returnAmount",
          "type": "uint256"
        },
        {
          "indexed": false,
          "internalType": "uint256",
          "name": "spentAmount",
          "type": "uint256"
        },
        {
          "indexed": false,
          "internalType": "uint256",
          "name": "gasLeft",
          "type": "uint256"
        },
        {
          "indexed": false,
          "internalType": "address",
          "name": "assetToSwap",
          "type": "address"
        },
        {
          "components": [
            {
              "internalType": "contract IERC20",
              "name": "srcToken",
              "type": "address"
            },
            {
              "internalType": "contract IERC20",
              "name": "dstToken",
              "type": "address"
            },
            {
              "internalType": "address",
              "name": "srcReceiver",
              "type": "address"
            },
            {
              "internalType": "address",
              "name": "dstReceiver",
              "type": "address"
            },
            {
              "internalType": "uint256",
              "name": "amount",
              "type": "uint256"
            },
            {
              "internalType": "uint256",
              "name": "minReturnAmount",
              "type": "uint256"
            },
            {
              "internalType": "uint256",
              "name": "flags",
              "type": "uint256"
            },
            {
              "internalType": "bytes",
              "name": "permit",
              "type": "bytes"
            }
          ],
          "indexed": false,
          "internalType": "struct ZivoeSwapper.SwapDescription",
          "name": "info",
          "type": "tuple"
        },
        {
          "indexed": false,
          "internalType": "bytes",
          "name": "data",
          "type": "bytes"
        }
      ],
      "name": "SwapExecuted_7c025200",
      "type": "event"
    },
    {
      "anonymous": false,
      "inputs": [
        {
          "indexed": false,
          "internalType": "uint256",
          "name": "returnAmount",
          "type": "uint256"
        },
        {
          "indexed": false,
          "internalType": "address",
          "name": "srcToken",
          "type": "address"
        },
        {
          "indexed": false,
          "internalType": "address",
          "name": "dstToken",
          "type": "address"
        },
        {
          "indexed": false,
          "internalType": "uint256",
          "name": "amount",
          "type": "uint256"
        },
        {
          "indexed": false,
          "internalType": "uint256",
          "name": "minReturn",
          "type": "uint256"
        }
      ],
      "name": "SwapExecuted_b0431182",
      "type": "event"
    },
    {
      "anonymous": false,
      "inputs": [
        {
          "indexed": false,
          "internalType": "uint256",
          "name": "actualMakingAmount",
          "type": "uint256"
        },
        {
          "indexed": false,
          "internalType": "uint256",
          "name": "actualTakingAmount",
          "type": "uint256"
        },
        {
          "components": [
            {
              "internalType": "uint256",
              "name": "info",
              "type": "uint256"
            },
            {
              "internalType": "contract IERC20",
              "name": "makerAsset",
              "type": "address"
            },
            {
              "internalType": "contract IERC20",
              "name": "takerAsset",
              "type": "address"
            },
            {
              "internalType": "address",
              "name": "maker",
              "type": "address"
            },
            {
              "internalType": "address",
              "name": "allowedSender",
              "type": "address"
            },
            {
              "internalType": "uint256",
              "name": "makingAmount",
              "type": "uint256"
            },
            {
              "internalType": "uint256",
              "name": "takingAmount",
              "type": "uint256"
            }
          ],
          "indexed": false,
          "internalType": "struct ZivoeSwapper.OrderRFQ",
          "name": "order",
          "type": "tuple"
        },
        {
          "indexed": false,
          "internalType": "bytes",
          "name": "signature",
          "type": "bytes"
        },
        {
          "indexed": false,
          "internalType": "uint256",
          "name": "makingAmount",
          "type": "uint256"
        },
        {
          "indexed": false,
          "internalType": "uint256",
          "name": "takingAmount",
          "type": "uint256"
        }
      ],
      "name": "SwapExecuted_d0a3b665",
      "type": "event"
    },
    {
      "anonymous": false,
      "inputs": [
        {
          "indexed": false,
          "internalType": "uint256",
          "name": "returnAmount",
          "type": "uint256"
        },
        {
          "indexed": false,
          "internalType": "uint256",
          "name": "amount",
          "type": "uint256"
        },
        {
          "indexed": false,
          "internalType": "uint256",
          "name": "minReturn",
          "type": "uint256"
        },
        {
          "indexed": false,
          "internalType": "uint256[]",
          "name": "pools",
          "type": "uint256[]"
        }
      ],
      "name": "SwapExecuted_e449022e",
      "type": "event"
    },
    {
      "inputs": [],
      "name": "GBL",
      "outputs": [
        {
          "internalType": "address",
          "name": "",
          "type": "address"
        }
      ],
      "stateMutability": "view",
      "type": "function"
    },
    {
      "inputs": [],
      "name": "amountForConversion",
      "outputs": [
        {
          "internalType": "uint256",
          "name": "",
          "type": "uint256"
        }
      ],
      "stateMutability": "view",
      "type": "function"
    },
    {
      "inputs": [
        {
          "internalType": "uint256",
          "name": "id",
          "type": "uint256"
        }
      ],
      "name": "amountOwed",
      "outputs": [
        {
          "internalType": "uint256",
          "name": "principal",
          "type": "uint256"
        },
        {
          "internalType": "uint256",
          "name": "interest",
          "type": "uint256"
        },
        {
          "internalType": "uint256",
          "name": "lateFee",
          "type": "uint256"
        },
        {
          "internalType": "uint256",
          "name": "total",
          "type": "uint256"
        }
      ],
      "stateMutability": "view",
      "type": "function"
    },
    {
      "inputs": [
        {
          "internalType": "uint256",
          "name": "id",
          "type": "uint256"
        }
      ],
      "name": "callLoan",
      "outputs": [],
      "stateMutability": "nonpayable",
      "type": "function"
    },
    {
      "inputs": [],
      "name": "canPull",
      "outputs": [
        {
          "internalType": "bool",
          "name": "",
          "type": "bool"
        }
      ],
      "stateMutability": "pure",
      "type": "function"
    },
    {
      "inputs": [],
      "name": "canPullERC1155",
      "outputs": [
        {
          "internalType": "bool",
          "name": "",
          "type": "bool"
        }
      ],
      "stateMutability": "view",
      "type": "function"
    },
    {
      "inputs": [],
      "name": "canPullERC721",
      "outputs": [
        {
          "internalType": "bool",
          "name": "",
          "type": "bool"
        }
      ],
      "stateMutability": "view",
      "type": "function"
    },
    {
      "inputs": [],
      "name": "canPullMulti",
      "outputs": [
        {
          "internalType": "bool",
          "name": "",
          "type": "bool"
        }
      ],
      "stateMutability": "pure",
      "type": "function"
    },
    {
      "inputs": [],
      "name": "canPullMultiERC721",
      "outputs": [
        {
          "internalType": "bool",
          "name": "",
          "type": "bool"
        }
      ],
      "stateMutability": "view",
      "type": "function"
    },
    {
      "inputs": [],
      "name": "canPullMultiPartial",
      "outputs": [
        {
          "internalType": "bool",
          "name": "",
          "type": "bool"
        }
      ],
      "stateMutability": "pure",
      "type": "function"
    },
    {
      "inputs": [],
      "name": "canPullPartial",
      "outputs": [
        {
          "internalType": "bool",
          "name": "",
          "type": "bool"
        }
      ],
      "stateMutability": "pure",
      "type": "function"
    },
    {
      "inputs": [],
      "name": "canPush",
      "outputs": [
        {
          "internalType": "bool",
          "name": "",
          "type": "bool"
        }
      ],
      "stateMutability": "pure",
      "type": "function"
    },
    {
      "inputs": [],
      "name": "canPushERC1155",
      "outputs": [
        {
          "internalType": "bool",
          "name": "",
          "type": "bool"
        }
      ],
      "stateMutability": "view",
      "type": "function"
    },
    {
      "inputs": [],
      "name": "canPushERC721",
      "outputs": [
        {
          "internalType": "bool",
          "name": "",
          "type": "bool"
        }
      ],
      "stateMutability": "view",
      "type": "function"
    },
    {
      "inputs": [],
      "name": "canPushMulti",
      "outputs": [
        {
          "internalType": "bool",
          "name": "",
          "type": "bool"
        }
      ],
      "stateMutability": "pure",
      "type": "function"
    },
    {
      "inputs": [],
      "name": "canPushMultiERC721",
      "outputs": [
        {
          "internalType": "bool",
          "name": "",
          "type": "bool"
        }
      ],
      "stateMutability": "view",
      "type": "function"
    },
    {
      "inputs": [
        {
          "internalType": "uint256",
          "name": "id",
          "type": "uint256"
        }
      ],
      "name": "cancelRequest",
      "outputs": [],
      "stateMutability": "nonpayable",
      "type": "function"
    },
    {
      "inputs": [],
      "name": "counterID",
      "outputs": [
        {
          "internalType": "uint256",
          "name": "",
          "type": "uint256"
        }
      ],
      "stateMutability": "view",
      "type": "function"
    },
    {
      "inputs": [
        {
          "internalType": "bytes",
          "name": "data",
          "type": "bytes"
        }
      ],
      "name": "forwardInterestKeeper",
      "outputs": [],
      "stateMutability": "nonpayable",
      "type": "function"
    },
    {
      "inputs": [
        {
          "internalType": "uint256",
          "name": "id",
          "type": "uint256"
        }
      ],
      "name": "fundLoan",
      "outputs": [],
      "stateMutability": "nonpayable",
      "type": "function"
    },
    {
      "inputs": [
        {
          "internalType": "uint256",
          "name": "id",
          "type": "uint256"
        }
      ],
      "name": "loanInfo",
      "outputs": [
        {
          "internalType": "address",
          "name": "borrower",
          "type": "address"
        },
        {
          "internalType": "int8",
          "name": "paymentSchedule",
          "type": "int8"
        },
        {
          "internalType": "uint256[10]",
          "name": "details",
          "type": "uint256[10]"
        }
      ],
      "stateMutability": "view",
      "type": "function"
    },
    {
      "inputs": [
        {
          "internalType": "uint256",
          "name": "",
          "type": "uint256"
        }
      ],
      "name": "loans",
      "outputs": [
        {
          "internalType": "address",
          "name": "borrower",
          "type": "address"
        },
        {
          "internalType": "uint256",
          "name": "principalOwed",
          "type": "uint256"
        },
        {
          "internalType": "uint256",
          "name": "APR",
          "type": "uint256"
        },
        {
          "internalType": "uint256",
          "name": "APRLateFee",
          "type": "uint256"
        },
        {
          "internalType": "uint256",
          "name": "paymentDueBy",
          "type": "uint256"
        },
        {
          "internalType": "uint256",
          "name": "paymentsRemaining",
          "type": "uint256"
        },
        {
          "internalType": "uint256",
          "name": "term",
          "type": "uint256"
        },
        {
          "internalType": "uint256",
          "name": "paymentInterval",
          "type": "uint256"
        },
        {
          "internalType": "uint256",
          "name": "requestExpiry",
          "type": "uint256"
        },
        {
          "internalType": "uint256",
          "name": "gracePeriod",
          "type": "uint256"
        },
        {
          "internalType": "int8",
          "name": "paymentSchedule",
          "type": "int8"
        },
        {
          "internalType": "enum OCC_Modular.LoanState",
          "name": "state",
          "type": "uint8"
        }
      ],
      "stateMutability": "view",
      "type": "function"
    },
    {
      "inputs": [],
      "name": "locked",
      "outputs": [
        {
          "internalType": "bool",
          "name": "",
          "type": "bool"
        }
      ],
      "stateMutability": "view",
      "type": "function"
    },
    {
      "inputs": [
        {
          "internalType": "uint256",
          "name": "id",
          "type": "uint256"
        }
      ],
      "name": "makePayment",
      "outputs": [],
      "stateMutability": "nonpayable",
      "type": "function"
    },
    {
      "inputs": [
        {
          "internalType": "uint256",
          "name": "id",
          "type": "uint256"
        }
      ],
      "name": "markDefault",
      "outputs": [],
      "stateMutability": "nonpayable",
      "type": "function"
    },
    {
      "inputs": [
        {
          "internalType": "uint256",
          "name": "id",
          "type": "uint256"
        }
      ],
      "name": "markRepaid",
      "outputs": [],
      "stateMutability": "nonpayable",
      "type": "function"
    },
    {
      "inputs": [
        {
          "internalType": "address",
          "name": "",
          "type": "address"
        },
        {
          "internalType": "address",
          "name": "",
          "type": "address"
        },
        {
          "internalType": "uint256[]",
          "name": "",
          "type": "uint256[]"
        },
        {
          "internalType": "uint256[]",
          "name": "",
          "type": "uint256[]"
        },
        {
          "internalType": "bytes",
          "name": "",
          "type": "bytes"
        }
      ],
      "name": "onERC1155BatchReceived",
      "outputs": [
        {
          "internalType": "bytes4",
          "name": "",
          "type": "bytes4"
        }
      ],
      "stateMutability": "nonpayable",
      "type": "function"
    },
    {
      "inputs": [
        {
          "internalType": "address",
          "name": "",
          "type": "address"
        },
        {
          "internalType": "address",
          "name": "",
          "type": "address"
        },
        {
          "internalType": "uint256",
          "name": "",
          "type": "uint256"
        },
        {
          "internalType": "uint256",
          "name": "",
          "type": "uint256"
        },
        {
          "internalType": "bytes",
          "name": "",
          "type": "bytes"
        }
      ],
      "name": "onERC1155Received",
      "outputs": [
        {
          "internalType": "bytes4",
          "name": "",
          "type": "bytes4"
        }
      ],
      "stateMutability": "nonpayable",
      "type": "function"
    },
    {
      "inputs": [
        {
          "internalType": "address",
          "name": "",
          "type": "address"
        },
        {
          "internalType": "address",
          "name": "",
          "type": "address"
        },
        {
          "internalType": "uint256",
          "name": "",
          "type": "uint256"
        },
        {
          "internalType": "bytes",
          "name": "",
          "type": "bytes"
        }
      ],
      "name": "onERC721Received",
      "outputs": [
        {
          "internalType": "bytes4",
          "name": "",
          "type": "bytes4"
        }
      ],
      "stateMutability": "nonpayable",
      "type": "function"
    },
    {
      "inputs": [],
      "name": "owner",
      "outputs": [
        {
          "internalType": "address",
          "name": "",
          "type": "address"
        }
      ],
      "stateMutability": "view",
      "type": "function"
    },
    {
      "inputs": [
        {
          "internalType": "uint256",
          "name": "id",
          "type": "uint256"
        }
      ],
      "name": "processPayment",
      "outputs": [],
      "stateMutability": "nonpayable",
      "type": "function"
    },
    {
      "inputs": [
        {
          "internalType": "address",
          "name": "asset",
          "type": "address"
        }
      ],
      "name": "pullFromLocker",
      "outputs": [],
      "stateMutability": "nonpayable",
      "type": "function"
    },
    {
      "inputs": [
        {
          "internalType": "address",
          "name": "asset",
          "type": "address"
        },
        {
          "internalType": "uint256[]",
          "name": "ids",
          "type": "uint256[]"
        },
        {
          "internalType": "uint256[]",
          "name": "amounts",
          "type": "uint256[]"
        },
        {
          "internalType": "bytes",
          "name": "data",
          "type": "bytes"
        }
      ],
      "name": "pullFromLockerERC1155",
      "outputs": [],
      "stateMutability": "nonpayable",
      "type": "function"
    },
    {
      "inputs": [
        {
          "internalType": "address",
          "name": "asset",
          "type": "address"
        },
        {
          "internalType": "uint256",
          "name": "tokenId",
          "type": "uint256"
        },
        {
          "internalType": "bytes",
          "name": "data",
          "type": "bytes"
        }
      ],
      "name": "pullFromLockerERC721",
      "outputs": [],
      "stateMutability": "nonpayable",
      "type": "function"
    },
    {
      "inputs": [
        {
          "internalType": "address[]",
          "name": "assets",
          "type": "address[]"
        }
      ],
      "name": "pullFromLockerMulti",
      "outputs": [],
      "stateMutability": "nonpayable",
      "type": "function"
    },
    {
      "inputs": [
        {
          "internalType": "address[]",
          "name": "assets",
          "type": "address[]"
        },
        {
          "internalType": "uint256[]",
          "name": "tokenIds",
          "type": "uint256[]"
        },
        {
          "internalType": "bytes[]",
          "name": "data",
          "type": "bytes[]"
        }
      ],
      "name": "pullFromLockerMultiERC721",
      "outputs": [],
      "stateMutability": "nonpayable",
      "type": "function"
    },
    {
      "inputs": [
        {
          "internalType": "address[]",
          "name": "assets",
          "type": "address[]"
        },
        {
          "internalType": "uint256[]",
          "name": "amounts",
          "type": "uint256[]"
        }
      ],
      "name": "pullFromLockerMultiPartial",
      "outputs": [],
      "stateMutability": "nonpayable",
      "type": "function"
    },
    {
      "inputs": [
        {
          "internalType": "address",
          "name": "asset",
          "type": "address"
        },
        {
          "internalType": "uint256",
          "name": "amount",
          "type": "uint256"
        }
      ],
      "name": "pullFromLockerPartial",
      "outputs": [],
      "stateMutability": "nonpayable",
      "type": "function"
    },
    {
      "inputs": [
        {
          "internalType": "address",
          "name": "asset",
          "type": "address"
        },
        {
          "internalType": "uint256",
          "name": "amount",
          "type": "uint256"
        }
      ],
      "name": "pushToLocker",
      "outputs": [],
      "stateMutability": "nonpayable",
      "type": "function"
    },
    {
      "inputs": [
        {
          "internalType": "address",
          "name": "asset",
          "type": "address"
        },
        {
          "internalType": "uint256[]",
          "name": "ids",
          "type": "uint256[]"
        },
        {
          "internalType": "uint256[]",
          "name": "amounts",
          "type": "uint256[]"
        },
        {
          "internalType": "bytes",
          "name": "data",
          "type": "bytes"
        }
      ],
      "name": "pushToLockerERC1155",
      "outputs": [],
      "stateMutability": "nonpayable",
      "type": "function"
    },
    {
      "inputs": [
        {
          "internalType": "address",
          "name": "asset",
          "type": "address"
        },
        {
          "internalType": "uint256",
          "name": "tokenId",
          "type": "uint256"
        },
        {
          "internalType": "bytes",
          "name": "data",
          "type": "bytes"
        }
      ],
      "name": "pushToLockerERC721",
      "outputs": [],
      "stateMutability": "nonpayable",
      "type": "function"
    },
    {
      "inputs": [
        {
          "internalType": "address[]",
          "name": "assets",
          "type": "address[]"
        },
        {
          "internalType": "uint256[]",
          "name": "amounts",
          "type": "uint256[]"
        }
      ],
      "name": "pushToLockerMulti",
      "outputs": [],
      "stateMutability": "nonpayable",
      "type": "function"
    },
    {
      "inputs": [
        {
          "internalType": "address[]",
          "name": "assets",
          "type": "address[]"
        },
        {
          "internalType": "uint256[]",
          "name": "tokenIds",
          "type": "uint256[]"
        },
        {
          "internalType": "bytes[]",
          "name": "data",
          "type": "bytes[]"
        }
      ],
      "name": "pushToLockerMultiERC721",
      "outputs": [],
      "stateMutability": "nonpayable",
      "type": "function"
    },
    {
      "inputs": [],
      "name": "renounceOwnership",
      "outputs": [],
      "stateMutability": "nonpayable",
      "type": "function"
    },
    {
      "inputs": [
        {
          "internalType": "address",
          "name": "borrower",
          "type": "address"
        },
        {
          "internalType": "uint256",
          "name": "borrowAmount",
          "type": "uint256"
        },
        {
          "internalType": "uint256",
          "name": "APR",
          "type": "uint256"
        },
        {
          "internalType": "uint256",
          "name": "APRLateFee",
          "type": "uint256"
        },
        {
          "internalType": "uint256",
          "name": "term",
          "type": "uint256"
        },
        {
          "internalType": "uint256",
          "name": "paymentInterval",
          "type": "uint256"
        },
        {
          "internalType": "uint256",
          "name": "gracePeriod",
          "type": "uint256"
        },
        {
          "internalType": "int8",
          "name": "paymentSchedule",
          "type": "int8"
        }
      ],
      "name": "requestLoan",
      "outputs": [],
      "stateMutability": "nonpayable",
      "type": "function"
    },
    {
      "inputs": [
        {
          "internalType": "uint256",
          "name": "id",
          "type": "uint256"
        },
        {
          "internalType": "uint256",
          "name": "amount",
          "type": "uint256"
        }
      ],
      "name": "resolveDefault",
      "outputs": [],
      "stateMutability": "nonpayable",
      "type": "function"
    },
    {
      "inputs": [],
      "name": "router1INCH_V4",
      "outputs": [
        {
          "internalType": "address",
          "name": "",
          "type": "address"
        }
      ],
      "stateMutability": "view",
      "type": "function"
    },
    {
      "inputs": [],
      "name": "stablecoin",
      "outputs": [
        {
          "internalType": "address",
          "name": "",
          "type": "address"
        }
      ],
      "stateMutability": "view",
      "type": "function"
    },
    {
      "inputs": [
        {
          "internalType": "uint256",
          "name": "id",
          "type": "uint256"
        },
        {
          "internalType": "uint256",
          "name": "amount",
          "type": "uint256"
        }
      ],
      "name": "supplyInterest",
      "outputs": [],
      "stateMutability": "nonpayable",
      "type": "function"
    },
    {
      "inputs": [
        {
          "internalType": "bytes4",
          "name": "interfaceId",
          "type": "bytes4"
        }
      ],
      "name": "supportsInterface",
      "outputs": [
        {
          "internalType": "bool",
          "name": "",
          "type": "bool"
        }
      ],
      "stateMutability": "view",
      "type": "function"
    },
    {
      "inputs": [
        {
          "internalType": "address",
          "name": "newOwner",
          "type": "address"
        }
      ],
      "name": "transferOwnership",
      "outputs": [],
      "stateMutability": "nonpayable",
      "type": "function"
    },
    {
      "inputs": [
        {
          "internalType": "address",
          "name": "newOwner",
          "type": "address"
        }
      ],
      "name": "transferOwnershipAndLock",
      "outputs": [],
      "stateMutability": "nonpayable",
      "type": "function"
    },
    {
      "inputs": [],
      "name": "underwriter",
      "outputs": [
        {
          "internalType": "address",
          "name": "",
          "type": "address"
        }
      ],
      "stateMutability": "view",
      "type": "function"
    }
  ],
  "bytecode": {
    "object": "0x60e0604052731111111254fb6c44bac0bed2854e76f90643097d6080523480156200002957600080fd5b50604051620067a3380380620067a38339810160408190526200004c91620002a8565b620000573362000092565b6200006284620000e2565b6001600160a01b0392831660a05290821660c052600180546001600160a01b031916919092161790555062000305565b600080546001600160a01b038381166001600160a01b0319831681178455604051919092169283917f8be0079c531659141344cd1fd0a4f28419497f9722a3daafe3b4186f6b6457e09190a35050565b620000ec62000207565b600054600160a01b900460ff16156200015a5760405162461bcd60e51b815260206004820152602560248201527f5a69766f654f776e61626c654c6f636b65643a3a756e6c6f636b65642829206c6044820152641bd8dad95960da1b60648201526084015b60405180910390fd5b6001600160a01b038116620001e65760405162461bcd60e51b815260206004820152604560248201527f5a69766f654f776e61626c654c6f636b65643a3a7472616e736665724f776e6560448201527f7273686970416e644c6f636b2829206e65774f776e6572203d3d206164647265606482015264737328302960d81b608482015260a40162000151565b6000805460ff60a01b1916600160a01b179055620002048162000092565b50565b6000546001600160a01b03163314620002895760405162461bcd60e51b815260206004820152603760248201527f5a69766f654f776e61626c654c6f636b65643a3a5f636865636b4f776e65722060448201527f6f776e6572282920213d205f6d736753656e6465722829000000000000000000606482015260840162000151565b565b80516001600160a01b0381168114620002a357600080fd5b919050565b60008060008060808587031215620002bf57600080fd5b620002ca856200028b565b9350620002da602086016200028b565b9250620002ea604086016200028b565b9150620002fa606086016200028b565b905092959194509250565b60805160a05160c05161635d620004466000396000818161043301528181610dcc01528181610f18015281816112ef0152818161140f0152818161232e0152818161255f0152818161267f015281816128e401528181612b260152818161344a015281816134f60152818161359e015281816136b40152818161385801526139770152600081816106f501528181610eb801528181610f9801528181611045015281816113db01528181611684015281816117d401528181611fd001528181612012015281816120a0015281816122c001528181612306015281816127640152818161280e01528181612c12015281816131aa01528181613238015281816135230152818161368c01528181613944015281816139fc01528181613bc001528181613c380152613cc70152600081816103b4015261407b015261635d6000f3fe608060405234801561001057600080fd5b50600436106103275760003560e01c8063888a9e2b116101b8578063cf30901211610104578063e7f44629116100a2578063f23a6e611161007c578063f23a6e611461072a578063f2fde38b14610749578063fd76f59d1461075c578063ff0459ba1461076f57600080fd5b8063e7f4462914610401578063e9cbd822146106f0578063f00db2601461071757600080fd5b8063dd913bdb116100de578063dd913bdb146103a8578063e1d927c814610633578063e1ec3c6814610646578063e2d3a0fe146106dd57600080fd5b8063cf30901214610603578063d2abc6ef14610617578063d9821e3b1461062057600080fd5b8063bc197c8111610171578063c230eec41161014b578063c230eec4146105aa578063c701c994146105dd578063c9c6a414146105f0578063cf10b7ab146103a857600080fd5b8063bc197c8114610565578063bca31ca414610584578063c008c1c21461059757600080fd5b8063888a9e2b1461052e5780638b648ee2146103a85780638da5cb5b14610541578063a4a3e79d14610401578063b0607cf8146103a8578063b892bcc01461055257600080fd5b80633eda81ad1161027757806364efbb7711610230578063803f97f11161020a578063803f97f1146104d35780638349d6be146104e65780638447659114610508578063846b909a1461051b57600080fd5b806364efbb77146104a1578063715018a6146104b85780637dbcdbc1146104c057600080fd5b80633eda81ad14610401578063422b2018146104555780635114cb521461046857806358289c7e1461047b578063607cd6491461048e57806364c777351461040157600080fd5b80631d9389e9116102e45780633015394c116102be5780633015394c146104085780633a2f84851461041b5780633c117244146103a85780633ce8d4321461042e57600080fd5b80631d9389e9146103ee578063215cccdd146104015780632f08d48b1461040157600080fd5b806301ffc9a71461032c5780631205217614610354578063150b7a021461036957806315e98744146103955780631852b383146103a857806319ce95f4146103af575b600080fd5b61033f61033a366004615411565b610782565b60405190151581526020015b60405180910390f35b6103676103623660046154af565b6107b9565b005b61037c61037736600461560a565b610835565b6040516001600160e01b0319909116815260200161034b565b6103676103a33660046156b9565b610846565b600061033f565b6103d67f000000000000000000000000000000000000000000000000000000000000000081565b6040516001600160a01b03909116815260200161034b565b6103676103fc3660046154af565b6109b7565b600161033f565b610367610416366004615752565b610a22565b610367610429366004615752565b610bb9565b6103d67f000000000000000000000000000000000000000000000000000000000000000081565b61036761046336600461576b565b61112f565b610367610476366004615752565b61119e565b610367610489366004615817565b6114b7565b61036761049c366004615834565b611592565b6104aa60025481565b60405190815260200161034b565b6103676116fe565b6103676104ce366004615817565b61173c565b6103676104e1366004615875565b611813565b6104f96104f4366004615752565b611cb1565b60405161034b939291906158ef565b610367610516366004615940565b611d6e565b610367610529366004615752565b611da1565b61036761053c36600461596c565b612119565b6000546001600160a01b03166103d6565b6103676105603660046156b9565b6123ed565b61037c610573366004615a1c565b63bc197c8160e01b95945050505050565b610367610592366004615ac9565b612555565b6103676105a5366004615752565b61296e565b6105bd6105b8366004615752565b612cba565b60408051948552602085019390935291830152606082015260800161034b565b6103676105eb366004615752565b612fae565b6103676105fe366004615afe565b6130d1565b60005461033f90600160a01b900460ff1681565b6104aa60035481565b61036761062e366004615940565b613164565b610367610641366004615752565b6132b2565b6106c5610654366004615752565b6004602081905260009182526040822080546001820154600283015460038401549484015460058501546006860154600787015460088801546009890154600a909901546001600160a01b039098169a96999598959794969395929491939092919081900b90610100900460ff168c565b60405161034b9c9b9a99989796959493929190615b73565b6103676106eb36600461596c565b613773565b6103d67f000000000000000000000000000000000000000000000000000000000000000081565b6001546103d6906001600160a01b031681565b61037c610738366004615bff565b63f23a6e6160e01b95945050505050565b610367610757366004615817565b613a47565b61036761076a36600461576b565b613afe565b61036761077d366004615afe565b613b6b565b60006001600160e01b03198216630271189760e51b14806107b357506301ffc9a760e01b6001600160e01b03198316145b92915050565b6107c1613d50565b60405162461bcd60e51b815260206004820152603460248201527f5a69766f654c6f636b65723a3a70756c6c46726f6d4c6f636b65724552433732604482015273312829202163616e50756c6c455243373231282960601b60648201526084015b60405180910390fd5b5050505050505050565b630a85bd0160e11b5b949350505050565b61084e613d50565b60405162461bcd60e51b815260206004820152603e60248201527f5a69766f654c6f636b65723a3a70756c6c46726f6d4c6f636b65724d756c746960448201527f4552433732312829202163616e50756c6c4d756c7469455243373231282900006064820152608401610822565b858110156109ae578686828181106108d6576108d6615cc4565b90506020020160208101906108eb9190615817565b6001600160a01b031663b88d4fde3061090c6000546001600160a01b031690565b88888681811061091e5761091e615cc4565b9050602002013587878781811061093757610937615cc4565b90506020028101906109499190615cda565b6040518663ffffffff1660e01b8152600401610969959493929190615c90565b600060405180830381600087803b15801561098357600080fd5b505af1158015610997573d6000803e3d6000fd5b5050505080806109a690615d36565b9150506108bc565b50505050505050565b6109bf613d50565b60405162461bcd60e51b815260206004820152603260248201527f5a69766f654c6f636b65723a3a70757368546f4c6f636b65724552433732312860448201527129202163616e50757368455243373231282960701b6064820152608401610822565b6000818152600460205260409020546001600160a01b0316336001600160a01b031614610ab75760405162461bcd60e51b815260206004820152603f60248201527f4f43435f4d6f64756c61723a3a63616e63656c526571756573742829205f6d7360448201527f6753656e646572282920213d206c6f616e735b69645d2e626f72726f776572006064820152608401610822565b60016000828152600460205260409020600a0154610100900460ff166006811115610ae457610ae4615b5d565b14610b655760405162461bcd60e51b815260206004820152604560248201527f4f43435f4d6f64756c61723a3a63616e63656c526571756573742829206c6f6160448201527f6e735b69645d2e737461746520213d204c6f616e53746174652e496e697469616064820152641b1a5e995960da1b608482015260a401610822565b60405181907fee243f878b7fc2f54e934ca33783d4395d42bc07612e2bd4b8e0e178639f7a2890600090a26000818152600460205260409020600a0180546005919061ff001916610100835b021790555050565b60026000828152600460205260409020600a0154610100900460ff166006811115610be657610be6615b5d565b14610c635760405162461bcd60e51b815260206004820152604160248201527f4f43435f4d6f64756c61723a3a70726f636573735061796d656e742829206c6f60448201527f616e735b69645d2e737461746520213d204c6f616e53746174652e41637469766064820152606560f81b608482015260a401610822565b60008181526004602081905260409091200154610c84906203f48090615d4f565b4211610d115760405162461bcd60e51b815260206004820152605060248201527f4f43435f4d6f64756c61723a3a70726f636573735061796d656e74282920626c60448201527f6f636b2e74696d657374616d70203c3d206c6f616e735b69645d2e7061796d6560648201526f6e744475654279202d2033206461797360801b608482015260a401610822565b6000806000610d1f84612cba565b5060008781526004602052604090205492955090935091506001600160a01b0316847f156efd898bf24c8c6af5b216d47176074332f389713e96fec4af716703edb63783610d6d8688615d62565b610d779190615d62565b60008881526004602081905260409091206007810154910154889188918891610d9f91615d62565b604080519586526020860194909452928401919091526060830152608082015260a00160405180910390a37f00000000000000000000000000000000000000000000000000000000000000006001600160a01b03166372d6724a6040518163ffffffff1660e01b8152600401602060405180830381865afa158015610e28573d6000803e3d6000fd5b505050506040513d601f19601f82011682018060405250810190610e4c9190615d75565b6001600160a01b0316635df8d1686040518163ffffffff1660e01b8152600401602060405180830381865afa158015610e89573d6000803e3d6000fd5b505050506040513d601f19601f82011682018060405250810190610ead9190615d75565b6001600160a01b03167f00000000000000000000000000000000000000000000000000000000000000006001600160a01b031603610fc55760008481526004602081815260409283902054835163396b392560e11b81529351610fc0946001600160a01b03928316947f0000000000000000000000000000000000000000000000000000000000000000909316936372d6724a938281019391928290030181865afa158015610f60573d6000803e3d6000fd5b505050506040513d601f19601f82011682018060405250810190610f849190615d75565b610f8e8486615d62565b6001600160a01b037f000000000000000000000000000000000000000000000000000000000000000016929190613dd0565b61100d565b600084815260046020526040902054610fec906001600160a01b031630610f8e8486615d62565b610ff68183615d62565b600360008282546110079190615d62565b90915550505b60008481526004602052604090205461106d906001600160a01b031661103b6000546001600160a01b031690565b6001600160a01b037f000000000000000000000000000000000000000000000000000000000000000016919086613dd0565b6000848152600460205260409020600501546001036110ae5760008481526004602081905260408220600a8101805461ff00191661030017905501556110dc565b60008481526004602081905260408220600781015491018054919290916110d6908490615d62565b90915550505b600084815260046020526040812060010180548592906110fd908490615d4f565b90915550506000848152600460205260408120600501805460019290611124908490615d4f565b909155505050505050565b611137613d50565b60405162461bcd60e51b815260206004820152603660248201527f5a69766f654c6f636b65723a3a70756c6c46726f6d4c6f636b6572455243313160448201527535352829202163616e50756c6c45524331313535282960501b6064820152608401610822565b60026000828152600460205260409020600a0154610100900460ff1660068111156111cb576111cb615b5d565b1461123e5760405162461bcd60e51b815260206004820152603e60248201527f4f43435f4d6f64756c61723a3a6d616b655061796d656e742829206c6f616e7360448201527f5b69645d2e737461746520213d204c6f616e53746174652e41637469766500006064820152608401610822565b600080600061124c84612cba565b5092509250925061125a3390565b6001600160a01b0316847f156efd898bf24c8c6af5b216d47176074332f389713e96fec4af716703edb637836112908688615d62565b61129a9190615d62565b600088815260046020819052604090912060078101549101548891889188916112c291615d62565b604080519586526020860194909452928401919091526060830152608082015260a00160405180910390a37f00000000000000000000000000000000000000000000000000000000000000006001600160a01b03166372d6724a6040518163ffffffff1660e01b8152600401602060405180830381865afa15801561134b573d6000803e3d6000fd5b505050506040513d601f19601f8201168201806040525081019061136f9190615d75565b6001600160a01b0316635df8d1686040518163ffffffff1660e01b8152600401602060405180830381865afa1580156113ac573d6000803e3d6000fd5b505050506040513d601f19601f820116820180604052508101906113d09190615d75565b6001600160a01b03167f00000000000000000000000000000000000000000000000000000000000000006001600160a01b0316036114705761146b335b7f00000000000000000000000000000000000000000000000000000000000000006001600160a01b03166372d6724a6040518163ffffffff1660e01b8152600401602060405180830381865afa158015610f60573d6000803e3d6000fd5b6114a1565b611480335b30610f8e8486615d62565b61148a8183615d62565b6003600082825461149b9190615d62565b90915550505b61106d335b6000546001600160a01b031661103b565b6114bf613d50565b600054600160a01b900460ff16156114e95760405162461bcd60e51b815260040161082290615d92565b6001600160a01b0381166115735760405162461bcd60e51b815260206004820152604560248201527f5a69766f654f776e61626c654c6f636b65643a3a7472616e736665724f776e6560448201527f7273686970416e644c6f636b2829206e65774f776e6572203d3d206164647265606482015264737328302960d81b608482015260a401610822565b6000805460ff60a01b1916600160a01b17905561158f81613e41565b50565b61159a613d50565b60005b818110156116f9576116826115ba6000546001600160a01b031690565b8484848181106115cc576115cc615cc4565b90506020020160208101906115e19190615817565b6040516370a0823160e01b81523060048201526001600160a01b0391909116906370a0823190602401602060405180830381865afa158015611627573d6000803e3d6000fd5b505050506040513d601f19601f8201168201806040525081019061164b9190615dd7565b85858581811061165d5761165d615cc4565b90506020020160208101906116729190615817565b6001600160a01b03169190613e91565b7f00000000000000000000000000000000000000000000000000000000000000006001600160a01b03168383838181106116be576116be615cc4565b90506020020160208101906116d39190615817565b6001600160a01b0316036116e75760006003555b806116f181615d36565b91505061159d565b505050565b611706613d50565b600054600160a01b900460ff16156117305760405162461bcd60e51b815260040161082290615d92565b61173a6000613e41565b565b611744613d50565b6117d26117596000546001600160a01b031690565b6040516370a0823160e01b81523060048201526001600160a01b038416906370a0823190602401602060405180830381865afa15801561179d573d6000803e3d6000fd5b505050506040513d601f19601f820116820180604052508101906117c19190615dd7565b6001600160a01b0384169190613e91565b7f00000000000000000000000000000000000000000000000000000000000000006001600160a01b0316816001600160a01b03160361158f57600060035550565b610e108611156118735760405162461bcd60e51b815260206004820152602560248201527f4f43435f4d6f64756c61723a3a726571756573744c6f616e282920415052203e604482015264020333630360dc1b6064820152608401610822565b610e108511156118da5760405162461bcd60e51b815260206004820152602c60248201527f4f43435f4d6f64756c61723a3a726571756573744c6f616e2829204150524c6160448201526b07465466565203e20333630360a41b6064820152608401610822565b600084116119365760405162461bcd60e51b8152602060048201526024808201527f4f43435f4d6f64756c61723a3a726571756573744c6f616e2829207465726d2060448201526303d3d20360e41b6064820152608401610822565b826209e34014806119495750826213c680145b8061195657508262278d00145b806119635750826276a700145b806119715750826301da9c00145b611a175760405162461bcd60e51b815260206004820152606560248201527f4f43435f4d6f64756c61723a3a726571756573744c6f616e282920696e76616c60448201527f6964207061796d656e74496e74657276616c2076616c75652c207472793a203860648201527f36343030202a2028372e35207c7c203135207c7c203330207c7c203930207c7c608482015264203336302960d81b60a482015260c401610822565b8060000b60001480611a2c57508060000b6001145b611aae5760405162461bcd60e51b815260206004820152604760248201527f4f43435f4d6f64756c61723a3a726571756573744c6f616e2829207061796d6560448201527f6e745363686564756c6520213d2030202626207061796d656e745363686564756064820152666c6520213d203160c81b608482015260a401610822565b8060000b600254896001600160a01b03167f6534d8ca6c5625bdb6454fc69433e5a1870210ff740b7d0c4251320f06676870611ae73390565b8b8b8b8b8b611af94262127500615d62565b604080516001600160a01b0390981688526020880196909652948601939093526060850191909152608084015260a083015260c082015260e081018790526101000160405180910390a4604051806101800160405280896001600160a01b03168152602001888152602001878152602001868152602001600081526020018581526020018581526020018481526020014262127500611b989190615d62565b815260208101849052600083900b60408201526060016001905260028054600090815260046020818152604092839020855181546001600160a01b039091166001600160a01b031990911617815590850151600182015591840151928201929092556060830151600382015560808301519181019190915560a0820151600582015560c082015160068083019190915560e083015160078301556101008084015160088401556101208401516009840155610140840151600a8401805460ff90921660ff1983168117825561016087015194919361ffff199093161791908490811115611c8757611c87615b5d565b0217905550905050600160026000828254611ca29190615d62565b90915550505050505050505050565b600080611cbc6153f2565b60008481526004602081815260408084208054600a820154600183015488526002830154888601526003830154938801939093528185015460608801526005820154608088015260068083015460a0890152600783015460c0890152600883015460e0890152600990920154610100808901919091528a8752949093526001600160a01b0390921696509283900b9450910460ff1690811115611d6157611d61615b5d565b6101208201529193909250565b611d76613d50565b611d9d611d8b6000546001600160a01b031690565b6001600160a01b038416903084613dd0565b5050565b6001546001600160a01b0316336001600160a01b031614611dd45760405162461bcd60e51b815260040161082290615df0565b60016000828152600460205260409020600a0154610100900460ff166006811115611e0157611e01615b5d565b14611e76576040805162461bcd60e51b81526020600482015260248101919091527f4f43435f4d6f64756c61723a3a66756e644c6f616e2829206c6f616e735b696460448201527f5d2e737461746520213d204c6f616e53746174652e496e697469616c697a65646064820152608401610822565b6000818152600460205260409020600801544210611f075760405162461bcd60e51b815260206004820152604260248201527f4f43435f4d6f64756c61723a3a66756e644c6f616e282920626c6f636b2e746960448201527f6d657374616d70203e3d206c6f616e735b69645d2e7265717565737445787069606482015261727960f01b608482015260a401610822565b6000818152600460205260409020805460018201546007909201546001600160a01b039091169183917fff5e9cdc78b6cbf9b6947272ed148610fc68a0444e324db24edf9fd4c10201919190611f5d9042615d62565b6040805192835260208301919091520160405180910390a36000818152600460205260409020600a8101805461ff00191661020017905560070154611fa29042615d62565b6000828152600460208190526040909120908101919091558054600190910154611ffa916001600160a01b037f0000000000000000000000000000000000000000000000000000000000000000811692911690613e91565b6003546040516370a0823160e01b81523060048201527f00000000000000000000000000000000000000000000000000000000000000006001600160a01b0316906370a0823190602401602060405180830381865afa158015612061573d6000803e3d6000fd5b505050506040513d601f19601f820116820180604052508101906120859190615dd7565b101561158f576040516370a0823160e01b81523060048201527f00000000000000000000000000000000000000000000000000000000000000006001600160a01b0316906370a0823190602401602060405180830381865afa1580156120ef573d6000803e3d6000fd5b505050506040513d601f19601f820116820180604052508101906121139190615dd7565b60035550565b60046000838152600460205260409020600a0154610100900460ff16600681111561214657612146615b5d565b146121c55760405162461bcd60e51b815260206004820152604360248201527f4f43435f4d6f64756c61723a3a7265736f6c76654465666175742829206c6f6160448201527f6e735b69645d2e737461746520213d204c6f616e53746174652e44656661756c6064820152621d195960ea1b608482015260a401610822565b600082815260046020526040812060010154821061220a57506000828152600460205260408120600181018054929055600a01805461ff001916610600179055612234565b5060008281526004602052604081206001018054839283929161222e908490615d4f565b90915550505b336001600160a01b0316837f92163773d605b6d564984a8f4d6fe46f32149fc640adf237b5baa1ce80b6ad1c8360066000888152600460205260409020600a0154610100900460ff16600681111561228e5761228e615b5d565b60408051938452911460208301520160405180910390a36122e8336000546001600160a01b03165b6001600160a01b037f000000000000000000000000000000000000000000000000000000000000000016919084613dd0565b60405163dc3c1da560e01b8152600481018290526001600160a01b037f0000000000000000000000000000000000000000000000000000000000000000811660248301527f000000000000000000000000000000000000000000000000000000000000000016906379de292790829063dc3c1da590604401602060405180830381865afa15801561237d573d6000803e3d6000fd5b505050506040513d601f19601f820116820180604052508101906123a19190615dd7565b6040518263ffffffff1660e01b81526004016123bf91815260200190565b600060405180830381600087803b1580156123d957600080fd5b505af11580156109ae573d6000803e3d6000fd5b6123f5613d50565b60405162461bcd60e51b815260206004820152603c60248201527f5a69766f654c6f636b65723a3a70757368546f4c6f636b65724d756c7469455260448201527f433732312829202163616e507573684d756c74694552433732312829000000006064820152608401610822565b858110156109ae5786868281811061247d5761247d615cc4565b90506020020160208101906124929190615817565b6001600160a01b031663b88d4fde6124b26000546001600160a01b031690565b308888868181106124c5576124c5615cc4565b905060200201358787878181106124de576124de615cc4565b90506020028101906124f09190615cda565b6040518663ffffffff1660e01b8152600401612510959493929190615c90565b600060405180830381600087803b15801561252a57600080fd5b505af115801561253e573d6000803e3d6000fd5b50505050808061254d90615d36565b915050612463565b6001600160a01b037f000000000000000000000000000000000000000000000000000000000000000016636ba42aaa336040516001600160e01b031960e084901b1681526001600160a01b039091166004820152602401602060405180830381865afa1580156125c9573d6000803e3d6000fd5b505050506040513d601f19601f820116820180604052508101906125ed9190615e4d565b61267b5760405162461bcd60e51b815260206004820152605360248201527f4f43435f4d6f64756c61723a3a666f7277617264496e7465726573744b65657060448201527f657228292021495a69766f65476c6f62616c735f4f43432847424c292e69734b6064820152726565706572285f6d736753656e64657228292960681b608482015260a401610822565b60007f00000000000000000000000000000000000000000000000000000000000000006001600160a01b03166372d6724a6040518163ffffffff1660e01b8152600401602060405180830381865afa1580156126db573d6000803e3d6000fd5b505050506040513d601f19601f820116820180604052508101906126ff9190615d75565b6001600160a01b0316635df8d1686040518163ffffffff1660e01b8152600401602060405180830381865afa15801561273c573d6000803e3d6000fd5b505050506040513d601f19601f820116820180604052508101906127609190615d75565b90507f00000000000000000000000000000000000000000000000000000000000000006001600160a01b0316816001600160a01b0316036128095760405162461bcd60e51b815260206004820152603b60248201527f4f43435f4d6f64756c61723a3a666f7277617264496e7465726573744b65657060448201527f65722829205f746f4173736574203d3d20737461626c65636f696e00000000006064820152608401610822565b6128387f0000000000000000000000000000000000000000000000000000000000000000826003548686613ec1565b6003546040516370a0823160e01b81523060048201526001600160a01b038316917f017e6867a47391d86a9cf1c73d71d0550d2219431ad2c0325b715f7e603a0c8a9183906370a0823190602401602060405180830381865afa1580156128a3573d6000803e3d6000fd5b505050506040513d601f19601f820116820180604052508101906128c79190615dd7565b6040805192835260208301919091520160405180910390a26129647f00000000000000000000000000000000000000000000000000000000000000006001600160a01b03166372d6724a6040518163ffffffff1660e01b8152600401602060405180830381865afa158015612940573d6000803e3d6000fd5b505050506040513d601f19601f820116820180604052508101906117599190615d75565b5050600060035550565b6000818152600460205260409020546001600160a01b0316336001600160a01b031614612a035760405162461bcd60e51b815260206004820152603a60248201527f4f43435f4d6f64756c61723a3a63616c6c4c6f616e2829205f6d736753656e6460448201527f6572282920213d206c6f616e735b69645d2e626f72726f7765720000000000006064820152608401610822565b60026000828152600460205260409020600a0154610100900460ff166006811115612a3057612a30615b5d565b14612aa35760405162461bcd60e51b815260206004820152603b60248201527f4f43435f4d6f64756c61723a3a63616c6c4c6f616e2829206c6f616e735b696460448201527f5d2e737461746520213d204c6f616e53746174652e41637469766500000000006064820152608401610822565b6000818152600460205260408120600101549080612ac084612cba565b509250925050837f0d8ffb93115b6e4936fd4b12c998bc38980df7a5f5d0cf6b3c800c1acd594caa828486612af59190615d62565b612aff9190615d62565b604080519182526020820187905281018590526060810184905260800160405180910390a27f00000000000000000000000000000000000000000000000000000000000000006001600160a01b03166372d6724a6040518163ffffffff1660e01b8152600401602060405180830381865afa158015612b82573d6000803e3d6000fd5b505050506040513d601f19601f82011682018060405250810190612ba69190615d75565b6001600160a01b0316635df8d1686040518163ffffffff1660e01b8152600401602060405180830381865afa158015612be3573d6000803e3d6000fd5b505050506040513d601f19601f82011682018060405250810190612c079190615d75565b6001600160a01b03167f00000000000000000000000000000000000000000000000000000000000000006001600160a01b031603612c4d57612c483361140d565b612c77565b612c5633611475565b612c608183615d62565b60036000828254612c719190615d62565b90915550505b612c80336114a6565b50505060009081526004602081905260408220600181018390559081018290556005810191909155600a01805461ff001916610300179055565b6000818152600460205260408120600a0154819081908190810b8103612e4757600085815260046020526040902060050154600103612d085760008581526004602052604090206001015493505b612d186127106301e13380615e6f565b6000868152600460205260409020600281015460078201546001909201549091612d4191615e6f565b612d4b9190615e6f565b612d559190615e8e565b6000868152600460208190526040909120015490935042118015612da3575060026000868152600460205260409020600a0154610100900460ff166006811115612da157612da1615b5d565b145b15612e2b57612db86127106301e13380615e6f565b60008681526004602052604090206003810154600290910154612ddb9190615d62565b60008781526004602081905260409091200154612df89042615d4f565b600088815260046020526040902060010154612e149190615e6f565b612e1e9190615e6f565b612e289190615e8e565b91505b81612e368486615d62565b612e409190615d62565b9050612fa7565b612e576127106301e13380615e6f565b6000868152600460205260409020600281015460078201546001909201549091612e8091615e6f565b612e8a9190615e6f565b612e949190615e8e565b6000868152600460208190526040909120015490935042118015612ee2575060026000868152600460205260409020600a0154610100900460ff166006811115612ee057612ee0615b5d565b145b15612f6a57612ef76127106301e13380615e6f565b60008681526004602052604090206003810154600290910154612f1a9190615d62565b60008781526004602081905260409091200154612f379042615d4f565b600088815260046020526040902060010154612f539190615e6f565b612f5d9190615e6f565b612f679190615e8e565b91505b60008581526004602052604090206005810154600190910154612f8d9190615e8e565b935081612f9a8486615d62565b612fa49190615d62565b90505b9193509193565b6001546001600160a01b0316336001600160a01b031614612fe15760405162461bcd60e51b815260040161082290615df0565b60066000828152600460205260409020600a0154610100900460ff16600681111561300e5761300e615b5d565b146130815760405162461bcd60e51b815260206004820152603f60248201527f4f43435f4d6f64756c61723a3a6d61726b5265706169642829206c6f616e735b60448201527f69645d2e737461746520213d204c6f616e53746174652e5265736f6c766564006064820152608401610822565b60405181907f2a2fdae8d2b224badb596c7192d6bb8eaeac464eb5e0532029bf9515b21f46bb90600090a26000818152600460205260409020600a0180546003919061ff00191661010083610bb1565b6130d9613d50565b60005b8381101561315d5761314b6130f96000546001600160a01b031690565b3085858581811061310c5761310c615cc4565b9050602002013588888681811061312557613125615cc4565b905060200201602081019061313a9190615817565b6001600160a01b0316929190613dd0565b8061315581615d36565b9150506130dc565b5050505050565b61316c613d50565b6131926131816000546001600160a01b031690565b6001600160a01b0384169083613e91565b6003546040516370a0823160e01b81523060048201527f00000000000000000000000000000000000000000000000000000000000000006001600160a01b0316906370a0823190602401602060405180830381865afa1580156131f9573d6000803e3d6000fd5b505050506040513d601f19601f8201168201806040525081019061321d9190615dd7565b1015611d9d576040516370a0823160e01b81523060048201527f00000000000000000000000000000000000000000000000000000000000000006001600160a01b0316906370a0823190602401602060405180830381865afa158015613287573d6000803e3d6000fd5b505050506040513d601f19601f820116820180604052508101906132ab9190615dd7565b6003555050565b60026000828152600460205260409020600a0154610100900460ff1660068111156132df576132df615b5d565b146133525760405162461bcd60e51b815260206004820152603e60248201527f4f43435f4d6f64756c61723a3a6d61726b44656661756c742829206c6f616e7360448201527f5b69645d2e737461746520213d204c6f616e53746174652e41637469766500006064820152608401610822565b60008181526004602081905260409091206009810154910154429161337691615d62565b1061340f5760405162461bcd60e51b815260206004820152605c60248201527f4f43435f4d6f64756c61723a3a6d61726b44656661756c742829206c6f616e7360448201527f5b69645d2e7061796d656e744475654279202b206c6f616e735b69645d2e677260648201527f616365506572696f64203e3d20626c6f636b2e74696d657374616d7000000000608482015260a401610822565b807f3b8d553d551380ab97d8c695b9ea19ef243e08bc44cfefc59262b354867ad0d260046000848152602001908152602001600020600101547f00000000000000000000000000000000000000000000000000000000000000006001600160a01b031663edb7a6fa6040518163ffffffff1660e01b8152600401602060405180830381865afa1580156134a6573d6000803e3d6000fd5b505050506040513d601f19601f820116820180604052508101906134ca9190615dd7565b60008581526004602081905260409182902060010154915163dc3c1da560e01b81526001600160a01b037f0000000000000000000000000000000000000000000000000000000000000000169263dc3c1da59261355b927f000000000000000000000000000000000000000000000000000000000000000091019182526001600160a01b0316602082015260400190565b602060405180830381865afa158015613578573d6000803e3d6000fd5b505050506040513d601f19601f8201168201806040525081019061359c9190615dd7565b7f00000000000000000000000000000000000000000000000000000000000000006001600160a01b031663edb7a6fa6040518163ffffffff1660e01b8152600401602060405180830381865afa1580156135fa573d6000803e3d6000fd5b505050506040513d601f19601f8201168201806040525081019061361e9190615dd7565b6136289190615d62565b6040805193845260208401929092529082015260600160405180910390a2600081815260046020819052604091829020600a8101805461040061ff001990911617905560010154915163dc3c1da560e01b8152908101919091526001600160a01b037f0000000000000000000000000000000000000000000000000000000000000000811660248301527f000000000000000000000000000000000000000000000000000000000000000016906359e269ee90829063dc3c1da590604401602060405180830381865afa158015613703573d6000803e3d6000fd5b505050506040513d601f19601f820116820180604052508101906137279190615dd7565b6040518263ffffffff1660e01b815260040161374591815260200190565b600060405180830381600087803b15801561375f57600080fd5b505af115801561315d573d6000803e3d6000fd5b60066000838152600460205260409020600a0154610100900460ff1660068111156137a0576137a0615b5d565b1461381f5760405162461bcd60e51b815260206004820152604360248201527f4f43435f4d6f64756c61723a3a737570706c79496e7465726573742829206c6f60448201527f616e735b69645d2e737461746520213d204c6f616e53746174652e5265736f6c6064820152621d995960ea1b608482015260a401610822565b604051818152339083907f48553440463342ea69fd346ab316f094939577d42fcd3810f0cdc03cadbc13c89060200160405180910390a37f00000000000000000000000000000000000000000000000000000000000000006001600160a01b03166372d6724a6040518163ffffffff1660e01b8152600401602060405180830381865afa1580156138b4573d6000803e3d6000fd5b505050506040513d601f19601f820116820180604052508101906138d89190615d75565b6001600160a01b0316635df8d1686040518163ffffffff1660e01b8152600401602060405180830381865afa158015613915573d6000803e3d6000fd5b505050506040513d601f19601f820116820180604052508101906139399190615d75565b6001600160a01b03167f00000000000000000000000000000000000000000000000000000000000000006001600160a01b0316036139f757611d9d337f00000000000000000000000000000000000000000000000000000000000000006001600160a01b03166372d6724a6040518163ffffffff1660e01b8152600401602060405180830381865afa1580156139d3573d6000803e3d6000fd5b505050506040513d601f19601f820116820180604052508101906122b69190615d75565b613a2c7f00000000000000000000000000000000000000000000000000000000000000006001600160a01b0316333084613dd0565b8060036000828254613a3e9190615d62565b90915550505050565b613a4f613d50565b600054600160a01b900460ff1615613a795760405162461bcd60e51b815260040161082290615d92565b6001600160a01b038116613af55760405162461bcd60e51b815260206004820152603e60248201527f5a69766f654f776e61626c654c6f636b65643a3a7472616e736665724f776e6560448201527f72736869702829206e65774f776e6572203d3d206164647265737328302900006064820152608401610822565b61158f81613e41565b613b06613d50565b60405162461bcd60e51b815260206004820152603460248201527f5a69766f654c6f636b65723a3a70757368546f4c6f636b6572455243313135356044820152732829202163616e5075736845524331313535282960601b6064820152608401610822565b613b73613d50565b60005b8381101561315d57613bbe613b936000546001600160a01b031690565b848484818110613ba557613ba5615cc4565b9050602002013587878581811061165d5761165d615cc4565b7f00000000000000000000000000000000000000000000000000000000000000006001600160a01b0316858583818110613bfa57613bfa615cc4565b9050602002016020810190613c0f9190615817565b6001600160a01b0316148015613cad57506003546040516370a0823160e01b81523060048201527f00000000000000000000000000000000000000000000000000000000000000006001600160a01b0316906370a0823190602401602060405180830381865afa158015613c87573d6000803e3d6000fd5b505050506040513d601f19601f82011682018060405250810190613cab9190615dd7565b105b15613d3e576040516370a0823160e01b81523060048201527f00000000000000000000000000000000000000000000000000000000000000006001600160a01b0316906370a0823190602401602060405180830381865afa158015613d16573d6000803e3d6000fd5b505050506040513d601f19601f82011682018060405250810190613d3a9190615dd7565b6003555b80613d4881615d36565b915050613b76565b6000546001600160a01b0316331461173a5760405162461bcd60e51b815260206004820152603760248201527f5a69766f654f776e61626c654c6f636b65643a3a5f636865636b4f776e65722060448201527f6f776e6572282920213d205f6d736753656e64657228290000000000000000006064820152608401610822565b6040516001600160a01b0380851660248301528316604482015260648101829052613e3b9085906323b872dd60e01b906084015b60408051601f198184030181529190526020810180516001600160e01b03166001600160e01b031990931692909217909152613ece565b50505050565b600080546001600160a01b038381166001600160a01b0319831681178455604051919092169283917f8be0079c531659141344cd1fd0a4f28419497f9722a3daafe3b4186f6b6457e09190a35050565b6040516001600160a01b0383166024820152604481018290526116f990849063a9059cbb60e01b90606401613e04565b61315d8585858585613fa0565b6000613f23826040518060400160405280602081526020017f5361666545524332303a206c6f772d6c6576656c2063616c6c206661696c6564815250856001600160a01b03166141519092919063ffffffff16565b8051909150156116f95780806020019051810190613f419190615e4d565b6116f95760405162461bcd60e51b815260206004820152602a60248201527f5361666545524332303a204552433230206f7065726174696f6e20646964206e6044820152691bdd081cdd58d8d9595960b21b6064820152608401610822565b6000613faf6004828486615eb0565b613fb891615eda565b90506241fed760e91b6001600160e01b0319821601613fe357613fde8383888888614160565b614077565b630ddb7ee960e11b6001600160e01b031982160161400857613fde838388888861438d565b631a2d492760e31b6001600160e01b031982160161402d57613fde838388888861492b565b632f5c499b60e01b6001600160e01b031982160161405257613fde8383888888614f53565b6327de773f60e11b6001600160e01b031982160161032757613fde8383888888615107565b60007f00000000000000000000000000000000000000000000000000000000000000006001600160a01b031684846040516140b3929190615f0a565b6000604051808303816000865af19150503d80600081146140f0576040519150601f19603f3d011682016040523d82523d6000602084013e6140f5565b606091505b50509050806109ae5760405162461bcd60e51b815260206004820152602260248201527f5a69766f65537761707065723a3a636f6e766572744173736574282920217375604482015261636360f01b6064820152608401610822565b606061083e8484600085615279565b600061416f8560048189615eb0565b81019061417c9190615f1a565b50915050836001600160a01b031681600001516001600160a01b03161461420c5760405162461bcd60e51b815260206004820152604a60248201526000805160206162a883398151915260448201527f376330323532303028292061646472657373285f622e737263546f6b656e2920606482015269109e9030b9b9b2ba24b760b11b608482015260a401610822565b826001600160a01b031681602001516001600160a01b0316146142995760405162461bcd60e51b815260206004820152604b60248201526000805160206162a883398151915260448201527f376330323532303028292061646472657373285f622e647374546f6b656e292060648201526a084f48185cdcd95d13dd5d60aa1b608482015260a401610822565b81816080015114614302576040805162461bcd60e51b81526020600482015260248101919091526000805160206162a883398151915260448201527f37633032353230302829205f622e616d6f756e7420213d20616d6f756e74496e6064820152608401610822565b60608101516001600160a01b031630146143855760405162461bcd60e51b815260206004820152604a60248201526000805160206162a883398151915260448201527f37633032353230302829205f622e647374526563656976657220213d206164646064820152697265737328746869732960b01b608482015260a401610822565b505050505050565b60008061439d866004818a615eb0565b8101906143aa9190616020565b92505091508282146144125760405162461bcd60e51b815260206004820152603960248201526000805160206162a883398151915260448201527f65343439303232652829205f6120213d20616d6f756e74496e000000000000006064820152608401610822565b6000600160ff1b8260008151811061442c5761442c615cc4565b60200260200101511660001490506000600160ff1b83600185516144509190615d4f565b8151811061446057614460615cc4565b6020026020010151166000149050811561459157866001600160a01b03168360008151811061449157614491615cc4565b60200260200101516001600160a01b0316630dfe16816040518163ffffffff1660e01b8152600401602060405180830381865afa1580156144d6573d6000803e3d6000fd5b505050506040513d601f19601f820116820180604052508101906144fa9190615d75565b6001600160a01b03161461458c5760405162461bcd60e51b815260206004820152607c60248201526000805160206162a883398151915260448201526000805160206162e8833981519152606482015260008051602061630883398151915260848201527f635b305d292929292e746f6b656e30282920213d206173736574496e0000000060a482015260c401610822565b6146a9565b866001600160a01b0316836000815181106145ae576145ae615cc4565b60200260200101516001600160a01b031663d21220a76040518163ffffffff1660e01b8152600401602060405180830381865afa1580156145f3573d6000803e3d6000fd5b505050506040513d601f19601f820116820180604052508101906146179190615d75565b6001600160a01b0316146146a95760405162461bcd60e51b815260206004820152607c60248201526000805160206162a883398151915260448201526000805160206162e8833981519152606482015260008051602061630883398151915260848201527f635b305d292929292e746f6b656e31282920213d206173736574496e0000000060a482015260c401610822565b80156147ea57856001600160a01b031683600185516146c89190615d4f565b815181106146d8576146d8615cc4565b60200260200101516001600160a01b031663d21220a76040518163ffffffff1660e01b8152600401602060405180830381865afa15801561471d573d6000803e3d6000fd5b505050506040513d601f19601f820116820180604052508101906147419190615d75565b6001600160a01b0316146147e55760405162461bcd60e51b815260206004820152608960248201526000805160206162a883398151915260448201526000805160206162e8833981519152606482015260008051602061630883398151915260848201527f635b5f632e6c656e677468202d20315d292929292e746f6b656e31282920213d60a48201526808185cdcd95d13dd5d60ba1b60c482015260e401610822565b614920565b856001600160a01b031683600185516148039190615d4f565b8151811061481357614813615cc4565b60200260200101516001600160a01b0316630dfe16816040518163ffffffff1660e01b8152600401602060405180830381865afa158015614858573d6000803e3d6000fd5b505050506040513d601f19601f8201168201806040525081019061487c9190615d75565b6001600160a01b0316146149205760405162461bcd60e51b815260206004820152608960248201526000805160206162a883398151915260448201526000805160206162e8833981519152606482015260008051602061630883398151915260848201527f635b5f632e6c656e677468202d20315d292929292e746f6b656e30282920213d60a48201526808185cdcd95d13dd5d60ba1b60c482015260e401610822565b505050505050505050565b6000808061493c876004818b615eb0565b8101906149499190616065565b93505092509250856001600160a01b0316836001600160a01b0316146149c55760405162461bcd60e51b815260206004820152603860248201526000805160206162a883398151915260448201527f32653935623663382829205f6120213d206173736574496e00000000000000006064820152608401610822565b838214614a285760405162461bcd60e51b815260206004820152603960248201526000805160206162a883398151915260448201527f32653935623663382829205f6220213d20616d6f756e74496e000000000000006064820152608401610822565b600080600083600081518110614a4057614a40615cc4565b6020026020010151905060008460018651614a5b9190615d4f565b81518110614a6b57614a6b615cc4565b60200260200101519050600160ff1b82169350600160ff1b811692508315614bad57896001600160a01b031685600081518110614aaa57614aaa615cc4565b602002602001015160001c6001600160a01b031663d21220a76040518163ffffffff1660e01b8152600401602060405180830381865afa158015614af2573d6000803e3d6000fd5b505050506040513d601f19601f82011682018060405250810190614b169190615d75565b6001600160a01b031614614ba85760405162461bcd60e51b815260206004820152607c60248201526000805160206162a883398151915260448201526000805160206162c8833981519152606482015260008051602061630883398151915260848201527f645b305d292929292e746f6b656e31282920213d206173736574496e0000000060a482015260c401610822565b614cc8565b896001600160a01b031685600081518110614bca57614bca615cc4565b602002602001015160001c6001600160a01b0316630dfe16816040518163ffffffff1660e01b8152600401602060405180830381865afa158015614c12573d6000803e3d6000fd5b505050506040513d601f19601f82011682018060405250810190614c369190615d75565b6001600160a01b031614614cc85760405162461bcd60e51b815260206004820152607c60248201526000805160206162a883398151915260448201526000805160206162c8833981519152606482015260008051602061630883398151915260848201527f645b305d292929292e746f6b656e30282920213d206173736574496e0000000060a482015260c401610822565b8215614e0c57886001600160a01b03168560018751614ce79190615d4f565b81518110614cf757614cf7615cc4565b602002602001015160001c6001600160a01b0316630dfe16816040518163ffffffff1660e01b8152600401602060405180830381865afa158015614d3f573d6000803e3d6000fd5b505050506040513d601f19601f82011682018060405250810190614d639190615d75565b6001600160a01b031614614e075760405162461bcd60e51b815260206004820152608960248201526000805160206162a883398151915260448201526000805160206162c8833981519152606482015260008051602061630883398151915260848201527f645b5f642e6c656e677468202d20315d292929292e746f6b656e30282920213d60a48201526808185cdcd95d13dd5d60ba1b60c482015260e401610822565b614f45565b886001600160a01b03168560018751614e259190615d4f565b81518110614e3557614e35615cc4565b602002602001015160001c6001600160a01b031663d21220a76040518163ffffffff1660e01b8152600401602060405180830381865afa158015614e7d573d6000803e3d6000fd5b505050506040513d601f19601f82011682018060405250810190614ea19190615d75565b6001600160a01b031614614f455760405162461bcd60e51b815260206004820152608960248201526000805160206162a883398151915260448201526000805160206162c8833981519152606482015260008051602061630883398151915260848201527f645b5f642e6c656e677468202d20315d292929292e746f6b656e31282920213d60a48201526808185cdcd95d13dd5d60ba1b60c482015260e401610822565b505050505050505050505050565b6000614f628560048189615eb0565b810190614f6f919061611b565b5050509050836001600160a01b031681604001516001600160a01b0316146150025760405162461bcd60e51b815260206004820152604c60248201526000805160206162a883398151915260448201527f643061336236363528292061646472657373285f612e74616b6572417373657460648201526b1490109e9030b9b9b2ba24b760a11b608482015260a401610822565b826001600160a01b031681602001516001600160a01b0316146150915760405162461bcd60e51b815260206004820152604d60248201526000805160206162a883398151915260448201527f643061336236363528292061646472657373285f612e6d616b6572417373657460648201526c0a48084f48185cdcd95d13dd5d609a1b608482015260a401610822565b818160c00151146143855760405162461bcd60e51b815260206004820152604660248201526000805160206162a883398151915260448201527f64306133623636352829205f612e74616b696e67416d6f756e7420213d20616d60648201526537bab73a24b760d11b608482015260a401610822565b60008080615118876004818b615eb0565b81019061512591906161ee565b50925092509250856001600160a01b0316836001600160a01b0316146151a15760405162461bcd60e51b815260206004820152603860248201526000805160206162a883398151915260448201527f62303433313138322829205f6120213d206173736574496e00000000000000006064820152608401610822565b846001600160a01b0316826001600160a01b0316146152165760405162461bcd60e51b815260206004820152603960248201526000805160206162a883398151915260448201527f62303433313138322829205f6220213d2061737365744f7574000000000000006064820152608401610822565b83811461082b5760405162461bcd60e51b815260206004820152603960248201526000805160206162a883398151915260448201527f62303433313138322829205f6320213d20616d6f756e74496e000000000000006064820152608401610822565b6060824710156152da5760405162461bcd60e51b815260206004820152602660248201527f416464726573733a20696e73756666696369656e742062616c616e636520666f6044820152651c8818d85b1b60d21b6064820152608401610822565b600080866001600160a01b031685876040516152f69190616258565b60006040518083038185875af1925050503d8060008114615333576040519150601f19603f3d011682016040523d82523d6000602084013e615338565b606091505b509150915061534987838387615354565b979650505050505050565b606083156153c35782516000036153bc576001600160a01b0385163b6153bc5760405162461bcd60e51b815260206004820152601d60248201527f416464726573733a2063616c6c20746f206e6f6e2d636f6e74726163740000006044820152606401610822565b508161083e565b61083e83838151156153d85781518083602001fd5b8060405162461bcd60e51b81526004016108229190616274565b604051806101400160405280600a906020820280368337509192915050565b60006020828403121561542357600080fd5b81356001600160e01b03198116811461543b57600080fd5b9392505050565b6001600160a01b038116811461158f57600080fd5b803561546281615442565b919050565b60008083601f84011261547957600080fd5b5081356001600160401b0381111561549057600080fd5b6020830191508360208285010111156154a857600080fd5b9250929050565b600080600080606085870312156154c557600080fd5b84356154d081615442565b93506020850135925060408501356001600160401b038111156154f257600080fd5b6154fe87828801615467565b95989497509550505050565b634e487b7160e01b600052604160045260246000fd5b60405161010081016001600160401b03811182821017156155435761554361550a565b60405290565b60405160e081016001600160401b03811182821017156155435761554361550a565b604051601f8201601f191681016001600160401b03811182821017156155935761559361550a565b604052919050565b600082601f8301126155ac57600080fd5b81356001600160401b038111156155c5576155c561550a565b6155d8601f8201601f191660200161556b565b8181528460208386010111156155ed57600080fd5b816020850160208301376000918101602001919091529392505050565b6000806000806080858703121561562057600080fd5b843561562b81615442565b9350602085013561563b81615442565b92506040850135915060608501356001600160401b0381111561565d57600080fd5b6156698782880161559b565b91505092959194509250565b60008083601f84011261568757600080fd5b5081356001600160401b0381111561569e57600080fd5b6020830191508360208260051b85010111156154a857600080fd5b600080600080600080606087890312156156d257600080fd5b86356001600160401b03808211156156e957600080fd5b6156f58a838b01615675565b9098509650602089013591508082111561570e57600080fd5b61571a8a838b01615675565b9096509450604089013591508082111561573357600080fd5b5061574089828a01615675565b979a9699509497509295939492505050565b60006020828403121561576457600080fd5b5035919050565b60008060008060008060006080888a03121561578657600080fd5b873561579181615442565b965060208801356001600160401b03808211156157ad57600080fd5b6157b98b838c01615675565b909850965060408a01359150808211156157d257600080fd5b6157de8b838c01615675565b909650945060608a01359150808211156157f757600080fd5b506158048a828b01615467565b989b979a50959850939692959293505050565b60006020828403121561582957600080fd5b813561543b81615442565b6000806020838503121561584757600080fd5b82356001600160401b0381111561585d57600080fd5b61586985828601615675565b90969095509350505050565b600080600080600080600080610100898b03121561589257600080fd5b883561589d81615442565b97506020890135965060408901359550606089013594506080890135935060a0890135925060c0890135915060e0890135600081900b81146158de57600080fd5b809150509295985092959890939650565b6001600160a01b0384168152600083810b602080840191909152610180830191604084019085905b600a81101561593457815183529183019190830190600101615917565b50505050949350505050565b6000806040838503121561595357600080fd5b823561595e81615442565b946020939093013593505050565b6000806040838503121561597f57600080fd5b50508035926020909101359150565b60006001600160401b038211156159a7576159a761550a565b5060051b60200190565b600082601f8301126159c257600080fd5b813560206159d76159d28361598e565b61556b565b82815260059290921b840181019181810190868411156159f657600080fd5b8286015b84811015615a1157803583529183019183016159fa565b509695505050505050565b600080600080600060a08688031215615a3457600080fd5b8535615a3f81615442565b94506020860135615a4f81615442565b935060408601356001600160401b0380821115615a6b57600080fd5b615a7789838a016159b1565b94506060880135915080821115615a8d57600080fd5b615a9989838a016159b1565b93506080880135915080821115615aaf57600080fd5b50615abc8882890161559b565b9150509295509295909350565b60008060208385031215615adc57600080fd5b82356001600160401b03811115615af257600080fd5b61586985828601615467565b60008060008060408587031215615b1457600080fd5b84356001600160401b0380821115615b2b57600080fd5b615b3788838901615675565b90965094506020870135915080821115615b5057600080fd5b506154fe87828801615675565b634e487b7160e01b600052602160045260246000fd5b60006101808201905060018060a01b038e1682528c60208301528b60408301528a60608301528960808301528860a08301528760c08301528660e083015285610100830152846101208301528360000b61014083015260078310615be757634e487b7160e01b600052602160045260246000fd5b826101608301529d9c50505050505050505050505050565b600080600080600060a08688031215615c1757600080fd5b8535615c2281615442565b94506020860135615c3281615442565b9350604086013592506060860135915060808601356001600160401b03811115615c5b57600080fd5b615abc8882890161559b565b81835281816020850137506000828201602090810191909152601f909101601f19169091010190565b6001600160a01b03868116825285166020820152604081018490526080606082018190526000906153499083018486615c67565b634e487b7160e01b600052603260045260246000fd5b6000808335601e19843603018112615cf157600080fd5b8301803591506001600160401b03821115615d0b57600080fd5b6020019150368190038213156154a857600080fd5b634e487b7160e01b600052601160045260246000fd5b600060018201615d4857615d48615d20565b5060010190565b818103818111156107b3576107b3615d20565b808201808211156107b3576107b3615d20565b600060208284031215615d8757600080fd5b815161543b81615442565b60208082526025908201527f5a69766f654f776e61626c654c6f636b65643a3a756e6c6f636b65642829206c6040820152641bd8dad95960da1b606082015260800190565b600060208284031215615de957600080fd5b5051919050565b60208082526038908201527f4f43435f4d6f64756c61723a3a6973556e6465727772697465722829205f6d7360408201527f6753656e646572282920213d20756e6465727772697465720000000000000000606082015260800190565b600060208284031215615e5f57600080fd5b8151801515811461543b57600080fd5b6000816000190483118215151615615e8957615e89615d20565b500290565b600082615eab57634e487b7160e01b600052601260045260246000fd5b500490565b60008085851115615ec057600080fd5b83861115615ecd57600080fd5b5050820193919092039150565b6001600160e01b03198135818116916004851015615f025780818660040360031b1b83161692505b505092915050565b8183823760009101908152919050565b600080600060608486031215615f2f57600080fd5b8335615f3a81615442565b925060208401356001600160401b0380821115615f5657600080fd5b908501906101008288031215615f6b57600080fd5b615f73615520565b615f7c83615457565b8152615f8a60208401615457565b6020820152615f9b60408401615457565b6040820152615fac60608401615457565b60608201526080830135608082015260a083013560a082015260c083013560c082015260e083013582811115615fe157600080fd5b615fed8982860161559b565b60e0830152509350604086013591508082111561600957600080fd5b506160168682870161559b565b9150509250925092565b60008060006060848603121561603557600080fd5b833592506020840135915060408401356001600160401b0381111561605957600080fd5b616016868287016159b1565b6000806000806080858703121561607b57600080fd5b843561608681615442565b935060208581013593506040860135925060608601356001600160401b038111156160b057600080fd5b8601601f810188136160c157600080fd5b80356160cf6159d28261598e565b81815260059190911b8201830190838101908a8311156160ee57600080fd5b928401925b8284101561610c578335825292840192908401906160f3565b979a9699509497505050505050565b60008060008084860361014081121561613357600080fd5b60e081121561614157600080fd5b5061614a615549565b85358152602086013561615c81615442565b6020820152604086013561616f81615442565b6040820152606086013561618281615442565b6060820152608086013561619581615442565b608082015260a0868101359082015260c08087013590820152935060e08501356001600160401b038111156161c957600080fd5b6161d58782880161559b565b9497949650505050610100830135926101200135919050565b6000806000806080858703121561620457600080fd5b843561620f81615442565b9350602085013561621f81615442565b93969395505050506040820135916060013590565b60005b8381101561624f578181015183820152602001616237565b50506000910152565b6000825161626a818460208701616234565b9190910192915050565b6020815260008251806020840152616293816040850160208701616234565b601f01601f1916919091016040019291505056fe5a69766f65537761707065723a3a68616e646c655f76616c69646174696f6e5f326539356236633828292049556e69737761705632506f6f6c5f5a69766f6553653434393032326528292049556e69737761705633506f6f6c5f5a69766f655377617070657228616464726573732875696e743136302875696e74323536285fa26469706673582212206315318cff1638900eceb26a9db2c18b8c31899ccbda7a66f7cd39512186e8e364736f6c63430008100033",
    "linkReferences": {}
  },
  "methodIdentifiers": {
    "GBL()": "3ce8d432",
    "amountForConversion()": "d2abc6ef",
    "amountOwed(uint256)": "c230eec4",
    "callLoan(uint256)": "c008c1c2",
    "canPull()": "215cccdd",
    "canPullERC1155()": "b0607cf8",
    "canPullERC721()": "3c117244",
    "canPullMulti()": "3eda81ad",
    "canPullMultiERC721()": "1852b383",
    "canPullMultiPartial()": "2f08d48b",
    "canPullPartial()": "64c77735",
    "canPush()": "e7f44629",
    "canPushERC1155()": "cf10b7ab",
    "canPushERC721()": "8b648ee2",
    "canPushMulti()": "a4a3e79d",
    "canPushMultiERC721()": "dd913bdb",
    "cancelRequest(uint256)": "3015394c",
    "counterID()": "64efbb77",
    "forwardInterestKeeper(bytes)": "bca31ca4",
    "fundLoan(uint256)": "846b909a",
    "loanInfo(uint256)": "8349d6be",
    "loans(uint256)": "e1ec3c68",
    "locked()": "cf309012",
    "makePayment(uint256)": "5114cb52",
    "markDefault(uint256)": "e1d927c8",
    "markRepaid(uint256)": "c701c994",
    "onERC1155BatchReceived(address,address,uint256[],uint256[],bytes)": "bc197c81",
    "onERC1155Received(address,address,uint256,uint256,bytes)": "f23a6e61",
    "onERC721Received(address,address,uint256,bytes)": "150b7a02",
    "owner()": "8da5cb5b",
    "processPayment(uint256)": "3a2f8485",
    "pullFromLocker(address)": "7dbcdbc1",
    "pullFromLockerERC1155(address,uint256[],uint256[],bytes)": "422b2018",
    "pullFromLockerERC721(address,uint256,bytes)": "12052176",
    "pullFromLockerMulti(address[])": "607cd649",
    "pullFromLockerMultiERC721(address[],uint256[],bytes[])": "15e98744",
    "pullFromLockerMultiPartial(address[],uint256[])": "ff0459ba",
    "pullFromLockerPartial(address,uint256)": "d9821e3b",
    "pushToLocker(address,uint256)": "84476591",
    "pushToLockerERC1155(address,uint256[],uint256[],bytes)": "fd76f59d",
    "pushToLockerERC721(address,uint256,bytes)": "1d9389e9",
    "pushToLockerMulti(address[],uint256[])": "c9c6a414",
    "pushToLockerMultiERC721(address[],uint256[],bytes[])": "b892bcc0",
    "renounceOwnership()": "715018a6",
    "requestLoan(address,uint256,uint256,uint256,uint256,uint256,uint256,int8)": "803f97f1",
    "resolveDefault(uint256,uint256)": "888a9e2b",
    "router1INCH_V4()": "19ce95f4",
    "stablecoin()": "e9cbd822",
    "supplyInterest(uint256,uint256)": "e2d3a0fe",
    "supportsInterface(bytes4)": "01ffc9a7",
    "transferOwnership(address)": "f2fde38b",
    "transferOwnershipAndLock(address)": "58289c7e",
    "underwriter()": "f00db260"
  },
  "id": 74
}