{
  "abi": [
    {
      "inputs": [
        {
          "internalType": "address",
          "name": "_GBL",
          "type": "address"
        }
      ],
      "stateMutability": "nonpayable",
      "type": "constructor"
    },
    {
      "anonymous": false,
      "inputs": [
        {
          "indexed": true,
          "internalType": "address",
          "name": "previousOwner",
          "type": "address"
        },
        {
          "indexed": true,
          "internalType": "address",
          "name": "newOwner",
          "type": "address"
        }
      ],
      "name": "OwnershipTransferred",
      "type": "event"
    },
    {
      "anonymous": false,
      "inputs": [
        {
          "indexed": true,
          "internalType": "address",
          "name": "previousOwner",
          "type": "address"
        },
        {
          "indexed": true,
          "internalType": "address",
          "name": "newOwner",
          "type": "address"
        }
      ],
      "name": "OwnershipTransferredAndLocked",
      "type": "event"
    },
    {
      "anonymous": false,
      "inputs": [
        {
          "indexed": true,
          "internalType": "address",
          "name": "locker",
          "type": "address"
        },
        {
          "indexed": true,
          "internalType": "address",
          "name": "asset",
          "type": "address"
        }
      ],
      "name": "Pulled",
      "type": "event"
    },
    {
      "anonymous": false,
      "inputs": [
        {
          "indexed": true,
          "internalType": "address",
          "name": "locker",
          "type": "address"
        },
        {
          "indexed": true,
          "internalType": "address",
          "name": "asset",
          "type": "address"
        },
        {
          "indexed": false,
          "internalType": "uint256[]",
          "name": "ids",
          "type": "uint256[]"
        },
        {
          "indexed": false,
          "internalType": "uint256[]",
          "name": "amounts",
          "type": "uint256[]"
        },
        {
          "indexed": false,
          "internalType": "bytes",
          "name": "data",
          "type": "bytes"
        }
      ],
      "name": "PulledERC1155",
      "type": "event"
    },
    {
      "anonymous": false,
      "inputs": [
        {
          "indexed": true,
          "internalType": "address",
          "name": "locker",
          "type": "address"
        },
        {
          "indexed": true,
          "internalType": "address",
          "name": "asset",
          "type": "address"
        },
        {
          "indexed": true,
          "internalType": "uint256",
          "name": "tokenId",
          "type": "uint256"
        },
        {
          "indexed": false,
          "internalType": "bytes",
          "name": "data",
          "type": "bytes"
        }
      ],
      "name": "PulledERC721",
      "type": "event"
    },
    {
      "anonymous": false,
      "inputs": [
        {
          "indexed": true,
          "internalType": "address",
          "name": "locker",
          "type": "address"
        },
        {
          "indexed": false,
          "internalType": "address[]",
          "name": "assets",
          "type": "address[]"
        }
      ],
      "name": "PulledMulti",
      "type": "event"
    },
    {
      "anonymous": false,
      "inputs": [
        {
          "indexed": true,
          "internalType": "address",
          "name": "locker",
          "type": "address"
        },
        {
          "indexed": false,
          "internalType": "address[]",
          "name": "assets",
          "type": "address[]"
        },
        {
          "indexed": false,
          "internalType": "uint256[]",
          "name": "tokenIds",
          "type": "uint256[]"
        },
        {
          "indexed": false,
          "internalType": "bytes[]",
          "name": "data",
          "type": "bytes[]"
        }
      ],
      "name": "PulledMultiERC721",
      "type": "event"
    },
    {
      "anonymous": false,
      "inputs": [
        {
          "indexed": true,
          "internalType": "address",
          "name": "locker",
          "type": "address"
        },
        {
          "indexed": false,
          "internalType": "address[]",
          "name": "assets",
          "type": "address[]"
        },
        {
          "indexed": false,
          "internalType": "uint256[]",
          "name": "amounts",
          "type": "uint256[]"
        }
      ],
      "name": "PulledMultiPartial",
      "type": "event"
    },
    {
      "anonymous": false,
      "inputs": [
        {
          "indexed": true,
          "internalType": "address",
          "name": "locker",
          "type": "address"
        },
        {
          "indexed": true,
          "internalType": "address",
          "name": "asset",
          "type": "address"
        },
        {
          "indexed": false,
          "internalType": "uint256",
          "name": "amount",
          "type": "uint256"
        }
      ],
      "name": "PulledPartial",
      "type": "event"
    },
    {
      "anonymous": false,
      "inputs": [
        {
          "indexed": true,
          "internalType": "address",
          "name": "locker",
          "type": "address"
        },
        {
          "indexed": true,
          "internalType": "address",
          "name": "asset",
          "type": "address"
        },
        {
          "indexed": false,
          "internalType": "uint256",
          "name": "amount",
          "type": "uint256"
        }
      ],
      "name": "Pushed",
      "type": "event"
    },
    {
      "anonymous": false,
      "inputs": [
        {
          "indexed": true,
          "internalType": "address",
          "name": "locker",
          "type": "address"
        },
        {
          "indexed": true,
          "internalType": "address",
          "name": "asset",
          "type": "address"
        },
        {
          "indexed": false,
          "internalType": "uint256[]",
          "name": "ids",
          "type": "uint256[]"
        },
        {
          "indexed": false,
          "internalType": "uint256[]",
          "name": "amounts",
          "type": "uint256[]"
        },
        {
          "indexed": false,
          "internalType": "bytes",
          "name": "data",
          "type": "bytes"
        }
      ],
      "name": "PushedERC1155",
      "type": "event"
    },
    {
      "anonymous": false,
      "inputs": [
        {
          "indexed": true,
          "internalType": "address",
          "name": "locker",
          "type": "address"
        },
        {
          "indexed": true,
          "internalType": "address",
          "name": "asset",
          "type": "address"
        },
        {
          "indexed": true,
          "internalType": "uint256",
          "name": "tokenId",
          "type": "uint256"
        },
        {
          "indexed": false,
          "internalType": "bytes",
          "name": "data",
          "type": "bytes"
        }
      ],
      "name": "PushedERC721",
      "type": "event"
    },
    {
      "anonymous": false,
      "inputs": [
        {
          "indexed": true,
          "internalType": "address",
          "name": "locker",
          "type": "address"
        },
        {
          "indexed": false,
          "internalType": "address[]",
          "name": "assets",
          "type": "address[]"
        },
        {
          "indexed": false,
          "internalType": "uint256[]",
          "name": "amounts",
          "type": "uint256[]"
        }
      ],
      "name": "PushedMulti",
      "type": "event"
    },
    {
      "anonymous": false,
      "inputs": [
        {
          "indexed": true,
          "internalType": "address",
          "name": "locker",
          "type": "address"
        },
        {
          "indexed": false,
          "internalType": "address[]",
          "name": "assets",
          "type": "address[]"
        },
        {
          "indexed": false,
          "internalType": "uint256[]",
          "name": "tokenIds",
          "type": "uint256[]"
        },
        {
          "indexed": false,
          "internalType": "bytes[]",
          "name": "data",
          "type": "bytes[]"
        }
      ],
      "name": "PushedMultiERC721",
      "type": "event"
    },
    {
      "inputs": [],
      "name": "GBL",
      "outputs": [
        {
          "internalType": "address",
          "name": "",
          "type": "address"
        }
      ],
      "stateMutability": "view",
      "type": "function"
    },
    {
      "inputs": [],
      "name": "locked",
      "outputs": [
        {
          "internalType": "bool",
          "name": "",
          "type": "bool"
        }
      ],
      "stateMutability": "view",
      "type": "function"
    },
    {
      "inputs": [
        {
          "internalType": "address",
          "name": "",
          "type": "address"
        },
        {
          "internalType": "address",
          "name": "",
          "type": "address"
        },
        {
          "internalType": "uint256[]",
          "name": "",
          "type": "uint256[]"
        },
        {
          "internalType": "uint256[]",
          "name": "",
          "type": "uint256[]"
        },
        {
          "internalType": "bytes",
          "name": "",
          "type": "bytes"
        }
      ],
      "name": "onERC1155BatchReceived",
      "outputs": [
        {
          "internalType": "bytes4",
          "name": "",
          "type": "bytes4"
        }
      ],
      "stateMutability": "nonpayable",
      "type": "function"
    },
    {
      "inputs": [
        {
          "internalType": "address",
          "name": "",
          "type": "address"
        },
        {
          "internalType": "address",
          "name": "",
          "type": "address"
        },
        {
          "internalType": "uint256",
          "name": "",
          "type": "uint256"
        },
        {
          "internalType": "uint256",
          "name": "",
          "type": "uint256"
        },
        {
          "internalType": "bytes",
          "name": "",
          "type": "bytes"
        }
      ],
      "name": "onERC1155Received",
      "outputs": [
        {
          "internalType": "bytes4",
          "name": "",
          "type": "bytes4"
        }
      ],
      "stateMutability": "nonpayable",
      "type": "function"
    },
    {
      "inputs": [
        {
          "internalType": "address",
          "name": "",
          "type": "address"
        },
        {
          "internalType": "address",
          "name": "",
          "type": "address"
        },
        {
          "internalType": "uint256",
          "name": "",
          "type": "uint256"
        },
        {
          "internalType": "bytes",
          "name": "",
          "type": "bytes"
        }
      ],
      "name": "onERC721Received",
      "outputs": [
        {
          "internalType": "bytes4",
          "name": "",
          "type": "bytes4"
        }
      ],
      "stateMutability": "nonpayable",
      "type": "function"
    },
    {
      "inputs": [],
      "name": "owner",
      "outputs": [
        {
          "internalType": "address",
          "name": "",
          "type": "address"
        }
      ],
      "stateMutability": "view",
      "type": "function"
    },
    {
      "inputs": [
        {
          "internalType": "address",
          "name": "locker",
          "type": "address"
        },
        {
          "internalType": "address",
          "name": "asset",
          "type": "address"
        }
      ],
      "name": "pull",
      "outputs": [],
      "stateMutability": "nonpayable",
      "type": "function"
    },
    {
      "inputs": [
        {
          "internalType": "address",
          "name": "locker",
          "type": "address"
        },
        {
          "internalType": "address",
          "name": "asset",
          "type": "address"
        },
        {
          "internalType": "uint256[]",
          "name": "ids",
          "type": "uint256[]"
        },
        {
          "internalType": "uint256[]",
          "name": "amounts",
          "type": "uint256[]"
        },
        {
          "internalType": "bytes",
          "name": "data",
          "type": "bytes"
        }
      ],
      "name": "pullERC1155Batch",
      "outputs": [],
      "stateMutability": "nonpayable",
      "type": "function"
    },
    {
      "inputs": [
        {
          "internalType": "address",
          "name": "locker",
          "type": "address"
        },
        {
          "internalType": "address",
          "name": "asset",
          "type": "address"
        },
        {
          "internalType": "uint256",
          "name": "tokenId",
          "type": "uint256"
        },
        {
          "internalType": "bytes",
          "name": "data",
          "type": "bytes"
        }
      ],
      "name": "pullERC721",
      "outputs": [],
      "stateMutability": "nonpayable",
      "type": "function"
    },
    {
      "inputs": [
        {
          "internalType": "address",
          "name": "locker",
          "type": "address"
        },
        {
          "internalType": "address[]",
          "name": "assets",
          "type": "address[]"
        }
      ],
      "name": "pullMulti",
      "outputs": [],
      "stateMutability": "nonpayable",
      "type": "function"
    },
    {
      "inputs": [
        {
          "internalType": "address",
          "name": "locker",
          "type": "address"
        },
        {
          "internalType": "address[]",
          "name": "assets",
          "type": "address[]"
        },
        {
          "internalType": "uint256[]",
          "name": "tokenIds",
          "type": "uint256[]"
        },
        {
          "internalType": "bytes[]",
          "name": "data",
          "type": "bytes[]"
        }
      ],
      "name": "pullMultiERC721",
      "outputs": [],
      "stateMutability": "nonpayable",
      "type": "function"
    },
    {
      "inputs": [
        {
          "internalType": "address",
          "name": "locker",
          "type": "address"
        },
        {
          "internalType": "address[]",
          "name": "assets",
          "type": "address[]"
        },
        {
          "internalType": "uint256[]",
          "name": "amounts",
          "type": "uint256[]"
        }
      ],
      "name": "pullMultiPartial",
      "outputs": [],
      "stateMutability": "nonpayable",
      "type": "function"
    },
    {
      "inputs": [
        {
          "internalType": "address",
          "name": "locker",
          "type": "address"
        },
        {
          "internalType": "address",
          "name": "asset",
          "type": "address"
        },
        {
          "internalType": "uint256",
          "name": "amount",
          "type": "uint256"
        }
      ],
      "name": "pullPartial",
      "outputs": [],
      "stateMutability": "nonpayable",
      "type": "function"
    },
    {
      "inputs": [
        {
          "internalType": "address",
          "name": "locker",
          "type": "address"
        },
        {
          "internalType": "address",
          "name": "asset",
          "type": "address"
        },
        {
          "internalType": "uint256",
          "name": "amount",
          "type": "uint256"
        }
      ],
      "name": "push",
      "outputs": [],
      "stateMutability": "nonpayable",
      "type": "function"
    },
    {
      "inputs": [
        {
          "internalType": "address",
          "name": "locker",
          "type": "address"
        },
        {
          "internalType": "address",
          "name": "asset",
          "type": "address"
        },
        {
          "internalType": "uint256[]",
          "name": "ids",
          "type": "uint256[]"
        },
        {
          "internalType": "uint256[]",
          "name": "amounts",
          "type": "uint256[]"
        },
        {
          "internalType": "bytes",
          "name": "data",
          "type": "bytes"
        }
      ],
      "name": "pushERC1155Batch",
      "outputs": [],
      "stateMutability": "nonpayable",
      "type": "function"
    },
    {
      "inputs": [
        {
          "internalType": "address",
          "name": "locker",
          "type": "address"
        },
        {
          "internalType": "address",
          "name": "asset",
          "type": "address"
        },
        {
          "internalType": "uint256",
          "name": "tokenId",
          "type": "uint256"
        },
        {
          "internalType": "bytes",
          "name": "data",
          "type": "bytes"
        }
      ],
      "name": "pushERC721",
      "outputs": [],
      "stateMutability": "nonpayable",
      "type": "function"
    },
    {
      "inputs": [
        {
          "internalType": "address",
          "name": "locker",
          "type": "address"
        },
        {
          "internalType": "address[]",
          "name": "assets",
          "type": "address[]"
        },
        {
          "internalType": "uint256[]",
          "name": "amounts",
          "type": "uint256[]"
        }
      ],
      "name": "pushMulti",
      "outputs": [],
      "stateMutability": "nonpayable",
      "type": "function"
    },
    {
      "inputs": [
        {
          "internalType": "address",
          "name": "locker",
          "type": "address"
        },
        {
          "internalType": "address[]",
          "name": "assets",
          "type": "address[]"
        },
        {
          "internalType": "uint256[]",
          "name": "tokenIds",
          "type": "uint256[]"
        },
        {
          "internalType": "bytes[]",
          "name": "data",
          "type": "bytes[]"
        }
      ],
      "name": "pushMultiERC721",
      "outputs": [],
      "stateMutability": "nonpayable",
      "type": "function"
    },
    {
      "inputs": [],
      "name": "renounceOwnership",
      "outputs": [],
      "stateMutability": "nonpayable",
      "type": "function"
    },
    {
      "inputs": [
        {
          "internalType": "bytes4",
          "name": "interfaceId",
          "type": "bytes4"
        }
      ],
      "name": "supportsInterface",
      "outputs": [
        {
          "internalType": "bool",
          "name": "",
          "type": "bool"
        }
      ],
      "stateMutability": "view",
      "type": "function"
    },
    {
      "inputs": [
        {
          "internalType": "address",
          "name": "newOwner",
          "type": "address"
        }
      ],
      "name": "transferOwnership",
      "outputs": [],
      "stateMutability": "nonpayable",
      "type": "function"
    },
    {
      "inputs": [
        {
          "internalType": "address",
          "name": "newOwner",
          "type": "address"
        }
      ],
      "name": "transferOwnershipAndLock",
      "outputs": [],
      "stateMutability": "nonpayable",
      "type": "function"
    }
  ],
  "bytecode": {
    "object": "0x60a06040523480156200001157600080fd5b506040516200367b3803806200367b8339810160408190526200003491620000a1565b6200003f3362000051565b6001600160a01b0316608052620000d3565b600080546001600160a01b038381166001600160a01b0319831681178455604051919092169283917f8be0079c531659141344cd1fd0a4f28419497f9722a3daafe3b4186f6b6457e09190a35050565b600060208284031215620000b457600080fd5b81516001600160a01b0381168114620000cc57600080fd5b9392505050565b60805161356962000112600039600081816101db015281816103c0015281816106e5015281816112b7015281816115710152611c2201526135696000f3fe608060405234801561001057600080fd5b50600436106101425760003560e01c8063715018a6116100b8578063aeb340871161007c578063aeb34087146102c6578063bc197c81146102d9578063cf309012146102f8578063e23e373c1461030c578063f23a6e611461031f578063f2fde38b1461033e57600080fd5b8063715018a61461027457806374ef15a91461027c578063794143ff1461028f5780638a000836146102a25780638da5cb5b146102b557600080fd5b80633ce8d4321161010a5780633ce8d432146101d657806358289c7e14610215578063606d049d1461022857806366b3bcb01461023b578063702407691461024e57806370defbad1461026157600080fd5b806301ffc9a714610147578063150b7a021461016f57806326e8eda21461019b5780632951b06e146101b05780633811641a146101c3575b600080fd5b61015a610155366004612a9d565b610351565b60405190151581526020015b60405180910390f35b61018261017d366004612b9f565b610388565b6040516001600160e01b03199091168152602001610166565b6101ae6101a9366004612c06565b610399565b005b6101ae6101be366004612c8d565b6106be565b6101ae6101d1366004612c8d565b610b89565b6101fd7f000000000000000000000000000000000000000000000000000000000000000081565b6040516001600160a01b039091168152602001610166565b6101ae610223366004612d0d565b610e48565b6101ae610236366004612d28565b610f23565b6101ae610249366004612d7a565b61112b565b6101ae61025c366004612dee565b611290565b6101ae61026f366004612e4b565b61154a565b6101ae611a5f565b6101ae61028a366004612c06565b611a9d565b6101ae61029d366004612ef5565b611bfb565b6101ae6102b0366004612e4b565b611f88565b6000546001600160a01b03166101fd565b6101ae6102d4366004612dee565b6122a9565b6101826102e7366004613023565b63bc197c8160e01b95945050505050565b60005461015a90600160a01b900460ff1681565b6101ae61031a366004612ef5565b612405565b61018261032d3660046130cc565b63f23a6e6160e01b95945050505050565b6101ae61034c366004612d0d565b6125ea565b60006001600160e01b03198216630271189760e51b148061038257506301ffc9a760e01b6001600160e01b03198316145b92915050565b630a85bd0160e11b5b949350505050565b6103a16126a1565b604051630bb18f5f60e21b81526001600160a01b0384811660048301527f00000000000000000000000000000000000000000000000000000000000000001690632ec63d7c90602401602060405180830381865afa158015610407573d6000803e3d6000fd5b505050506040513d601f19601f8201168201806040525081019061042b9190613130565b6104a25760405162461bcd60e51b815260206004820152603960248201527f5a69766f6544414f3a3a7075736828292021495a69766f65476c6f62616c735f60448201527f44414f2847424c292e69734c6f636b6572286c6f636b6572290000000000000060648201526084015b60405180910390fd5b826001600160a01b031663e7f446296040518163ffffffff1660e01b8152600401602060405180830381865afa1580156104e0573d6000803e3d6000fd5b505050506040513d601f19601f820116820180604052508101906105049190613130565b6105685760405162461bcd60e51b815260206004820152602f60248201527f5a69766f6544414f3a3a7075736828292021494552433130345f44414f286c6f60448201526e636b6572292e63616e50757368282960881b6064820152608401610499565b816001600160a01b0316836001600160a01b03167f309b6ff7c796d92b2e93ed2e36f9e0a60c6f15ad0baea02f68da16974159af53836040516105ad91815260200190565b60405180910390a36105c96001600160a01b0383168483612721565b604051638447659160e01b81526001600160a01b03838116600483015260248201839052841690638447659190604401600060405180830381600087803b15801561061357600080fd5b505af1158015610627573d6000803e3d6000fd5b5050604051636eb1769f60e11b81523060048201526001600160a01b038681166024830152600093508516915063dd62ed3e90604401602060405180830381865afa15801561067a573d6000803e3d6000fd5b505050506040513d601f19601f8201168201806040525081019061069e9190613152565b11156106b9576106b96001600160a01b038316846000612721565b505050565b6106c66126a1565b604051630bb18f5f60e21b81526001600160a01b0386811660048301527f00000000000000000000000000000000000000000000000000000000000000001690632ec63d7c90602401602060405180830381865afa15801561072c573d6000803e3d6000fd5b505050506040513d601f19601f820116820180604052508101906107509190613130565b6107c25760405162461bcd60e51b815260206004820152603e60248201527f5a69766f6544414f3a3a707573684d756c746928292021495a69766f65476c6f60448201527f62616c735f44414f2847424c292e69734c6f636b6572286c6f636b65722900006064820152608401610499565b82811461082f5760405162461bcd60e51b815260206004820152603560248201527f5a69766f6544414f3a3a707573684d756c74692829206173736574732e6c656e6044820152740cee8d040427a40c2dadeeadce8e65cd8cadccee8d605b1b6064820152608401610499565b846001600160a01b031663a4a3e79d6040518163ffffffff1660e01b8152600401602060405180830381865afa15801561086d573d6000803e3d6000fd5b505050506040513d601f19601f820116820180604052508101906108919190613130565b6109035760405162461bcd60e51b815260206004820152603960248201527f5a69766f6544414f3a3a707573684d756c746928292021494552433130345f4460448201527f414f286c6f636b6572292e63616e507573684d756c74692829000000000000006064820152608401610499565b846001600160a01b03167fd8c64f81b80044324d6b33e97d1b2db56ff9d3d7354d50d0177c2e2b073a5a738585858560405161094294939291906131e4565b60405180910390a260005b83811015610a46576109a98684848481811061096b5761096b61320b565b905060200201358787858181106109845761098461320b565b90506020020160208101906109999190612d0d565b6001600160a01b03169190612721565b8484828181106109bb576109bb61320b565b90506020020160208101906109d09190612d0d565b6001600160a01b0316866001600160a01b03167f309b6ff7c796d92b2e93ed2e36f9e0a60c6f15ad0baea02f68da16974159af53858585818110610a1657610a1661320b565b90506020020135604051610a2c91815260200190565b60405180910390a380610a3e81613221565b91505061094d565b50604051633271a90560e21b81526001600160a01b0386169063c9c6a41490610a799087908790879087906004016131e4565b600060405180830381600087803b158015610a9357600080fd5b505af1158015610aa7573d6000803e3d6000fd5b5050505060005b83811015610b81576000858583818110610aca57610aca61320b565b9050602002016020810190610adf9190612d0d565b604051636eb1769f60e11b81523060048201526001600160a01b038981166024830152919091169063dd62ed3e90604401602060405180830381865afa158015610b2d573d6000803e3d6000fd5b505050506040513d601f19601f82011682018060405250810190610b519190613152565b1115610b6f57610b6f8660008787858181106109845761098461320b565b80610b7981613221565b915050610aae565b505050505050565b610b916126a1565b846001600160a01b0316632f08d48b6040518163ffffffff1660e01b8152600401602060405180830381865afa158015610bcf573d6000803e3d6000fd5b505050506040513d601f19601f82011682018060405250810190610bf39190613130565b610c755760405162461bcd60e51b815260206004820152604760248201527f5a69766f6544414f3a3a70756c6c4d756c74695061727469616c28292021494560448201527f52433130345f44414f286c6f636b6572292e63616e50756c6c4d756c74695061606482015266727469616c282960c81b608482015260a401610499565b828114610cea5760405162461bcd60e51b815260206004820152603c60248201527f5a69766f6544414f3a3a70756c6c4d756c74695061727469616c28292061737360448201527f6574732e6c656e67746820213d20616d6f756e74732e6c656e677468000000006064820152608401610499565b846001600160a01b03167f52fed3882a599cf3e685ebb3655286e185b8d908c84aaa7e9b4bd65d4f8210e385858585604051610d2994939291906131e4565b60405180910390a260005b83811015610dd957848482818110610d4e57610d4e61320b565b9050602002016020810190610d639190612d0d565b6001600160a01b0316866001600160a01b03167fa156c7bb8602010d235ec016570d7dd6efbbca35debe0f9bf91574be31f5b1b7858585818110610da957610da961320b565b90506020020135604051610dbf91815260200190565b60405180910390a380610dd181613221565b915050610d34565b506040516001627dd32360e11b031981526001600160a01b0386169063ff0459ba90610e0f9087908790879087906004016131e4565b600060405180830381600087803b158015610e2957600080fd5b505af1158015610e3d573d6000803e3d6000fd5b505050505050505050565b610e506126a1565b600054600160a01b900460ff1615610e7a5760405162461bcd60e51b815260040161049990613248565b6001600160a01b038116610f045760405162461bcd60e51b815260206004820152604560248201527f5a69766f654f776e61626c654c6f636b65643a3a7472616e736665724f776e6560448201527f7273686970416e644c6f636b2829206e65774f776e6572203d3d206164647265606482015264737328302960d81b608482015260a401610499565b6000805460ff60a01b1916600160a01b179055610f2081612858565b50565b610f2b6126a1565b826001600160a01b0316633eda81ad6040518163ffffffff1660e01b8152600401602060405180830381865afa158015610f69573d6000803e3d6000fd5b505050506040513d601f19601f82011682018060405250810190610f8d9190613130565b610fff5760405162461bcd60e51b815260206004820152603960248201527f5a69766f6544414f3a3a70756c6c4d756c746928292021494552433130345f4460448201527f414f286c6f636b6572292e63616e50756c6c4d756c74692829000000000000006064820152608401610499565b826001600160a01b03167f234915826537c85bcff82447abe45e54a92ac1d2ac4e37903371d2a71669f0be838360405161103a92919061328d565b60405180910390a260005b818110156110c55782828281811061105f5761105f61320b565b90506020020160208101906110749190612d0d565b6001600160a01b0316846001600160a01b03167fcd6684b104f5ea37039828873747c542c51d1d38e7a8185d66e75306642868c560405160405180910390a3806110bd81613221565b915050611045565b5060405163607cd64960e01b81526001600160a01b0384169063607cd649906110f4908590859060040161328d565b600060405180830381600087803b15801561110e57600080fd5b505af1158015611122573d6000803e3d6000fd5b50505050505050565b6111336126a1565b816001600160a01b031663215cccdd6040518163ffffffff1660e01b8152600401602060405180830381865afa158015611171573d6000803e3d6000fd5b505050506040513d601f19601f820116820180604052508101906111959190613130565b6111f95760405162461bcd60e51b815260206004820152602f60248201527f5a69766f6544414f3a3a70756c6c28292021494552433130345f44414f286c6f60448201526e636b6572292e63616e50756c6c282960881b6064820152608401610499565b806001600160a01b0316826001600160a01b03167fcd6684b104f5ea37039828873747c542c51d1d38e7a8185d66e75306642868c560405160405180910390a3604051637dbcdbc160e01b81526001600160a01b038281166004830152831690637dbcdbc190602401600060405180830381600087803b15801561127c57600080fd5b505af1158015610b81573d6000803e3d6000fd5b6112986126a1565b604051630bb18f5f60e21b81526001600160a01b0386811660048301527f00000000000000000000000000000000000000000000000000000000000000001690632ec63d7c90602401602060405180830381865afa1580156112fe573d6000803e3d6000fd5b505050506040513d601f19601f820116820180604052508101906113229190613130565b6113945760405162461bcd60e51b815260206004820152603f60248201527f5a69766f6544414f3a3a7075736845524337323128292021495a69766f65476c60448201527f6f62616c735f44414f2847424c292e69734c6f636b6572286c6f636b657229006064820152608401610499565b846001600160a01b0316638b648ee26040518163ffffffff1660e01b8152600401602060405180830381865afa1580156113d2573d6000803e3d6000fd5b505050506040513d601f19601f820116820180604052508101906113f69190613130565b6114685760405162461bcd60e51b815260206004820152603b60248201527f5a69766f6544414f3a3a7075736845524337323128292021494552433130345f60448201527f44414f286c6f636b6572292e63616e50757368455243373231282900000000006064820152608401610499565b82846001600160a01b0316866001600160a01b03167fcceb6f80504f6106e3c6300bbfad14fee293050b503ea55c5d0e6bea3977174985856040516114ae9291906132ca565b60405180910390a460405163095ea7b360e01b81526001600160a01b0386811660048301526024820185905285169063095ea7b390604401600060405180830381600087803b15801561150057600080fd5b505af1158015611514573d6000803e3d6000fd5b5050604051631d9389e960e01b81526001600160a01b0388169250631d9389e99150610e0f9087908790879087906004016132de565b6115526126a1565b604051630bb18f5f60e21b81526001600160a01b0388811660048301527f00000000000000000000000000000000000000000000000000000000000000001690632ec63d7c90602401602060405180830381865afa1580156115b8573d6000803e3d6000fd5b505050506040513d601f19601f820116820180604052508101906115dc9190613130565b61165c5760405162461bcd60e51b8152602060048201526044602482018190527f5a69766f6544414f3a3a707573684d756c746945524337323128292021495a69908201527f766f65476c6f62616c735f44414f2847424c292e69734c6f636b6572286c6f636064820152636b65722960e01b608482015260a401610499565b8483146116d15760405162461bcd60e51b815260206004820152603c60248201527f5a69766f6544414f3a3a707573684d756c74694552433732312829206173736560448201527f74732e6c656e67746820213d20746f6b656e4964732e6c656e677468000000006064820152608401610499565b8281146117465760405162461bcd60e51b815260206004820152603a60248201527f5a69766f6544414f3a3a707573684d756c7469455243373231282920746f6b6560448201527f6e4964732e6c656e67746820213d20646174612e6c656e6774680000000000006064820152608401610499565b866001600160a01b031663dd913bdb6040518163ffffffff1660e01b8152600401602060405180830381865afa158015611784573d6000803e3d6000fd5b505050506040513d601f19601f820116820180604052508101906117a89190613130565b6118285760405162461bcd60e51b815260206004820152604560248201527f5a69766f6544414f3a3a707573684d756c74694552433732312829202149455260448201527f433130345f44414f286c6f636b6572292e63616e507573684d756c7469455243606482015264373231282960d81b608482015260a401610499565b866001600160a01b03167f7928fcd827567eafd0739b2a6b89dad3dded5f17c3940b61be4ded49f783f11e87878787878760405161186b96959493929190613310565b60405180910390a260005b858110156119ed578686828181106118905761189061320b565b90506020020160208101906118a59190612d0d565b6001600160a01b031663095ea7b3898787858181106118c6576118c661320b565b6040516001600160e01b031960e087901b1681526001600160a01b0390941660048501526020029190910135602483015250604401600060405180830381600087803b15801561191557600080fd5b505af1158015611929573d6000803e3d6000fd5b5050505084848281811061193f5761193f61320b565b905060200201358787838181106119585761195861320b565b905060200201602081019061196d9190612d0d565b6001600160a01b0316896001600160a01b03167fcceb6f80504f6106e3c6300bbfad14fee293050b503ea55c5d0e6bea397717498686868181106119b3576119b361320b565b90506020028101906119c591906133d6565b6040516119d39291906132ca565b60405180910390a4806119e581613221565b915050611876565b506040516302e24af360e61b81526001600160a01b0388169063b892bcc090611a2490899089908990899089908990600401613310565b600060405180830381600087803b158015611a3e57600080fd5b505af1158015611a52573d6000803e3d6000fd5b5050505050505050505050565b611a676126a1565b600054600160a01b900460ff1615611a915760405162461bcd60e51b815260040161049990613248565b611a9b6000612858565b565b611aa56126a1565b826001600160a01b03166364c777356040518163ffffffff1660e01b8152600401602060405180830381865afa158015611ae3573d6000803e3d6000fd5b505050506040513d601f19601f82011682018060405250810190611b079190613130565b611b795760405162461bcd60e51b815260206004820152603d60248201527f5a69766f6544414f3a3a70756c6c5061727469616c282920214945524331303460448201527f5f44414f286c6f636b6572292e63616e50756c6c5061727469616c28290000006064820152608401610499565b816001600160a01b0316836001600160a01b03167fa156c7bb8602010d235ec016570d7dd6efbbca35debe0f9bf91574be31f5b1b783604051611bbe91815260200190565b60405180910390a360405163d9821e3b60e01b81526001600160a01b0383811660048301526024820183905284169063d9821e3b906044016110f4565b611c036126a1565b604051630bb18f5f60e21b81526001600160a01b0389811660048301527f00000000000000000000000000000000000000000000000000000000000000001690632ec63d7c90602401602060405180830381865afa158015611c69573d6000803e3d6000fd5b505050506040513d601f19601f82011682018060405250810190611c8d9190613130565b611d0d5760405162461bcd60e51b815260206004820152604560248201527f5a69766f6544414f3a3a7075736845524331313535426174636828292021495a60448201527f69766f65476c6f62616c735f44414f2847424c292e69734c6f636b6572286c6f606482015264636b65722960d81b608482015260a401610499565b848314611d7e5760405162461bcd60e51b815260206004820152603960248201527f5a69766f6544414f3a3a7075736845524331313535426174636828292069647360448201527805cd8cadccee8d040427a40c2dadeeadce8e65cd8cadccee8d603b1b6064820152608401610499565b876001600160a01b031663cf10b7ab6040518163ffffffff1660e01b8152600401602060405180830381865afa158015611dbc573d6000803e3d6000fd5b505050506040513d601f19601f82011682018060405250810190611de09190613130565b611e5d5760405162461bcd60e51b815260206004820152604260248201527f5a69766f6544414f3a3a7075736845524331313535426174636828292021494560448201527f52433130345f44414f286c6f636b6572292e63616e5075736845524331313535606482015261282960f01b608482015260a401610499565b866001600160a01b0316886001600160a01b03167f57fb18048adcacd0dbc30815547d4f9d7c564e0e63dfa2a2b27999bcf941bbe0888888888888604051611eaa9695949392919061341c565b60405180910390a360405163a22cb46560e01b81526001600160a01b0389811660048301526001602483015288169063a22cb46590604401600060405180830381600087803b158015611efc57600080fd5b505af1158015611f10573d6000803e3d6000fd5b505060405163fd76f59d60e01b81526001600160a01b038b16925063fd76f59d9150611f4c908a908a908a908a908a908a908a90600401613465565b600060405180830381600087803b158015611f6657600080fd5b505af1158015611f7a573d6000803e3d6000fd5b505050505050505050505050565b611f906126a1565b866001600160a01b0316631852b3836040518163ffffffff1660e01b8152600401602060405180830381865afa158015611fce573d6000803e3d6000fd5b505050506040513d601f19601f82011682018060405250810190611ff29190613130565b6120725760405162461bcd60e51b815260206004820152604560248201527f5a69766f6544414f3a3a70756c6c4d756c74694552433732312829202149455260448201527f433130345f44414f286c6f636b6572292e63616e50756c6c4d756c7469455243606482015264373231282960d81b608482015260a401610499565b8483146120e75760405162461bcd60e51b815260206004820152603c60248201527f5a69766f6544414f3a3a70756c6c4d756c74694552433732312829206173736560448201527f74732e6c656e67746820213d20746f6b656e4964732e6c656e677468000000006064820152608401610499565b82811461215c5760405162461bcd60e51b815260206004820152603a60248201527f5a69766f6544414f3a3a70756c6c4d756c7469455243373231282920746f6b6560448201527f6e4964732e6c656e67746820213d20646174612e6c656e6774680000000000006064820152608401610499565b866001600160a01b03167f54613fdc55bd761d02881b475b5443a1812a30df2392c5d31150747635fb5def87878787878760405161219f96959493929190613310565b60405180910390a260005b85811015612272578484828181106121c4576121c461320b565b905060200201358787838181106121dd576121dd61320b565b90506020020160208101906121f29190612d0d565b6001600160a01b0316896001600160a01b03167f16c8e5e1e7bd6ca58a21983a6d3e782beecebb9a3a96b8045315114442f1e2688686868181106122385761223861320b565b905060200281019061224a91906133d6565b6040516122589291906132ca565b60405180910390a48061226a81613221565b9150506121aa565b5060405163057a61d160e21b81526001600160a01b038816906315e9874490611a2490899089908990899089908990600401613310565b6122b16126a1565b846001600160a01b0316633c1172446040518163ffffffff1660e01b8152600401602060405180830381865afa1580156122ef573d6000803e3d6000fd5b505050506040513d601f19601f820116820180604052508101906123139190613130565b6123855760405162461bcd60e51b815260206004820152603b60248201527f5a69766f6544414f3a3a70756c6c45524337323128292021494552433130345f60448201527f44414f286c6f636b6572292e63616e50756c6c455243373231282900000000006064820152608401610499565b82846001600160a01b0316866001600160a01b03167f16c8e5e1e7bd6ca58a21983a6d3e782beecebb9a3a96b8045315114442f1e26885856040516123cb9291906132ca565b60405180910390a460405163090290bb60e11b81526001600160a01b03861690631205217690610e0f9087908790879087906004016132de565b61240d6126a1565b876001600160a01b031663b0607cf86040518163ffffffff1660e01b8152600401602060405180830381865afa15801561244b573d6000803e3d6000fd5b505050506040513d601f19601f8201168201806040525081019061246f9190613130565b6124ec5760405162461bcd60e51b815260206004820152604260248201527f5a69766f6544414f3a3a70756c6c45524331313535426174636828292021494560448201527f52433130345f44414f286c6f636b6572292e63616e50756c6c45524331313535606482015261282960f01b608482015260a401610499565b84831461255d5760405162461bcd60e51b815260206004820152603960248201527f5a69766f6544414f3a3a70756c6c45524331313535426174636828292069647360448201527805cd8cadccee8d040427a40c2dadeeadce8e65cd8cadccee8d603b1b6064820152608401610499565b866001600160a01b0316886001600160a01b03167fb84de6f38f3772af791fe710e181e9fae3fdfbe871593408d624cefdc818e5e48888888888886040516125aa9695949392919061341c565b60405180910390a3604051630845640360e31b81526001600160a01b0389169063422b201890611f4c908a908a908a908a908a908a908a90600401613465565b6125f26126a1565b600054600160a01b900460ff161561261c5760405162461bcd60e51b815260040161049990613248565b6001600160a01b0381166126985760405162461bcd60e51b815260206004820152603e60248201527f5a69766f654f776e61626c654c6f636b65643a3a7472616e736665724f776e6560448201527f72736869702829206e65774f776e6572203d3d206164647265737328302900006064820152608401610499565b610f2081612858565b6000546001600160a01b03163314611a9b5760405162461bcd60e51b815260206004820152603760248201527f5a69766f654f776e61626c654c6f636b65643a3a5f636865636b4f776e65722060448201527f6f776e6572282920213d205f6d736753656e64657228290000000000000000006064820152608401610499565b80158061279b5750604051636eb1769f60e11b81523060048201526001600160a01b03838116602483015284169063dd62ed3e90604401602060405180830381865afa158015612775573d6000803e3d6000fd5b505050506040513d601f19601f820116820180604052508101906127999190613152565b155b6128065760405162461bcd60e51b815260206004820152603660248201527f5361666545524332303a20617070726f76652066726f6d206e6f6e2d7a65726f60448201527520746f206e6f6e2d7a65726f20616c6c6f77616e636560501b6064820152608401610499565b604080516001600160a01b038416602482015260448082018490528251808303909101815260649091019091526020810180516001600160e01b031663095ea7b360e01b1790526106b99084906128a8565b600080546001600160a01b038381166001600160a01b0319831681178455604051919092169283917f8be0079c531659141344cd1fd0a4f28419497f9722a3daafe3b4186f6b6457e09190a35050565b60006128fd826040518060400160405280602081526020017f5361666545524332303a206c6f772d6c6576656c2063616c6c206661696c6564815250856001600160a01b031661297a9092919063ffffffff16565b8051909150156106b9578080602001905181019061291b9190613130565b6106b95760405162461bcd60e51b815260206004820152602a60248201527f5361666545524332303a204552433230206f7065726174696f6e20646964206e6044820152691bdd081cdd58d8d9595960b21b6064820152608401610499565b6060610391848460008585600080866001600160a01b031685876040516129a191906134e4565b60006040518083038185875af1925050503d80600081146129de576040519150601f19603f3d011682016040523d82523d6000602084013e6129e3565b606091505b50915091506129f4878383876129ff565b979650505050505050565b60608315612a6e578251600003612a67576001600160a01b0385163b612a675760405162461bcd60e51b815260206004820152601d60248201527f416464726573733a2063616c6c20746f206e6f6e2d636f6e74726163740000006044820152606401610499565b5081610391565b6103918383815115612a835781518083602001fd5b8060405162461bcd60e51b81526004016104999190613500565b600060208284031215612aaf57600080fd5b81356001600160e01b031981168114612ac757600080fd5b9392505050565b80356001600160a01b0381168114612ae557600080fd5b919050565b634e487b7160e01b600052604160045260246000fd5b604051601f8201601f191681016001600160401b0381118282101715612b2857612b28612aea565b604052919050565b600082601f830112612b4157600080fd5b81356001600160401b03811115612b5a57612b5a612aea565b612b6d601f8201601f1916602001612b00565b818152846020838601011115612b8257600080fd5b816020850160208301376000918101602001919091529392505050565b60008060008060808587031215612bb557600080fd5b612bbe85612ace565b9350612bcc60208601612ace565b92506040850135915060608501356001600160401b03811115612bee57600080fd5b612bfa87828801612b30565b91505092959194509250565b600080600060608486031215612c1b57600080fd5b612c2484612ace565b9250612c3260208501612ace565b9150604084013590509250925092565b60008083601f840112612c5457600080fd5b5081356001600160401b03811115612c6b57600080fd5b6020830191508360208260051b8501011115612c8657600080fd5b9250929050565b600080600080600060608688031215612ca557600080fd5b612cae86612ace565b945060208601356001600160401b0380821115612cca57600080fd5b612cd689838a01612c42565b90965094506040880135915080821115612cef57600080fd5b50612cfc88828901612c42565b969995985093965092949392505050565b600060208284031215612d1f57600080fd5b612ac782612ace565b600080600060408486031215612d3d57600080fd5b612d4684612ace565b925060208401356001600160401b03811115612d6157600080fd5b612d6d86828701612c42565b9497909650939450505050565b60008060408385031215612d8d57600080fd5b612d9683612ace565b9150612da460208401612ace565b90509250929050565b60008083601f840112612dbf57600080fd5b5081356001600160401b03811115612dd657600080fd5b602083019150836020828501011115612c8657600080fd5b600080600080600060808688031215612e0657600080fd5b612e0f86612ace565b9450612e1d60208701612ace565b93506040860135925060608601356001600160401b03811115612e3f57600080fd5b612cfc88828901612dad565b60008060008060008060006080888a031215612e6657600080fd5b612e6f88612ace565b965060208801356001600160401b0380821115612e8b57600080fd5b612e978b838c01612c42565b909850965060408a0135915080821115612eb057600080fd5b612ebc8b838c01612c42565b909650945060608a0135915080821115612ed557600080fd5b50612ee28a828b01612c42565b989b979a50959850939692959293505050565b60008060008060008060008060a0898b031215612f1157600080fd5b612f1a89612ace565b9750612f2860208a01612ace565b965060408901356001600160401b0380821115612f4457600080fd5b612f508c838d01612c42565b909850965060608b0135915080821115612f6957600080fd5b612f758c838d01612c42565b909650945060808b0135915080821115612f8e57600080fd5b50612f9b8b828c01612dad565b999c989b5096995094979396929594505050565b600082601f830112612fc057600080fd5b813560206001600160401b03821115612fdb57612fdb612aea565b8160051b612fea828201612b00565b928352848101820192828101908785111561300457600080fd5b83870192505b848310156129f45782358252918301919083019061300a565b600080600080600060a0868803121561303b57600080fd5b61304486612ace565b945061305260208701612ace565b935060408601356001600160401b038082111561306e57600080fd5b61307a89838a01612faf565b9450606088013591508082111561309057600080fd5b61309c89838a01612faf565b935060808801359150808211156130b257600080fd5b506130bf88828901612b30565b9150509295509295909350565b600080600080600060a086880312156130e457600080fd5b6130ed86612ace565b94506130fb60208701612ace565b9350604086013592506060860135915060808601356001600160401b0381111561312457600080fd5b6130bf88828901612b30565b60006020828403121561314257600080fd5b81518015158114612ac757600080fd5b60006020828403121561316457600080fd5b5051919050565b8183526000602080850194508260005b858110156131a7576001600160a01b0361319483612ace565b168752958201959082019060010161317b565b509495945050505050565b81835260006001600160fb1b038311156131cb57600080fd5b8260051b80836020870137939093016020019392505050565b6040815260006131f860408301868861316b565b82810360208401526129f48185876131b2565b634e487b7160e01b600052603260045260246000fd5b60006001820161324157634e487b7160e01b600052601160045260246000fd5b5060010190565b60208082526025908201527f5a69766f654f776e61626c654c6f636b65643a3a756e6c6f636b65642829206c6040820152641bd8dad95960da1b606082015260800190565b60208152600061039160208301848661316b565b81835281816020850137506000828201602090810191909152601f909101601f19169091010190565b6020815260006103916020830184866132a1565b60018060a01b03851681528360208201526060604082015260006133066060830184866132a1565b9695505050505050565b60608152600061332460608301888a61316b565b60208382038185015261333882888a6131b2565b84810360408601528581529150808201600586901b830182018760005b888110156133c457858303601f190184528135368b9003601e1901811261337b57600080fd5b8a0185810190356001600160401b0381111561339657600080fd5b8036038213156133a557600080fd5b6133b08582846132a1565b958701959450505090840190600101613355565b50909c9b505050505050505050505050565b6000808335601e198436030181126133ed57600080fd5b8301803591506001600160401b0382111561340757600080fd5b602001915036819003821315612c8657600080fd5b60608152600061343060608301888a6131b2565b82810360208401526134438187896131b2565b905082810360408401526134588185876132a1565b9998505050505050505050565b6001600160a01b038816815260806020820181905260009061348a908301888a6131b2565b828103604084015261349d8187896131b2565b905082810360608401526134b28185876132a1565b9a9950505050505050505050565b60005b838110156134db5781810151838201526020016134c3565b50506000910152565b600082516134f68184602087016134c0565b9190910192915050565b602081526000825180602084015261351f8160408501602087016134c0565b601f01601f1916919091016040019291505056fea26469706673582212200b95948e06757c1a01e9f702ec95f7b75b032a01709ccc17bd6a893d7e58a57564736f6c63430008100033",
    "linkReferences": {}
  },
  "methodIdentifiers": {
    "GBL()": "3ce8d432",
    "locked()": "cf309012",
    "onERC1155BatchReceived(address,address,uint256[],uint256[],bytes)": "bc197c81",
    "onERC1155Received(address,address,uint256,uint256,bytes)": "f23a6e61",
    "onERC721Received(address,address,uint256,bytes)": "150b7a02",
    "owner()": "8da5cb5b",
    "pull(address,address)": "66b3bcb0",
    "pullERC1155Batch(address,address,uint256[],uint256[],bytes)": "e23e373c",
    "pullERC721(address,address,uint256,bytes)": "aeb34087",
    "pullMulti(address,address[])": "606d049d",
    "pullMultiERC721(address,address[],uint256[],bytes[])": "8a000836",
    "pullMultiPartial(address,address[],uint256[])": "3811641a",
    "pullPartial(address,address,uint256)": "74ef15a9",
    "push(address,address,uint256)": "26e8eda2",
    "pushERC1155Batch(address,address,uint256[],uint256[],bytes)": "794143ff",
    "pushERC721(address,address,uint256,bytes)": "70240769",
    "pushMulti(address,address[],uint256[])": "2951b06e",
    "pushMultiERC721(address,address[],uint256[],bytes[])": "70defbad",
    "renounceOwnership()": "715018a6",
    "supportsInterface(bytes4)": "01ffc9a7",
    "transferOwnership(address)": "f2fde38b",
    "transferOwnershipAndLock(address)": "58289c7e"
  },
  "id": 58
}