{
  "abi": [
    {
      "inputs": [
        {
          "internalType": "address",
          "name": "token",
          "type": "address"
        },
        {
          "internalType": "address",
          "name": "to",
          "type": "address"
        },
        {
          "internalType": "uint256",
          "name": "amount",
          "type": "uint256"
        }
      ],
      "name": "transferByTrader",
      "outputs": [],
      "stateMutability": "nonpayable",
      "type": "function"
    },
    {
      "inputs": [
        {
          "internalType": "address",
          "name": "token",
          "type": "address"
        },
        {
          "internalType": "address",
          "name": "to",
          "type": "address"
        },
        {
          "internalType": "uint256",
          "name": "amount",
          "type": "uint256"
        }
      ],
      "name": "try_approveToken",
      "outputs": [
        {
          "internalType": "bool",
          "name": "ok",
          "type": "bool"
        }
      ],
      "stateMutability": "nonpayable",
      "type": "function"
    },
    {
      "inputs": [
        {
          "internalType": "address",
          "name": "occ",
          "type": "address"
        },
        {
          "internalType": "uint256",
          "name": "id",
          "type": "uint256"
        }
      ],
      "name": "try_callLoan",
      "outputs": [
        {
          "internalType": "bool",
          "name": "ok",
          "type": "bool"
        }
      ],
      "stateMutability": "nonpayable",
      "type": "function"
    },
    {
      "inputs": [
        {
          "internalType": "address",
          "name": "occ",
          "type": "address"
        },
        {
          "internalType": "uint256",
          "name": "id",
          "type": "uint256"
        }
      ],
      "name": "try_cancelRequest",
      "outputs": [
        {
          "internalType": "bool",
          "name": "ok",
          "type": "bool"
        }
      ],
      "stateMutability": "nonpayable",
      "type": "function"
    },
    {
      "inputs": [
        {
          "internalType": "address",
          "name": "occ",
          "type": "address"
        },
        {
          "internalType": "uint256",
          "name": "id",
          "type": "uint256"
        }
      ],
      "name": "try_fundLoan",
      "outputs": [
        {
          "internalType": "bool",
          "name": "ok",
          "type": "bool"
        }
      ],
      "stateMutability": "nonpayable",
      "type": "function"
    },
    {
      "inputs": [
        {
          "internalType": "address",
          "name": "occ",
          "type": "address"
        },
        {
          "internalType": "uint256",
          "name": "id",
          "type": "uint256"
        }
      ],
      "name": "try_makePayment",
      "outputs": [
        {
          "internalType": "bool",
          "name": "ok",
          "type": "bool"
        }
      ],
      "stateMutability": "nonpayable",
      "type": "function"
    },
    {
      "inputs": [
        {
          "internalType": "address",
          "name": "occ",
          "type": "address"
        },
        {
          "internalType": "uint256",
          "name": "id",
          "type": "uint256"
        }
      ],
      "name": "try_markDefault",
      "outputs": [
        {
          "internalType": "bool",
          "name": "ok",
          "type": "bool"
        }
      ],
      "stateMutability": "nonpayable",
      "type": "function"
    },
    {
      "inputs": [
        {
          "internalType": "address",
          "name": "occ",
          "type": "address"
        },
        {
          "internalType": "address",
          "name": "borrower",
          "type": "address"
        },
        {
          "internalType": "uint256",
          "name": "borrowAmount",
          "type": "uint256"
        },
        {
          "internalType": "uint256",
          "name": "APR",
          "type": "uint256"
        },
        {
          "internalType": "uint256",
          "name": "APRLateFee",
          "type": "uint256"
        },
        {
          "internalType": "uint256",
          "name": "term",
          "type": "uint256"
        },
        {
          "internalType": "uint256",
          "name": "paymentInterval",
          "type": "uint256"
        },
        {
          "internalType": "uint256",
          "name": "gracePeriod",
          "type": "uint256"
        },
        {
          "internalType": "int8",
          "name": "schedule",
          "type": "int8"
        }
      ],
      "name": "try_requestLoan",
      "outputs": [
        {
          "internalType": "bool",
          "name": "ok",
          "type": "bool"
        }
      ],
      "stateMutability": "nonpayable",
      "type": "function"
    },
    {
      "inputs": [
        {
          "internalType": "address",
          "name": "occ",
          "type": "address"
        },
        {
          "internalType": "uint256",
          "name": "id",
          "type": "uint256"
        },
        {
          "internalType": "uint256",
          "name": "amount",
          "type": "uint256"
        }
      ],
      "name": "try_resolveDefault",
      "outputs": [
        {
          "internalType": "bool",
          "name": "ok",
          "type": "bool"
        }
      ],
      "stateMutability": "nonpayable",
      "type": "function"
    },
    {
      "inputs": [
        {
          "internalType": "address",
          "name": "occ",
          "type": "address"
        },
        {
          "internalType": "uint256",
          "name": "id",
          "type": "uint256"
        },
        {
          "internalType": "uint256",
          "name": "amount",
          "type": "uint256"
        }
      ],
      "name": "try_resolveInsolvency",
      "outputs": [
        {
          "internalType": "bool",
          "name": "ok",
          "type": "bool"
        }
      ],
      "stateMutability": "nonpayable",
      "type": "function"
    },
    {
      "inputs": [
        {
          "internalType": "address",
          "name": "occ",
          "type": "address"
        },
        {
          "internalType": "uint256",
          "name": "id",
          "type": "uint256"
        },
        {
          "internalType": "uint256",
          "name": "excessAmount",
          "type": "uint256"
        }
      ],
      "name": "try_supplyInterest",
      "outputs": [
        {
          "internalType": "bool",
          "name": "ok",
          "type": "bool"
        }
      ],
      "stateMutability": "nonpayable",
      "type": "function"
    }
  ],
  "bytecode": {
    "object": "0x608060405234801561001057600080fd5b50610976806100206000396000f3fe608060405234801561001057600080fd5b50600436106100a95760003560e01c8063b805f9f811610071578063b805f9f814610121578063bc73b17614610134578063c4c1a28a14610147578063c675c0401461015a578063e5d04d631461016d578063f8d9fbfa1461018257600080fd5b80633cddef99146100ae5780634c48f915146100d55780635d4fbf95146100e857806367d6ec41146100fb578063808d440b1461010e575b600080fd5b6100c16100bc36600461074b565b610195565b604051901515815260200160405180910390f35b6100c16100e3366004610787565b61028f565b6100c16100f63660046107b1565b610378565b6100c1610109366004610787565b61048f565b6100c161011c366004610787565b6104d8565b6100c161012f366004610839565b610521565b6100c1610142366004610839565b610566565b6100c1610155366004610787565b6105c2565b6100c1610168366004610839565b61060e565b61018061017b36600461074b565b61066a565b005b6100c1610190366004610787565b6106e3565b604080518082018252601881527f617070726f766528616464726573732c75696e74323536290000000000000000602082015290516001600160a01b03848116602483015260448201849052600092919086169082906064015b60408051601f19818403018152908290529161020a91610890565b60408051918290039091206020830180516001600160e01b03166001600160e01b0319909216919091179052516102419190610890565b6000604051808303816000865af19150503d806000811461027e576040519150601f19603f3d011682016040523d82523d6000602084013e610283565b606091505b50909695505050505050565b604080518082018252601681527563616e63656c526571756573742875696e743235362960501b6020820152905160248101839052600091906001600160a01b0385169082906044015b60408051601f1981840301815290829052916102f491610890565b60408051918290039091206020830180516001600160e01b03166001600160e01b03199092169190911790525161032b9190610890565b6000604051808303816000865af19150503d8060008114610368576040519150601f19603f3d011682016040523d82523d6000602084013e61036d565b606091505b509095945050505050565b6000806040518060800160405280604981526020016108d6604991396040516001600160a01b038c81166024830152604482018c9052606482018b9052608482018a905260a4820189905260c4820188905260e48201879052600086900b610104830152919250908c169082906101240160408051601f19818403018152908290529161040491610890565b60408051918290039091206020830180516001600160e01b03166001600160e01b03199092169190911790525161043b9190610890565b6000604051808303816000865af19150503d8060008114610478576040519150601f19603f3d011682016040523d82523d6000602084013e61047d565b606091505b50909c9b505050505050505050505050565b604080518082018252601181527066756e644c6f616e2875696e743235362960781b6020820152905160248101839052600091906001600160a01b0385169082906044016102d9565b604080518082018252601181527063616c6c4c6f616e2875696e743235362960781b6020820152905160248101839052600091906001600160a01b0385169082906044016102d9565b60008060405180606001604052806022815260200161091f602291399050846001600160a01b03168185856040516024016101ef929190918252602082015260400190565b604080518082018252601f81527f7265736f6c766544656661756c742875696e743235362c75696e743235362900602082015290516024810184905260448101839052600091906001600160a01b0386169082906064016101ef565b60408051808201825260148152736d61726b44656661756c742875696e743235362960601b6020820152905160248101839052600091906001600160a01b0385169082906044016102d9565b604080518082018252601f81527f737570706c79496e7465726573742875696e743235362c75696e743235362900602082015290516024810184905260448101839052600091906001600160a01b0386169082906064016101ef565b60405163a9059cbb60e01b81526001600160a01b0383811660048301526024820183905284169063a9059cbb906044016020604051808303816000875af11580156106b9573d6000803e3d6000fd5b505050506040513d601f19601f820116820180604052508101906106dd91906108ac565b50505050565b60408051808201825260148152736d616b655061796d656e742875696e743235362960601b6020820152905160248101839052600091906001600160a01b0385169082906044016102d9565b80356001600160a01b038116811461074657600080fd5b919050565b60008060006060848603121561076057600080fd5b6107698461072f565b92506107776020850161072f565b9150604084013590509250925092565b6000806040838503121561079a57600080fd5b6107a38361072f565b946020939093013593505050565b60008060008060008060008060006101208a8c0312156107d057600080fd5b6107d98a61072f565b98506107e760208b0161072f565b975060408a0135965060608a0135955060808a0135945060a08a0135935060c08a0135925060e08a013591506101008a01358060000b811461082857600080fd5b809150509295985092959850929598565b60008060006060848603121561084e57600080fd5b6108578461072f565b95602085013595506040909401359392505050565b60005b8381101561088757818101518382015260200161086f565b50506000910152565b600082516108a281846020870161086c565b9190910192915050565b6000602082840312156108be57600080fd5b815180151581146108ce57600080fd5b939250505056fe726571756573744c6f616e28616464726573732c75696e743235362c75696e743235362c75696e743235362c75696e743235362c75696e743235362c75696e743235362c696e7438297265736f6c7665496e736f6c76656e63792875696e743235362c75696e7432353629a2646970667358221220ce6b953f5900f2af5d97888356a07c16906d226ef69a315fbb0b33c5aea3794664736f6c63430008100033",
    "linkReferences": {}
  },
  "methodIdentifiers": {
    "transferByTrader(address,address,uint256)": "e5d04d63",
    "try_approveToken(address,address,uint256)": "3cddef99",
    "try_callLoan(address,uint256)": "808d440b",
    "try_cancelRequest(address,uint256)": "4c48f915",
    "try_fundLoan(address,uint256)": "67d6ec41",
    "try_makePayment(address,uint256)": "f8d9fbfa",
    "try_markDefault(address,uint256)": "c4c1a28a",
    "try_requestLoan(address,address,uint256,uint256,uint256,uint256,uint256,uint256,int8)": "5d4fbf95",
    "try_resolveDefault(address,uint256,uint256)": "bc73b176",
    "try_resolveInsolvency(address,uint256,uint256)": "b805f9f8",
    "try_supplyInterest(address,uint256,uint256)": "c675c040"
  },
  "id": 115
}