{
  "abi": [
    {
      "inputs": [
        {
          "internalType": "address",
          "name": "_GBL",
          "type": "address"
        }
      ],
      "stateMutability": "nonpayable",
      "type": "constructor"
    },
    {
      "anonymous": false,
      "inputs": [
        {
          "indexed": true,
          "internalType": "address",
          "name": "account",
          "type": "address"
        },
        {
          "indexed": true,
          "internalType": "address",
          "name": "asset",
          "type": "address"
        },
        {
          "indexed": false,
          "internalType": "uint256",
          "name": "amount",
          "type": "uint256"
        },
        {
          "indexed": false,
          "internalType": "uint256",
          "name": "incentives",
          "type": "uint256"
        }
      ],
      "name": "JuniorDeposit",
      "type": "event"
    },
    {
      "anonymous": false,
      "inputs": [
        {
          "indexed": true,
          "internalType": "address",
          "name": "previousOwner",
          "type": "address"
        },
        {
          "indexed": true,
          "internalType": "address",
          "name": "newOwner",
          "type": "address"
        }
      ],
      "name": "OwnershipTransferred",
      "type": "event"
    },
    {
      "anonymous": false,
      "inputs": [
        {
          "indexed": true,
          "internalType": "address",
          "name": "previousOwner",
          "type": "address"
        },
        {
          "indexed": true,
          "internalType": "address",
          "name": "newOwner",
          "type": "address"
        }
      ],
      "name": "OwnershipTransferredAndLocked",
      "type": "event"
    },
    {
      "anonymous": false,
      "inputs": [
        {
          "indexed": true,
          "internalType": "address",
          "name": "account",
          "type": "address"
        },
        {
          "indexed": true,
          "internalType": "address",
          "name": "asset",
          "type": "address"
        },
        {
          "indexed": false,
          "internalType": "uint256",
          "name": "amount",
          "type": "uint256"
        },
        {
          "indexed": false,
          "internalType": "uint256",
          "name": "incentives",
          "type": "uint256"
        }
      ],
      "name": "SeniorDeposit",
      "type": "event"
    },
    {
      "inputs": [],
      "name": "GBL",
      "outputs": [
        {
          "internalType": "address",
          "name": "",
          "type": "address"
        }
      ],
      "stateMutability": "view",
      "type": "function"
    },
    {
      "inputs": [],
      "name": "canPull",
      "outputs": [
        {
          "internalType": "bool",
          "name": "",
          "type": "bool"
        }
      ],
      "stateMutability": "pure",
      "type": "function"
    },
    {
      "inputs": [],
      "name": "canPullERC1155",
      "outputs": [
        {
          "internalType": "bool",
          "name": "",
          "type": "bool"
        }
      ],
      "stateMutability": "view",
      "type": "function"
    },
    {
      "inputs": [],
      "name": "canPullERC721",
      "outputs": [
        {
          "internalType": "bool",
          "name": "",
          "type": "bool"
        }
      ],
      "stateMutability": "view",
      "type": "function"
    },
    {
      "inputs": [],
      "name": "canPullMulti",
      "outputs": [
        {
          "internalType": "bool",
          "name": "",
          "type": "bool"
        }
      ],
      "stateMutability": "view",
      "type": "function"
    },
    {
      "inputs": [],
      "name": "canPullMultiERC721",
      "outputs": [
        {
          "internalType": "bool",
          "name": "",
          "type": "bool"
        }
      ],
      "stateMutability": "view",
      "type": "function"
    },
    {
      "inputs": [],
      "name": "canPullMultiPartial",
      "outputs": [
        {
          "internalType": "bool",
          "name": "",
          "type": "bool"
        }
      ],
      "stateMutability": "view",
      "type": "function"
    },
    {
      "inputs": [],
      "name": "canPullPartial",
      "outputs": [
        {
          "internalType": "bool",
          "name": "",
          "type": "bool"
        }
      ],
      "stateMutability": "pure",
      "type": "function"
    },
    {
      "inputs": [],
      "name": "canPush",
      "outputs": [
        {
          "internalType": "bool",
          "name": "",
          "type": "bool"
        }
      ],
      "stateMutability": "pure",
      "type": "function"
    },
    {
      "inputs": [],
      "name": "canPushERC1155",
      "outputs": [
        {
          "internalType": "bool",
          "name": "",
          "type": "bool"
        }
      ],
      "stateMutability": "view",
      "type": "function"
    },
    {
      "inputs": [],
      "name": "canPushERC721",
      "outputs": [
        {
          "internalType": "bool",
          "name": "",
          "type": "bool"
        }
      ],
      "stateMutability": "view",
      "type": "function"
    },
    {
      "inputs": [],
      "name": "canPushMulti",
      "outputs": [
        {
          "internalType": "bool",
          "name": "",
          "type": "bool"
        }
      ],
      "stateMutability": "view",
      "type": "function"
    },
    {
      "inputs": [],
      "name": "canPushMultiERC721",
      "outputs": [
        {
          "internalType": "bool",
          "name": "",
          "type": "bool"
        }
      ],
      "stateMutability": "view",
      "type": "function"
    },
    {
      "inputs": [
        {
          "internalType": "uint256",
          "name": "amount",
          "type": "uint256"
        },
        {
          "internalType": "address",
          "name": "asset",
          "type": "address"
        }
      ],
      "name": "depositJunior",
      "outputs": [],
      "stateMutability": "nonpayable",
      "type": "function"
    },
    {
      "inputs": [
        {
          "internalType": "uint256",
          "name": "amount",
          "type": "uint256"
        },
        {
          "internalType": "address",
          "name": "asset",
          "type": "address"
        }
      ],
      "name": "depositSenior",
      "outputs": [],
      "stateMutability": "nonpayable",
      "type": "function"
    },
    {
      "inputs": [
        {
          "internalType": "uint256",
          "name": "amount",
          "type": "uint256"
        },
        {
          "internalType": "address",
          "name": "asset",
          "type": "address"
        }
      ],
      "name": "isJuniorOpen",
      "outputs": [
        {
          "internalType": "bool",
          "name": "open",
          "type": "bool"
        }
      ],
      "stateMutability": "view",
      "type": "function"
    },
    {
      "inputs": [],
      "name": "locked",
      "outputs": [
        {
          "internalType": "bool",
          "name": "",
          "type": "bool"
        }
      ],
      "stateMutability": "view",
      "type": "function"
    },
    {
      "inputs": [
        {
          "internalType": "address",
          "name": "",
          "type": "address"
        },
        {
          "internalType": "address",
          "name": "",
          "type": "address"
        },
        {
          "internalType": "uint256[]",
          "name": "",
          "type": "uint256[]"
        },
        {
          "internalType": "uint256[]",
          "name": "",
          "type": "uint256[]"
        },
        {
          "internalType": "bytes",
          "name": "",
          "type": "bytes"
        }
      ],
      "name": "onERC1155BatchReceived",
      "outputs": [
        {
          "internalType": "bytes4",
          "name": "",
          "type": "bytes4"
        }
      ],
      "stateMutability": "nonpayable",
      "type": "function"
    },
    {
      "inputs": [
        {
          "internalType": "address",
          "name": "",
          "type": "address"
        },
        {
          "internalType": "address",
          "name": "",
          "type": "address"
        },
        {
          "internalType": "uint256",
          "name": "",
          "type": "uint256"
        },
        {
          "internalType": "uint256",
          "name": "",
          "type": "uint256"
        },
        {
          "internalType": "bytes",
          "name": "",
          "type": "bytes"
        }
      ],
      "name": "onERC1155Received",
      "outputs": [
        {
          "internalType": "bytes4",
          "name": "",
          "type": "bytes4"
        }
      ],
      "stateMutability": "nonpayable",
      "type": "function"
    },
    {
      "inputs": [
        {
          "internalType": "address",
          "name": "",
          "type": "address"
        },
        {
          "internalType": "address",
          "name": "",
          "type": "address"
        },
        {
          "internalType": "uint256",
          "name": "",
          "type": "uint256"
        },
        {
          "internalType": "bytes",
          "name": "",
          "type": "bytes"
        }
      ],
      "name": "onERC721Received",
      "outputs": [
        {
          "internalType": "bytes4",
          "name": "",
          "type": "bytes4"
        }
      ],
      "stateMutability": "nonpayable",
      "type": "function"
    },
    {
      "inputs": [],
      "name": "owner",
      "outputs": [
        {
          "internalType": "address",
          "name": "",
          "type": "address"
        }
      ],
      "stateMutability": "view",
      "type": "function"
    },
    {
      "inputs": [
        {
          "internalType": "address",
          "name": "asset",
          "type": "address"
        }
      ],
      "name": "pullFromLocker",
      "outputs": [],
      "stateMutability": "nonpayable",
      "type": "function"
    },
    {
      "inputs": [
        {
          "internalType": "address",
          "name": "asset",
          "type": "address"
        },
        {
          "internalType": "uint256[]",
          "name": "ids",
          "type": "uint256[]"
        },
        {
          "internalType": "uint256[]",
          "name": "amounts",
          "type": "uint256[]"
        },
        {
          "internalType": "bytes",
          "name": "data",
          "type": "bytes"
        }
      ],
      "name": "pullFromLockerERC1155",
      "outputs": [],
      "stateMutability": "nonpayable",
      "type": "function"
    },
    {
      "inputs": [
        {
          "internalType": "address",
          "name": "asset",
          "type": "address"
        },
        {
          "internalType": "uint256",
          "name": "tokenId",
          "type": "uint256"
        },
        {
          "internalType": "bytes",
          "name": "data",
          "type": "bytes"
        }
      ],
      "name": "pullFromLockerERC721",
      "outputs": [],
      "stateMutability": "nonpayable",
      "type": "function"
    },
    {
      "inputs": [
        {
          "internalType": "address[]",
          "name": "assets",
          "type": "address[]"
        }
      ],
      "name": "pullFromLockerMulti",
      "outputs": [],
      "stateMutability": "nonpayable",
      "type": "function"
    },
    {
      "inputs": [
        {
          "internalType": "address[]",
          "name": "assets",
          "type": "address[]"
        },
        {
          "internalType": "uint256[]",
          "name": "tokenIds",
          "type": "uint256[]"
        },
        {
          "internalType": "bytes[]",
          "name": "data",
          "type": "bytes[]"
        }
      ],
      "name": "pullFromLockerMultiERC721",
      "outputs": [],
      "stateMutability": "nonpayable",
      "type": "function"
    },
    {
      "inputs": [
        {
          "internalType": "address[]",
          "name": "assets",
          "type": "address[]"
        },
        {
          "internalType": "uint256[]",
          "name": "amounts",
          "type": "uint256[]"
        }
      ],
      "name": "pullFromLockerMultiPartial",
      "outputs": [],
      "stateMutability": "nonpayable",
      "type": "function"
    },
    {
      "inputs": [
        {
          "internalType": "address",
          "name": "asset",
          "type": "address"
        },
        {
          "internalType": "uint256",
          "name": "amount",
          "type": "uint256"
        }
      ],
      "name": "pullFromLockerPartial",
      "outputs": [],
      "stateMutability": "nonpayable",
      "type": "function"
    },
    {
      "inputs": [
        {
          "internalType": "address",
          "name": "asset",
          "type": "address"
        },
        {
          "internalType": "uint256",
          "name": "amount",
          "type": "uint256"
        }
      ],
      "name": "pushToLocker",
      "outputs": [],
      "stateMutability": "nonpayable",
      "type": "function"
    },
    {
      "inputs": [
        {
          "internalType": "address",
          "name": "asset",
          "type": "address"
        },
        {
          "internalType": "uint256[]",
          "name": "ids",
          "type": "uint256[]"
        },
        {
          "internalType": "uint256[]",
          "name": "amounts",
          "type": "uint256[]"
        },
        {
          "internalType": "bytes",
          "name": "data",
          "type": "bytes"
        }
      ],
      "name": "pushToLockerERC1155",
      "outputs": [],
      "stateMutability": "nonpayable",
      "type": "function"
    },
    {
      "inputs": [
        {
          "internalType": "address",
          "name": "asset",
          "type": "address"
        },
        {
          "internalType": "uint256",
          "name": "tokenId",
          "type": "uint256"
        },
        {
          "internalType": "bytes",
          "name": "data",
          "type": "bytes"
        }
      ],
      "name": "pushToLockerERC721",
      "outputs": [],
      "stateMutability": "nonpayable",
      "type": "function"
    },
    {
      "inputs": [
        {
          "internalType": "address[]",
          "name": "assets",
          "type": "address[]"
        },
        {
          "internalType": "uint256[]",
          "name": "amounts",
          "type": "uint256[]"
        }
      ],
      "name": "pushToLockerMulti",
      "outputs": [],
      "stateMutability": "nonpayable",
      "type": "function"
    },
    {
      "inputs": [
        {
          "internalType": "address[]",
          "name": "assets",
          "type": "address[]"
        },
        {
          "internalType": "uint256[]",
          "name": "tokenIds",
          "type": "uint256[]"
        },
        {
          "internalType": "bytes[]",
          "name": "data",
          "type": "bytes[]"
        }
      ],
      "name": "pushToLockerMultiERC721",
      "outputs": [],
      "stateMutability": "nonpayable",
      "type": "function"
    },
    {
      "inputs": [],
      "name": "renounceOwnership",
      "outputs": [],
      "stateMutability": "nonpayable",
      "type": "function"
    },
    {
      "inputs": [
        {
          "internalType": "uint256",
          "name": "deposit",
          "type": "uint256"
        }
      ],
      "name": "rewardZVEJuniorDeposit",
      "outputs": [
        {
          "internalType": "uint256",
          "name": "reward",
          "type": "uint256"
        }
      ],
      "stateMutability": "view",
      "type": "function"
    },
    {
      "inputs": [
        {
          "internalType": "uint256",
          "name": "deposit",
          "type": "uint256"
        }
      ],
      "name": "rewardZVESeniorDeposit",
      "outputs": [
        {
          "internalType": "uint256",
          "name": "reward",
          "type": "uint256"
        }
      ],
      "stateMutability": "view",
      "type": "function"
    },
    {
      "inputs": [
        {
          "internalType": "bytes4",
          "name": "interfaceId",
          "type": "bytes4"
        }
      ],
      "name": "supportsInterface",
      "outputs": [
        {
          "internalType": "bool",
          "name": "",
          "type": "bool"
        }
      ],
      "stateMutability": "view",
      "type": "function"
    },
    {
      "inputs": [],
      "name": "tranchesUnlocked",
      "outputs": [
        {
          "internalType": "bool",
          "name": "",
          "type": "bool"
        }
      ],
      "stateMutability": "view",
      "type": "function"
    },
    {
      "inputs": [
        {
          "internalType": "address",
          "name": "newOwner",
          "type": "address"
        }
      ],
      "name": "transferOwnership",
      "outputs": [],
      "stateMutability": "nonpayable",
      "type": "function"
    },
    {
      "inputs": [
        {
          "internalType": "address",
          "name": "newOwner",
          "type": "address"
        }
      ],
      "name": "transferOwnershipAndLock",
      "outputs": [],
      "stateMutability": "nonpayable",
      "type": "function"
    },
    {
      "inputs": [],
      "name": "unlock",
      "outputs": [],
      "stateMutability": "nonpayable",
      "type": "function"
    }
  ],
  "bytecode": {
    "object": "0x60a06040523480156200001157600080fd5b5060405162003600380380620036008339810160408190526200003491620000a1565b6200003f3362000051565b6001600160a01b0316608052620000d3565b600080546001600160a01b038381166001600160a01b0319831681178455604051919092169283917f8be0079c531659141344cd1fd0a4f28419497f9722a3daafe3b4186f6b6457e09190a35050565b600060208284031215620000b457600080fd5b81516001600160a01b0381168114620000cc57600080fd5b9392505050565b60805161342a620001d66000396000818161030d015281816107ba0152818161082c015281816108b401528181610d0101528181610e7a01528181610f350152818161108a0152818161110c0152818161120101528181611362015281816114db015281816115600152818161163901528181611697015281816116f50152818161199101528181611a1901528181611a9b01528181611b8401528181611c0c01528181611c9501528181611d1d01528181611d9e01528181611e4d01528181611f3f01528181612130015281816121b80152818161223a01528181612321015281816123a9015281816124070152818161248f0152612510015261342a6000f3fe608060405234801561001057600080fd5b50600436106102535760003560e01c80638447659111610146578063c9c6a414116100c3578063dd913bdb11610087578063dd913bdb146102d4578063e7f44629146102ee578063f23a6e61146104a1578063f2fde38b146104c0578063fd76f59d146104d3578063ff0459ba146104e657600080fd5b8063c9c6a41414610454578063cf10b7ab146102d4578063cf30901214610467578063d71ecac91461047b578063d9821e3b1461048e57600080fd5b8063a69df4b51161010a578063a69df4b5146103f9578063b0607cf8146102d4578063b892bcc014610401578063bc197c8114610414578063bf683be01461043357600080fd5b806384476591146103c25780638a2ba9d2146103d55780638b648ee2146102d45780638da5cb5b146103e8578063a4a3e79d146102d457600080fd5b80633ce8d432116101d457806364c777351161019857806364c77735146102ee578063715018a6146103805780637a46d5a4146103885780637dbcdbc11461039c5780638097be04146103af57600080fd5b80633ce8d432146103085780633eda81ad146102d4578063422b20181461034757806358289c7e1461035a578063607cd6491461036d57600080fd5b80631d9389e91161021b5780631d9389e9146102db578063215cccdd146102ee57806327af3c2e146102f55780632f08d48b146102d45780633c117244146102d457600080fd5b806301ffc9a7146102585780631205217614610280578063150b7a021461029557806315e98744146102c15780631852b383146102d4575b600080fd5b61026b610266366004612b24565b6104f9565b60405190151581526020015b60405180910390f35b61029361028e366004612bb2565b610530565b005b6102a86102a3366004612cc2565b6105a2565b6040516001600160e01b03199091168152602001610277565b6102936102cf366004612d71565b6105b3565b600061026b565b6102936102e9366004612bb2565b610724565b600161026b565b61026b610303366004612e0a565b61078f565b61032f7f000000000000000000000000000000000000000000000000000000000000000081565b6040516001600160a01b039091168152602001610277565b610293610355366004612e3a565b61095d565b610293610368366004612ee6565b6109cc565b61029361037b366004612f03565b610aa7565b610293610c0e565b60005461026b90600160a81b900460ff1681565b6102936103aa366004612ee6565b610c4c565b6102936103bd366004612e0a565b610ce2565b6102936103d0366004612f44565b6111f7565b6102936103e3366004612e0a565b611343565b6000546001600160a01b031661032f565b6102936116f3565b61029361040f366004612d71565b611822565b6102a8610422366004612fe4565b63bc197c8160e01b95945050505050565b610446610441366004613091565b61198a565b604051908152602001610277565b6102936104623660046130aa565b612038565b60005461026b90600160a01b900460ff1681565b610446610489366004613091565b612129565b61029361049c366004612f44565b61259a565b6102a86104af366004613109565b63f23a6e6160e01b95945050505050565b6102936104ce366004612ee6565b6125c8565b6102936104e1366004612e3a565b61267f565b6102936104f43660046130aa565b6126ec565b60006001600160e01b03198216630271189760e51b148061052a57506301ffc9a760e01b6001600160e01b03198316145b92915050565b6105386127be565b60405162461bcd60e51b815260206004820152603460248201527f5a69766f654c6f636b65723a3a70756c6c46726f6d4c6f636b65724552433732604482015273312829202163616e50756c6c455243373231282960601b60648201526084015b60405180910390fd5b630a85bd0160e11b5b949350505050565b6105bb6127be565b60405162461bcd60e51b815260206004820152603e60248201527f5a69766f654c6f636b65723a3a70756c6c46726f6d4c6f636b65724d756c746960448201527f4552433732312829202163616e50756c6c4d756c7469455243373231282900006064820152608401610599565b8581101561071b57868682818110610643576106436131ce565b90506020020160208101906106589190612ee6565b6001600160a01b031663b88d4fde306106796000546001600160a01b031690565b88888681811061068b5761068b6131ce565b905060200201358787878181106106a4576106a46131ce565b90506020028101906106b691906131e4565b6040518663ffffffff1660e01b81526004016106d695949392919061319a565b600060405180830381600087803b1580156106f057600080fd5b505af1158015610704573d6000803e3d6000fd5b50505050808061071390613240565b915050610629565b50505050505050565b61072c6127be565b60405162461bcd60e51b815260206004820152603260248201527f5a69766f654c6f636b65723a3a70757368546f4c6f636b65724552433732312860448201527129202163616e50757368455243373231282960701b6064820152608401610599565b60405163dc3c1da560e01b8152600481018390526001600160a01b03828116602483015260009182917f0000000000000000000000000000000000000000000000000000000000000000169063dc3c1da590604401602060405180830381865afa158015610801573d6000803e3d6000fd5b505050506040513d601f19601f820116820180604052508101906108259190613259565b90506000807f00000000000000000000000000000000000000000000000000000000000000006001600160a01b0316635351d09b6040518163ffffffff1660e01b81526004016040805180830381865afa158015610887573d6000803e3d6000fd5b505050506040513d601f19601f820116820180604052508101906108ab9190613272565b915091506127107f00000000000000000000000000000000000000000000000000000000000000006001600160a01b031663ce8726276040518163ffffffff1660e01b8152600401602060405180830381865afa158015610910573d6000803e3d6000fd5b505050506040513d601f19601f820116820180604052508101906109349190613259565b61093e9084613296565b61094891906132b5565b61095282856132d7565b109695505050505050565b6109656127be565b60405162461bcd60e51b815260206004820152603660248201527f5a69766f654c6f636b65723a3a70756c6c46726f6d4c6f636b6572455243313160448201527535352829202163616e50756c6c45524331313535282960501b6064820152608401610599565b6109d46127be565b600054600160a01b900460ff16156109fe5760405162461bcd60e51b8152600401610599906132ea565b6001600160a01b038116610a885760405162461bcd60e51b815260206004820152604560248201527f5a69766f654f776e61626c654c6f636b65643a3a7472616e736665724f776e6560448201527f7273686970416e644c6f636b2829206e65774f776e6572203d3d206164647265606482015264737328302960d81b608482015260a401610599565b6000805460ff60a01b1916600160a01b179055610aa48161283e565b50565b610aaf6127be565b60405162461bcd60e51b815260206004820152603260248201527f5a69766f654c6f636b65723a3a70756c6c46726f6d4c6f636b65724d756c74696044820152712829202163616e50756c6c4d756c7469282960701b6064820152608401610599565b81811015610c0957610bf7610b2f6000546001600160a01b031690565b848484818110610b4157610b416131ce565b9050602002016020810190610b569190612ee6565b6040516370a0823160e01b81523060048201526001600160a01b0391909116906370a0823190602401602060405180830381865afa158015610b9c573d6000803e3d6000fd5b505050506040513d601f19601f82011682018060405250810190610bc09190613259565b858585818110610bd257610bd26131ce565b9050602002016020810190610be79190612ee6565b6001600160a01b0316919061288e565b80610c0181613240565b915050610b12565b505050565b610c166127be565b600054600160a01b900460ff1615610c405760405162461bcd60e51b8152600401610599906132ea565b610c4a600061283e565b565b610c546127be565b610aa4610c696000546001600160a01b031690565b6040516370a0823160e01b81523060048201526001600160a01b038416906370a0823190602401602060405180830381865afa158015610cad573d6000803e3d6000fd5b505050506040513d601f19601f82011682018060405250810190610cd19190613259565b6001600160a01b038416919061288e565b60405163dd1db20160e01b81526001600160a01b0382811660048301527f0000000000000000000000000000000000000000000000000000000000000000169063dd1db20190602401602060405180830381865afa158015610d48573d6000803e3d6000fd5b505050506040513d601f19601f82011682018060405250810190610d6c919061332f565b610dfd5760405162461bcd60e51b815260206004820152605660248201527f5a69766f655472616e636865733a3a6465706f7369744a756e696f722829202160448201527f495a69766f65476c6f62616c735f5472616e636865732847424c292e737461626064820152756c65636f696e57686974656c6973742861737365742960501b608482015260a401610599565b600054600160a81b900460ff16610e6f5760405162461bcd60e51b815260206004820152603060248201527f5a69766f655472616e636865733a3a6465706f7369744a756e696f722829202160448201526f1d1c985b98da195cd55b9b1bd8dad95960821b6064820152608401610599565b6000339050610f0c817f00000000000000000000000000000000000000000000000000000000000000006001600160a01b03166398fabd3a6040518163ffffffff1660e01b8152600401602060405180830381865afa158015610ed6573d6000803e3d6000fd5b505050506040513d601f19601f82011682018060405250810190610efa9190613351565b6001600160a01b0385169190866128f1565b60405163dc3c1da560e01b8152600481018490526001600160a01b0383811660248301526000917f00000000000000000000000000000000000000000000000000000000000000009091169063dc3c1da590604401602060405180830381865afa158015610f7e573d6000803e3d6000fd5b505050506040513d601f19601f82011682018060405250810190610fa29190613259565b9050610fae848461078f565b6110205760405162461bcd60e51b815260206004820152603b60248201527f5a69766f655472616e636865733a3a6465706f7369744a756e696f722829202160448201527f69734a756e696f724f70656e28616d6f756e742c2061737365742900000000006064820152608401610599565b600061102b8261198a565b9050836001600160a01b0316836001600160a01b03167fcd04ef91b89cf6947d55d506628c05935caee56e023bdd447e41b59a034a68f7878460405161107b929190918252602082015260400190565b60405180910390a361110a83827f00000000000000000000000000000000000000000000000000000000000000006001600160a01b0316639af6c40e6040518163ffffffff1660e01b8152600401602060405180830381865afa1580156110e6573d6000803e3d6000fd5b505050506040513d601f19601f82011682018060405250810190610be79190613351565b7f00000000000000000000000000000000000000000000000000000000000000006001600160a01b0316639699177c6040518163ffffffff1660e01b8152600401602060405180830381865afa158015611168573d6000803e3d6000fd5b505050506040513d601f19601f8201168201806040525081019061118c9190613351565b6040516340c10f1960e01b81526001600160a01b0385811660048301526024820185905291909116906340c10f1990604401600060405180830381600087803b1580156111d857600080fd5b505af11580156111ec573d6000803e3d6000fd5b505050505050505050565b6111ff6127be565b7f00000000000000000000000000000000000000000000000000000000000000006001600160a01b0316639af6c40e6040518163ffffffff1660e01b8152600401602060405180830381865afa15801561125d573d6000803e3d6000fd5b505050506040513d601f19601f820116820180604052508101906112819190613351565b6001600160a01b0316826001600160a01b0316146113185760405162461bcd60e51b815260206004820152604860248201527f5a69766f655472616e636865733a3a70757368546f4c6f636b6572282920617360448201527f73657420213d20495a69766f65476c6f62616c735f5472616e636865732847426064820152674c292e5a5645282960c01b608482015260a401610599565b61133f61132d6000546001600160a01b031690565b6001600160a01b0384169030846128f1565b5050565b60405163dd1db20160e01b81526001600160a01b0382811660048301527f0000000000000000000000000000000000000000000000000000000000000000169063dd1db20190602401602060405180830381865afa1580156113a9573d6000803e3d6000fd5b505050506040513d601f19601f820116820180604052508101906113cd919061332f565b61145e5760405162461bcd60e51b815260206004820152605660248201527f5a69766f655472616e636865733a3a6465706f73697453656e696f722829202160448201527f495a69766f65476c6f62616c735f5472616e636865732847424c292e737461626064820152756c65636f696e57686974656c6973742861737365742960501b608482015260a401610599565b600054600160a81b900460ff166114d05760405162461bcd60e51b815260206004820152603060248201527f5a69766f655472616e636865733a3a6465706f73697453656e696f722829202160448201526f1d1c985b98da195cd55b9b1bd8dad95960821b6064820152608401610599565b6000339050611537817f00000000000000000000000000000000000000000000000000000000000000006001600160a01b03166398fabd3a6040518163ffffffff1660e01b8152600401602060405180830381865afa158015610ed6573d6000803e3d6000fd5b60405163dc3c1da560e01b8152600481018490526001600160a01b0383811660248301526000917f00000000000000000000000000000000000000000000000000000000000000009091169063dc3c1da590604401602060405180830381865afa1580156115a9573d6000803e3d6000fd5b505050506040513d601f19601f820116820180604052508101906115cd9190613259565b905060006115da82612129565b9050836001600160a01b0316836001600160a01b03167f4c874d6e6a0f2184f4b24abe078f3422ad02b4efa73d19fbc16f0afba8145db1878460405161162a929190918252602082015260400190565b60405180910390a361169583827f00000000000000000000000000000000000000000000000000000000000000006001600160a01b0316639af6c40e6040518163ffffffff1660e01b8152600401602060405180830381865afa1580156110e6573d6000803e3d6000fd5b7f00000000000000000000000000000000000000000000000000000000000000006001600160a01b031663c5f4f7b06040518163ffffffff1660e01b8152600401602060405180830381865afa158015611168573d6000803e3d6000fd5b7f00000000000000000000000000000000000000000000000000000000000000006001600160a01b03166315154aff6040518163ffffffff1660e01b8152600401602060405180830381865afa158015611751573d6000803e3d6000fd5b505050506040513d601f19601f820116820180604052508101906117759190613351565b6001600160a01b0316336001600160a01b03161461180d5760405162461bcd60e51b815260206004820152604960248201527f5a69766f655472616e636865733a3a756e6c6f636b2829205f6d736753656e6460448201527f6572282920213d20495a69766f65476c6f62616c735f5472616e636865732847606482015268424c292e49544f282960b81b608482015260a401610599565b6000805460ff60a81b1916600160a81b179055565b61182a6127be565b60405162461bcd60e51b815260206004820152603c60248201527f5a69766f654c6f636b65723a3a70757368546f4c6f636b65724d756c7469455260448201527f433732312829202163616e507573684d756c74694552433732312829000000006064820152608401610599565b8581101561071b578686828181106118b2576118b26131ce565b90506020020160208101906118c79190612ee6565b6001600160a01b031663b88d4fde6118e76000546001600160a01b031690565b308888868181106118fa576118fa6131ce565b90506020020135878787818110611913576119136131ce565b905060200281019061192591906131e4565b6040518663ffffffff1660e01b815260040161194595949392919061319a565b600060405180830381600087803b15801561195f57600080fd5b505af1158015611973573d6000803e3d6000fd5b50505050808061198290613240565b915050611898565b60008060007f00000000000000000000000000000000000000000000000000000000000000006001600160a01b0316635351d09b6040518163ffffffff1660e01b81526004016040805180830381865afa1580156119ec573d6000803e3d6000fd5b505050506040513d601f19601f82011682018060405250810190611a109190613272565b915091506000807f00000000000000000000000000000000000000000000000000000000000000006001600160a01b031663106b3e8b6040518163ffffffff1660e01b8152600401602060405180830381865afa158015611a75573d6000803e3d6000fd5b505050506040513d601f19601f82011682018060405250810190611a999190613259565b7f00000000000000000000000000000000000000000000000000000000000000006001600160a01b0316638d2b41b76040518163ffffffff1660e01b8152600401602060405180830381865afa158015611af7573d6000803e3d6000fd5b505050506040513d601f19601f82011682018060405250810190611b1b9190613259565b611b25919061336e565b9050600084611b3661271086613296565b611b4091906132b5565b9050600085612710611b528a886132d7565b611b5c9190613296565b611b6691906132b5565b905060006002611b7683856132d7565b611b8091906132b5565b90507f00000000000000000000000000000000000000000000000000000000000000006001600160a01b03166397ce0b206040518163ffffffff1660e01b8152600401602060405180830381865afa158015611be0573d6000803e3d6000fd5b505050506040513d601f19601f82011682018060405250810190611c049190613259565b8111611c93577f00000000000000000000000000000000000000000000000000000000000000006001600160a01b0316638d2b41b76040518163ffffffff1660e01b8152600401602060405180830381865afa158015611c68573d6000803e3d6000fd5b505050506040513d601f19601f82011682018060405250810190611c8c9190613259565b9450611e2b565b7f00000000000000000000000000000000000000000000000000000000000000006001600160a01b0316639da33f616040518163ffffffff1660e01b8152600401602060405180830381865afa158015611cf1573d6000803e3d6000fd5b505050506040513d601f19601f82011682018060405250810190611d159190613259565b8110611d79577f00000000000000000000000000000000000000000000000000000000000000006001600160a01b031663106b3e8b6040518163ffffffff1660e01b8152600401602060405180830381865afa158015611c68573d6000803e3d6000fd5b6105dc611d886103e88361336e565b611d929086613296565b611d9c91906132b5565b7f00000000000000000000000000000000000000000000000000000000000000006001600160a01b0316638d2b41b76040518163ffffffff1660e01b8152600401602060405180830381865afa158015611dfa573d6000803e3d6000fd5b505050506040513d601f19601f82011682018060405250810190611e1e9190613259565b611e28919061336e565b94505b670de0b6b3a7640000611e3e8a87613296565b611e4891906132b5565b9750877f00000000000000000000000000000000000000000000000000000000000000006001600160a01b0316639af6c40e6040518163ffffffff1660e01b8152600401602060405180830381865afa158015611ea9573d6000803e3d6000fd5b505050506040513d601f19601f82011682018060405250810190611ecd9190613351565b6040516370a0823160e01b81523060048201526001600160a01b0391909116906370a0823190602401602060405180830381865afa158015611f13573d6000803e3d6000fd5b505050506040513d601f19601f82011682018060405250810190611f379190613259565b101561202c577f00000000000000000000000000000000000000000000000000000000000000006001600160a01b0316639af6c40e6040518163ffffffff1660e01b8152600401602060405180830381865afa158015611f9b573d6000803e3d6000fd5b505050506040513d601f19601f82011682018060405250810190611fbf9190613351565b6040516370a0823160e01b81523060048201526001600160a01b0391909116906370a0823190602401602060405180830381865afa158015612005573d6000803e3d6000fd5b505050506040513d601f19601f820116820180604052508101906120299190613259565b97505b50505050505050919050565b6120406127be565b60405162461bcd60e51b815260206004820152603060248201527f5a69766f654c6f636b65723a3a70757368546f4c6f636b65724d756c7469282960448201526f202163616e507573684d756c7469282960801b6064820152608401610599565b83811015612122576121106120be6000546001600160a01b031690565b308585858181106120d1576120d16131ce565b905060200201358888868181106120ea576120ea6131ce565b90506020020160208101906120ff9190612ee6565b6001600160a01b03169291906128f1565b8061211a81613240565b9150506120a1565b5050505050565b60008060007f00000000000000000000000000000000000000000000000000000000000000006001600160a01b0316635351d09b6040518163ffffffff1660e01b81526004016040805180830381865afa15801561218b573d6000803e3d6000fd5b505050506040513d601f19601f820116820180604052508101906121af9190613272565b915091506000807f00000000000000000000000000000000000000000000000000000000000000006001600160a01b031663106b3e8b6040518163ffffffff1660e01b8152600401602060405180830381865afa158015612214573d6000803e3d6000fd5b505050506040513d601f19601f820116820180604052508101906122389190613259565b7f00000000000000000000000000000000000000000000000000000000000000006001600160a01b0316638d2b41b76040518163ffffffff1660e01b8152600401602060405180830381865afa158015612296573d6000803e3d6000fd5b505050506040513d601f19601f820116820180604052508101906122ba9190613259565b6122c4919061336e565b90506000846122d561271086613296565b6122df91906132b5565b905060006122ed88876132d7565b6122f961271087613296565b61230391906132b5565b90506000600261231383856132d7565b61231d91906132b5565b90507f00000000000000000000000000000000000000000000000000000000000000006001600160a01b03166397ce0b206040518163ffffffff1660e01b8152600401602060405180830381865afa15801561237d573d6000803e3d6000fd5b505050506040513d601f19601f820116820180604052508101906123a19190613259565b8111612405577f00000000000000000000000000000000000000000000000000000000000000006001600160a01b031663106b3e8b6040518163ffffffff1660e01b8152600401602060405180830381865afa158015611c68573d6000803e3d6000fd5b7f00000000000000000000000000000000000000000000000000000000000000006001600160a01b0316639da33f616040518163ffffffff1660e01b8152600401602060405180830381865afa158015612463573d6000803e3d6000fd5b505050506040513d601f19601f820116820180604052508101906124879190613259565b81106124eb577f00000000000000000000000000000000000000000000000000000000000000006001600160a01b0316638d2b41b76040518163ffffffff1660e01b8152600401602060405180830381865afa158015611c68573d6000803e3d6000fd5b6105dc6124fa6103e88361336e565b6125049086613296565b61250e91906132b5565b7f00000000000000000000000000000000000000000000000000000000000000006001600160a01b031663106b3e8b6040518163ffffffff1660e01b8152600401602060405180830381865afa15801561256c573d6000803e3d6000fd5b505050506040513d601f19601f820116820180604052508101906125909190613259565b611e2891906132d7565b6125a26127be565b61133f6125b76000546001600160a01b031690565b6001600160a01b038416908361288e565b6125d06127be565b600054600160a01b900460ff16156125fa5760405162461bcd60e51b8152600401610599906132ea565b6001600160a01b0381166126765760405162461bcd60e51b815260206004820152603e60248201527f5a69766f654f776e61626c654c6f636b65643a3a7472616e736665724f776e6560448201527f72736869702829206e65774f776e6572203d3d206164647265737328302900006064820152608401610599565b610aa48161283e565b6126876127be565b60405162461bcd60e51b815260206004820152603460248201527f5a69766f654c6f636b65723a3a70757368546f4c6f636b6572455243313135356044820152732829202163616e5075736845524331313535282960601b6064820152608401610599565b6126f46127be565b6040805162461bcd60e51b81526020600482015260248101919091527f5a69766f654c6f636b65723a3a70756c6c46726f6d4c6f636b65724d756c746960448201527f5061727469616c2829202163616e50756c6c4d756c74695061727469616c28296064820152608401610599565b83811015612122576127ac6127816000546001600160a01b031690565b848484818110612793576127936131ce565b90506020020135878785818110610bd257610bd26131ce565b806127b681613240565b915050612764565b6000546001600160a01b03163314610c4a5760405162461bcd60e51b815260206004820152603760248201527f5a69766f654f776e61626c654c6f636b65643a3a5f636865636b4f776e65722060448201527f6f776e6572282920213d205f6d736753656e64657228290000000000000000006064820152608401610599565b600080546001600160a01b038381166001600160a01b0319831681178455604051919092169283917f8be0079c531659141344cd1fd0a4f28419497f9722a3daafe3b4186f6b6457e09190a35050565b6040516001600160a01b038316602482015260448101829052610c0990849063a9059cbb60e01b906064015b60408051601f198184030181529190526020810180516001600160e01b03166001600160e01b03199093169290921790915261292f565b6040516001600160a01b03808516602483015283166044820152606481018290526129299085906323b872dd60e01b906084016128ba565b50505050565b6000612984826040518060400160405280602081526020017f5361666545524332303a206c6f772d6c6576656c2063616c6c206661696c6564815250856001600160a01b0316612a019092919063ffffffff16565b805190915015610c0957808060200190518101906129a2919061332f565b610c095760405162461bcd60e51b815260206004820152602a60248201527f5361666545524332303a204552433230206f7065726174696f6e20646964206e6044820152691bdd081cdd58d8d9595960b21b6064820152608401610599565b60606105ab848460008585600080866001600160a01b03168587604051612a2891906133a5565b60006040518083038185875af1925050503d8060008114612a65576040519150601f19603f3d011682016040523d82523d6000602084013e612a6a565b606091505b5091509150612a7b87838387612a86565b979650505050505050565b60608315612af5578251600003612aee576001600160a01b0385163b612aee5760405162461bcd60e51b815260206004820152601d60248201527f416464726573733a2063616c6c20746f206e6f6e2d636f6e74726163740000006044820152606401610599565b50816105ab565b6105ab8383815115612b0a5781518083602001fd5b8060405162461bcd60e51b815260040161059991906133c1565b600060208284031215612b3657600080fd5b81356001600160e01b031981168114612b4e57600080fd5b9392505050565b6001600160a01b0381168114610aa457600080fd5b60008083601f840112612b7c57600080fd5b5081356001600160401b03811115612b9357600080fd5b602083019150836020828501011115612bab57600080fd5b9250929050565b60008060008060608587031215612bc857600080fd5b8435612bd381612b55565b93506020850135925060408501356001600160401b03811115612bf557600080fd5b612c0187828801612b6a565b95989497509550505050565b634e487b7160e01b600052604160045260246000fd5b604051601f8201601f191681016001600160401b0381118282101715612c4b57612c4b612c0d565b604052919050565b600082601f830112612c6457600080fd5b81356001600160401b03811115612c7d57612c7d612c0d565b612c90601f8201601f1916602001612c23565b818152846020838601011115612ca557600080fd5b816020850160208301376000918101602001919091529392505050565b60008060008060808587031215612cd857600080fd5b8435612ce381612b55565b93506020850135612cf381612b55565b92506040850135915060608501356001600160401b03811115612d1557600080fd5b612d2187828801612c53565b91505092959194509250565b60008083601f840112612d3f57600080fd5b5081356001600160401b03811115612d5657600080fd5b6020830191508360208260051b8501011115612bab57600080fd5b60008060008060008060608789031215612d8a57600080fd5b86356001600160401b0380821115612da157600080fd5b612dad8a838b01612d2d565b90985096506020890135915080821115612dc657600080fd5b612dd28a838b01612d2d565b90965094506040890135915080821115612deb57600080fd5b50612df889828a01612d2d565b979a9699509497509295939492505050565b60008060408385031215612e1d57600080fd5b823591506020830135612e2f81612b55565b809150509250929050565b60008060008060008060006080888a031215612e5557600080fd5b8735612e6081612b55565b965060208801356001600160401b0380821115612e7c57600080fd5b612e888b838c01612d2d565b909850965060408a0135915080821115612ea157600080fd5b612ead8b838c01612d2d565b909650945060608a0135915080821115612ec657600080fd5b50612ed38a828b01612b6a565b989b979a50959850939692959293505050565b600060208284031215612ef857600080fd5b8135612b4e81612b55565b60008060208385031215612f1657600080fd5b82356001600160401b03811115612f2c57600080fd5b612f3885828601612d2d565b90969095509350505050565b60008060408385031215612f5757600080fd5b8235612f6281612b55565b946020939093013593505050565b600082601f830112612f8157600080fd5b813560206001600160401b03821115612f9c57612f9c612c0d565b8160051b612fab828201612c23565b9283528481018201928281019087851115612fc557600080fd5b83870192505b84831015612a7b57823582529183019190830190612fcb565b600080600080600060a08688031215612ffc57600080fd5b853561300781612b55565b9450602086013561301781612b55565b935060408601356001600160401b038082111561303357600080fd5b61303f89838a01612f70565b9450606088013591508082111561305557600080fd5b61306189838a01612f70565b9350608088013591508082111561307757600080fd5b5061308488828901612c53565b9150509295509295909350565b6000602082840312156130a357600080fd5b5035919050565b600080600080604085870312156130c057600080fd5b84356001600160401b03808211156130d757600080fd5b6130e388838901612d2d565b909650945060208701359150808211156130fc57600080fd5b50612c0187828801612d2d565b600080600080600060a0868803121561312157600080fd5b853561312c81612b55565b9450602086013561313c81612b55565b9350604086013592506060860135915060808601356001600160401b0381111561316557600080fd5b61308488828901612c53565b81835281816020850137506000828201602090810191909152601f909101601f19169091010190565b6001600160a01b0386811682528516602082015260408101849052608060608201819052600090612a7b9083018486613171565b634e487b7160e01b600052603260045260246000fd5b6000808335601e198436030181126131fb57600080fd5b8301803591506001600160401b0382111561321557600080fd5b602001915036819003821315612bab57600080fd5b634e487b7160e01b600052601160045260246000fd5b6000600182016132525761325261322a565b5060010190565b60006020828403121561326b57600080fd5b5051919050565b6000806040838503121561328557600080fd5b505080516020909101519092909150565b60008160001904831182151516156132b0576132b061322a565b500290565b6000826132d257634e487b7160e01b600052601260045260246000fd5b500490565b8082018082111561052a5761052a61322a565b60208082526025908201527f5a69766f654f776e61626c654c6f636b65643a3a756e6c6f636b65642829206c6040820152641bd8dad95960da1b606082015260800190565b60006020828403121561334157600080fd5b81518015158114612b4e57600080fd5b60006020828403121561336357600080fd5b8151612b4e81612b55565b8181038181111561052a5761052a61322a565b60005b8381101561339c578181015183820152602001613384565b50506000910152565b600082516133b7818460208701613381565b9190910192915050565b60208152600082518060208401526133e0816040850160208701613381565b601f01601f1916919091016040019291505056fea26469706673582212206f144763ac41e4a6209966719d419dc1721389c5b30b122a8d40880e12990b7864736f6c63430008100033",
    "linkReferences": {}
  },
  "methodIdentifiers": {
    "GBL()": "3ce8d432",
    "canPull()": "215cccdd",
    "canPullERC1155()": "b0607cf8",
    "canPullERC721()": "3c117244",
    "canPullMulti()": "3eda81ad",
    "canPullMultiERC721()": "1852b383",
    "canPullMultiPartial()": "2f08d48b",
    "canPullPartial()": "64c77735",
    "canPush()": "e7f44629",
    "canPushERC1155()": "cf10b7ab",
    "canPushERC721()": "8b648ee2",
    "canPushMulti()": "a4a3e79d",
    "canPushMultiERC721()": "dd913bdb",
    "depositJunior(uint256,address)": "8097be04",
    "depositSenior(uint256,address)": "8a2ba9d2",
    "isJuniorOpen(uint256,address)": "27af3c2e",
    "locked()": "cf309012",
    "onERC1155BatchReceived(address,address,uint256[],uint256[],bytes)": "bc197c81",
    "onERC1155Received(address,address,uint256,uint256,bytes)": "f23a6e61",
    "onERC721Received(address,address,uint256,bytes)": "150b7a02",
    "owner()": "8da5cb5b",
    "pullFromLocker(address)": "7dbcdbc1",
    "pullFromLockerERC1155(address,uint256[],uint256[],bytes)": "422b2018",
    "pullFromLockerERC721(address,uint256,bytes)": "12052176",
    "pullFromLockerMulti(address[])": "607cd649",
    "pullFromLockerMultiERC721(address[],uint256[],bytes[])": "15e98744",
    "pullFromLockerMultiPartial(address[],uint256[])": "ff0459ba",
    "pullFromLockerPartial(address,uint256)": "d9821e3b",
    "pushToLocker(address,uint256)": "84476591",
    "pushToLockerERC1155(address,uint256[],uint256[],bytes)": "fd76f59d",
    "pushToLockerERC721(address,uint256,bytes)": "1d9389e9",
    "pushToLockerMulti(address[],uint256[])": "c9c6a414",
    "pushToLockerMultiERC721(address[],uint256[],bytes[])": "b892bcc0",
    "renounceOwnership()": "715018a6",
    "rewardZVEJuniorDeposit(uint256)": "bf683be0",
    "rewardZVESeniorDeposit(uint256)": "d71ecac9",
    "supportsInterface(bytes4)": "01ffc9a7",
    "tranchesUnlocked()": "7a46d5a4",
    "transferOwnership(address)": "f2fde38b",
    "transferOwnershipAndLock(address)": "58289c7e",
    "unlock()": "a69df4b5"
  },
  "id": 67
}