{
  "abi": [
    {
      "inputs": [
        {
          "internalType": "address",
          "name": "token",
          "type": "address"
        },
        {
          "internalType": "address",
          "name": "to",
          "type": "address"
        },
        {
          "internalType": "uint256",
          "name": "amount",
          "type": "uint256"
        }
      ],
      "name": "transferToken",
      "outputs": [],
      "stateMutability": "nonpayable",
      "type": "function"
    },
    {
      "inputs": [
        {
          "internalType": "address",
          "name": "stk",
          "type": "address"
        },
        {
          "internalType": "address",
          "name": "token",
          "type": "address"
        },
        {
          "internalType": "uint256",
          "name": "duration",
          "type": "uint256"
        }
      ],
      "name": "try_addReward",
      "outputs": [
        {
          "internalType": "bool",
          "name": "ok",
          "type": "bool"
        }
      ],
      "stateMutability": "nonpayable",
      "type": "function"
    },
    {
      "inputs": [
        {
          "internalType": "address",
          "name": "token",
          "type": "address"
        },
        {
          "internalType": "address",
          "name": "to",
          "type": "address"
        },
        {
          "internalType": "uint256",
          "name": "amount",
          "type": "uint256"
        }
      ],
      "name": "try_approveToken",
      "outputs": [
        {
          "internalType": "bool",
          "name": "ok",
          "type": "bool"
        }
      ],
      "stateMutability": "nonpayable",
      "type": "function"
    },
    {
      "inputs": [
        {
          "internalType": "address",
          "name": "token",
          "type": "address"
        },
        {
          "internalType": "uint256",
          "name": "amount",
          "type": "uint256"
        }
      ],
      "name": "try_burn",
      "outputs": [
        {
          "internalType": "bool",
          "name": "ok",
          "type": "bool"
        }
      ],
      "stateMutability": "nonpayable",
      "type": "function"
    },
    {
      "inputs": [
        {
          "internalType": "address",
          "name": "occ",
          "type": "address"
        },
        {
          "internalType": "uint256",
          "name": "id",
          "type": "uint256"
        }
      ],
      "name": "try_cancelRequest",
      "outputs": [
        {
          "internalType": "bool",
          "name": "ok",
          "type": "bool"
        }
      ],
      "stateMutability": "nonpayable",
      "type": "function"
    },
    {
      "inputs": [
        {
          "internalType": "address",
          "name": "token",
          "type": "address"
        },
        {
          "internalType": "address",
          "name": "account",
          "type": "address"
        },
        {
          "internalType": "bool",
          "name": "allowed",
          "type": "bool"
        }
      ],
      "name": "try_changeMinterRole",
      "outputs": [
        {
          "internalType": "bool",
          "name": "ok",
          "type": "bool"
        }
      ],
      "stateMutability": "nonpayable",
      "type": "function"
    },
    {
      "inputs": [
        {
          "internalType": "address",
          "name": "token",
          "type": "address"
        },
        {
          "internalType": "address",
          "name": "account",
          "type": "address"
        },
        {
          "internalType": "uint256",
          "name": "amount",
          "type": "uint256"
        }
      ],
      "name": "try_decreaseAllowance",
      "outputs": [
        {
          "internalType": "bool",
          "name": "ok",
          "type": "bool"
        }
      ],
      "stateMutability": "nonpayable",
      "type": "function"
    },
    {
      "inputs": [
        {
          "internalType": "address",
          "name": "amp",
          "type": "address"
        },
        {
          "internalType": "address",
          "name": "account",
          "type": "address"
        },
        {
          "internalType": "uint256",
          "name": "amount",
          "type": "uint256"
        }
      ],
      "name": "try_decreaseAmplification",
      "outputs": [
        {
          "internalType": "bool",
          "name": "ok",
          "type": "bool"
        }
      ],
      "stateMutability": "nonpayable",
      "type": "function"
    },
    {
      "inputs": [
        {
          "internalType": "address",
          "name": "gen",
          "type": "address"
        },
        {
          "internalType": "uint256",
          "name": "amount",
          "type": "uint256"
        }
      ],
      "name": "try_decreaseDefaults",
      "outputs": [
        {
          "internalType": "bool",
          "name": "ok",
          "type": "bool"
        }
      ],
      "stateMutability": "nonpayable",
      "type": "function"
    },
    {
      "inputs": [
        {
          "internalType": "address",
          "name": "zve",
          "type": "address"
        },
        {
          "internalType": "address",
          "name": "delegatee",
          "type": "address"
        }
      ],
      "name": "try_delegate",
      "outputs": [
        {
          "internalType": "bool",
          "name": "ok",
          "type": "bool"
        }
      ],
      "stateMutability": "nonpayable",
      "type": "function"
    },
    {
      "inputs": [
        {
          "internalType": "address",
          "name": "stk",
          "type": "address"
        },
        {
          "internalType": "address",
          "name": "token",
          "type": "address"
        },
        {
          "internalType": "uint256",
          "name": "amount",
          "type": "uint256"
        }
      ],
      "name": "try_depositReward",
      "outputs": [
        {
          "internalType": "bool",
          "name": "ok",
          "type": "bool"
        }
      ],
      "stateMutability": "nonpayable",
      "type": "function"
    },
    {
      "inputs": [
        {
          "internalType": "address",
          "name": "oce",
          "type": "address"
        }
      ],
      "name": "try_forwardEmissions",
      "outputs": [
        {
          "internalType": "bool",
          "name": "ok",
          "type": "bool"
        }
      ],
      "stateMutability": "nonpayable",
      "type": "function"
    },
    {
      "inputs": [
        {
          "internalType": "address",
          "name": "stk",
          "type": "address"
        }
      ],
      "name": "try_fullWithdraw",
      "outputs": [
        {
          "internalType": "bool",
          "name": "ok",
          "type": "bool"
        }
      ],
      "stateMutability": "nonpayable",
      "type": "function"
    },
    {
      "inputs": [
        {
          "internalType": "address",
          "name": "occ",
          "type": "address"
        },
        {
          "internalType": "uint256",
          "name": "id",
          "type": "uint256"
        }
      ],
      "name": "try_fundLoan",
      "outputs": [
        {
          "internalType": "bool",
          "name": "ok",
          "type": "bool"
        }
      ],
      "stateMutability": "nonpayable",
      "type": "function"
    },
    {
      "inputs": [
        {
          "internalType": "address",
          "name": "stk",
          "type": "address"
        },
        {
          "internalType": "uint256",
          "name": "ind",
          "type": "uint256"
        }
      ],
      "name": "try_getRewardAt",
      "outputs": [
        {
          "internalType": "bool",
          "name": "ok",
          "type": "bool"
        }
      ],
      "stateMutability": "nonpayable",
      "type": "function"
    },
    {
      "inputs": [
        {
          "internalType": "address",
          "name": "stk",
          "type": "address"
        }
      ],
      "name": "try_getRewards",
      "outputs": [
        {
          "internalType": "bool",
          "name": "ok",
          "type": "bool"
        }
      ],
      "stateMutability": "nonpayable",
      "type": "function"
    },
    {
      "inputs": [
        {
          "internalType": "address",
          "name": "token",
          "type": "address"
        },
        {
          "internalType": "address",
          "name": "account",
          "type": "address"
        },
        {
          "internalType": "uint256",
          "name": "amount",
          "type": "uint256"
        }
      ],
      "name": "try_increaseAllowance",
      "outputs": [
        {
          "internalType": "bool",
          "name": "ok",
          "type": "bool"
        }
      ],
      "stateMutability": "nonpayable",
      "type": "function"
    },
    {
      "inputs": [
        {
          "internalType": "address",
          "name": "amp",
          "type": "address"
        },
        {
          "internalType": "address",
          "name": "account",
          "type": "address"
        },
        {
          "internalType": "uint256",
          "name": "amount",
          "type": "uint256"
        }
      ],
      "name": "try_increaseAmplification",
      "outputs": [
        {
          "internalType": "bool",
          "name": "ok",
          "type": "bool"
        }
      ],
      "stateMutability": "nonpayable",
      "type": "function"
    },
    {
      "inputs": [
        {
          "internalType": "address",
          "name": "gen",
          "type": "address"
        },
        {
          "internalType": "uint256",
          "name": "amount",
          "type": "uint256"
        }
      ],
      "name": "try_increaseDefaults",
      "outputs": [
        {
          "internalType": "bool",
          "name": "ok",
          "type": "bool"
        }
      ],
      "stateMutability": "nonpayable",
      "type": "function"
    },
    {
      "inputs": [
        {
          "internalType": "address",
          "name": "token",
          "type": "address"
        },
        {
          "internalType": "address",
          "name": "account",
          "type": "address"
        },
        {
          "internalType": "uint256",
          "name": "amount",
          "type": "uint256"
        }
      ],
      "name": "try_mint",
      "outputs": [
        {
          "internalType": "bool",
          "name": "ok",
          "type": "bool"
        }
      ],
      "stateMutability": "nonpayable",
      "type": "function"
    },
    {
      "inputs": [
        {
          "internalType": "address",
          "name": "tranches",
          "type": "address"
        },
        {
          "internalType": "address",
          "name": "asset",
          "type": "address"
        },
        {
          "internalType": "bool",
          "name": "allowed",
          "type": "bool"
        }
      ],
      "name": "try_modifyStablecoinWhitelist",
      "outputs": [
        {
          "internalType": "bool",
          "name": "ok",
          "type": "bool"
        }
      ],
      "stateMutability": "nonpayable",
      "type": "function"
    },
    {
      "inputs": [
        {
          "internalType": "address",
          "name": "ret",
          "type": "address"
        },
        {
          "internalType": "address",
          "name": "asset",
          "type": "address"
        },
        {
          "internalType": "uint256",
          "name": "amount",
          "type": "uint256"
        },
        {
          "internalType": "address",
          "name": "multi",
          "type": "address"
        }
      ],
      "name": "try_passThroughYDL",
      "outputs": [
        {
          "internalType": "bool",
          "name": "ok",
          "type": "bool"
        }
      ],
      "stateMutability": "nonpayable",
      "type": "function"
    },
    {
      "inputs": [
        {
          "internalType": "address",
          "name": "dao",
          "type": "address"
        },
        {
          "internalType": "address",
          "name": "locker",
          "type": "address"
        },
        {
          "internalType": "address",
          "name": "asset",
          "type": "address"
        }
      ],
      "name": "try_pull",
      "outputs": [
        {
          "internalType": "bool",
          "name": "ok",
          "type": "bool"
        }
      ],
      "stateMutability": "nonpayable",
      "type": "function"
    },
    {
      "inputs": [
        {
          "internalType": "address",
          "name": "dao",
          "type": "address"
        },
        {
          "internalType": "address",
          "name": "locker",
          "type": "address"
        },
        {
          "internalType": "address",
          "name": "asset",
          "type": "address"
        },
        {
          "internalType": "uint256[]",
          "name": "ids",
          "type": "uint256[]"
        },
        {
          "internalType": "uint256[]",
          "name": "amounts",
          "type": "uint256[]"
        },
        {
          "internalType": "bytes",
          "name": "data",
          "type": "bytes"
        }
      ],
      "name": "try_pullERC1155Batch",
      "outputs": [
        {
          "internalType": "bool",
          "name": "ok",
          "type": "bool"
        }
      ],
      "stateMutability": "nonpayable",
      "type": "function"
    },
    {
      "inputs": [
        {
          "internalType": "address",
          "name": "dao",
          "type": "address"
        },
        {
          "internalType": "address",
          "name": "locker",
          "type": "address"
        },
        {
          "internalType": "address",
          "name": "asset",
          "type": "address"
        },
        {
          "internalType": "uint256",
          "name": "tokenId",
          "type": "uint256"
        },
        {
          "internalType": "bytes",
          "name": "data",
          "type": "bytes"
        }
      ],
      "name": "try_pullERC721",
      "outputs": [
        {
          "internalType": "bool",
          "name": "ok",
          "type": "bool"
        }
      ],
      "stateMutability": "nonpayable",
      "type": "function"
    },
    {
      "inputs": [
        {
          "internalType": "address",
          "name": "dao",
          "type": "address"
        },
        {
          "internalType": "address",
          "name": "locker",
          "type": "address"
        },
        {
          "internalType": "address[]",
          "name": "assets",
          "type": "address[]"
        }
      ],
      "name": "try_pullMulti",
      "outputs": [
        {
          "internalType": "bool",
          "name": "ok",
          "type": "bool"
        }
      ],
      "stateMutability": "nonpayable",
      "type": "function"
    },
    {
      "inputs": [
        {
          "internalType": "address",
          "name": "dao",
          "type": "address"
        },
        {
          "internalType": "address",
          "name": "locker",
          "type": "address"
        },
        {
          "internalType": "address[]",
          "name": "assets",
          "type": "address[]"
        },
        {
          "internalType": "uint256[]",
          "name": "tokenIds",
          "type": "uint256[]"
        },
        {
          "internalType": "bytes[]",
          "name": "data",
          "type": "bytes[]"
        }
      ],
      "name": "try_pullMultiERC721",
      "outputs": [
        {
          "internalType": "bool",
          "name": "ok",
          "type": "bool"
        }
      ],
      "stateMutability": "nonpayable",
      "type": "function"
    },
    {
      "inputs": [
        {
          "internalType": "address",
          "name": "dao",
          "type": "address"
        },
        {
          "internalType": "address",
          "name": "locker",
          "type": "address"
        },
        {
          "internalType": "address[]",
          "name": "assets",
          "type": "address[]"
        },
        {
          "internalType": "uint256[]",
          "name": "amounts",
          "type": "uint256[]"
        }
      ],
      "name": "try_pullMultiPartial",
      "outputs": [
        {
          "internalType": "bool",
          "name": "ok",
          "type": "bool"
        }
      ],
      "stateMutability": "nonpayable",
      "type": "function"
    },
    {
      "inputs": [
        {
          "internalType": "address",
          "name": "dao",
          "type": "address"
        },
        {
          "internalType": "address",
          "name": "locker",
          "type": "address"
        },
        {
          "internalType": "address",
          "name": "asset",
          "type": "address"
        },
        {
          "internalType": "uint256",
          "name": "amount",
          "type": "uint256"
        }
      ],
      "name": "try_pullPartial",
      "outputs": [
        {
          "internalType": "bool",
          "name": "ok",
          "type": "bool"
        }
      ],
      "stateMutability": "nonpayable",
      "type": "function"
    },
    {
      "inputs": [
        {
          "internalType": "address",
          "name": "dao",
          "type": "address"
        },
        {
          "internalType": "address",
          "name": "locker",
          "type": "address"
        },
        {
          "internalType": "address",
          "name": "asset",
          "type": "address"
        },
        {
          "internalType": "uint256",
          "name": "amount",
          "type": "uint256"
        }
      ],
      "name": "try_push",
      "outputs": [
        {
          "internalType": "bool",
          "name": "ok",
          "type": "bool"
        }
      ],
      "stateMutability": "nonpayable",
      "type": "function"
    },
    {
      "inputs": [
        {
          "internalType": "address",
          "name": "ret",
          "type": "address"
        },
        {
          "internalType": "address",
          "name": "asset",
          "type": "address"
        },
        {
          "internalType": "address",
          "name": "to",
          "type": "address"
        },
        {
          "internalType": "uint256",
          "name": "amount",
          "type": "uint256"
        }
      ],
      "name": "try_pushAsset",
      "outputs": [
        {
          "internalType": "bool",
          "name": "ok",
          "type": "bool"
        }
      ],
      "stateMutability": "nonpayable",
      "type": "function"
    },
    {
      "inputs": [
        {
          "internalType": "address",
          "name": "dao",
          "type": "address"
        },
        {
          "internalType": "address",
          "name": "locker",
          "type": "address"
        },
        {
          "internalType": "address",
          "name": "asset",
          "type": "address"
        },
        {
          "internalType": "uint256[]",
          "name": "ids",
          "type": "uint256[]"
        },
        {
          "internalType": "uint256[]",
          "name": "amounts",
          "type": "uint256[]"
        },
        {
          "internalType": "bytes",
          "name": "data",
          "type": "bytes"
        }
      ],
      "name": "try_pushERC1155Batch",
      "outputs": [
        {
          "internalType": "bool",
          "name": "ok",
          "type": "bool"
        }
      ],
      "stateMutability": "nonpayable",
      "type": "function"
    },
    {
      "inputs": [
        {
          "internalType": "address",
          "name": "dao",
          "type": "address"
        },
        {
          "internalType": "address",
          "name": "locker",
          "type": "address"
        },
        {
          "internalType": "address",
          "name": "asset",
          "type": "address"
        },
        {
          "internalType": "uint256",
          "name": "tokenId",
          "type": "uint256"
        },
        {
          "internalType": "bytes",
          "name": "data",
          "type": "bytes"
        }
      ],
      "name": "try_pushERC721",
      "outputs": [
        {
          "internalType": "bool",
          "name": "ok",
          "type": "bool"
        }
      ],
      "stateMutability": "nonpayable",
      "type": "function"
    },
    {
      "inputs": [
        {
          "internalType": "address",
          "name": "dao",
          "type": "address"
        },
        {
          "internalType": "address",
          "name": "locker",
          "type": "address"
        },
        {
          "internalType": "address[]",
          "name": "assets",
          "type": "address[]"
        },
        {
          "internalType": "uint256[]",
          "name": "amounts",
          "type": "uint256[]"
        }
      ],
      "name": "try_pushMulti",
      "outputs": [
        {
          "internalType": "bool",
          "name": "ok",
          "type": "bool"
        }
      ],
      "stateMutability": "nonpayable",
      "type": "function"
    },
    {
      "inputs": [
        {
          "internalType": "address",
          "name": "dao",
          "type": "address"
        },
        {
          "internalType": "address",
          "name": "locker",
          "type": "address"
        },
        {
          "internalType": "address[]",
          "name": "assets",
          "type": "address[]"
        },
        {
          "internalType": "uint256[]",
          "name": "tokenIds",
          "type": "uint256[]"
        },
        {
          "internalType": "bytes[]",
          "name": "data",
          "type": "bytes[]"
        }
      ],
      "name": "try_pushMultiERC721",
      "outputs": [
        {
          "internalType": "bool",
          "name": "ok",
          "type": "bool"
        }
      ],
      "stateMutability": "nonpayable",
      "type": "function"
    },
    {
      "inputs": [
        {
          "internalType": "address",
          "name": "exit",
          "type": "address"
        }
      ],
      "name": "try_renounceOwnership",
      "outputs": [
        {
          "internalType": "bool",
          "name": "ok",
          "type": "bool"
        }
      ],
      "stateMutability": "nonpayable",
      "type": "function"
    },
    {
      "inputs": [
        {
          "internalType": "address",
          "name": "stk",
          "type": "address"
        },
        {
          "internalType": "address",
          "name": "act",
          "type": "address"
        }
      ],
      "name": "try_revoke",
      "outputs": [
        {
          "internalType": "bool",
          "name": "ok",
          "type": "bool"
        }
      ],
      "stateMutability": "nonpayable",
      "type": "function"
    },
    {
      "inputs": [
        {
          "internalType": "address",
          "name": "ydl",
          "type": "address"
        },
        {
          "internalType": "address",
          "name": "asset",
          "type": "address"
        }
      ],
      "name": "try_setDistributedAsset",
      "outputs": [
        {
          "internalType": "bool",
          "name": "ok",
          "type": "bool"
        }
      ],
      "stateMutability": "nonpayable",
      "type": "function"
    },
    {
      "inputs": [
        {
          "internalType": "address",
          "name": "oce",
          "type": "address"
        },
        {
          "internalType": "uint256",
          "name": "val",
          "type": "uint256"
        }
      ],
      "name": "try_setExponentialDecayPerSecond",
      "outputs": [
        {
          "internalType": "bool",
          "name": "ok",
          "type": "bool"
        }
      ],
      "stateMutability": "nonpayable",
      "type": "function"
    },
    {
      "inputs": [
        {
          "internalType": "address",
          "name": "ydl",
          "type": "address"
        },
        {
          "internalType": "uint256",
          "name": "val",
          "type": "uint256"
        }
      ],
      "name": "try_setProtocolEarningsRateBIPS",
      "outputs": [
        {
          "internalType": "bool",
          "name": "ok",
          "type": "bool"
        }
      ],
      "stateMutability": "nonpayable",
      "type": "function"
    },
    {
      "inputs": [
        {
          "internalType": "address",
          "name": "ydl",
          "type": "address"
        },
        {
          "internalType": "uint256",
          "name": "val",
          "type": "uint256"
        }
      ],
      "name": "try_setTargetAPYBIPS",
      "outputs": [
        {
          "internalType": "bool",
          "name": "ok",
          "type": "bool"
        }
      ],
      "stateMutability": "nonpayable",
      "type": "function"
    },
    {
      "inputs": [
        {
          "internalType": "address",
          "name": "ydl",
          "type": "address"
        },
        {
          "internalType": "uint256",
          "name": "val",
          "type": "uint256"
        }
      ],
      "name": "try_setTargetRatioBIPS",
      "outputs": [
        {
          "internalType": "bool",
          "name": "ok",
          "type": "bool"
        }
      ],
      "stateMutability": "nonpayable",
      "type": "function"
    },
    {
      "inputs": [
        {
          "internalType": "address",
          "name": "stk",
          "type": "address"
        },
        {
          "internalType": "uint256",
          "name": "amount",
          "type": "uint256"
        }
      ],
      "name": "try_stake",
      "outputs": [
        {
          "internalType": "bool",
          "name": "ok",
          "type": "bool"
        }
      ],
      "stateMutability": "nonpayable",
      "type": "function"
    },
    {
      "inputs": [
        {
          "internalType": "address",
          "name": "ydl",
          "type": "address"
        },
        {
          "internalType": "uint256",
          "name": "amount",
          "type": "uint256"
        }
      ],
      "name": "try_supplementYield",
      "outputs": [
        {
          "internalType": "bool",
          "name": "ok",
          "type": "bool"
        }
      ],
      "stateMutability": "nonpayable",
      "type": "function"
    },
    {
      "inputs": [
        {
          "internalType": "address",
          "name": "token",
          "type": "address"
        },
        {
          "internalType": "address",
          "name": "from",
          "type": "address"
        },
        {
          "internalType": "address",
          "name": "to",
          "type": "address"
        },
        {
          "internalType": "uint256",
          "name": "amount",
          "type": "uint256"
        }
      ],
      "name": "try_transferFromToken",
      "outputs": [
        {
          "internalType": "bool",
          "name": "ok",
          "type": "bool"
        }
      ],
      "stateMutability": "nonpayable",
      "type": "function"
    },
    {
      "inputs": [
        {
          "internalType": "address",
          "name": "token",
          "type": "address"
        },
        {
          "internalType": "address",
          "name": "to",
          "type": "address"
        },
        {
          "internalType": "uint256",
          "name": "amount",
          "type": "uint256"
        }
      ],
      "name": "try_transferToken",
      "outputs": [
        {
          "internalType": "bool",
          "name": "ok",
          "type": "bool"
        }
      ],
      "stateMutability": "nonpayable",
      "type": "function"
    },
    {
      "inputs": [
        {
          "internalType": "address",
          "name": "ocl",
          "type": "address"
        },
        {
          "internalType": "uint256",
          "name": "val",
          "type": "uint256"
        }
      ],
      "name": "try_updateCompoundingRateBIPS",
      "outputs": [
        {
          "internalType": "bool",
          "name": "ok",
          "type": "bool"
        }
      ],
      "stateMutability": "nonpayable",
      "type": "function"
    },
    {
      "inputs": [
        {
          "internalType": "address",
          "name": "oce",
          "type": "address"
        },
        {
          "internalType": "uint256[3]",
          "name": "dist",
          "type": "uint256[3]"
        }
      ],
      "name": "try_updateDistributionRatioBIPS",
      "outputs": [
        {
          "internalType": "bool",
          "name": "ok",
          "type": "bool"
        }
      ],
      "stateMutability": "nonpayable",
      "type": "function"
    },
    {
      "inputs": [
        {
          "internalType": "address",
          "name": "gbl",
          "type": "address"
        },
        {
          "internalType": "address",
          "name": "keeper",
          "type": "address"
        },
        {
          "internalType": "bool",
          "name": "allowed",
          "type": "bool"
        }
      ],
      "name": "try_updateIsKeeper",
      "outputs": [
        {
          "internalType": "bool",
          "name": "ok",
          "type": "bool"
        }
      ],
      "stateMutability": "nonpayable",
      "type": "function"
    },
    {
      "inputs": [
        {
          "internalType": "address",
          "name": "gbl",
          "type": "address"
        },
        {
          "internalType": "address",
          "name": "locker",
          "type": "address"
        },
        {
          "internalType": "bool",
          "name": "allowed",
          "type": "bool"
        }
      ],
      "name": "try_updateIsLocker",
      "outputs": [
        {
          "internalType": "bool",
          "name": "ok",
          "type": "bool"
        }
      ],
      "stateMutability": "nonpayable",
      "type": "function"
    },
    {
      "inputs": [
        {
          "internalType": "address",
          "name": "gbl",
          "type": "address"
        },
        {
          "internalType": "uint256",
          "name": "amount",
          "type": "uint256"
        }
      ],
      "name": "try_updateLowerRatioIncentive",
      "outputs": [
        {
          "internalType": "bool",
          "name": "ok",
          "type": "bool"
        }
      ],
      "stateMutability": "nonpayable",
      "type": "function"
    },
    {
      "inputs": [
        {
          "internalType": "address",
          "name": "gbl",
          "type": "address"
        },
        {
          "internalType": "uint256",
          "name": "amount",
          "type": "uint256"
        }
      ],
      "name": "try_updateMaxTrancheRatio",
      "outputs": [
        {
          "internalType": "bool",
          "name": "ok",
          "type": "bool"
        }
      ],
      "stateMutability": "nonpayable",
      "type": "function"
    },
    {
      "inputs": [
        {
          "internalType": "address",
          "name": "gbl",
          "type": "address"
        },
        {
          "internalType": "uint256",
          "name": "amount",
          "type": "uint256"
        }
      ],
      "name": "try_updateMaxZVEPerJTTMint",
      "outputs": [
        {
          "internalType": "bool",
          "name": "ok",
          "type": "bool"
        }
      ],
      "stateMutability": "nonpayable",
      "type": "function"
    },
    {
      "inputs": [
        {
          "internalType": "address",
          "name": "gbl",
          "type": "address"
        },
        {
          "internalType": "uint256",
          "name": "amount",
          "type": "uint256"
        }
      ],
      "name": "try_updateMinZVEPerJTTMint",
      "outputs": [
        {
          "internalType": "bool",
          "name": "ok",
          "type": "bool"
        }
      ],
      "stateMutability": "nonpayable",
      "type": "function"
    },
    {
      "inputs": [
        {
          "internalType": "address",
          "name": "ydl",
          "type": "address"
        },
        {
          "internalType": "address[]",
          "name": "recipients",
          "type": "address[]"
        },
        {
          "internalType": "uint256[]",
          "name": "proportions",
          "type": "uint256[]"
        }
      ],
      "name": "try_updateProtocolRecipients",
      "outputs": [
        {
          "internalType": "bool",
          "name": "ok",
          "type": "bool"
        }
      ],
      "stateMutability": "nonpayable",
      "type": "function"
    },
    {
      "inputs": [
        {
          "internalType": "address",
          "name": "ydl",
          "type": "address"
        },
        {
          "internalType": "address[]",
          "name": "recipients",
          "type": "address[]"
        },
        {
          "internalType": "uint256[]",
          "name": "proportions",
          "type": "uint256[]"
        }
      ],
      "name": "try_updateResidualRecipients",
      "outputs": [
        {
          "internalType": "bool",
          "name": "ok",
          "type": "bool"
        }
      ],
      "stateMutability": "nonpayable",
      "type": "function"
    },
    {
      "inputs": [
        {
          "internalType": "address",
          "name": "gbl",
          "type": "address"
        },
        {
          "internalType": "address",
          "name": "stablecoin",
          "type": "address"
        },
        {
          "internalType": "bool",
          "name": "allowed",
          "type": "bool"
        }
      ],
      "name": "try_updateStablecoinWhitelist",
      "outputs": [
        {
          "internalType": "bool",
          "name": "ok",
          "type": "bool"
        }
      ],
      "stateMutability": "nonpayable",
      "type": "function"
    },
    {
      "inputs": [
        {
          "internalType": "address",
          "name": "gbl",
          "type": "address"
        },
        {
          "internalType": "uint256",
          "name": "amount",
          "type": "uint256"
        }
      ],
      "name": "try_updateUpperRatioIncentives",
      "outputs": [
        {
          "internalType": "bool",
          "name": "ok",
          "type": "bool"
        }
      ],
      "stateMutability": "nonpayable",
      "type": "function"
    },
    {
      "inputs": [
        {
          "internalType": "address",
          "name": "amplifier",
          "type": "address"
        },
        {
          "internalType": "address",
          "name": "account",
          "type": "address"
        },
        {
          "internalType": "bool",
          "name": "allowed",
          "type": "bool"
        }
      ],
      "name": "try_updateWhitelistedAmplifiers",
      "outputs": [
        {
          "internalType": "bool",
          "name": "ok",
          "type": "bool"
        }
      ],
      "stateMutability": "nonpayable",
      "type": "function"
    },
    {
      "inputs": [
        {
          "internalType": "address",
          "name": "vesting",
          "type": "address"
        },
        {
          "internalType": "address",
          "name": "account",
          "type": "address"
        },
        {
          "internalType": "uint256",
          "name": "daysUntilVestingBegins",
          "type": "uint256"
        },
        {
          "internalType": "uint256",
          "name": "daysToVest",
          "type": "uint256"
        },
        {
          "internalType": "uint256",
          "name": "amountToVest",
          "type": "uint256"
        }
      ],
      "name": "try_vest",
      "outputs": [
        {
          "internalType": "bool",
          "name": "ok",
          "type": "bool"
        }
      ],
      "stateMutability": "nonpayable",
      "type": "function"
    },
    {
      "inputs": [
        {
          "internalType": "address",
          "name": "stk",
          "type": "address"
        },
        {
          "internalType": "address",
          "name": "act",
          "type": "address"
        },
        {
          "internalType": "uint256",
          "name": "dtc",
          "type": "uint256"
        },
        {
          "internalType": "uint256",
          "name": "dtv",
          "type": "uint256"
        },
        {
          "internalType": "uint256",
          "name": "atv",
          "type": "uint256"
        },
        {
          "internalType": "bool",
          "name": "rev",
          "type": "bool"
        }
      ],
      "name": "try_vest",
      "outputs": [
        {
          "internalType": "bool",
          "name": "ok",
          "type": "bool"
        }
      ],
      "stateMutability": "nonpayable",
      "type": "function"
    },
    {
      "inputs": [
        {
          "internalType": "address",
          "name": "stk",
          "type": "address"
        },
        {
          "internalType": "uint256",
          "name": "amount",
          "type": "uint256"
        }
      ],
      "name": "try_withdraw",
      "outputs": [
        {
          "internalType": "bool",
          "name": "ok",
          "type": "bool"
        }
      ],
      "stateMutability": "nonpayable",
      "type": "function"
    }
  ],
  "bytecode": {
    "object": "0x608060405234801561001057600080fd5b50613048806100206000396000f3fe608060405234801561001057600080fd5b50600436106103b95760003560e01c8063796a2018116101f4578063a59420b51161011a578063e204becd116100ad578063f5537ede1161007c578063f5537ede14610820578063f585d70214610835578063f8b803e814610848578063fdf9a8d81461085b57600080fd5b8063e204becd146107d4578063e47702d7146107e7578063ee86209d146107fa578063f2025cdb1461080d57600080fd5b8063c4f36c7a116100e9578063c4f36c7a14610788578063c945d6cb1461079b578063ca73a0bf146107ae578063cedd5119146107c157600080fd5b8063a59420b51461073c578063ba2f69351461074f578063bce7b85514610762578063be6fb4751461077557600080fd5b80638d2b205c116101925780639d6b127a116101615780639d6b127a146106f05780639f459cb814610703578063a46dd76014610716578063a56e81f81461072957600080fd5b80638d2b205c146106a45780638ea98996146106b757806392d9cb6f146106ca57806399a49f69146106dd57600080fd5b806380ecd128116101ce57806380ecd1281461065857806383671f321461066b5780638565f4d81461067e57806385ad5a591461069157600080fd5b8063796a20181461061f5780637fb9f65514610632578063805734521461064557600080fd5b80634188ec6e116102e457806356e0135c1161027757806367d6ec411161024657806367d6ec41146105d35780636d6a44de146105e657806375cf1fdd146105f9578063783b7d371461060c57600080fd5b806356e0135c146105875780635af8f7141461059a5780635ba087e2146105ad5780635fb032a8146105c057600080fd5b80634d3fcc04116102b35780634d3fcc041461053b57806352bb93611461054e57806353d5cefb14610561578063547ebea41461057457600080fd5b80634188ec6e146104ef578063464dd9d9146105025780634c48f915146105155780634c731f541461052857600080fd5b80632b0d55f71161035c5780633cddef991161032b5780633cddef99146104a35780633e09d090146104b65780633f18f686146104c957806340c67316146104dc57600080fd5b80632b0d55f7146104575780632e418dd41461046a5780632fd2df121461047d57806339f7c5881461049057600080fd5b80630c746e17116103985780630c746e171461040b578063241327c41461041e578063247d10b11461043157806328cff5ff1461044457600080fd5b806293d6ca146103be5780630264c332146103e55780630a8a49f1146103f8575b600080fd5b6103d16103cc366004611fd0565b61086e565b604051901515815260200160405180910390f35b6103d16103f3366004611ffa565b61094f565b6103d1610406366004612082565b610a2b565b6103d161041936600461213d565b610b16565b6103d161042c366004611fd0565b610b5f565b6103d161043f366004611fd0565b610bb4565b6103d161045236600461213d565b610c09565b6103d1610465366004611fd0565b610c54565b6103d1610478366004612181565b610c9d565b6103d161048b36600461220a565b610cfc565b6103d161049e3660046122d8565b610dea565b6103d16104b1366004611ffa565b610ecf565b6103d16104c4366004611fd0565b610f28565b6103d16104d7366004611ffa565b610f7d565b6103d16104ea366004612357565b610fd6565b6103d16104fd3660046123a4565b6110c8565b6103d1610510366004612181565b611102565b6103d1610523366004611fd0565b611161565b6103d16105363660046123de565b6111af565b6103d1610549366004611fd0565b61128e565b6103d161055c36600461220a565b6112ca565b6103d161056f366004611fd0565b611312565b6103d1610582366004612429565b61134e565b6103d161059536600461248c565b6113ab565b6103d16105a8366004611fd0565b61147f565b6103d16105bb366004611ffa565b6114cb565b6103d16105ce366004612082565b611524565b6103d16105e1366004611fd0565b61156a565b6103d16105f4366004611ffa565b6115b3565b6103d16106073660046123de565b6115ef565b6103d161061a3660046124ae565b61164a565b6103d161062d36600461248c565b6116a5565b6103d161064036600461213d565b6116f1565b6103d1610653366004612181565b611748565b6103d1610666366004611fd0565b611790565b6103d1610679366004612181565b6117d5565b6103d161068c36600461248c565b611834565b6103d161069f366004611fd0565b611884565b6103d16106b2366004611ffa565b6118d9565b6103d16106c5366004611ffa565b611915565b6103d16106d8366004612181565b611966565b6103d16106eb366004611fd0565b6119ae565b6103d16106fe36600461248c565b611a03565b6103d1610711366004611fd0565b611a4d565b6103d1610724366004611fd0565b611a89565b6103d1610737366004611fd0565b611ac5565b6103d161074a36600461250f565b611b1a565b6103d161075d366004611ffa565b611b69565b6103d1610770366004612632565b611ba5565b6103d1610783366004611fd0565b611be1565b6103d1610796366004612704565b611c36565b6103d16107a9366004612181565b611c8d565b6103d16107bc366004612747565b611cd5565b6103d16107cf366004611fd0565b611d17565b6103d16107e2366004611ffa565b611d6c565b6103d16107f53660046123de565b611dc5565b6103d16108083660046122d8565b611e03565b6103d161081b366004612632565b611e45565b61083361082e366004611ffa565b611e81565b005b6103d16108433660046123de565b611ef8565b6103d1610856366004611fd0565b611f36565b6103d1610869366004612747565b611f72565b604080518082018252600e81526d7374616b652875696e743235362960901b6020820152905160248101839052600091906001600160a01b0385169082906044015b60408051601f1981840301815290829052916108cb916127ea565b60408051918290039091206020830180516001600160e01b03166001600160e01b03199092169190911790525161090291906127ea565b6000604051808303816000865af19150503d806000811461093f576040519150601f19603f3d011682016040523d82523d6000602084013e610944565b606091505b509095945050505050565b600080604051806060016040528060268152602001612dda602691399050846001600160a01b031681858560405160240161098b929190612806565b60408051601f1981840301815290829052916109a6916127ea565b60408051918290039091206020830180516001600160e01b03166001600160e01b0319909216919091179052516109dd91906127ea565b6000604051808303816000865af19150503d8060008114610a1a576040519150601f19603f3d011682016040523d82523d6000602084013e610a1f565b606091505b50909695505050505050565b600080604051806060016040528060348152602001612d47603491399050896001600160a01b0316818a8a8a8a8a8a8a604051602401610a7197969594939291906128c1565b60408051601f198184030181529082905291610a8c916127ea565b60408051918290039091206020830180516001600160e01b03166001600160e01b031990921691909117905251610ac391906127ea565b6000604051808303816000865af19150503d8060008114610b00576040519150601f19603f3d011682016040523d82523d6000602084013e610b05565b606091505b50909b9a5050505050505050505050565b604080518082018252600f81526e7265766f6b6528616464726573732960881b602082015290516001600160a01b038381166024830152600092919085169082906044016108b0565b604080518082018252601981527f696e63726561736544656661756c74732875696e7432353629000000000000006020820152905160248101839052600091906001600160a01b0385169082906044016108b0565b604080518082018252601b81527f736574546172676574526174696f424950532875696e743235362900000000006020820152905160248101839052600091906001600160a01b0385169082906044016108b0565b604080518082018252601181527064656c656761746528616464726573732960781b602082015290516001600160a01b038381166024830152600092919085169082906044016108b0565b604080518082018252601181527077697468647261772875696e743235362960781b6020820152905160248101839052600091906001600160a01b0385169082906044016108b0565b604080518082018252601c81527f75706461746549734b656570657228616464726573732c626f6f6c2900000000602082015290516001600160a01b03848116602483015283151560448301526000929190861690829060640161098b565b6000806040518060600160405280603b8152602001612f12603b913990508a6001600160a01b0316818b8b8b8b8b8b8b8b604051602401610d4498979695949392919061299a565b60408051601f198184030181529082905291610d5f916127ea565b60408051918290039091206020830180516001600160e01b03166001600160e01b031990921691909117905251610d9691906127ea565b6000604051808303816000865af19150503d8060008114610dd3576040519150601f19603f3d011682016040523d82523d6000602084013e610dd8565b606091505b50909c9b505050505050505050505050565b600080604051806060016040528060298152602001612d1e602991399050876001600160a01b0316818888888888604051602401610e2c9594939291906129fe565b60408051601f198184030181529082905291610e47916127ea565b60408051918290039091206020830180516001600160e01b03166001600160e01b031990921691909117905251610e7e91906127ea565b6000604051808303816000865af19150503d8060008114610ebb576040519150601f19603f3d011682016040523d82523d6000602084013e610ec0565b606091505b50909998505050505050505050565b6000806040518060400160405280601881526020017f617070726f766528616464726573732c75696e743235362900000000000000008152509050846001600160a01b031681858560405160240161098b929190612806565b604080518082018252601981527f646563726561736544656661756c74732875696e7432353629000000000000006020820152905160248101839052600091906001600160a01b0385169082906044016108b0565b6000806040518060400160405280601981526020017f7472616e7366657228616464726573732c75696e7432353629000000000000008152509050846001600160a01b031681858560405160240161098b929190612806565b600080604051806060016040528060258152602001612b77602591396040516001600160a01b03888116602483015260448201889052606482018790526084820186905291925090881690829060a40160408051601f198184030181529082905291611041916127ea565b60408051918290039091206020830180516001600160e01b03166001600160e01b03199092169190911790525161107891906127ea565b6000604051808303816000865af19150503d80600081146110b5576040519150601f19603f3d011682016040523d82523d6000602084013e6110ba565b606091505b509098975050505050505050565b600080604051806060016040528060278152602001612beb602791399050836001600160a01b031681846040516024016108b09190612a3d565b604080518082018252601c81527f75706461746549734c6f636b657228616464726573732c626f6f6c2900000000602082015290516001600160a01b03848116602483015283151560448301526000929190861690829060640161098b565b604080518082018252601681527563616e63656c526571756573742875696e743235362960501b6020820152905160248101839052600091906001600160a01b0385169082906044016108b0565b600080604051806060016040528060248152602001612d7b602491399050856001600160a01b0316818686866040516024016111ed93929190612a4c565b60408051601f198184030181529082905291611208916127ea565b60408051918290039091206020830180516001600160e01b03166001600160e01b03199092169190911790525161123f91906127ea565b6000604051808303816000865af19150503d806000811461127c576040519150601f19603f3d011682016040523d82523d6000602084013e611281565b606091505b5090979650505050505050565b600080604051806060016040528060248152602001612f4d602491399050836001600160a01b031681846040516024016108b091815260200190565b6000806040518060600160405280603b8152602001612d9f603b913990508a6001600160a01b0316818b8b8b8b8b8b8b8b604051602401610d4498979695949392919061299a565b600080604051806060016040528060228152602001612b9c602291399050836001600160a01b031681846040516024016108b091815260200190565b6000806040518060600160405280602a8152602001612cac602a91396040516001600160a01b03898116602483015260448201899052606482018890526084820187905285151560a483015291925090891690829060c401610e2c565b604080518082018252601381527272656e6f756e63654f776e657273686970282960681b602082015281516004815260248101928390526000926001600160a01b03851691906113fc9084906127ea565b60408051918290039091206020830180516001600160e01b03166001600160e01b03199092169190911790525161143391906127ea565b6000604051808303816000865af19150503d8060008114611470576040519150601f19603f3d011682016040523d82523d6000602084013e611475565b606091505b5090949350505050565b604080518082018252601481527367657452657761726441742875696e743235362960601b6020820152905160248101839052600091906001600160a01b0385169082906044016108b0565b6000806040518060400160405280601e81526020017f6465706f73697452657761726428616464726573732c75696e743235362900008152509050846001600160a01b031681858560405160240161098b929190612806565b600080604051806060016040528060348152602001612e00603491399050896001600160a01b0316818a8a8a8a8a8a8a604051602401610a7197969594939291906128c1565b604080518082018252601181527066756e644c6f616e2875696e743235362960781b6020820152905160248101839052600091906001600160a01b0385169082906044016108b0565b600080604051806060016040528060228152602001612c8a602291399050846001600160a01b031681858560405160240161098b929190612806565b6000806040518060400160405280601d81526020017f7075736828616464726573732c616464726573732c75696e74323536290000008152509050856001600160a01b0316818686866040516024016111ed93929190612a4c565b6000806040518060400160405280601c81526020017f70756c6c4d756c746928616464726573732c616464726573735b5d29000000008152509050856001600160a01b0316818686866040516024016111ed93929190612a70565b604080518082018252600e81526d66756c6c5769746864726177282960901b602082015281516004815260248101928390526000926001600160a01b03851691906113fc9084906127ea565b604080518082018252601c81527f7365744469737472696275746564417373657428616464726573732900000000602082015290516001600160a01b038381166024830152600092919085169082906044016108b0565b600080604051806060016040528060278152602001612eeb602791396040516001600160a01b038681166024830152851515604483015291925090861690829060640161098b565b604080518082018252600d81526c6275726e2875696e743235362960981b6020820152905160248101839052600091906001600160a01b0385169082906044016108b0565b604080518082018252601e81527f6368616e67654d696e746572526f6c6528616464726573732c626f6f6c290000602082015290516001600160a01b03848116602483015283151560448301526000929190861690829060640161098b565b6040805180820182526012815271666f7277617264456d697373696f6e73282960701b602082015281516004815260248101928390526000926001600160a01b03851691906113fc9084906127ea565b604080518082018252601881527f737570706c656d656e745969656c642875696e743235362900000000000000006020820152905160248101839052600091906001600160a01b0385169082906044016108b0565b600080604051806060016040528060268152602001612cd6602691399050846001600160a01b031681858560405160240161098b929190612806565b600080604051806040016040528060158152602001746d696e7428616464726573732c75696e743235362960581b8152509050846001600160a01b031681858560405160240161098b929190612806565b600080604051806060016040528060298152602001612fbd602991396040516001600160a01b038681166024830152851515604483015291925090861690829060640161098b565b604080518082018252601e81527f7570646174654d61785472616e636865526174696f2875696e743235362900006020820152905160248101839052600091906001600160a01b0385169082906044016108b0565b604080518082018252600c81526b67657452657761726473282960a01b602082015281516004815260248101928390526000926001600160a01b03851691906113fc9084906127ea565b600080604051806060016040528060228152602001612cfc602291399050836001600160a01b031681846040516024016108b091815260200190565b600080604051806060016040528060238152602001612e9f602391399050836001600160a01b031681846040516024016108b091815260200190565b604080518082018252601981527f736574546172676574415059424950532875696e7432353629000000000000006020820152905160248101839052600091906001600160a01b0385169082906044016108b0565b600080604051806060016040528060278152602001612e56602791396040516001600160a01b0387811660248301526044820187905285811660648301529192509087169082906084016111ed565b600080604051806060016040528060228152602001612e7d602291399050846001600160a01b031681858560405160240161098b929190612806565b6000806040518060600160405280602d8152602001612fe6602d91399050846001600160a01b031681858560405160240161098b929190612a9e565b604080518082018252601f81527f7570646174654d696e5a56455065724a54544d696e742875696e7432353629006020820152905160248101839052600091906001600160a01b0385169082906044016108b0565b604080518082018252601581527470756c6c28616464726573732c616464726573732960581b602082015290516001600160a01b03848116602483015283811660448301526000929190861690829060640161098b565b600080604051806060016040528060278152602001612f71602791396040516001600160a01b038681166024830152851515604483015291925090861690829060640161098b565b6000806040518060600160405280602d8152602001612c5d602d91399050876001600160a01b0316818888888888604051602401610e2c959493929190612b15565b604080518082018252601f81527f7570646174654d61785a56455065724a54544d696e742875696e7432353629006020820152905160248101839052600091906001600160a01b0385169082906044016108b0565b6000806040518060400160405280601a81526020017f61646452657761726428616464726573732c75696e74323536290000000000008152509050846001600160a01b031681858560405160240161098b929190612806565b600080604051806060016040528060258152602001612c12602591399050856001600160a01b0316818686866040516024016111ed93929190612a4c565b600080604051806060016040528060298152602001612ec2602991399050876001600160a01b0316818888888888604051602401610e2c9594939291906129fe565b6000806040518060600160405280602d8152602001612bbe602d91399050846001600160a01b031681858560405160240161098b929190612a9e565b60405163a9059cbb60e01b81526001600160a01b0384169063a9059cbb90611eaf9085908590600401612806565b6020604051808303816000875af1158015611ece573d6000803e3d6000fd5b505050506040513d601f19601f82011682018060405250810190611ef29190612b59565b50505050565b600080604051806060016040528060228152602001612e34602291399050856001600160a01b0316818686866040516024016111ed93929190612a4c565b600080604051806060016040528060258152602001612f98602591399050836001600160a01b031681846040516024016108b091815260200190565b600080604051806060016040528060268152602001612c37602691399050876001600160a01b0316818888888888604051602401610e2c959493929190612b15565b80356001600160a01b0381168114611fcb57600080fd5b919050565b60008060408385031215611fe357600080fd5b611fec83611fb4565b946020939093013593505050565b60008060006060848603121561200f57600080fd5b61201884611fb4565b925061202660208501611fb4565b9150604084013590509250925092565b60008083601f84011261204857600080fd5b50813567ffffffffffffffff81111561206057600080fd5b6020830191508360208260051b850101111561207b57600080fd5b9250929050565b60008060008060008060008060a0898b03121561209e57600080fd5b6120a789611fb4565b97506120b560208a01611fb4565b9650604089013567ffffffffffffffff808211156120d257600080fd5b6120de8c838d01612036565b909850965060608b01359150808211156120f757600080fd5b6121038c838d01612036565b909650945060808b013591508082111561211c57600080fd5b506121298b828c01612036565b999c989b5096995094979396929594505050565b6000806040838503121561215057600080fd5b61215983611fb4565b915061216760208401611fb4565b90509250929050565b801515811461217e57600080fd5b50565b60008060006060848603121561219657600080fd5b61219f84611fb4565b92506121ad60208501611fb4565b915060408401356121bd81612170565b809150509250925092565b60008083601f8401126121da57600080fd5b50813567ffffffffffffffff8111156121f257600080fd5b60208301915083602082850101111561207b57600080fd5b600080600080600080600080600060c08a8c03121561222857600080fd5b6122318a611fb4565b985061223f60208b01611fb4565b975061224d60408b01611fb4565b965060608a013567ffffffffffffffff8082111561226a57600080fd5b6122768d838e01612036565b909850965060808c013591508082111561228f57600080fd5b61229b8d838e01612036565b909650945060a08c01359150808211156122b457600080fd5b506122c18c828d016121c8565b915080935050809150509295985092959850929598565b60008060008060008060a087890312156122f157600080fd5b6122fa87611fb4565b955061230860208801611fb4565b945061231660408801611fb4565b935060608701359250608087013567ffffffffffffffff81111561233957600080fd5b61234589828a016121c8565b979a9699509497509295939492505050565b600080600080600060a0868803121561236f57600080fd5b61237886611fb4565b945061238660208701611fb4565b94979496505050506040830135926060810135926080909101359150565b600080608083850312156123b757600080fd5b6123c083611fb4565b9150836080840111156123d257600080fd5b50926020919091019150565b600080600080608085870312156123f457600080fd5b6123fd85611fb4565b935061240b60208601611fb4565b925061241960408601611fb4565b9396929550929360600135925050565b60008060008060008060c0878903121561244257600080fd5b61244b87611fb4565b955061245960208801611fb4565b945060408701359350606087013592506080870135915060a087013561247e81612170565b809150509295509295509295565b60006020828403121561249e57600080fd5b6124a782611fb4565b9392505050565b600080600080606085870312156124c457600080fd5b6124cd85611fb4565b93506124db60208601611fb4565b9250604085013567ffffffffffffffff8111156124f757600080fd5b61250387828801612036565b95989497509550505050565b6000806000806080858703121561252557600080fd5b61252e85611fb4565b935061253c60208601611fb4565b92506040850135915061255160608601611fb4565b905092959194509250565b634e487b7160e01b600052604160045260246000fd5b604051601f8201601f1916810167ffffffffffffffff8111828210171561259b5761259b61255c565b604052919050565b600067ffffffffffffffff8211156125bd576125bd61255c565b5060051b60200190565b600082601f8301126125d857600080fd5b813560206125ed6125e8836125a3565b612572565b82815260059290921b8401810191818101908684111561260c57600080fd5b8286015b848110156126275780358352918301918301612610565b509695505050505050565b60008060006060848603121561264757600080fd5b61265084611fb4565b925060208085013567ffffffffffffffff8082111561266e57600080fd5b818701915087601f83011261268257600080fd5b81356126906125e8826125a3565b81815260059190911b8301840190848101908a8311156126af57600080fd5b938501935b828510156126d4576126c585611fb4565b825293850193908501906126b4565b9650505060408701359250808311156126ec57600080fd5b50506126fa868287016125c7565b9150509250925092565b60008060006060848603121561271957600080fd5b61272284611fb4565b925061273060208501611fb4565b915061273e60408501611fb4565b90509250925092565b6000806000806000806080878903121561276057600080fd5b61276987611fb4565b955061277760208801611fb4565b9450604087013567ffffffffffffffff8082111561279457600080fd5b6127a08a838b01612036565b909650945060608901359150808211156127b957600080fd5b5061234589828a01612036565b60005b838110156127e15781810151838201526020016127c9565b50506000910152565b600082516127fc8184602087016127c6565b9190910192915050565b6001600160a01b03929092168252602082015260400190565b8183526000602080850194508260005b8581101561285b576001600160a01b0361284883611fb4565b168752958201959082019060010161282f565b509495945050505050565b81835260006001600160fb1b0383111561287f57600080fd5b8260051b80836020870137939093016020019392505050565b81835281816020850137506000828201602090810191909152601f909101601f19169091010190565b6001600160a01b0388168152608060208083018290526000916128e7908401898b61281f565b83810360408501526128fa81888a612866565b84810360608601528581529050818101600586901b820183018760005b8881101561298757848303601f190184528135368b9003601e1901811261293d57600080fd5b8a01868101903567ffffffffffffffff81111561295957600080fd5b80360382131561296857600080fd5b612973858284612898565b958801959450505090850190600101612917565b50909d9c50505050505050505050505050565b6001600160a01b0389811682528816602082015260a0604082018190526000906129c7908301888a612866565b82810360608401526129da818789612866565b905082810360808401526129ef818587612898565b9b9a5050505050505050505050565b6001600160a01b0386811682528516602082015260408101849052608060608201819052600090612a329083018486612898565b979650505050505050565b60608181019083833792915050565b6001600160a01b039384168152919092166020820152604081019190915260600190565b6001600160a01b0384168152604060208201819052600090612a95908301848661281f565b95945050505050565b604080825283519082018190526000906020906060840190828701845b82811015612ae05781516001600160a01b031684529284019290840190600101612abb565b5050508381038285015284518082528583019183019060005b8181101561128157835183529284019291840191600101612af9565b6001600160a01b0386168152606060208201819052600090612b3a908301868861281f565b8281036040840152612b4d818587612866565b98975050505050505050565b600060208284031215612b6b57600080fd5b81516124a78161217056fe7665737428616464726573732c75696e743235362c75696e743235362c75696e7432353629757064617465436f6d706f756e64696e6752617465424950532875696e743235362975706461746550726f746f636f6c526563697069656e747328616464726573735b5d2c75696e743235365b5d29757064617465446973747269627574696f6e526174696f424950532875696e743235365b335d297472616e7366657246726f6d28616464726573732c616464726573732c75696e7432353629707573684d756c746928616464726573732c616464726573735b5d2c75696e743235365b5d2970756c6c4d756c74695061727469616c28616464726573732c616464726573735b5d2c75696e743235365b5d29696e637265617365416c6c6f77616e636528616464726573732c75696e74323536297665737428616464726573732c75696e743235362c75696e743235362c75696e743235362c626f6f6c296465637265617365416d706c696669636174696f6e28616464726573732c75696e74323536297570646174654c6f776572526174696f496e63656e746976652875696e74323536297075736845524337323128616464726573732c616464726573732c75696e743235362c627974657329707573684d756c746945524337323128616464726573732c616464726573735b5d2c75696e743235365b5d2c62797465735b5d2970756c6c5061727469616c28616464726573732c616464726573732c75696e74323536297075736845524331313535426174636828616464726573732c616464726573732c75696e743235365b5d2c75696e743235365b5d2c627974657329696e637265617365416d706c696669636174696f6e28616464726573732c75696e743235362970756c6c4d756c746945524337323128616464726573732c616464726573735b5d2c75696e743235365b5d2c62797465735b5d2970757368417373657428616464726573732c616464726573732c75696e7432353629706173735468726f75676859444c28616464726573732c75696e743235362c61646472657373296465637265617365416c6c6f77616e636528616464726573732c75696e74323536297570646174655570706572526174696f496e63656e74697665732875696e743235362970756c6c45524337323128616464726573732c616464726573732c75696e743235362c6279746573296d6f64696679537461626c65636f696e57686974656c69737428616464726573732c626f6f6c2970756c6c45524331313535426174636828616464726573732c616464726573732c75696e743235365b5d2c75696e743235365b5d2c62797465732973657450726f746f636f6c4561726e696e677352617465424950532875696e7432353629757064617465537461626c65636f696e57686974656c69737428616464726573732c626f6f6c297365744578706f6e656e7469616c44656361795065725365636f6e642875696e743235362975706461746557686974656c6973746564416d706c69666965727328616464726573732c626f6f6c29757064617465526573696475616c526563697069656e747328616464726573735b5d2c75696e743235365b5d29a2646970667358221220c0a98abdc8292497f95c59adc7a743848e47e833bc39056115bd4ece6a1a35c164736f6c63430008100033",
    "linkReferences": {}
  },
  "methodIdentifiers": {
    "transferToken(address,address,uint256)": "f5537ede",
    "try_addReward(address,address,uint256)": "e204becd",
    "try_approveToken(address,address,uint256)": "3cddef99",
    "try_burn(address,uint256)": "80ecd128",
    "try_cancelRequest(address,uint256)": "4c48f915",
    "try_changeMinterRole(address,address,bool)": "83671f32",
    "try_decreaseAllowance(address,address,uint256)": "ba2f6935",
    "try_decreaseAmplification(address,address,uint256)": "8d2b205c",
    "try_decreaseDefaults(address,uint256)": "3e09d090",
    "try_delegate(address,address)": "28cff5ff",
    "try_depositReward(address,address,uint256)": "5ba087e2",
    "try_forwardEmissions(address)": "8565f4d8",
    "try_fullWithdraw(address)": "796a2018",
    "try_fundLoan(address,uint256)": "67d6ec41",
    "try_getRewardAt(address,uint256)": "5af8f714",
    "try_getRewards(address)": "9d6b127a",
    "try_increaseAllowance(address,address,uint256)": "6d6a44de",
    "try_increaseAmplification(address,address,uint256)": "0264c332",
    "try_increaseDefaults(address,uint256)": "241327c4",
    "try_mint(address,address,uint256)": "8ea98996",
    "try_modifyStablecoinWhitelist(address,address,bool)": "80573452",
    "try_passThroughYDL(address,address,uint256,address)": "a59420b5",
    "try_pull(address,address,address)": "c4f36c7a",
    "try_pullERC1155Batch(address,address,address,uint256[],uint256[],bytes)": "2fd2df12",
    "try_pullERC721(address,address,address,uint256,bytes)": "ee86209d",
    "try_pullMulti(address,address,address[])": "783b7d37",
    "try_pullMultiERC721(address,address,address[],uint256[],bytes[])": "5fb032a8",
    "try_pullMultiPartial(address,address,address[],uint256[])": "ca73a0bf",
    "try_pullPartial(address,address,address,uint256)": "4c731f54",
    "try_push(address,address,address,uint256)": "75cf1fdd",
    "try_pushAsset(address,address,address,uint256)": "f585d702",
    "try_pushERC1155Batch(address,address,address,uint256[],uint256[],bytes)": "52bb9361",
    "try_pushERC721(address,address,address,uint256,bytes)": "39f7c588",
    "try_pushMulti(address,address,address[],uint256[])": "fdf9a8d8",
    "try_pushMultiERC721(address,address,address[],uint256[],bytes[])": "0a8a49f1",
    "try_renounceOwnership(address)": "56e0135c",
    "try_revoke(address,address)": "0c746e17",
    "try_setDistributedAsset(address,address)": "7fb9f655",
    "try_setExponentialDecayPerSecond(address,uint256)": "f8b803e8",
    "try_setProtocolEarningsRateBIPS(address,uint256)": "4d3fcc04",
    "try_setTargetAPYBIPS(address,uint256)": "a56e81f8",
    "try_setTargetRatioBIPS(address,uint256)": "247d10b1",
    "try_stake(address,uint256)": "0093d6ca",
    "try_supplementYield(address,uint256)": "85ad5a59",
    "try_transferFromToken(address,address,address,uint256)": "e47702d7",
    "try_transferToken(address,address,uint256)": "3f18f686",
    "try_updateCompoundingRateBIPS(address,uint256)": "53d5cefb",
    "try_updateDistributionRatioBIPS(address,uint256[3])": "4188ec6e",
    "try_updateIsKeeper(address,address,bool)": "2e418dd4",
    "try_updateIsLocker(address,address,bool)": "464dd9d9",
    "try_updateLowerRatioIncentive(address,uint256)": "9f459cb8",
    "try_updateMaxTrancheRatio(address,uint256)": "99a49f69",
    "try_updateMaxZVEPerJTTMint(address,uint256)": "cedd5119",
    "try_updateMinZVEPerJTTMint(address,uint256)": "be6fb475",
    "try_updateProtocolRecipients(address,address[],uint256[])": "f2025cdb",
    "try_updateResidualRecipients(address,address[],uint256[])": "bce7b855",
    "try_updateStablecoinWhitelist(address,address,bool)": "c945d6cb",
    "try_updateUpperRatioIncentives(address,uint256)": "a46dd760",
    "try_updateWhitelistedAmplifiers(address,address,bool)": "92d9cb6f",
    "try_vest(address,address,uint256,uint256,uint256)": "40c67316",
    "try_vest(address,address,uint256,uint256,uint256,bool)": "547ebea4",
    "try_withdraw(address,uint256)": "2b0d55f7"
  },
  "id": 113
}