{
  "abi": [
    {
      "inputs": [
        {
          "internalType": "address",
          "name": "ito",
          "type": "address"
        }
      ],
      "name": "claimAidrop",
      "outputs": [
        {
          "internalType": "uint256",
          "name": "",
          "type": "uint256"
        },
        {
          "internalType": "uint256",
          "name": "",
          "type": "uint256"
        },
        {
          "internalType": "uint256",
          "name": "",
          "type": "uint256"
        }
      ],
      "stateMutability": "nonpayable",
      "type": "function"
    },
    {
      "inputs": [
        {
          "internalType": "address",
          "name": "token",
          "type": "address"
        },
        {
          "internalType": "address",
          "name": "to",
          "type": "address"
        },
        {
          "internalType": "uint256",
          "name": "amount",
          "type": "uint256"
        }
      ],
      "name": "transferByTrader",
      "outputs": [],
      "stateMutability": "nonpayable",
      "type": "function"
    },
    {
      "inputs": [
        {
          "internalType": "address",
          "name": "token",
          "type": "address"
        },
        {
          "internalType": "address",
          "name": "to",
          "type": "address"
        },
        {
          "internalType": "uint256",
          "name": "amount",
          "type": "uint256"
        }
      ],
      "name": "transferToken",
      "outputs": [],
      "stateMutability": "nonpayable",
      "type": "function"
    },
    {
      "inputs": [
        {
          "internalType": "address",
          "name": "token",
          "type": "address"
        },
        {
          "internalType": "address",
          "name": "to",
          "type": "address"
        },
        {
          "internalType": "uint256",
          "name": "amount",
          "type": "uint256"
        }
      ],
      "name": "try_approveToken",
      "outputs": [
        {
          "internalType": "bool",
          "name": "ok",
          "type": "bool"
        }
      ],
      "stateMutability": "nonpayable",
      "type": "function"
    },
    {
      "inputs": [
        {
          "internalType": "address",
          "name": "token",
          "type": "address"
        },
        {
          "internalType": "uint256",
          "name": "amount",
          "type": "uint256"
        },
        {
          "internalType": "address",
          "name": "asset",
          "type": "address"
        }
      ],
      "name": "try_burnSenior",
      "outputs": [
        {
          "internalType": "bool",
          "name": "ok",
          "type": "bool"
        }
      ],
      "stateMutability": "nonpayable",
      "type": "function"
    },
    {
      "inputs": [
        {
          "internalType": "address",
          "name": "vesting",
          "type": "address"
        },
        {
          "internalType": "address",
          "name": "account",
          "type": "address"
        }
      ],
      "name": "try_claim",
      "outputs": [
        {
          "internalType": "bool",
          "name": "ok",
          "type": "bool"
        }
      ],
      "stateMutability": "nonpayable",
      "type": "function"
    },
    {
      "inputs": [
        {
          "internalType": "address",
          "name": "ito",
          "type": "address"
        }
      ],
      "name": "try_claim",
      "outputs": [
        {
          "internalType": "bool",
          "name": "ok",
          "type": "bool"
        }
      ],
      "stateMutability": "nonpayable",
      "type": "function"
    },
    {
      "inputs": [
        {
          "internalType": "address",
          "name": "tranches",
          "type": "address"
        }
      ],
      "name": "try_claimTrancheTokens",
      "outputs": [
        {
          "internalType": "bool",
          "name": "ok",
          "type": "bool"
        }
      ],
      "stateMutability": "nonpayable",
      "type": "function"
    },
    {
      "inputs": [
        {
          "internalType": "address",
          "name": "zve",
          "type": "address"
        },
        {
          "internalType": "address",
          "name": "delegatee",
          "type": "address"
        }
      ],
      "name": "try_delegate",
      "outputs": [
        {
          "internalType": "bool",
          "name": "ok",
          "type": "bool"
        }
      ],
      "stateMutability": "nonpayable",
      "type": "function"
    },
    {
      "inputs": [
        {
          "internalType": "address",
          "name": "ito",
          "type": "address"
        },
        {
          "internalType": "uint256",
          "name": "amount",
          "type": "uint256"
        },
        {
          "internalType": "address",
          "name": "asset",
          "type": "address"
        }
      ],
      "name": "try_depositJunior",
      "outputs": [
        {
          "internalType": "bool",
          "name": "ok",
          "type": "bool"
        }
      ],
      "stateMutability": "nonpayable",
      "type": "function"
    },
    {
      "inputs": [
        {
          "internalType": "address",
          "name": "tranches",
          "type": "address"
        },
        {
          "internalType": "uint256",
          "name": "amount",
          "type": "uint256"
        },
        {
          "internalType": "address",
          "name": "asset",
          "type": "address"
        }
      ],
      "name": "try_depositJuniorTranches",
      "outputs": [
        {
          "internalType": "bool",
          "name": "ok",
          "type": "bool"
        }
      ],
      "stateMutability": "nonpayable",
      "type": "function"
    },
    {
      "inputs": [
        {
          "internalType": "address",
          "name": "ito",
          "type": "address"
        },
        {
          "internalType": "uint256",
          "name": "amount",
          "type": "uint256"
        },
        {
          "internalType": "address",
          "name": "asset",
          "type": "address"
        }
      ],
      "name": "try_depositSenior",
      "outputs": [
        {
          "internalType": "bool",
          "name": "ok",
          "type": "bool"
        }
      ],
      "stateMutability": "nonpayable",
      "type": "function"
    },
    {
      "inputs": [
        {
          "internalType": "address",
          "name": "tranches",
          "type": "address"
        },
        {
          "internalType": "uint256",
          "name": "amount",
          "type": "uint256"
        },
        {
          "internalType": "address",
          "name": "asset",
          "type": "address"
        }
      ],
      "name": "try_depositSeniorTranches",
      "outputs": [
        {
          "internalType": "bool",
          "name": "ok",
          "type": "bool"
        }
      ],
      "stateMutability": "nonpayable",
      "type": "function"
    },
    {
      "inputs": [
        {
          "internalType": "address",
          "name": "stk",
          "type": "address"
        }
      ],
      "name": "try_fullWithdraw",
      "outputs": [
        {
          "internalType": "bool",
          "name": "ok",
          "type": "bool"
        }
      ],
      "stateMutability": "nonpayable",
      "type": "function"
    },
    {
      "inputs": [
        {
          "internalType": "address",
          "name": "stk",
          "type": "address"
        },
        {
          "internalType": "uint256",
          "name": "ind",
          "type": "uint256"
        }
      ],
      "name": "try_getRewardAt",
      "outputs": [
        {
          "internalType": "bool",
          "name": "ok",
          "type": "bool"
        }
      ],
      "stateMutability": "nonpayable",
      "type": "function"
    },
    {
      "inputs": [
        {
          "internalType": "address",
          "name": "stk",
          "type": "address"
        }
      ],
      "name": "try_getRewards",
      "outputs": [
        {
          "internalType": "bool",
          "name": "ok",
          "type": "bool"
        }
      ],
      "stateMutability": "nonpayable",
      "type": "function"
    },
    {
      "inputs": [
        {
          "internalType": "address",
          "name": "token",
          "type": "address"
        },
        {
          "internalType": "address",
          "name": "account",
          "type": "address"
        },
        {
          "internalType": "uint256",
          "name": "amount",
          "type": "uint256"
        }
      ],
      "name": "try_mint",
      "outputs": [
        {
          "internalType": "bool",
          "name": "ok",
          "type": "bool"
        }
      ],
      "stateMutability": "nonpayable",
      "type": "function"
    },
    {
      "inputs": [
        {
          "internalType": "address",
          "name": "tranches",
          "type": "address"
        },
        {
          "internalType": "address",
          "name": "asset",
          "type": "address"
        },
        {
          "internalType": "bool",
          "name": "allowed",
          "type": "bool"
        }
      ],
      "name": "try_modifyStablecoinWhitelist",
      "outputs": [
        {
          "internalType": "bool",
          "name": "ok",
          "type": "bool"
        }
      ],
      "stateMutability": "nonpayable",
      "type": "function"
    },
    {
      "inputs": [
        {
          "internalType": "address",
          "name": "stk",
          "type": "address"
        },
        {
          "internalType": "uint256",
          "name": "amount",
          "type": "uint256"
        }
      ],
      "name": "try_stake",
      "outputs": [
        {
          "internalType": "bool",
          "name": "ok",
          "type": "bool"
        }
      ],
      "stateMutability": "nonpayable",
      "type": "function"
    },
    {
      "inputs": [
        {
          "internalType": "address",
          "name": "ydl",
          "type": "address"
        },
        {
          "internalType": "uint256",
          "name": "amount",
          "type": "uint256"
        }
      ],
      "name": "try_supplementYield",
      "outputs": [
        {
          "internalType": "bool",
          "name": "ok",
          "type": "bool"
        }
      ],
      "stateMutability": "nonpayable",
      "type": "function"
    },
    {
      "inputs": [
        {
          "internalType": "address",
          "name": "token",
          "type": "address"
        },
        {
          "internalType": "address",
          "name": "to",
          "type": "address"
        },
        {
          "internalType": "uint256",
          "name": "amount",
          "type": "uint256"
        }
      ],
      "name": "try_transferByTrader",
      "outputs": [
        {
          "internalType": "bool",
          "name": "ok",
          "type": "bool"
        }
      ],
      "stateMutability": "nonpayable",
      "type": "function"
    },
    {
      "inputs": [
        {
          "internalType": "address",
          "name": "stk",
          "type": "address"
        },
        {
          "internalType": "uint256",
          "name": "amount",
          "type": "uint256"
        }
      ],
      "name": "try_withdraw",
      "outputs": [
        {
          "internalType": "bool",
          "name": "ok",
          "type": "bool"
        }
      ],
      "stateMutability": "nonpayable",
      "type": "function"
    }
  ],
  "bytecode": {
    "object": "0x608060405234801561001057600080fd5b50610cdc806100206000396000f3fe608060405234801561001057600080fd5b50600436106101415760003560e01c8063796a2018116100b85780639f70aeb21161007c5780639f70aeb214610293578063b25d8c211461016e578063bc08186c14610293578063d8b47343146102a6578063e5d04d63146102b9578063f5537ede146102b957600080fd5b8063796a201814610234578063805734521461024757806385ad5a591461025a5780638ea989961461026d5780639d6b127a1461028057600080fd5b8063365fc6251161010a578063365fc625146101ba5780633cddef99146101cd5780634303b31d146101e05780635af8f714146101f35780636b71b5b9146102065780637188a084146101ba57600080fd5b806293d6ca1461014657806302b62fc11461016e5780631d4ff3861461018157806328cff5ff146101945780632b0d55f7146101a7575b600080fd5b610159610154366004610aa5565b6102ce565b60405190151581526020015b60405180910390f35b61015961017c366004610acf565b6103af565b61015961018f366004610b0b565b6104a9565b6101596101a2366004610b0b565b6104f1565b6101596101b5366004610aa5565b61053c565b6101596101c8366004610b3e565b610585565b6101596101db366004610b60565b61064d565b6101596101ee366004610acf565b6106ab565b610159610201366004610aa5565b610709565b610219610214366004610b3e565b610755565b60408051938452602084019290925290820152606001610165565b610159610242366004610b3e565b6107cb565b610159610255366004610bad565b610817565b610159610268366004610aa5565b61085f565b61015961027b366004610b60565b6108b4565b61015961028e366004610b3e565b61090a565b6101596102a1366004610acf565b610954565b6101596102b4366004610b60565b6109b2565b6102cc6102c7366004610b60565b610a10565b005b604080518082018252600e81526d7374616b652875696e743235362960901b6020820152905160248101839052600091906001600160a01b0385169082906044015b60408051601f19818403018152908290529161032b91610c18565b60408051918290039091206020830180516001600160e01b03166001600160e01b0319909216919091179052516103629190610c18565b6000604051808303816000865af19150503d806000811461039f576040519150601f19603f3d011682016040523d82523d6000602084013e6103a4565b606091505b509095945050505050565b604080518082018252601e81527f6465706f7369744a756e696f722875696e743235362c6164647265737329000060208201529051602481018490526001600160a01b038381166044830152600092919086169082906064015b60408051601f19818403018152908290529161042491610c18565b60408051918290039091206020830180516001600160e01b03166001600160e01b03199092169190911790525161045b9190610c18565b6000604051808303816000865af19150503d8060008114610498576040519150601f19603f3d011682016040523d82523d6000602084013e61049d565b606091505b50909695505050505050565b604080518082018252600e81526d636c61696d28616464726573732960901b602082015290516001600160a01b03838116602483015260009291908516908290604401610310565b604080518082018252601181527064656c656761746528616464726573732960781b602082015290516001600160a01b03838116602483015260009291908516908290604401610310565b604080518082018252601181527077697468647261772875696e743235362960781b6020820152905160248101839052600091906001600160a01b038516908290604401610310565b6040805180820182526007815266636c61696d282960c81b602082015281516004815260248101928390526000926001600160a01b03851691906105ca908490610c18565b60408051918290039091206020830180516001600160e01b03166001600160e01b0319909216919091179052516106019190610c18565b6000604051808303816000865af19150503d806000811461063e576040519150601f19603f3d011682016040523d82523d6000602084013e610643565b606091505b5090949350505050565b604080518082018252601881527f617070726f766528616464726573732c75696e74323536290000000000000000602082015290516001600160a01b0384811660248301526044820184905260009291908616908290606401610409565b604080518082018252601b81527f6275726e53656e696f722875696e743235362c6164647265737329000000000060208201529051602481018490526001600160a01b03838116604483015260009291908616908290606401610409565b604080518082018252601481527367657452657761726441742875696e743235362960601b6020820152905160248101839052600091906001600160a01b038516908290604401610310565b6000806000836001600160a01b0316634e71d92d6040518163ffffffff1660e01b81526004016060604051808303816000875af115801561079a573d6000803e3d6000fd5b505050506040513d601f19601f820116820180604052508101906107be9190610c34565b9250925092509193909250565b604080518082018252600e81526d66756c6c5769746864726177282960901b602082015281516004815260248101928390526000926001600160a01b03851691906105ca908490610c18565b600080604051806060016040528060278152602001610c80602791396040516001600160a01b0386811660248301528515156044830152919250908616908290606401610409565b604080518082018252601881527f737570706c656d656e745969656c642875696e743235362900000000000000006020820152905160248101839052600091906001600160a01b038516908290604401610310565b60408051808201825260158152746d696e7428616464726573732c75696e743235362960581b602082015290516001600160a01b0384811660248301526044820184905260009291908616908290606401610409565b604080518082018252600c81526b67657452657761726473282960a01b602082015281516004815260248101928390526000926001600160a01b03851691906105ca908490610c18565b604080518082018252601e81527f6465706f73697453656e696f722875696e743235362c6164647265737329000060208201529051602481018490526001600160a01b03838116604483015260009291908616908290606401610409565b604080518082018252601981527f7472616e7366657228616464726573732c75696e743235362900000000000000602082015290516001600160a01b0384811660248301526044820184905260009291908616908290606401610409565b60405163a9059cbb60e01b81526001600160a01b0383811660048301526024820183905284169063a9059cbb906044016020604051808303816000875af1158015610a5f573d6000803e3d6000fd5b505050506040513d601f19601f82011682018060405250810190610a839190610c62565b50505050565b80356001600160a01b0381168114610aa057600080fd5b919050565b60008060408385031215610ab857600080fd5b610ac183610a89565b946020939093013593505050565b600080600060608486031215610ae457600080fd5b610aed84610a89565b925060208401359150610b0260408501610a89565b90509250925092565b60008060408385031215610b1e57600080fd5b610b2783610a89565b9150610b3560208401610a89565b90509250929050565b600060208284031215610b5057600080fd5b610b5982610a89565b9392505050565b600080600060608486031215610b7557600080fd5b610b7e84610a89565b9250610b8c60208501610a89565b9150604084013590509250925092565b8015158114610baa57600080fd5b50565b600080600060608486031215610bc257600080fd5b610bcb84610a89565b9250610bd960208501610a89565b91506040840135610be981610b9c565b809150509250925092565b60005b83811015610c0f578181015183820152602001610bf7565b50506000910152565b60008251610c2a818460208701610bf4565b9190910192915050565b600080600060608486031215610c4957600080fd5b8351925060208401519150604084015190509250925092565b600060208284031215610c7457600080fd5b8151610b5981610b9c56fe6d6f64696679537461626c65636f696e57686974656c69737428616464726573732c626f6f6c29a26469706673582212207637eb4b38fb7d2b9ca4f329af50a84b139c82274184a612f19a7c2708febf4e64736f6c63430008100033",
    "linkReferences": {}
  },
  "methodIdentifiers": {
    "claimAidrop(address)": "6b71b5b9",
    "transferByTrader(address,address,uint256)": "e5d04d63",
    "transferToken(address,address,uint256)": "f5537ede",
    "try_approveToken(address,address,uint256)": "3cddef99",
    "try_burnSenior(address,uint256,address)": "4303b31d",
    "try_claim(address)": "7188a084",
    "try_claim(address,address)": "1d4ff386",
    "try_claimTrancheTokens(address)": "365fc625",
    "try_delegate(address,address)": "28cff5ff",
    "try_depositJunior(address,uint256,address)": "b25d8c21",
    "try_depositJuniorTranches(address,uint256,address)": "02b62fc1",
    "try_depositSenior(address,uint256,address)": "9f70aeb2",
    "try_depositSeniorTranches(address,uint256,address)": "bc08186c",
    "try_fullWithdraw(address)": "796a2018",
    "try_getRewardAt(address,uint256)": "5af8f714",
    "try_getRewards(address)": "9d6b127a",
    "try_mint(address,address,uint256)": "8ea98996",
    "try_modifyStablecoinWhitelist(address,address,bool)": "80573452",
    "try_stake(address,uint256)": "0093d6ca",
    "try_supplementYield(address,uint256)": "85ad5a59",
    "try_transferByTrader(address,address,uint256)": "d8b47343",
    "try_withdraw(address,uint256)": "2b0d55f7"
  },
  "id": 117
}