{
  "abi": [
    {
      "inputs": [
        {
          "internalType": "address",
          "name": "token",
          "type": "address"
        },
        {
          "internalType": "address",
          "name": "to",
          "type": "address"
        },
        {
          "internalType": "uint256",
          "name": "amount",
          "type": "uint256"
        }
      ],
      "name": "transferByTrader",
      "outputs": [],
      "stateMutability": "nonpayable",
      "type": "function"
    },
    {
      "inputs": [
        {
          "internalType": "address",
          "name": "stk",
          "type": "address"
        },
        {
          "internalType": "address",
          "name": "token",
          "type": "address"
        },
        {
          "internalType": "uint256",
          "name": "duration",
          "type": "uint256"
        }
      ],
      "name": "try_addReward",
      "outputs": [
        {
          "internalType": "bool",
          "name": "ok",
          "type": "bool"
        }
      ],
      "stateMutability": "nonpayable",
      "type": "function"
    },
    {
      "inputs": [
        {
          "internalType": "address",
          "name": "token",
          "type": "address"
        },
        {
          "internalType": "address",
          "name": "to",
          "type": "address"
        },
        {
          "internalType": "uint256",
          "name": "amount",
          "type": "uint256"
        }
      ],
      "name": "try_approveToken",
      "outputs": [
        {
          "internalType": "bool",
          "name": "ok",
          "type": "bool"
        }
      ],
      "stateMutability": "nonpayable",
      "type": "function"
    },
    {
      "inputs": [
        {
          "internalType": "address",
          "name": "token",
          "type": "address"
        },
        {
          "internalType": "uint256",
          "name": "amount",
          "type": "uint256"
        }
      ],
      "name": "try_burn",
      "outputs": [
        {
          "internalType": "bool",
          "name": "ok",
          "type": "bool"
        }
      ],
      "stateMutability": "nonpayable",
      "type": "function"
    },
    {
      "inputs": [
        {
          "internalType": "address",
          "name": "token",
          "type": "address"
        },
        {
          "internalType": "uint256",
          "name": "amount",
          "type": "uint256"
        },
        {
          "internalType": "address",
          "name": "asset",
          "type": "address"
        }
      ],
      "name": "try_burnSenior",
      "outputs": [
        {
          "internalType": "bool",
          "name": "ok",
          "type": "bool"
        }
      ],
      "stateMutability": "nonpayable",
      "type": "function"
    },
    {
      "inputs": [
        {
          "internalType": "address",
          "name": "occ",
          "type": "address"
        },
        {
          "internalType": "uint256",
          "name": "id",
          "type": "uint256"
        }
      ],
      "name": "try_callLoan",
      "outputs": [
        {
          "internalType": "bool",
          "name": "ok",
          "type": "bool"
        }
      ],
      "stateMutability": "nonpayable",
      "type": "function"
    },
    {
      "inputs": [
        {
          "internalType": "address",
          "name": "occ",
          "type": "address"
        },
        {
          "internalType": "uint256",
          "name": "id",
          "type": "uint256"
        }
      ],
      "name": "try_cancelRequest",
      "outputs": [
        {
          "internalType": "bool",
          "name": "ok",
          "type": "bool"
        }
      ],
      "stateMutability": "nonpayable",
      "type": "function"
    },
    {
      "inputs": [
        {
          "internalType": "address",
          "name": "token",
          "type": "address"
        },
        {
          "internalType": "address",
          "name": "account",
          "type": "address"
        },
        {
          "internalType": "bool",
          "name": "allowed",
          "type": "bool"
        }
      ],
      "name": "try_changeMinterRole",
      "outputs": [
        {
          "internalType": "bool",
          "name": "ok",
          "type": "bool"
        }
      ],
      "stateMutability": "nonpayable",
      "type": "function"
    },
    {
      "inputs": [
        {
          "internalType": "address",
          "name": "ito",
          "type": "address"
        }
      ],
      "name": "try_claim",
      "outputs": [
        {
          "internalType": "bool",
          "name": "ok",
          "type": "bool"
        }
      ],
      "stateMutability": "nonpayable",
      "type": "function"
    },
    {
      "inputs": [
        {
          "internalType": "address",
          "name": "token",
          "type": "address"
        },
        {
          "internalType": "address",
          "name": "account",
          "type": "address"
        },
        {
          "internalType": "uint256",
          "name": "amount",
          "type": "uint256"
        }
      ],
      "name": "try_decreaseAllowance",
      "outputs": [
        {
          "internalType": "bool",
          "name": "ok",
          "type": "bool"
        }
      ],
      "stateMutability": "nonpayable",
      "type": "function"
    },
    {
      "inputs": [
        {
          "internalType": "address",
          "name": "gen",
          "type": "address"
        },
        {
          "internalType": "uint256",
          "name": "amount",
          "type": "uint256"
        }
      ],
      "name": "try_decreaseDefaults",
      "outputs": [
        {
          "internalType": "bool",
          "name": "ok",
          "type": "bool"
        }
      ],
      "stateMutability": "nonpayable",
      "type": "function"
    },
    {
      "inputs": [
        {
          "internalType": "address",
          "name": "ito",
          "type": "address"
        },
        {
          "internalType": "uint256",
          "name": "amount",
          "type": "uint256"
        },
        {
          "internalType": "address",
          "name": "asset",
          "type": "address"
        }
      ],
      "name": "try_depositJunior",
      "outputs": [
        {
          "internalType": "bool",
          "name": "ok",
          "type": "bool"
        }
      ],
      "stateMutability": "nonpayable",
      "type": "function"
    },
    {
      "inputs": [
        {
          "internalType": "address",
          "name": "tranches",
          "type": "address"
        },
        {
          "internalType": "uint256",
          "name": "amount",
          "type": "uint256"
        },
        {
          "internalType": "address",
          "name": "asset",
          "type": "address"
        }
      ],
      "name": "try_depositJuniorTranches",
      "outputs": [
        {
          "internalType": "bool",
          "name": "ok",
          "type": "bool"
        }
      ],
      "stateMutability": "nonpayable",
      "type": "function"
    },
    {
      "inputs": [
        {
          "internalType": "address",
          "name": "stk",
          "type": "address"
        },
        {
          "internalType": "address",
          "name": "token",
          "type": "address"
        },
        {
          "internalType": "uint256",
          "name": "amount",
          "type": "uint256"
        }
      ],
      "name": "try_depositReward",
      "outputs": [
        {
          "internalType": "bool",
          "name": "ok",
          "type": "bool"
        }
      ],
      "stateMutability": "nonpayable",
      "type": "function"
    },
    {
      "inputs": [
        {
          "internalType": "address",
          "name": "ito",
          "type": "address"
        },
        {
          "internalType": "uint256",
          "name": "amount",
          "type": "uint256"
        },
        {
          "internalType": "address",
          "name": "asset",
          "type": "address"
        }
      ],
      "name": "try_depositSenior",
      "outputs": [
        {
          "internalType": "bool",
          "name": "ok",
          "type": "bool"
        }
      ],
      "stateMutability": "nonpayable",
      "type": "function"
    },
    {
      "inputs": [
        {
          "internalType": "address",
          "name": "tranches",
          "type": "address"
        },
        {
          "internalType": "uint256",
          "name": "amount",
          "type": "uint256"
        },
        {
          "internalType": "address",
          "name": "asset",
          "type": "address"
        }
      ],
      "name": "try_depositSeniorTranches",
      "outputs": [
        {
          "internalType": "bool",
          "name": "ok",
          "type": "bool"
        }
      ],
      "stateMutability": "nonpayable",
      "type": "function"
    },
    {
      "inputs": [
        {
          "internalType": "address",
          "name": "ydl",
          "type": "address"
        }
      ],
      "name": "try_distributeYield",
      "outputs": [
        {
          "internalType": "bool",
          "name": "ok",
          "type": "bool"
        }
      ],
      "stateMutability": "nonpayable",
      "type": "function"
    },
    {
      "inputs": [
        {
          "internalType": "address",
          "name": "pool",
          "type": "address"
        },
        {
          "internalType": "int128",
          "name": "i",
          "type": "int128"
        },
        {
          "internalType": "int128",
          "name": "j",
          "type": "int128"
        },
        {
          "internalType": "uint256",
          "name": "dx",
          "type": "uint256"
        },
        {
          "internalType": "uint256",
          "name": "min_dy",
          "type": "uint256"
        }
      ],
      "name": "try_exchange_underlying",
      "outputs": [
        {
          "internalType": "bool",
          "name": "ok",
          "type": "bool"
        }
      ],
      "stateMutability": "nonpayable",
      "type": "function"
    },
    {
      "inputs": [
        {
          "internalType": "address",
          "name": "ocl",
          "type": "address"
        }
      ],
      "name": "try_forwardYield",
      "outputs": [
        {
          "internalType": "bool",
          "name": "ok",
          "type": "bool"
        }
      ],
      "stateMutability": "nonpayable",
      "type": "function"
    },
    {
      "inputs": [
        {
          "internalType": "address",
          "name": "stk",
          "type": "address"
        }
      ],
      "name": "try_fullWithdraw",
      "outputs": [
        {
          "internalType": "bool",
          "name": "ok",
          "type": "bool"
        }
      ],
      "stateMutability": "nonpayable",
      "type": "function"
    },
    {
      "inputs": [
        {
          "internalType": "address",
          "name": "occ",
          "type": "address"
        },
        {
          "internalType": "uint256",
          "name": "id",
          "type": "uint256"
        }
      ],
      "name": "try_fundLoan",
      "outputs": [
        {
          "internalType": "bool",
          "name": "ok",
          "type": "bool"
        }
      ],
      "stateMutability": "nonpayable",
      "type": "function"
    },
    {
      "inputs": [
        {
          "internalType": "address",
          "name": "stk",
          "type": "address"
        },
        {
          "internalType": "uint256",
          "name": "ind",
          "type": "uint256"
        }
      ],
      "name": "try_getRewardAt",
      "outputs": [
        {
          "internalType": "bool",
          "name": "ok",
          "type": "bool"
        }
      ],
      "stateMutability": "nonpayable",
      "type": "function"
    },
    {
      "inputs": [
        {
          "internalType": "address",
          "name": "stk",
          "type": "address"
        }
      ],
      "name": "try_getRewards",
      "outputs": [
        {
          "internalType": "bool",
          "name": "ok",
          "type": "bool"
        }
      ],
      "stateMutability": "nonpayable",
      "type": "function"
    },
    {
      "inputs": [
        {
          "internalType": "address",
          "name": "token",
          "type": "address"
        },
        {
          "internalType": "address",
          "name": "account",
          "type": "address"
        },
        {
          "internalType": "uint256",
          "name": "amount",
          "type": "uint256"
        }
      ],
      "name": "try_increaseAllowance",
      "outputs": [
        {
          "internalType": "bool",
          "name": "ok",
          "type": "bool"
        }
      ],
      "stateMutability": "nonpayable",
      "type": "function"
    },
    {
      "inputs": [
        {
          "internalType": "address",
          "name": "amp",
          "type": "address"
        },
        {
          "internalType": "address",
          "name": "account",
          "type": "address"
        },
        {
          "internalType": "uint256",
          "name": "amount",
          "type": "uint256"
        }
      ],
      "name": "try_increaseAmplification",
      "outputs": [
        {
          "internalType": "bool",
          "name": "ok",
          "type": "bool"
        }
      ],
      "stateMutability": "nonpayable",
      "type": "function"
    },
    {
      "inputs": [
        {
          "internalType": "address",
          "name": "gen",
          "type": "address"
        },
        {
          "internalType": "uint256",
          "name": "amount",
          "type": "uint256"
        }
      ],
      "name": "try_increaseDefaults",
      "outputs": [
        {
          "internalType": "bool",
          "name": "ok",
          "type": "bool"
        }
      ],
      "stateMutability": "nonpayable",
      "type": "function"
    },
    {
      "inputs": [
        {
          "internalType": "address",
          "name": "occ",
          "type": "address"
        },
        {
          "internalType": "uint256",
          "name": "id",
          "type": "uint256"
        }
      ],
      "name": "try_makePayment",
      "outputs": [
        {
          "internalType": "bool",
          "name": "ok",
          "type": "bool"
        }
      ],
      "stateMutability": "nonpayable",
      "type": "function"
    },
    {
      "inputs": [
        {
          "internalType": "address",
          "name": "occ",
          "type": "address"
        },
        {
          "internalType": "uint256",
          "name": "id",
          "type": "uint256"
        }
      ],
      "name": "try_markDefault",
      "outputs": [
        {
          "internalType": "bool",
          "name": "ok",
          "type": "bool"
        }
      ],
      "stateMutability": "nonpayable",
      "type": "function"
    },
    {
      "inputs": [
        {
          "internalType": "address",
          "name": "occ",
          "type": "address"
        },
        {
          "internalType": "uint256",
          "name": "id",
          "type": "uint256"
        }
      ],
      "name": "try_markRepaid",
      "outputs": [
        {
          "internalType": "bool",
          "name": "ok",
          "type": "bool"
        }
      ],
      "stateMutability": "nonpayable",
      "type": "function"
    },
    {
      "inputs": [
        {
          "internalType": "address",
          "name": "ito",
          "type": "address"
        }
      ],
      "name": "try_migrateDeposits",
      "outputs": [
        {
          "internalType": "bool",
          "name": "ok",
          "type": "bool"
        }
      ],
      "stateMutability": "nonpayable",
      "type": "function"
    },
    {
      "inputs": [
        {
          "internalType": "address",
          "name": "token",
          "type": "address"
        },
        {
          "internalType": "address",
          "name": "account",
          "type": "address"
        },
        {
          "internalType": "uint256",
          "name": "amount",
          "type": "uint256"
        }
      ],
      "name": "try_mint",
      "outputs": [
        {
          "internalType": "bool",
          "name": "ok",
          "type": "bool"
        }
      ],
      "stateMutability": "nonpayable",
      "type": "function"
    },
    {
      "inputs": [
        {
          "internalType": "address",
          "name": "tranches",
          "type": "address"
        },
        {
          "internalType": "address",
          "name": "asset",
          "type": "address"
        },
        {
          "internalType": "bool",
          "name": "allowed",
          "type": "bool"
        }
      ],
      "name": "try_modifyStablecoinWhitelist",
      "outputs": [
        {
          "internalType": "bool",
          "name": "ok",
          "type": "bool"
        }
      ],
      "stateMutability": "nonpayable",
      "type": "function"
    },
    {
      "inputs": [
        {
          "internalType": "address",
          "name": "ret",
          "type": "address"
        },
        {
          "internalType": "address",
          "name": "asset",
          "type": "address"
        },
        {
          "internalType": "uint256",
          "name": "amount",
          "type": "uint256"
        },
        {
          "internalType": "address",
          "name": "multi",
          "type": "address"
        }
      ],
      "name": "try_passThroughYDL",
      "outputs": [
        {
          "internalType": "bool",
          "name": "ok",
          "type": "bool"
        }
      ],
      "stateMutability": "nonpayable",
      "type": "function"
    },
    {
      "inputs": [
        {
          "internalType": "address",
          "name": "occ",
          "type": "address"
        },
        {
          "internalType": "uint256",
          "name": "id",
          "type": "uint256"
        }
      ],
      "name": "try_processPayment",
      "outputs": [
        {
          "internalType": "bool",
          "name": "ok",
          "type": "bool"
        }
      ],
      "stateMutability": "nonpayable",
      "type": "function"
    },
    {
      "inputs": [
        {
          "internalType": "address",
          "name": "dao",
          "type": "address"
        },
        {
          "internalType": "address",
          "name": "locker",
          "type": "address"
        },
        {
          "internalType": "address",
          "name": "asset",
          "type": "address"
        }
      ],
      "name": "try_pull",
      "outputs": [
        {
          "internalType": "bool",
          "name": "ok",
          "type": "bool"
        }
      ],
      "stateMutability": "nonpayable",
      "type": "function"
    },
    {
      "inputs": [
        {
          "internalType": "address",
          "name": "lkr",
          "type": "address"
        },
        {
          "internalType": "address[]",
          "name": "assets",
          "type": "address[]"
        },
        {
          "internalType": "uint256[]",
          "name": "amts",
          "type": "uint256[]"
        }
      ],
      "name": "try_pullFromLockerMultiPartial_DIRECT",
      "outputs": [
        {
          "internalType": "bool",
          "name": "ok",
          "type": "bool"
        }
      ],
      "stateMutability": "nonpayable",
      "type": "function"
    },
    {
      "inputs": [
        {
          "internalType": "address",
          "name": "lkr",
          "type": "address"
        },
        {
          "internalType": "address[]",
          "name": "assets",
          "type": "address[]"
        }
      ],
      "name": "try_pullFromLockerMulti_DIRECT",
      "outputs": [
        {
          "internalType": "bool",
          "name": "ok",
          "type": "bool"
        }
      ],
      "stateMutability": "nonpayable",
      "type": "function"
    },
    {
      "inputs": [
        {
          "internalType": "address",
          "name": "lkr",
          "type": "address"
        },
        {
          "internalType": "address",
          "name": "asset",
          "type": "address"
        },
        {
          "internalType": "uint256",
          "name": "amount",
          "type": "uint256"
        }
      ],
      "name": "try_pullFromLockerPartial_DIRECT",
      "outputs": [
        {
          "internalType": "bool",
          "name": "ok",
          "type": "bool"
        }
      ],
      "stateMutability": "nonpayable",
      "type": "function"
    },
    {
      "inputs": [
        {
          "internalType": "address",
          "name": "lkr",
          "type": "address"
        },
        {
          "internalType": "address",
          "name": "asset",
          "type": "address"
        }
      ],
      "name": "try_pullFromLocker_DIRECT",
      "outputs": [
        {
          "internalType": "bool",
          "name": "ok",
          "type": "bool"
        }
      ],
      "stateMutability": "nonpayable",
      "type": "function"
    },
    {
      "inputs": [
        {
          "internalType": "address",
          "name": "dao",
          "type": "address"
        },
        {
          "internalType": "address",
          "name": "locker",
          "type": "address"
        },
        {
          "internalType": "address",
          "name": "asset",
          "type": "address"
        },
        {
          "internalType": "uint256",
          "name": "amount",
          "type": "uint256"
        }
      ],
      "name": "try_push",
      "outputs": [
        {
          "internalType": "bool",
          "name": "ok",
          "type": "bool"
        }
      ],
      "stateMutability": "nonpayable",
      "type": "function"
    },
    {
      "inputs": [
        {
          "internalType": "address",
          "name": "ret",
          "type": "address"
        },
        {
          "internalType": "address",
          "name": "asset",
          "type": "address"
        },
        {
          "internalType": "address",
          "name": "to",
          "type": "address"
        },
        {
          "internalType": "uint256",
          "name": "amount",
          "type": "uint256"
        }
      ],
      "name": "try_pushAsset",
      "outputs": [
        {
          "internalType": "bool",
          "name": "ok",
          "type": "bool"
        }
      ],
      "stateMutability": "nonpayable",
      "type": "function"
    },
    {
      "inputs": [
        {
          "internalType": "address",
          "name": "lkr",
          "type": "address"
        },
        {
          "internalType": "address[]",
          "name": "assets",
          "type": "address[]"
        },
        {
          "internalType": "uint256[]",
          "name": "amts",
          "type": "uint256[]"
        }
      ],
      "name": "try_pushToLockerMulti_DIRECT",
      "outputs": [
        {
          "internalType": "bool",
          "name": "ok",
          "type": "bool"
        }
      ],
      "stateMutability": "nonpayable",
      "type": "function"
    },
    {
      "inputs": [
        {
          "internalType": "address",
          "name": "ydl",
          "type": "address"
        },
        {
          "internalType": "address",
          "name": "asset",
          "type": "address"
        }
      ],
      "name": "try_recoverAsset",
      "outputs": [
        {
          "internalType": "bool",
          "name": "ok",
          "type": "bool"
        }
      ],
      "stateMutability": "nonpayable",
      "type": "function"
    },
    {
      "inputs": [
        {
          "internalType": "address",
          "name": "occ",
          "type": "address"
        },
        {
          "internalType": "address",
          "name": "borrower",
          "type": "address"
        },
        {
          "internalType": "uint256",
          "name": "borrowAmount",
          "type": "uint256"
        },
        {
          "internalType": "uint256",
          "name": "APR",
          "type": "uint256"
        },
        {
          "internalType": "uint256",
          "name": "APRLateFee",
          "type": "uint256"
        },
        {
          "internalType": "uint256",
          "name": "term",
          "type": "uint256"
        },
        {
          "internalType": "uint256",
          "name": "paymentInterval",
          "type": "uint256"
        },
        {
          "internalType": "uint256",
          "name": "gracePeriod",
          "type": "uint256"
        },
        {
          "internalType": "int8",
          "name": "schedule",
          "type": "int8"
        }
      ],
      "name": "try_requestLoan",
      "outputs": [
        {
          "internalType": "bool",
          "name": "ok",
          "type": "bool"
        }
      ],
      "stateMutability": "nonpayable",
      "type": "function"
    },
    {
      "inputs": [
        {
          "internalType": "address",
          "name": "occ",
          "type": "address"
        },
        {
          "internalType": "uint256",
          "name": "id",
          "type": "uint256"
        },
        {
          "internalType": "uint256",
          "name": "amount",
          "type": "uint256"
        }
      ],
      "name": "try_resolveDefault",
      "outputs": [
        {
          "internalType": "bool",
          "name": "ok",
          "type": "bool"
        }
      ],
      "stateMutability": "nonpayable",
      "type": "function"
    },
    {
      "inputs": [
        {
          "internalType": "address",
          "name": "occ",
          "type": "address"
        },
        {
          "internalType": "uint256",
          "name": "id",
          "type": "uint256"
        },
        {
          "internalType": "uint256",
          "name": "amount",
          "type": "uint256"
        }
      ],
      "name": "try_resolveInsolvency",
      "outputs": [
        {
          "internalType": "bool",
          "name": "ok",
          "type": "bool"
        }
      ],
      "stateMutability": "nonpayable",
      "type": "function"
    },
    {
      "inputs": [
        {
          "internalType": "address",
          "name": "stk",
          "type": "address"
        },
        {
          "internalType": "address",
          "name": "act",
          "type": "address"
        }
      ],
      "name": "try_revoke",
      "outputs": [
        {
          "internalType": "bool",
          "name": "ok",
          "type": "bool"
        }
      ],
      "stateMutability": "nonpayable",
      "type": "function"
    },
    {
      "inputs": [
        {
          "internalType": "address",
          "name": "ydl",
          "type": "address"
        },
        {
          "internalType": "address",
          "name": "asset",
          "type": "address"
        }
      ],
      "name": "try_setDistributedAsset",
      "outputs": [
        {
          "internalType": "bool",
          "name": "ok",
          "type": "bool"
        }
      ],
      "stateMutability": "nonpayable",
      "type": "function"
    },
    {
      "inputs": [
        {
          "internalType": "address",
          "name": "oce",
          "type": "address"
        },
        {
          "internalType": "uint256",
          "name": "val",
          "type": "uint256"
        }
      ],
      "name": "try_setExponentialDecayPerSecond",
      "outputs": [
        {
          "internalType": "bool",
          "name": "ok",
          "type": "bool"
        }
      ],
      "stateMutability": "nonpayable",
      "type": "function"
    },
    {
      "inputs": [
        {
          "internalType": "address",
          "name": "ydl",
          "type": "address"
        },
        {
          "internalType": "uint256",
          "name": "val",
          "type": "uint256"
        }
      ],
      "name": "try_setProtocolEarningsRateBIPS",
      "outputs": [
        {
          "internalType": "bool",
          "name": "ok",
          "type": "bool"
        }
      ],
      "stateMutability": "nonpayable",
      "type": "function"
    },
    {
      "inputs": [
        {
          "internalType": "address",
          "name": "ydl",
          "type": "address"
        },
        {
          "internalType": "uint256",
          "name": "val",
          "type": "uint256"
        }
      ],
      "name": "try_setTargetAPYBIPS",
      "outputs": [
        {
          "internalType": "bool",
          "name": "ok",
          "type": "bool"
        }
      ],
      "stateMutability": "nonpayable",
      "type": "function"
    },
    {
      "inputs": [
        {
          "internalType": "address",
          "name": "ydl",
          "type": "address"
        },
        {
          "internalType": "uint256",
          "name": "val",
          "type": "uint256"
        }
      ],
      "name": "try_setTargetRatioBIPS",
      "outputs": [
        {
          "internalType": "bool",
          "name": "ok",
          "type": "bool"
        }
      ],
      "stateMutability": "nonpayable",
      "type": "function"
    },
    {
      "inputs": [
        {
          "internalType": "address",
          "name": "stk",
          "type": "address"
        },
        {
          "internalType": "uint256",
          "name": "amount",
          "type": "uint256"
        }
      ],
      "name": "try_stake",
      "outputs": [
        {
          "internalType": "bool",
          "name": "ok",
          "type": "bool"
        }
      ],
      "stateMutability": "nonpayable",
      "type": "function"
    },
    {
      "inputs": [
        {
          "internalType": "address",
          "name": "ydl",
          "type": "address"
        },
        {
          "internalType": "uint256",
          "name": "amount",
          "type": "uint256"
        }
      ],
      "name": "try_supplementYield",
      "outputs": [
        {
          "internalType": "bool",
          "name": "ok",
          "type": "bool"
        }
      ],
      "stateMutability": "nonpayable",
      "type": "function"
    },
    {
      "inputs": [
        {
          "internalType": "address",
          "name": "occ",
          "type": "address"
        },
        {
          "internalType": "uint256",
          "name": "id",
          "type": "uint256"
        },
        {
          "internalType": "uint256",
          "name": "excessAmount",
          "type": "uint256"
        }
      ],
      "name": "try_supplyInterest",
      "outputs": [
        {
          "internalType": "bool",
          "name": "ok",
          "type": "bool"
        }
      ],
      "stateMutability": "nonpayable",
      "type": "function"
    },
    {
      "inputs": [
        {
          "internalType": "address",
          "name": "token",
          "type": "address"
        },
        {
          "internalType": "address",
          "name": "to",
          "type": "address"
        },
        {
          "internalType": "uint256",
          "name": "amount",
          "type": "uint256"
        }
      ],
      "name": "try_transferByTrader",
      "outputs": [
        {
          "internalType": "bool",
          "name": "ok",
          "type": "bool"
        }
      ],
      "stateMutability": "nonpayable",
      "type": "function"
    },
    {
      "inputs": [
        {
          "internalType": "address",
          "name": "token",
          "type": "address"
        },
        {
          "internalType": "address",
          "name": "from",
          "type": "address"
        },
        {
          "internalType": "address",
          "name": "to",
          "type": "address"
        },
        {
          "internalType": "uint256",
          "name": "amount",
          "type": "uint256"
        }
      ],
      "name": "try_transferFromToken",
      "outputs": [
        {
          "internalType": "bool",
          "name": "ok",
          "type": "bool"
        }
      ],
      "stateMutability": "nonpayable",
      "type": "function"
    },
    {
      "inputs": [
        {
          "internalType": "address",
          "name": "token",
          "type": "address"
        },
        {
          "internalType": "address",
          "name": "to",
          "type": "address"
        },
        {
          "internalType": "uint256",
          "name": "amount",
          "type": "uint256"
        }
      ],
      "name": "try_transferToken",
      "outputs": [
        {
          "internalType": "bool",
          "name": "ok",
          "type": "bool"
        }
      ],
      "stateMutability": "nonpayable",
      "type": "function"
    },
    {
      "inputs": [
        {
          "internalType": "address",
          "name": "loc",
          "type": "address"
        }
      ],
      "name": "try_unlock",
      "outputs": [
        {
          "internalType": "bool",
          "name": "ok",
          "type": "bool"
        }
      ],
      "stateMutability": "nonpayable",
      "type": "function"
    },
    {
      "inputs": [
        {
          "internalType": "address",
          "name": "ocl",
          "type": "address"
        },
        {
          "internalType": "uint256",
          "name": "val",
          "type": "uint256"
        }
      ],
      "name": "try_updateCompoundingRateBIPS",
      "outputs": [
        {
          "internalType": "bool",
          "name": "ok",
          "type": "bool"
        }
      ],
      "stateMutability": "nonpayable",
      "type": "function"
    },
    {
      "inputs": [
        {
          "internalType": "address",
          "name": "oce",
          "type": "address"
        },
        {
          "internalType": "uint256[3]",
          "name": "dist",
          "type": "uint256[3]"
        }
      ],
      "name": "try_updateDistributionRatioBIPS",
      "outputs": [
        {
          "internalType": "bool",
          "name": "ok",
          "type": "bool"
        }
      ],
      "stateMutability": "nonpayable",
      "type": "function"
    },
    {
      "inputs": [
        {
          "internalType": "address",
          "name": "gbl",
          "type": "address"
        },
        {
          "internalType": "address",
          "name": "keeper",
          "type": "address"
        },
        {
          "internalType": "bool",
          "name": "allowed",
          "type": "bool"
        }
      ],
      "name": "try_updateIsKeeper",
      "outputs": [
        {
          "internalType": "bool",
          "name": "ok",
          "type": "bool"
        }
      ],
      "stateMutability": "nonpayable",
      "type": "function"
    },
    {
      "inputs": [
        {
          "internalType": "address",
          "name": "gbl",
          "type": "address"
        },
        {
          "internalType": "address",
          "name": "locker",
          "type": "address"
        },
        {
          "internalType": "bool",
          "name": "allowed",
          "type": "bool"
        }
      ],
      "name": "try_updateIsLocker",
      "outputs": [
        {
          "internalType": "bool",
          "name": "ok",
          "type": "bool"
        }
      ],
      "stateMutability": "nonpayable",
      "type": "function"
    },
    {
      "inputs": [
        {
          "internalType": "address",
          "name": "gbl",
          "type": "address"
        },
        {
          "internalType": "uint256",
          "name": "amount",
          "type": "uint256"
        }
      ],
      "name": "try_updateLowerRatioIncentive",
      "outputs": [
        {
          "internalType": "bool",
          "name": "ok",
          "type": "bool"
        }
      ],
      "stateMutability": "nonpayable",
      "type": "function"
    },
    {
      "inputs": [
        {
          "internalType": "address",
          "name": "gbl",
          "type": "address"
        },
        {
          "internalType": "uint256",
          "name": "amount",
          "type": "uint256"
        }
      ],
      "name": "try_updateMaxTrancheRatio",
      "outputs": [
        {
          "internalType": "bool",
          "name": "ok",
          "type": "bool"
        }
      ],
      "stateMutability": "nonpayable",
      "type": "function"
    },
    {
      "inputs": [
        {
          "internalType": "address",
          "name": "gbl",
          "type": "address"
        },
        {
          "internalType": "uint256",
          "name": "amount",
          "type": "uint256"
        }
      ],
      "name": "try_updateMaxZVEPerJTTMint",
      "outputs": [
        {
          "internalType": "bool",
          "name": "ok",
          "type": "bool"
        }
      ],
      "stateMutability": "nonpayable",
      "type": "function"
    },
    {
      "inputs": [
        {
          "internalType": "address",
          "name": "gbl",
          "type": "address"
        },
        {
          "internalType": "uint256",
          "name": "amount",
          "type": "uint256"
        }
      ],
      "name": "try_updateMinZVEPerJTTMint",
      "outputs": [
        {
          "internalType": "bool",
          "name": "ok",
          "type": "bool"
        }
      ],
      "stateMutability": "nonpayable",
      "type": "function"
    },
    {
      "inputs": [
        {
          "internalType": "address",
          "name": "ydl",
          "type": "address"
        },
        {
          "internalType": "address[]",
          "name": "recipients",
          "type": "address[]"
        },
        {
          "internalType": "uint256[]",
          "name": "proportions",
          "type": "uint256[]"
        }
      ],
      "name": "try_updateProtocolRecipients",
      "outputs": [
        {
          "internalType": "bool",
          "name": "ok",
          "type": "bool"
        }
      ],
      "stateMutability": "nonpayable",
      "type": "function"
    },
    {
      "inputs": [
        {
          "internalType": "address",
          "name": "ydl",
          "type": "address"
        },
        {
          "internalType": "address[]",
          "name": "recipients",
          "type": "address[]"
        },
        {
          "internalType": "uint256[]",
          "name": "proportions",
          "type": "uint256[]"
        }
      ],
      "name": "try_updateResidualRecipients",
      "outputs": [
        {
          "internalType": "bool",
          "name": "ok",
          "type": "bool"
        }
      ],
      "stateMutability": "nonpayable",
      "type": "function"
    },
    {
      "inputs": [
        {
          "internalType": "address",
          "name": "gbl",
          "type": "address"
        },
        {
          "internalType": "address",
          "name": "stablecoin",
          "type": "address"
        },
        {
          "internalType": "bool",
          "name": "allowed",
          "type": "bool"
        }
      ],
      "name": "try_updateStablecoinWhitelist",
      "outputs": [
        {
          "internalType": "bool",
          "name": "ok",
          "type": "bool"
        }
      ],
      "stateMutability": "nonpayable",
      "type": "function"
    },
    {
      "inputs": [
        {
          "internalType": "address",
          "name": "gbl",
          "type": "address"
        },
        {
          "internalType": "uint256",
          "name": "amount",
          "type": "uint256"
        }
      ],
      "name": "try_updateUpperRatioIncentives",
      "outputs": [
        {
          "internalType": "bool",
          "name": "ok",
          "type": "bool"
        }
      ],
      "stateMutability": "nonpayable",
      "type": "function"
    },
    {
      "inputs": [
        {
          "internalType": "address",
          "name": "amplifier",
          "type": "address"
        },
        {
          "internalType": "address",
          "name": "account",
          "type": "address"
        },
        {
          "internalType": "bool",
          "name": "allowed",
          "type": "bool"
        }
      ],
      "name": "try_updateWhitelistedAmplifiers",
      "outputs": [
        {
          "internalType": "bool",
          "name": "ok",
          "type": "bool"
        }
      ],
      "stateMutability": "nonpayable",
      "type": "function"
    },
    {
      "inputs": [
        {
          "internalType": "address",
          "name": "vesting",
          "type": "address"
        },
        {
          "internalType": "address",
          "name": "account",
          "type": "address"
        },
        {
          "internalType": "uint256",
          "name": "daysUntilVestingBegins",
          "type": "uint256"
        },
        {
          "internalType": "uint256",
          "name": "daysToVest",
          "type": "uint256"
        },
        {
          "internalType": "uint256",
          "name": "amountToVest",
          "type": "uint256"
        }
      ],
      "name": "try_vest",
      "outputs": [
        {
          "internalType": "bool",
          "name": "ok",
          "type": "bool"
        }
      ],
      "stateMutability": "nonpayable",
      "type": "function"
    },
    {
      "inputs": [
        {
          "internalType": "address",
          "name": "stk",
          "type": "address"
        },
        {
          "internalType": "address",
          "name": "act",
          "type": "address"
        },
        {
          "internalType": "uint256",
          "name": "dtc",
          "type": "uint256"
        },
        {
          "internalType": "uint256",
          "name": "dtv",
          "type": "uint256"
        },
        {
          "internalType": "uint256",
          "name": "atv",
          "type": "uint256"
        },
        {
          "internalType": "bool",
          "name": "rev",
          "type": "bool"
        }
      ],
      "name": "try_vest",
      "outputs": [
        {
          "internalType": "bool",
          "name": "ok",
          "type": "bool"
        }
      ],
      "stateMutability": "nonpayable",
      "type": "function"
    },
    {
      "inputs": [
        {
          "internalType": "address",
          "name": "stk",
          "type": "address"
        },
        {
          "internalType": "uint256",
          "name": "amount",
          "type": "uint256"
        }
      ],
      "name": "try_withdraw",
      "outputs": [
        {
          "internalType": "bool",
          "name": "ok",
          "type": "bool"
        }
      ],
      "stateMutability": "nonpayable",
      "type": "function"
    }
  ],
  "bytecode": {
    "object": "0x608060405234801561001057600080fd5b5061312b806100206000396000f3fe608060405234801561001057600080fd5b50600436106104485760003560e01c806383671f3211610241578063bce7b8551161013b578063e204becd116100c3578063f2025cdb11610087578063f2025cdb1461095c578063f585d7021461096f578063f8b803e814610982578063f8d9fbfa14610995578063f9b9ac35146109a857600080fd5b8063e204becd146108fb578063e47702d71461090e578063e5d04d6314610921578063e7a8d4a414610936578063ed779dbb1461094957600080fd5b8063c675c0401161010a578063c675c040146108af578063c945d6cb146108c2578063cedd5119146108d5578063d8b4734314610532578063dce67a68146108e857600080fd5b8063bce7b85514610863578063be6fb47514610876578063c4c1a28a14610889578063c4f36c7a1461089c57600080fd5b80639f70aeb2116101c9578063b25d8c211161018d578063b25d8c2114610487578063b805f9f81461082a578063ba2f69351461083d578063bc08186c146107cb578063bc73b1761461085057600080fd5b80639f70aeb2146107cb578063a46dd760146107de578063a56e81f8146107f1578063a59420b514610804578063b0bd3faf1461081757600080fd5b80638eb7d939116102105780638eb7d9391461076c57806392d9cb6f1461077f57806399a49f69146107925780639d6b127a146107a55780639f459cb8146107b857600080fd5b806383671f321461072057806385ad5a59146107335780638b019283146107465780638ea989961461075957600080fd5b80634d3fcc041161035257806367d6ec41116102da5780637d55ddcd1161029e5780637d55ddcd146106c15780637fb9f655146106d457806380573452146106e7578063808d440b146106fa57806380ecd1281461070d57600080fd5b806367d6ec41146106625780636d6a44de146106755780637188a0841461068857806375cf1fdd1461069b578063796a2018146106ae57600080fd5b80635af8f714116103215780635af8f714146106035780635ba087e2146106165780635d4fbf951461062957806363ba19dd1461063c57806365daf3e81461064f57600080fd5b80634d3fcc04146105b75780635195da8f146105ca57806353d5cefb146105dd578063547ebea4146105f057600080fd5b80633cddef99116103d55780634188ec6e116103a45780634188ec6e146105585780634201f3781461056b5780634303b31d1461057e578063464dd9d9146105915780634c48f915146105a457600080fd5b80633cddef991461050c5780633e09d0901461051f5780633f18f6861461053257806340c673161461054557600080fd5b80631fa09b8b1161041c5780631fa09b8b146104ad578063241327c4146104c0578063247d10b1146104d35780632b0d55f7146104e65780632e418dd4146104f957600080fd5b806293d6ca1461044d5780630264c3321461047457806302b62fc1146104875780630c746e171461049a575b600080fd5b61046061045b36600461245b565b6109bb565b604051901515815260200160405180910390f35b610460610482366004612485565b610a9c565b6104606104953660046124c1565b610b78565b6104606104a83660046124fd565b610bd6565b6104606104bb36600461257c565b610c1f565b6104606104ce36600461245b565b610d01565b6104606104e136600461245b565b610d56565b6104606104f436600461245b565b610dab565b61046061050736600461260e565b610df4565b61046061051a366004612485565b610e53565b61046061052d36600461245b565b610eac565b610460610540366004612485565b610f01565b610460610553366004612655565b610f5a565b6104606105663660046126a2565b610faf565b61046061057936600461257c565b610fe9565b61046061058c3660046124c1565b611029565b61046061059f36600461260e565b611087565b6104606105b236600461245b565b6110e6565b6104606105c536600461245b565b611134565b6104606105d83660046124fd565b611170565b6104606105eb36600461245b565b6111bf565b6104606105fe3660046126dc565b6111fb565b61046061061136600461245b565b6112f6565b610460610624366004612485565b611342565b61046061063736600461273f565b61139b565b61046061064a3660046124fd565b6114b2565b61046061065d3660046127c7565b611509565b61046061067036600461245b565b6115db565b610460610683366004612485565b611624565b6104606106963660046127c7565b611660565b6104606106a93660046127e9565b6116a5565b6104606106bc3660046127c7565b6117a8565b6104606106cf3660046127c7565b6117f4565b6104606106e23660046124fd565b61183a565b6104606106f536600461260e565b611891565b61046061070836600461245b565b6118d9565b61046061071b36600461245b565b611922565b61046061072e36600461260e565b611967565b61046061074136600461245b565b6119c6565b6104606107543660046127c7565b611a1b565b610460610767366004612485565b611a67565b61046061077a36600461245b565b611ab8565b61046061078d36600461260e565b611b03565b6104606107a036600461245b565b611b4b565b6104606107b33660046127c7565b611ba0565b6104606107c636600461245b565b611bf1565b6104606107d93660046124c1565b611c2d565b6104606107ec36600461245b565b611c8b565b6104606107ff36600461245b565b611cc7565b610460610812366004612834565b611d1c565b61046061082536600461245b565b611d6b565b610460610838366004612881565b611dc0565b61046061084b366004612485565b611e05565b61046061085e366004612881565b611e41565b61046061087136600461298a565b611e9d565b61046061088436600461245b565b611ed9565b61046061089736600461245b565b611f2e565b6104606108aa366004612a5c565b611f7a565b6104606108bd366004612881565b611fd9565b6104606108d036600461260e565b612035565b6104606108e336600461245b565b61207d565b6104606108f6366004612a96565b6120d2565b610460610909366004612485565b61212b565b61046061091c3660046127e9565b612184565b61093461092f366004612485565b6121d3565b005b610460610944366004612485565b61224a565b6104606109573660046127c7565b612286565b61046061096a36600461298a565b6122d5565b61046061097d3660046127e9565b612311565b61046061099036600461245b565b612360565b6104606109a336600461245b565b61239c565b6104606109b6366004612afb565b6123e8565b604080518082018252600e81526d7374616b652875696e743235362960901b6020820152905160248101839052600091906001600160a01b0385169082906044015b60408051601f198184030181529082905291610a1891612b74565b60408051918290039091206020830180516001600160e01b03166001600160e01b031990921691909117905251610a4f9190612b74565b6000604051808303816000865af19150503d8060008114610a8c576040519150601f19603f3d011682016040523d82523d6000602084013e610a91565b606091505b509095945050505050565b600080604051806060016040528060268152602001612eaf602691399050846001600160a01b0316818585604051602401610ad8929190612b90565b60408051601f198184030181529082905291610af391612b74565b60408051918290039091206020830180516001600160e01b03166001600160e01b031990921691909117905251610b2a9190612b74565b6000604051808303816000865af19150503d8060008114610b67576040519150601f19603f3d011682016040523d82523d6000602084013e610b6c565b606091505b50909695505050505050565b604080518082018252601e81527f6465706f7369744a756e696f722875696e743235362c6164647265737329000060208201529051602481018490526001600160a01b03838116604483015260009291908616908290606401610ad8565b604080518082018252600f81526e7265766f6b6528616464726573732960881b602082015290516001600160a01b038381166024830152600092919085169082906044016109fd565b600080604051806060016040528060268152602001612fb7602691399050866001600160a01b03168187878787604051602401610c5f9493929190612bf0565b60408051601f198184030181529082905291610c7a91612b74565b60408051918290039091206020830180516001600160e01b03166001600160e01b031990921691909117905251610cb19190612b74565b6000604051808303816000865af19150503d8060008114610cee576040519150601f19603f3d011682016040523d82523d6000602084013e610cf3565b606091505b509098975050505050505050565b604080518082018252601981527f696e63726561736544656661756c74732875696e7432353629000000000000006020820152905160248101839052600091906001600160a01b0385169082906044016109fd565b604080518082018252601b81527f736574546172676574526174696f424950532875696e743235362900000000006020820152905160248101839052600091906001600160a01b0385169082906044016109fd565b604080518082018252601181527077697468647261772875696e743235362960781b6020820152905160248101839052600091906001600160a01b0385169082906044016109fd565b604080518082018252601c81527f75706461746549734b656570657228616464726573732c626f6f6c2900000000602082015290516001600160a01b038481166024830152831515604483015260009291908616908290606401610ad8565b6000806040518060400160405280601881526020017f617070726f766528616464726573732c75696e743235362900000000000000008152509050846001600160a01b0316818585604051602401610ad8929190612b90565b604080518082018252601981527f646563726561736544656661756c74732875696e7432353629000000000000006020820152905160248101839052600091906001600160a01b0385169082906044016109fd565b6000806040518060400160405280601981526020017f7472616e7366657228616464726573732c75696e7432353629000000000000008152509050846001600160a01b0316818585604051602401610ad8929190612b90565b600080604051806060016040528060258152602001612cfc602591396040516001600160a01b03888116602483015260448201889052606482018790526084820186905291925090881690829060a401610c5f565b600080604051806060016040528060278152602001612dac602791399050836001600160a01b031681846040516024016109fd9190612c3c565b6000806040518060600160405280602f81526020016130c7602f91399050866001600160a01b03168187878787604051602401610c5f9493929190612bf0565b604080518082018252601b81527f6275726e53656e696f722875696e743235362c6164647265737329000000000060208201529051602481018490526001600160a01b03838116604483015260009291908616908290606401610ad8565b604080518082018252601c81527f75706461746549734c6f636b657228616464726573732c626f6f6c2900000000602082015290516001600160a01b038481166024830152831515604483015260009291908616908290606401610ad8565b604080518082018252601681527563616e63656c526571756573742875696e743235362960501b6020820152905160248101839052600091906001600160a01b0385169082906044016109fd565b60008060405180606001604052806024815260200161302a602491399050836001600160a01b031681846040516024016109fd91815260200190565b60408051808201825260158152747265636f766572417373657428616464726573732960581b602082015290516001600160a01b038381166024830152600092919085169082906044016109fd565b600080604051806060016040528060228152602001612d21602291399050836001600160a01b031681846040516024016109fd91815260200190565b6000806040518060600160405280602a8152602001612e1a602a91396040516001600160a01b03898116602483015260448201899052606482018890526084820187905285151560a483015291925090891690829060c40160408051601f19818403018152908290529161126e91612b74565b60408051918290039091206020830180516001600160e01b03166001600160e01b0319909216919091179052516112a59190612b74565b6000604051808303816000865af19150503d80600081146112e2576040519150601f19603f3d011682016040523d82523d6000602084013e6112e7565b606091505b50909998505050505050505050565b604080518082018252601481527367657452657761726441742875696e743235362960601b6020820152905160248101839052600091906001600160a01b0385169082906044016109fd565b6000806040518060400160405280601e81526020017f6465706f73697452657761726428616464726573732c75696e743235362900008152509050846001600160a01b0316818585604051602401610ad8929190612b90565b600080604051806080016040528060498152602001612e66604991396040516001600160a01b038c81166024830152604482018c9052606482018b9052608482018a905260a4820189905260c4820188905260e48201879052600086900b610104830152919250908c169082906101240160408051601f19818403018152908290529161142791612b74565b60408051918290039091206020830180516001600160e01b03166001600160e01b03199092169190911790525161145e9190612b74565b6000604051808303816000865af19150503d806000811461149b576040519150601f19603f3d011682016040523d82523d6000602084013e6114a0565b606091505b50909c9b505050505050505050505050565b604080518082018252601781527f70756c6c46726f6d4c6f636b6572286164647265737329000000000000000000602082015290516001600160a01b038381166024830152600092919085169082906044016109fd565b6040805180820182526011815270646973747269627574655969656c64282960781b602082015281516004815260248101928390526000926001600160a01b0385169190611558908490612b74565b60408051918290039091206020830180516001600160e01b03166001600160e01b03199092169190911790525161158f9190612b74565b6000604051808303816000865af19150503d80600081146115cc576040519150601f19603f3d011682016040523d82523d6000602084013e6115d1565b606091505b5090949350505050565b604080518082018252601181527066756e644c6f616e2875696e743235362960781b6020820152905160248101839052600091906001600160a01b0385169082906044016109fd565b600080604051806060016040528060228152602001612df8602291399050846001600160a01b0316818585604051602401610ad8929190612b90565b6040805180820182526007815266636c61696d282960c81b602082015281516004815260248101928390526000926001600160a01b0385169190611558908490612b74565b604080518082018252601d81527f7075736828616464726573732c616464726573732c75696e7432353629000000602082015290516001600160a01b038581166024830152848116604483015260648201849052600092919087169082906084015b60408051601f19818403018152908290529161172291612b74565b60408051918290039091206020830180516001600160e01b03166001600160e01b0319909216919091179052516117599190612b74565b6000604051808303816000865af19150503d8060008114611796576040519150601f19603f3d011682016040523d82523d6000602084013e61179b565b606091505b5090979650505050505050565b604080518082018252600e81526d66756c6c5769746864726177282960901b602082015281516004815260248101928390526000926001600160a01b0385169190611558908490612b74565b6040805180820182526008815267756e6c6f636b282960c01b602082015281516004815260248101928390526000926001600160a01b0385169190611558908490612b74565b604080518082018252601c81527f7365744469737472696275746564417373657428616464726573732900000000602082015290516001600160a01b038381166024830152600092919085169082906044016109fd565b600080604051806060016040528060278152602001612fdd602791396040516001600160a01b0386811660248301528515156044830152919250908616908290606401610ad8565b604080518082018252601181527063616c6c4c6f616e2875696e743235362960781b6020820152905160248101839052600091906001600160a01b0385169082906044016109fd565b604080518082018252600d81526c6275726e2875696e743235362960981b6020820152905160248101839052600091906001600160a01b0385169082906044016109fd565b604080518082018252601e81527f6368616e67654d696e746572526f6c6528616464726573732c626f6f6c290000602082015290516001600160a01b038481166024830152831515604483015260009291908616908290606401610ad8565b604080518082018252601881527f737570706c656d656e745969656c642875696e743235362900000000000000006020820152905160248101839052600091906001600160a01b0385169082906044016109fd565b604080518082018252600e81526d666f72776172645969656c64282960901b602082015281516004815260248101928390526000926001600160a01b0385169190611558908490612b74565b600080604051806040016040528060158152602001746d696e7428616464726573732c75696e743235362960581b8152509050846001600160a01b0316818585604051602401610ad8929190612b90565b60408051808201825260138152726d61726b5265706169642875696e743235362960681b6020820152905160248101839052600091906001600160a01b0385169082906044016109fd565b6000806040518060600160405280603c8152602001612d70603c91396040516001600160a01b0386811660248301528515156044830152919250908616908290606401610ad8565b604080518082018252601e81527f7570646174654d61785472616e636865526174696f2875696e743235362900006020820152905160248101839052600091906001600160a01b0385169082906044016109fd565b6040805180820182526013815272676574526577617264732875696e743235362960681b602082015281516004815260248101928390526000926001600160a01b0385169190611558908490612b74565b600080604051806060016040528060228152602001612e44602291399050836001600160a01b031681846040516024016109fd91815260200190565b604080518082018252601e81527f6465706f73697453656e696f722875696e743235362c6164647265737329000060208201529051602481018490526001600160a01b03838116604483015260009291908616908290606401610ad8565b600080604051806060016040528060238152602001612f94602391399050836001600160a01b031681846040516024016109fd91815260200190565b604080518082018252601981527f736574546172676574415059424950532875696e7432353629000000000000006020820152905160248101839052600091906001600160a01b0385169082906044016109fd565b600080604051806060016040528060278152602001612ef7602791396040516001600160a01b038781166024830152604482018790528581166064830152919250908716908290608401611707565b604080518082018252601781527f70726f636573735061796d656e742875696e74323536290000000000000000006020820152905160248101839052600091906001600160a01b0385169082906044016109fd565b600080604051806060016040528060228152602001612f72602291399050846001600160a01b0316818585604051602401610ad8929190918252602082015260400190565b600080604051806060016040528060228152602001612f1e602291399050846001600160a01b0316818585604051602401610ad8929190612b90565b604080518082018252601f81527f7265736f6c766544656661756c742875696e743235362c75696e743235362900602082015290516024810184905260448101839052600091906001600160a01b038616908290606401610ad8565b6000806040518060600160405280602d815260200161309a602d91399050846001600160a01b0316818585604051602401610ad8929190612c4b565b604080518082018252601f81527f7570646174654d696e5a56455065724a54544d696e742875696e7432353629006020820152905160248101839052600091906001600160a01b0385169082906044016109fd565b60408051808201825260148152736d61726b44656661756c742875696e743235362960601b6020820152905160248101839052600091906001600160a01b0385169082906044016109fd565b604080518082018252601a81527f70756c6c4d756c746928616464726573732c6164647265737329000000000000602082015290516001600160a01b038481166024830152838116604483015260009291908616908290606401610ad8565b604080518082018252601f81527f737570706c79496e7465726573742875696e743235362c75696e743235362900602082015290516024810184905260448101839052600091906001600160a01b038616908290606401610ad8565b60008060405180606001604052806027815260200161304e602791396040516001600160a01b0386811660248301528515156044830152919250908616908290606401610ad8565b604080518082018252601f81527f7570646174654d61785a56455065724a54544d696e742875696e7432353629006020820152905160248101839052600091906001600160a01b0385169082906044016109fd565b6000806040518060400160405280601e81526020017f70756c6c46726f6d4c6f636b65724d756c746928616464726573735b5d2900008152509050846001600160a01b0316818585604051602401610ad8929190612cc2565b6000806040518060400160405280601a81526020017f61646452657761726428616464726573732c75696e74323536290000000000008152509050846001600160a01b0316818585604051602401610ad8929190612b90565b600080604051806060016040528060258152602001612dd3602591396040516001600160a01b038781166024830152868116604483015260648201869052919250908716908290608401611707565b60405163a9059cbb60e01b81526001600160a01b0384169063a9059cbb906122019085908590600401612b90565b6020604051808303816000875af1158015612220573d6000803e3d6000fd5b505050506040513d601f19601f820116820180604052508101906122449190612cde565b50505050565b600080604051806060016040528060268152602001613004602691399050846001600160a01b0316818585604051602401610ad8929190612b90565b60408051808201825260118152706d6967726174654465706f73697473282960781b602082015281516004815260248101928390526000926001600160a01b0385169190611558908490612b74565b6000806040518060600160405280602d8152602001612d43602d91399050846001600160a01b0316818585604051602401610ad8929190612c4b565b600080604051806060016040528060228152602001612ed5602291396040516001600160a01b038781166024830152868116604483015260648201869052919250908716908290608401611707565b600080604051806060016040528060258152602001613075602591399050836001600160a01b031681846040516024016109fd91815260200190565b60408051808201825260148152736d616b655061796d656e742875696e743235362960601b6020820152905160248101839052600091906001600160a01b0385169082906044016109fd565b600080604051806060016040528060328152602001612f4060329139604051600f88810b602483015287900b604482015260648101869052608481018590529091506001600160a01b03881690829060a401610c5f565b80356001600160a01b038116811461245657600080fd5b919050565b6000806040838503121561246e57600080fd5b6124778361243f565b946020939093013593505050565b60008060006060848603121561249a57600080fd5b6124a38461243f565b92506124b16020850161243f565b9150604084013590509250925092565b6000806000606084860312156124d657600080fd5b6124df8461243f565b9250602084013591506124f46040850161243f565b90509250925092565b6000806040838503121561251057600080fd5b6125198361243f565b91506125276020840161243f565b90509250929050565b60008083601f84011261254257600080fd5b50813567ffffffffffffffff81111561255a57600080fd5b6020830191508360208260051b850101111561257557600080fd5b9250929050565b60008060008060006060868803121561259457600080fd5b61259d8661243f565b9450602086013567ffffffffffffffff808211156125ba57600080fd5b6125c689838a01612530565b909650945060408801359150808211156125df57600080fd5b506125ec88828901612530565b969995985093965092949392505050565b801515811461260b57600080fd5b50565b60008060006060848603121561262357600080fd5b61262c8461243f565b925061263a6020850161243f565b9150604084013561264a816125fd565b809150509250925092565b600080600080600060a0868803121561266d57600080fd5b6126768661243f565b94506126846020870161243f565b94979496505050506040830135926060810135926080909101359150565b600080608083850312156126b557600080fd5b6126be8361243f565b9150836080840111156126d057600080fd5b50926020919091019150565b60008060008060008060c087890312156126f557600080fd5b6126fe8761243f565b955061270c6020880161243f565b945060408701359350606087013592506080870135915060a0870135612731816125fd565b809150509295509295509295565b60008060008060008060008060006101208a8c03121561275e57600080fd5b6127678a61243f565b985061277560208b0161243f565b975060408a0135965060608a0135955060808a0135945060a08a0135935060c08a0135925060e08a013591506101008a01358060000b81146127b657600080fd5b809150509295985092959850929598565b6000602082840312156127d957600080fd5b6127e28261243f565b9392505050565b600080600080608085870312156127ff57600080fd5b6128088561243f565b93506128166020860161243f565b92506128246040860161243f565b9396929550929360600135925050565b6000806000806080858703121561284a57600080fd5b6128538561243f565b93506128616020860161243f565b9250604085013591506128766060860161243f565b905092959194509250565b60008060006060848603121561289657600080fd5b61289f8461243f565b95602085013595506040909401359392505050565b634e487b7160e01b600052604160045260246000fd5b604051601f8201601f1916810167ffffffffffffffff811182821017156128f3576128f36128b4565b604052919050565b600067ffffffffffffffff821115612915576129156128b4565b5060051b60200190565b600082601f83011261293057600080fd5b81356020612945612940836128fb565b6128ca565b82815260059290921b8401810191818101908684111561296457600080fd5b8286015b8481101561297f5780358352918301918301612968565b509695505050505050565b60008060006060848603121561299f57600080fd5b6129a88461243f565b925060208085013567ffffffffffffffff808211156129c657600080fd5b818701915087601f8301126129da57600080fd5b81356129e8612940826128fb565b81815260059190911b8301840190848101908a831115612a0757600080fd5b938501935b82851015612a2c57612a1d8561243f565b82529385019390850190612a0c565b965050506040870135925080831115612a4457600080fd5b5050612a528682870161291f565b9150509250925092565b600080600060608486031215612a7157600080fd5b612a7a8461243f565b9250612a886020850161243f565b91506124f46040850161243f565b600080600060408486031215612aab57600080fd5b612ab48461243f565b9250602084013567ffffffffffffffff811115612ad057600080fd5b612adc86828701612530565b9497909650939450505050565b8035600f81900b811461245657600080fd5b600080600080600060a08688031215612b1357600080fd5b612b1c8661243f565b9450612b2a60208701612ae9565b9350612b3860408701612ae9565b94979396509394606081013594506080013592915050565b60005b83811015612b6b578181015183820152602001612b53565b50506000910152565b60008251612b86818460208701612b50565b9190910192915050565b6001600160a01b03929092168252602082015260400190565b8183526000602080850194508260005b85811015612be5576001600160a01b03612bd28361243f565b1687529582019590820190600101612bb9565b509495945050505050565b604081526000612c04604083018688612ba9565b82810360208401528381526001600160fb1b03841115612c2357600080fd5b8360051b80866020840137016020019695505050505050565b60608181019083833792915050565b604080825283519082018190526000906020906060840190828701845b82811015612c8d5781516001600160a01b031684529284019290840190600101612c68565b5050508381038285015284518082528583019183019060005b8181101561179b57835183529284019291840191600101612ca6565b602081526000612cd6602083018486612ba9565b949350505050565b600060208284031215612cf057600080fd5b81516127e2816125fd56fe7665737428616464726573732c75696e743235362c75696e743235362c75696e7432353629757064617465436f6d706f756e64696e6752617465424950532875696e743235362975706461746550726f746f636f6c526563697069656e747328616464726573735b5d2c75696e743235365b5d2975706461746557686974656c6973746564416d706c69666965727328616464726573732c75696e743235362c75696e743235362c75696e7432353629757064617465446973747269627574696f6e526174696f424950532875696e743235365b335d297472616e7366657246726f6d28616464726573732c616464726573732c75696e7432353629696e637265617365416c6c6f77616e636528616464726573732c75696e74323536297665737428616464726573732c75696e743235362c75696e743235362c75696e743235362c626f6f6c297570646174654c6f776572526174696f496e63656e746976652875696e7432353629726571756573744c6f616e28616464726573732c75696e743235362c75696e743235362c75696e743235362c75696e743235362c75696e743235362c75696e743235362c696e743829696e637265617365416d706c696669636174696f6e28616464726573732c75696e743235362970757368417373657428616464726573732c616464726573732c75696e7432353629706173735468726f75676859444c28616464726573732c75696e743235362c61646472657373296465637265617365416c6c6f77616e636528616464726573732c75696e743235362965786368616e67655f756e6465726c79696e6728696e743132382c696e743132382c75696e743235362c75696e74323536297265736f6c7665496e736f6c76656e63792875696e743235362c75696e74323536297570646174655570706572526174696f496e63656e74697665732875696e743235362970757368546f4c6f636b65724d756c746928616464726573735b5d2c75696e743235365b5d296d6f64696679537461626c65636f696e57686974656c69737428616464726573732c626f6f6c2970756c6c46726f6d4c6f636b65725061727469616c28616464726573732c75696e743235362973657450726f746f636f6c4561726e696e677352617465424950532875696e7432353629757064617465537461626c65636f696e57686974656c69737428616464726573732c626f6f6c297365744578706f6e656e7469616c44656361795065725365636f6e642875696e7432353629757064617465526573696475616c526563697069656e747328616464726573735b5d2c75696e743235365b5d2970756c6c46726f6d4c6f636b65724d756c74695061727469616c28616464726573735b5d2c75696e743235365b5d29a26469706673582212207f28b2d6b6bf85b96cd7b09eecf500632ad1c6f884fcb560e55d25b2796602b564736f6c63430008100033",
    "linkReferences": {}
  },
  "methodIdentifiers": {
    "transferByTrader(address,address,uint256)": "e5d04d63",
    "try_addReward(address,address,uint256)": "e204becd",
    "try_approveToken(address,address,uint256)": "3cddef99",
    "try_burn(address,uint256)": "80ecd128",
    "try_burnSenior(address,uint256,address)": "4303b31d",
    "try_callLoan(address,uint256)": "808d440b",
    "try_cancelRequest(address,uint256)": "4c48f915",
    "try_changeMinterRole(address,address,bool)": "83671f32",
    "try_claim(address)": "7188a084",
    "try_decreaseAllowance(address,address,uint256)": "ba2f6935",
    "try_decreaseDefaults(address,uint256)": "3e09d090",
    "try_depositJunior(address,uint256,address)": "b25d8c21",
    "try_depositJuniorTranches(address,uint256,address)": "02b62fc1",
    "try_depositReward(address,address,uint256)": "5ba087e2",
    "try_depositSenior(address,uint256,address)": "9f70aeb2",
    "try_depositSeniorTranches(address,uint256,address)": "bc08186c",
    "try_distributeYield(address)": "65daf3e8",
    "try_exchange_underlying(address,int128,int128,uint256,uint256)": "f9b9ac35",
    "try_forwardYield(address)": "8b019283",
    "try_fullWithdraw(address)": "796a2018",
    "try_fundLoan(address,uint256)": "67d6ec41",
    "try_getRewardAt(address,uint256)": "5af8f714",
    "try_getRewards(address)": "9d6b127a",
    "try_increaseAllowance(address,address,uint256)": "6d6a44de",
    "try_increaseAmplification(address,address,uint256)": "0264c332",
    "try_increaseDefaults(address,uint256)": "241327c4",
    "try_makePayment(address,uint256)": "f8d9fbfa",
    "try_markDefault(address,uint256)": "c4c1a28a",
    "try_markRepaid(address,uint256)": "8eb7d939",
    "try_migrateDeposits(address)": "ed779dbb",
    "try_mint(address,address,uint256)": "8ea98996",
    "try_modifyStablecoinWhitelist(address,address,bool)": "80573452",
    "try_passThroughYDL(address,address,uint256,address)": "a59420b5",
    "try_processPayment(address,uint256)": "b0bd3faf",
    "try_pull(address,address,address)": "c4f36c7a",
    "try_pullFromLockerMultiPartial_DIRECT(address,address[],uint256[])": "4201f378",
    "try_pullFromLockerMulti_DIRECT(address,address[])": "dce67a68",
    "try_pullFromLockerPartial_DIRECT(address,address,uint256)": "e7a8d4a4",
    "try_pullFromLocker_DIRECT(address,address)": "63ba19dd",
    "try_push(address,address,address,uint256)": "75cf1fdd",
    "try_pushAsset(address,address,address,uint256)": "f585d702",
    "try_pushToLockerMulti_DIRECT(address,address[],uint256[])": "1fa09b8b",
    "try_recoverAsset(address,address)": "5195da8f",
    "try_requestLoan(address,address,uint256,uint256,uint256,uint256,uint256,uint256,int8)": "5d4fbf95",
    "try_resolveDefault(address,uint256,uint256)": "bc73b176",
    "try_resolveInsolvency(address,uint256,uint256)": "b805f9f8",
    "try_revoke(address,address)": "0c746e17",
    "try_setDistributedAsset(address,address)": "7fb9f655",
    "try_setExponentialDecayPerSecond(address,uint256)": "f8b803e8",
    "try_setProtocolEarningsRateBIPS(address,uint256)": "4d3fcc04",
    "try_setTargetAPYBIPS(address,uint256)": "a56e81f8",
    "try_setTargetRatioBIPS(address,uint256)": "247d10b1",
    "try_stake(address,uint256)": "0093d6ca",
    "try_supplementYield(address,uint256)": "85ad5a59",
    "try_supplyInterest(address,uint256,uint256)": "c675c040",
    "try_transferByTrader(address,address,uint256)": "d8b47343",
    "try_transferFromToken(address,address,address,uint256)": "e47702d7",
    "try_transferToken(address,address,uint256)": "3f18f686",
    "try_unlock(address)": "7d55ddcd",
    "try_updateCompoundingRateBIPS(address,uint256)": "53d5cefb",
    "try_updateDistributionRatioBIPS(address,uint256[3])": "4188ec6e",
    "try_updateIsKeeper(address,address,bool)": "2e418dd4",
    "try_updateIsLocker(address,address,bool)": "464dd9d9",
    "try_updateLowerRatioIncentive(address,uint256)": "9f459cb8",
    "try_updateMaxTrancheRatio(address,uint256)": "99a49f69",
    "try_updateMaxZVEPerJTTMint(address,uint256)": "cedd5119",
    "try_updateMinZVEPerJTTMint(address,uint256)": "be6fb475",
    "try_updateProtocolRecipients(address,address[],uint256[])": "f2025cdb",
    "try_updateResidualRecipients(address,address[],uint256[])": "bce7b855",
    "try_updateStablecoinWhitelist(address,address,bool)": "c945d6cb",
    "try_updateUpperRatioIncentives(address,uint256)": "a46dd760",
    "try_updateWhitelistedAmplifiers(address,address,bool)": "92d9cb6f",
    "try_vest(address,address,uint256,uint256,uint256)": "40c67316",
    "try_vest(address,address,uint256,uint256,uint256,bool)": "547ebea4",
    "try_withdraw(address,uint256)": "2b0d55f7"
  },
  "id": 114
}