{
  "abi": [
    {
      "inputs": [
        {
          "internalType": "uint256",
          "name": "minDelay",
          "type": "uint256"
        },
        {
          "internalType": "address[]",
          "name": "proposers",
          "type": "address[]"
        },
        {
          "internalType": "address[]",
          "name": "executors",
          "type": "address[]"
        },
        {
          "internalType": "address",
          "name": "_GBL",
          "type": "address"
        }
      ],
      "stateMutability": "nonpayable",
      "type": "constructor"
    },
    {
      "anonymous": false,
      "inputs": [
        {
          "indexed": true,
          "internalType": "bytes32",
          "name": "id",
          "type": "bytes32"
        },
        {
          "indexed": true,
          "internalType": "uint256",
          "name": "index",
          "type": "uint256"
        },
        {
          "indexed": false,
          "internalType": "address",
          "name": "target",
          "type": "address"
        },
        {
          "indexed": false,
          "internalType": "uint256",
          "name": "value",
          "type": "uint256"
        },
        {
          "indexed": false,
          "internalType": "bytes",
          "name": "data",
          "type": "bytes"
        }
      ],
      "name": "CallExecuted",
      "type": "event"
    },
    {
      "anonymous": false,
      "inputs": [
        {
          "indexed": true,
          "internalType": "bytes32",
          "name": "id",
          "type": "bytes32"
        },
        {
          "indexed": true,
          "internalType": "uint256",
          "name": "index",
          "type": "uint256"
        },
        {
          "indexed": false,
          "internalType": "address",
          "name": "target",
          "type": "address"
        },
        {
          "indexed": false,
          "internalType": "uint256",
          "name": "value",
          "type": "uint256"
        },
        {
          "indexed": false,
          "internalType": "bytes",
          "name": "data",
          "type": "bytes"
        },
        {
          "indexed": false,
          "internalType": "bytes32",
          "name": "predecessor",
          "type": "bytes32"
        },
        {
          "indexed": false,
          "internalType": "uint256",
          "name": "delay",
          "type": "uint256"
        }
      ],
      "name": "CallScheduled",
      "type": "event"
    },
    {
      "anonymous": false,
      "inputs": [
        {
          "indexed": true,
          "internalType": "bytes32",
          "name": "id",
          "type": "bytes32"
        }
      ],
      "name": "Cancelled",
      "type": "event"
    },
    {
      "anonymous": false,
      "inputs": [
        {
          "indexed": false,
          "internalType": "uint256",
          "name": "oldDuration",
          "type": "uint256"
        },
        {
          "indexed": false,
          "internalType": "uint256",
          "name": "newDuration",
          "type": "uint256"
        }
      ],
      "name": "MinDelayChange",
      "type": "event"
    },
    {
      "anonymous": false,
      "inputs": [
        {
          "indexed": true,
          "internalType": "bytes32",
          "name": "role",
          "type": "bytes32"
        },
        {
          "indexed": true,
          "internalType": "bytes32",
          "name": "previousAdminRole",
          "type": "bytes32"
        },
        {
          "indexed": true,
          "internalType": "bytes32",
          "name": "newAdminRole",
          "type": "bytes32"
        }
      ],
      "name": "RoleAdminChanged",
      "type": "event"
    },
    {
      "anonymous": false,
      "inputs": [
        {
          "indexed": true,
          "internalType": "bytes32",
          "name": "role",
          "type": "bytes32"
        },
        {
          "indexed": true,
          "internalType": "address",
          "name": "account",
          "type": "address"
        },
        {
          "indexed": true,
          "internalType": "address",
          "name": "sender",
          "type": "address"
        }
      ],
      "name": "RoleGranted",
      "type": "event"
    },
    {
      "anonymous": false,
      "inputs": [
        {
          "indexed": true,
          "internalType": "bytes32",
          "name": "role",
          "type": "bytes32"
        },
        {
          "indexed": true,
          "internalType": "address",
          "name": "account",
          "type": "address"
        },
        {
          "indexed": true,
          "internalType": "address",
          "name": "sender",
          "type": "address"
        }
      ],
      "name": "RoleRevoked",
      "type": "event"
    },
    {
      "inputs": [],
      "name": "CANCELLER_ROLE",
      "outputs": [
        {
          "internalType": "bytes32",
          "name": "",
          "type": "bytes32"
        }
      ],
      "stateMutability": "view",
      "type": "function"
    },
    {
      "inputs": [],
      "name": "DEFAULT_ADMIN_ROLE",
      "outputs": [
        {
          "internalType": "bytes32",
          "name": "",
          "type": "bytes32"
        }
      ],
      "stateMutability": "view",
      "type": "function"
    },
    {
      "inputs": [],
      "name": "EXECUTOR_ROLE",
      "outputs": [
        {
          "internalType": "bytes32",
          "name": "",
          "type": "bytes32"
        }
      ],
      "stateMutability": "view",
      "type": "function"
    },
    {
      "inputs": [],
      "name": "GBL",
      "outputs": [
        {
          "internalType": "address",
          "name": "",
          "type": "address"
        }
      ],
      "stateMutability": "view",
      "type": "function"
    },
    {
      "inputs": [],
      "name": "PROPOSER_ROLE",
      "outputs": [
        {
          "internalType": "bytes32",
          "name": "",
          "type": "bytes32"
        }
      ],
      "stateMutability": "view",
      "type": "function"
    },
    {
      "inputs": [],
      "name": "TIMELOCK_ADMIN_ROLE",
      "outputs": [
        {
          "internalType": "bytes32",
          "name": "",
          "type": "bytes32"
        }
      ],
      "stateMutability": "view",
      "type": "function"
    },
    {
      "inputs": [
        {
          "internalType": "bytes32",
          "name": "id",
          "type": "bytes32"
        }
      ],
      "name": "cancel",
      "outputs": [],
      "stateMutability": "nonpayable",
      "type": "function"
    },
    {
      "inputs": [
        {
          "internalType": "address",
          "name": "target",
          "type": "address"
        },
        {
          "internalType": "uint256",
          "name": "value",
          "type": "uint256"
        },
        {
          "internalType": "bytes",
          "name": "payload",
          "type": "bytes"
        },
        {
          "internalType": "bytes32",
          "name": "predecessor",
          "type": "bytes32"
        },
        {
          "internalType": "bytes32",
          "name": "salt",
          "type": "bytes32"
        }
      ],
      "name": "execute",
      "outputs": [],
      "stateMutability": "payable",
      "type": "function"
    },
    {
      "inputs": [
        {
          "internalType": "address[]",
          "name": "targets",
          "type": "address[]"
        },
        {
          "internalType": "uint256[]",
          "name": "values",
          "type": "uint256[]"
        },
        {
          "internalType": "bytes[]",
          "name": "payloads",
          "type": "bytes[]"
        },
        {
          "internalType": "bytes32",
          "name": "predecessor",
          "type": "bytes32"
        },
        {
          "internalType": "bytes32",
          "name": "salt",
          "type": "bytes32"
        }
      ],
      "name": "executeBatch",
      "outputs": [],
      "stateMutability": "payable",
      "type": "function"
    },
    {
      "inputs": [],
      "name": "getMinDelay",
      "outputs": [
        {
          "internalType": "uint256",
          "name": "duration",
          "type": "uint256"
        }
      ],
      "stateMutability": "view",
      "type": "function"
    },
    {
      "inputs": [
        {
          "internalType": "bytes32",
          "name": "role",
          "type": "bytes32"
        }
      ],
      "name": "getRoleAdmin",
      "outputs": [
        {
          "internalType": "bytes32",
          "name": "",
          "type": "bytes32"
        }
      ],
      "stateMutability": "view",
      "type": "function"
    },
    {
      "inputs": [
        {
          "internalType": "bytes32",
          "name": "id",
          "type": "bytes32"
        }
      ],
      "name": "getTimestamp",
      "outputs": [
        {
          "internalType": "uint256",
          "name": "timestamp",
          "type": "uint256"
        }
      ],
      "stateMutability": "view",
      "type": "function"
    },
    {
      "inputs": [
        {
          "internalType": "bytes32",
          "name": "role",
          "type": "bytes32"
        },
        {
          "internalType": "address",
          "name": "account",
          "type": "address"
        }
      ],
      "name": "grantRole",
      "outputs": [],
      "stateMutability": "nonpayable",
      "type": "function"
    },
    {
      "inputs": [
        {
          "internalType": "bytes32",
          "name": "role",
          "type": "bytes32"
        },
        {
          "internalType": "address",
          "name": "account",
          "type": "address"
        }
      ],
      "name": "hasRole",
      "outputs": [
        {
          "internalType": "bool",
          "name": "",
          "type": "bool"
        }
      ],
      "stateMutability": "view",
      "type": "function"
    },
    {
      "inputs": [
        {
          "internalType": "address",
          "name": "target",
          "type": "address"
        },
        {
          "internalType": "uint256",
          "name": "value",
          "type": "uint256"
        },
        {
          "internalType": "bytes",
          "name": "data",
          "type": "bytes"
        },
        {
          "internalType": "bytes32",
          "name": "predecessor",
          "type": "bytes32"
        },
        {
          "internalType": "bytes32",
          "name": "salt",
          "type": "bytes32"
        }
      ],
      "name": "hashOperation",
      "outputs": [
        {
          "internalType": "bytes32",
          "name": "hash",
          "type": "bytes32"
        }
      ],
      "stateMutability": "pure",
      "type": "function"
    },
    {
      "inputs": [
        {
          "internalType": "address[]",
          "name": "targets",
          "type": "address[]"
        },
        {
          "internalType": "uint256[]",
          "name": "values",
          "type": "uint256[]"
        },
        {
          "internalType": "bytes[]",
          "name": "payloads",
          "type": "bytes[]"
        },
        {
          "internalType": "bytes32",
          "name": "predecessor",
          "type": "bytes32"
        },
        {
          "internalType": "bytes32",
          "name": "salt",
          "type": "bytes32"
        }
      ],
      "name": "hashOperationBatch",
      "outputs": [
        {
          "internalType": "bytes32",
          "name": "hash",
          "type": "bytes32"
        }
      ],
      "stateMutability": "pure",
      "type": "function"
    },
    {
      "inputs": [
        {
          "internalType": "bytes32",
          "name": "id",
          "type": "bytes32"
        }
      ],
      "name": "isOperation",
      "outputs": [
        {
          "internalType": "bool",
          "name": "registered",
          "type": "bool"
        }
      ],
      "stateMutability": "view",
      "type": "function"
    },
    {
      "inputs": [
        {
          "internalType": "bytes32",
          "name": "id",
          "type": "bytes32"
        }
      ],
      "name": "isOperationDone",
      "outputs": [
        {
          "internalType": "bool",
          "name": "done",
          "type": "bool"
        }
      ],
      "stateMutability": "view",
      "type": "function"
    },
    {
      "inputs": [
        {
          "internalType": "bytes32",
          "name": "id",
          "type": "bytes32"
        }
      ],
      "name": "isOperationPending",
      "outputs": [
        {
          "internalType": "bool",
          "name": "pending",
          "type": "bool"
        }
      ],
      "stateMutability": "view",
      "type": "function"
    },
    {
      "inputs": [
        {
          "internalType": "bytes32",
          "name": "id",
          "type": "bytes32"
        }
      ],
      "name": "isOperationReady",
      "outputs": [
        {
          "internalType": "bool",
          "name": "ready",
          "type": "bool"
        }
      ],
      "stateMutability": "view",
      "type": "function"
    },
    {
      "inputs": [
        {
          "internalType": "bytes32",
          "name": "id",
          "type": "bytes32"
        }
      ],
      "name": "isOperationReadyKeeper",
      "outputs": [
        {
          "internalType": "bool",
          "name": "ready",
          "type": "bool"
        }
      ],
      "stateMutability": "view",
      "type": "function"
    },
    {
      "inputs": [
        {
          "internalType": "address",
          "name": "",
          "type": "address"
        },
        {
          "internalType": "address",
          "name": "",
          "type": "address"
        },
        {
          "internalType": "uint256[]",
          "name": "",
          "type": "uint256[]"
        },
        {
          "internalType": "uint256[]",
          "name": "",
          "type": "uint256[]"
        },
        {
          "internalType": "bytes",
          "name": "",
          "type": "bytes"
        }
      ],
      "name": "onERC1155BatchReceived",
      "outputs": [
        {
          "internalType": "bytes4",
          "name": "",
          "type": "bytes4"
        }
      ],
      "stateMutability": "nonpayable",
      "type": "function"
    },
    {
      "inputs": [
        {
          "internalType": "address",
          "name": "",
          "type": "address"
        },
        {
          "internalType": "address",
          "name": "",
          "type": "address"
        },
        {
          "internalType": "uint256",
          "name": "",
          "type": "uint256"
        },
        {
          "internalType": "uint256",
          "name": "",
          "type": "uint256"
        },
        {
          "internalType": "bytes",
          "name": "",
          "type": "bytes"
        }
      ],
      "name": "onERC1155Received",
      "outputs": [
        {
          "internalType": "bytes4",
          "name": "",
          "type": "bytes4"
        }
      ],
      "stateMutability": "nonpayable",
      "type": "function"
    },
    {
      "inputs": [
        {
          "internalType": "address",
          "name": "",
          "type": "address"
        },
        {
          "internalType": "address",
          "name": "",
          "type": "address"
        },
        {
          "internalType": "uint256",
          "name": "",
          "type": "uint256"
        },
        {
          "internalType": "bytes",
          "name": "",
          "type": "bytes"
        }
      ],
      "name": "onERC721Received",
      "outputs": [
        {
          "internalType": "bytes4",
          "name": "",
          "type": "bytes4"
        }
      ],
      "stateMutability": "nonpayable",
      "type": "function"
    },
    {
      "inputs": [
        {
          "internalType": "bytes32",
          "name": "role",
          "type": "bytes32"
        },
        {
          "internalType": "address",
          "name": "account",
          "type": "address"
        }
      ],
      "name": "renounceRole",
      "outputs": [],
      "stateMutability": "nonpayable",
      "type": "function"
    },
    {
      "inputs": [
        {
          "internalType": "bytes32",
          "name": "role",
          "type": "bytes32"
        },
        {
          "internalType": "address",
          "name": "account",
          "type": "address"
        }
      ],
      "name": "revokeRole",
      "outputs": [],
      "stateMutability": "nonpayable",
      "type": "function"
    },
    {
      "inputs": [
        {
          "internalType": "address",
          "name": "target",
          "type": "address"
        },
        {
          "internalType": "uint256",
          "name": "value",
          "type": "uint256"
        },
        {
          "internalType": "bytes",
          "name": "data",
          "type": "bytes"
        },
        {
          "internalType": "bytes32",
          "name": "predecessor",
          "type": "bytes32"
        },
        {
          "internalType": "bytes32",
          "name": "salt",
          "type": "bytes32"
        },
        {
          "internalType": "uint256",
          "name": "delay",
          "type": "uint256"
        }
      ],
      "name": "schedule",
      "outputs": [],
      "stateMutability": "nonpayable",
      "type": "function"
    },
    {
      "inputs": [
        {
          "internalType": "address[]",
          "name": "targets",
          "type": "address[]"
        },
        {
          "internalType": "uint256[]",
          "name": "values",
          "type": "uint256[]"
        },
        {
          "internalType": "bytes[]",
          "name": "payloads",
          "type": "bytes[]"
        },
        {
          "internalType": "bytes32",
          "name": "predecessor",
          "type": "bytes32"
        },
        {
          "internalType": "bytes32",
          "name": "salt",
          "type": "bytes32"
        },
        {
          "internalType": "uint256",
          "name": "delay",
          "type": "uint256"
        }
      ],
      "name": "scheduleBatch",
      "outputs": [],
      "stateMutability": "nonpayable",
      "type": "function"
    },
    {
      "inputs": [
        {
          "internalType": "bytes4",
          "name": "interfaceId",
          "type": "bytes4"
        }
      ],
      "name": "supportsInterface",
      "outputs": [
        {
          "internalType": "bool",
          "name": "",
          "type": "bool"
        }
      ],
      "stateMutability": "view",
      "type": "function"
    },
    {
      "inputs": [
        {
          "internalType": "uint256",
          "name": "newDelay",
          "type": "uint256"
        }
      ],
      "name": "updateDelay",
      "outputs": [],
      "stateMutability": "nonpayable",
      "type": "function"
    },
    {
      "stateMutability": "payable",
      "type": "receive"
    }
  ],
  "bytecode": {
    "object": "0x60a06040523480156200001157600080fd5b50604051620026b2380380620026b2833981016040819052620000349162000405565b6200004f60008051602062002632833981519152806200022a565b6200007960008051602062002652833981519152600080516020620026328339815191526200022a565b620000a360008051602062002672833981519152600080516020620026328339815191526200022a565b620000cd60008051602062002692833981519152600080516020620026328339815191526200022a565b6001600160a01b038116608052620000f5600080516020620026328339815191523362000275565b62000110600080516020620026328339815191523062000275565b60005b835181101562000196576200015a600080516020620026528339815191528583815181106200014657620001466200048c565b60200260200101516200027560201b60201c565b62000183600080516020620026928339815191528583815181106200014657620001466200048c565b6200018e81620004a2565b905062000113565b5060005b8251811015620001e057620001cd600080516020620026728339815191528483815181106200014657620001466200048c565b620001d881620004a2565b90506200019a565b5060028490556040805160008152602081018690527f11c24f4ead16507c69ac467fbd5e4eed5fb5c699626d2cc6d66421df253886d5910160405180910390a150505050620004ca565b600082815260208190526040808220600101805490849055905190918391839186917fbd79b86ffe0ab8e8776151514217cd7cacd52c909f66475c3af44e129f0b00ff9190a4505050565b62000281828262000285565b5050565b6000828152602081815260408083206001600160a01b038516845290915290205460ff1662000281576000828152602081815260408083206001600160a01b03851684529091529020805460ff19166001179055620002e13390565b6001600160a01b0316816001600160a01b0316837f2f8788117e7eff1d82e926ec794901d17c78024a50270940304540a733656f0d60405160405180910390a45050565b634e487b7160e01b600052604160045260246000fd5b80516001600160a01b03811681146200035357600080fd5b919050565b600082601f8301126200036a57600080fd5b815160206001600160401b038083111562000389576200038962000325565b8260051b604051601f19603f83011681018181108482111715620003b157620003b162000325565b604052938452858101830193838101925087851115620003d057600080fd5b83870191505b84821015620003fa57620003ea826200033b565b83529183019190830190620003d6565b979650505050505050565b600080600080608085870312156200041c57600080fd5b845160208601519094506001600160401b03808211156200043c57600080fd5b6200044a8883890162000358565b945060408701519150808211156200046157600080fd5b50620004708782880162000358565b92505062000481606086016200033b565b905092959194509250565b634e487b7160e01b600052603260045260246000fd5b600060018201620004c357634e487b7160e01b600052601160045260246000fd5b5060010190565b60805161213e620004f4600039600081816104140152818161078e0152610e39015261213e6000f3fe6080604052600436106101d15760003560e01c806364d62353116100f7578063b1c5f42711610095578063d547741f11610064578063d547741f14610604578063e38335e514610624578063f23a6e6114610637578063f27a0c921461066357600080fd5b8063b1c5f4271461056b578063bc197c811461058b578063c4d252f5146105b7578063d45c4435146105d757600080fd5b80638f61f4f5116100d15780638f61f4f5146104ce57806391d1485414610502578063a217fddf14610522578063b08e51c01461053757600080fd5b806364d623531461046e5780638065657f1461048e5780638f2a0bb0146104ae57600080fd5b80631885c2b71161016f57806331d507501161013e57806331d50750146103c257806336568abe146103e25780633ce8d43214610402578063584b153e1461044e57600080fd5b80631885c2b714610321578063248a9ca3146103415780632ab0f529146103715780632f2ff15d146103a257600080fd5b80630d3cf6fc116101ab5780630d3cf6fc14610276578063134008d3146102aa57806313bc9f20146102bd578063150b7a02146102dd57600080fd5b806301d5062a146101dd57806301ffc9a7146101ff57806307bd02651461023457600080fd5b366101d857005b600080fd5b3480156101e957600080fd5b506101fd6101f83660046116f4565b610678565b005b34801561020b57600080fd5b5061021f61021a366004611768565b61070d565b60405190151581526020015b60405180910390f35b34801561024057600080fd5b506102687fd8aa0f3194971a2a116679f7c2090f6939c8d4e01a2a8d7e41d55e5351469e6381565b60405190815260200161022b565b34801561028257600080fd5b506102687f5f58e3a2316349923ce3780f8d587db2d72378aed66a8261c916544fa6846ca581565b6101fd6102b8366004611792565b610738565b3480156102c957600080fd5b5061021f6102d83660046117fd565b6108ca565b3480156102e957600080fd5b506103086102f83660046118cb565b630a85bd0160e11b949350505050565b6040516001600160e01b0319909116815260200161022b565b34801561032d57600080fd5b5061021f61033c3660046117fd565b6108f0565b34801561034d57600080fd5b5061026861035c3660046117fd565b60009081526020819052604090206001015490565b34801561037d57600080fd5b5061021f61038c3660046117fd565b6000908152600160208190526040909120541490565b3480156103ae57600080fd5b506101fd6103bd366004611932565b610920565b3480156103ce57600080fd5b5061021f6103dd3660046117fd565b61094a565b3480156103ee57600080fd5b506101fd6103fd366004611932565b610963565b34801561040e57600080fd5b506104367f000000000000000000000000000000000000000000000000000000000000000081565b6040516001600160a01b03909116815260200161022b565b34801561045a57600080fd5b5061021f6104693660046117fd565b6109e6565b34801561047a57600080fd5b506101fd6104893660046117fd565b6109fc565b34801561049a57600080fd5b506102686104a9366004611792565b610aa5565b3480156104ba57600080fd5b506101fd6104c93660046119a2565b610ae4565b3480156104da57600080fd5b506102687fb09aa5aeb3702cfd50b6b62bc4532604938f21248a27a1d5ca736082b6819cc181565b34801561050e57600080fd5b5061021f61051d366004611932565b610c36565b34801561052e57600080fd5b50610268600081565b34801561054357600080fd5b506102687ffd643c72710c63c0180259aba6b2d05451e3591a24e58b62239378085726f78381565b34801561057757600080fd5b50610268610586366004611a53565b610c5f565b34801561059757600080fd5b506103086105a6366004611b7a565b63bc197c8160e01b95945050505050565b3480156105c357600080fd5b506101fd6105d23660046117fd565b610ca4565b3480156105e357600080fd5b506102686105f23660046117fd565b60009081526001602052604090205490565b34801561061057600080fd5b506101fd61061f366004611932565b610d7e565b6101fd610632366004611a53565b610da3565b34801561064357600080fd5b50610308610652366004611c23565b63f23a6e6160e01b95945050505050565b34801561066f57600080fd5b50600254610268565b7fb09aa5aeb3702cfd50b6b62bc4532604938f21248a27a1d5ca736082b6819cc16106a28161109d565b60006106b2898989898989610aa5565b90506106be81846110aa565b6000817f4cf4410cc57040e44862ef0f45f3dd5a5e02db8eb8add648d4b0e236f1d07dca8b8b8b8b8b8a6040516106fa96959493929190611cb0565b60405180910390a3505050505050505050565b60006001600160e01b03198216630271189760e51b14806107325750610732826111a3565b92915050565b7fd8aa0f3194971a2a116679f7c2090f6939c8d4e01a2a8d7e41d55e5351469e63610764816000610c36565b6107725761077281336111d8565b6000610782888888888888610aa5565b90506001600160a01b037f000000000000000000000000000000000000000000000000000000000000000016636ba42aaa336040516001600160e01b031960e084901b1681526001600160a01b039091166004820152602401602060405180830381865afa1580156107f8573d6000803e3d6000fd5b505050506040513d601f19601f8201168201806040525081019061081c9190611ced565b156108735761082b8185611231565b610837888888886112d2565b6000816000805160206120e98339815191528a8a8a8a60405161085d9493929190611d0f565b60405180910390a361086e816113af565b6108c0565b61087d81856113e8565b610889888888886112d2565b6000816000805160206120e98339815191528a8a8a8a6040516108af9493929190611d0f565b60405180910390a36108c0816113f1565b5050505050505050565b6000818152600160205260408120546001811180156108e95750428111155b9392505050565b6000818152600160205260408120546001811180156108e957504261091761546083611d57565b11159392505050565b60008281526020819052604090206001015461093b8161109d565b61094583836113fa565b505050565b60008181526001602052604081205481905b1192915050565b6001600160a01b03811633146109d85760405162461bcd60e51b815260206004820152602f60248201527f416363657373436f6e74726f6c3a2063616e206f6e6c792072656e6f756e636560448201526e103937b632b9903337b91039b2b63360891b60648201526084015b60405180910390fd5b6109e2828261147e565b5050565b600081815260016020819052604082205461095c565b333014610a645760405162461bcd60e51b815260206004820152603060248201527f5a69766f6554696d656c6f636b436f6e74726f6c6c65723a2063616c6c65722060448201526f6d7573742062652074696d656c6f636b60801b60648201526084016109cf565b60025460408051918252602082018390527f11c24f4ead16507c69ac467fbd5e4eed5fb5c699626d2cc6d66421df253886d5910160405180910390a1600255565b6000868686868686604051602001610ac296959493929190611cb0565b6040516020818303038152906040528051906020012090509695505050505050565b7fb09aa5aeb3702cfd50b6b62bc4532604938f21248a27a1d5ca736082b6819cc1610b0e8161109d565b888714610b2d5760405162461bcd60e51b81526004016109cf90611d6a565b888514610b4c5760405162461bcd60e51b81526004016109cf90611d6a565b6000610b5e8b8b8b8b8b8b8b8b610c5f565b9050610b6a81846110aa565b60005b8a811015610c285780827f4cf4410cc57040e44862ef0f45f3dd5a5e02db8eb8add648d4b0e236f1d07dca8e8e85818110610baa57610baa611db2565b9050602002016020810190610bbf9190611dc8565b8d8d86818110610bd157610bd1611db2565b905060200201358c8c87818110610bea57610bea611db2565b9050602002810190610bfc9190611de3565b8c8b604051610c1096959493929190611cb0565b60405180910390a3610c2181611e29565b9050610b6d565b505050505050505050505050565b6000918252602082815260408084206001600160a01b0393909316845291905290205460ff1690565b60008888888888888888604051602001610c80989796959493929190611ed3565b60405160208183030381529060405280519060200120905098975050505050505050565b7ffd643c72710c63c0180259aba6b2d05451e3591a24e58b62239378085726f783610cce8161109d565b610cd7826109e6565b610d425760405162461bcd60e51b815260206004820152603660248201527f5a69766f6554696d656c6f636b436f6e74726f6c6c65723a206f7065726174696044820152751bdb8818d85b9b9bdd0818994818d85b98d95b1b195960521b60648201526084016109cf565b6000828152600160205260408082208290555183917fbaa1eb22f2a492ba1a5fea61b8df4d27c6c8b5f3971e63bb58fa14ff72eedb7091a25050565b600082815260208190526040902060010154610d998161109d565b610945838361147e565b7fd8aa0f3194971a2a116679f7c2090f6939c8d4e01a2a8d7e41d55e5351469e63610dcf816000610c36565b610ddd57610ddd81336111d8565b878614610dfc5760405162461bcd60e51b81526004016109cf90611d6a565b878414610e1b5760405162461bcd60e51b81526004016109cf90611d6a565b6000610e2d8a8a8a8a8a8a8a8a610c5f565b90506001600160a01b037f000000000000000000000000000000000000000000000000000000000000000016636ba42aaa336040516001600160e01b031960e084901b1681526001600160a01b039091166004820152602401602060405180830381865afa158015610ea3573d6000803e3d6000fd5b505050506040513d601f19601f82011682018060405250810190610ec79190611ced565b15610fb157610ed68185611231565b60005b89811015610fa25760008b8b83818110610ef557610ef5611db2565b9050602002016020810190610f0a9190611dc8565b905060008a8a84818110610f2057610f20611db2565b9050602002013590503660008a8a86818110610f3e57610f3e611db2565b9050602002810190610f509190611de3565b91509150610f60848484846112d2565b84866000805160206120e983398151915286868686604051610f859493929190611d0f565b60405180910390a35050505080610f9b90611e29565b9050610ed9565b50610fac816113af565b611091565b610fbb81856113e8565b60005b898110156110875760008b8b83818110610fda57610fda611db2565b9050602002016020810190610fef9190611dc8565b905060008a8a8481811061100557611005611db2565b9050602002013590503660008a8a8681811061102357611023611db2565b90506020028101906110359190611de3565b91509150611045848484846112d2565b84866000805160206120e98339815191528686868660405161106a9493929190611d0f565b60405180910390a3505050508061108090611e29565b9050610fbe565b50611091816113f1565b50505050505050505050565b6110a781336111d8565b50565b6110b38261094a565b1561111d5760405162461bcd60e51b815260206004820152603460248201527f5a69766f6554696d656c6f636b436f6e74726f6c6c65723a206f7065726174696044820152731bdb88185b1c9958591e481cd8da19591d5b195960621b60648201526084016109cf565b6002548110156111835760405162461bcd60e51b815260206004820152602b60248201527f5a69766f6554696d656c6f636b436f6e74726f6c6c65723a20696e737566666960448201526a6369656e742064656c617960a81b60648201526084016109cf565b61118d8142611f74565b6000928352600160205260409092209190915550565b60006001600160e01b03198216637965db0b60e01b148061073257506301ffc9a760e01b6001600160e01b0319831614610732565b6111e28282610c36565b6109e2576111ef816114e3565b6111fa8360206114f5565b60405160200161120b929190611fab565b60408051601f198184030181529082905262461bcd60e51b82526109cf91600401612020565b61123a826108f0565b6112565760405162461bcd60e51b81526004016109cf90612053565b8015806112725750600081815260016020819052604090912054145b6109e25760405162461bcd60e51b815260206004820152602b60248201527f5a69766f6554696d656c6f636b436f6e74726f6c6c65723a206d697373696e6760448201526a20646570656e64656e637960a81b60648201526084016109cf565b6000846001600160a01b03168484846040516112ef9291906120a2565b60006040518083038185875af1925050503d806000811461132c576040519150601f19603f3d011682016040523d82523d6000602084013e611331565b606091505b50509050806113a85760405162461bcd60e51b815260206004820152603860248201527f5a69766f6554696d656c6f636b436f6e74726f6c6c65723a20756e6465726c7960448201527f696e67207472616e73616374696f6e207265766572746564000000000000000060648201526084016109cf565b5050505050565b6113b8816108f0565b6113d45760405162461bcd60e51b81526004016109cf90612053565b600090815260016020819052604090912055565b61123a826108ca565b6113b8816108ca565b6114048282610c36565b6109e2576000828152602081815260408083206001600160a01b03851684529091529020805460ff1916600117905561143a3390565b6001600160a01b0316816001600160a01b0316837f2f8788117e7eff1d82e926ec794901d17c78024a50270940304540a733656f0d60405160405180910390a45050565b6114888282610c36565b156109e2576000828152602081815260408083206001600160a01b0385168085529252808320805460ff1916905551339285917ff6391f5c32d9c69d2a47ea670b442974b53935d1edc7fd64eb21e047a839171b9190a45050565b60606107326001600160a01b03831660145b606060006115048360026120b2565b61150f906002611f74565b6001600160401b0381111561152657611526611816565b6040519080825280601f01601f191660200182016040528015611550576020820181803683370190505b509050600360fc1b8160008151811061156b5761156b611db2565b60200101906001600160f81b031916908160001a905350600f60fb1b8160018151811061159a5761159a611db2565b60200101906001600160f81b031916908160001a90535060006115be8460026120b2565b6115c9906001611f74565b90505b6001811115611641576f181899199a1a9b1b9c1cb0b131b232b360811b85600f16601081106115fd576115fd611db2565b1a60f81b82828151811061161357611613611db2565b60200101906001600160f81b031916908160001a90535060049490941c9361163a816120d1565b90506115cc565b5083156108e95760405162461bcd60e51b815260206004820181905260248201527f537472696e67733a20686578206c656e67746820696e73756666696369656e7460448201526064016109cf565b80356001600160a01b03811681146116a757600080fd5b919050565b60008083601f8401126116be57600080fd5b5081356001600160401b038111156116d557600080fd5b6020830191508360208285010111156116ed57600080fd5b9250929050565b600080600080600080600060c0888a03121561170f57600080fd5b61171888611690565b96506020880135955060408801356001600160401b0381111561173a57600080fd5b6117468a828b016116ac565b989b979a50986060810135976080820135975060a09091013595509350505050565b60006020828403121561177a57600080fd5b81356001600160e01b0319811681146108e957600080fd5b60008060008060008060a087890312156117ab57600080fd5b6117b487611690565b95506020870135945060408701356001600160401b038111156117d657600080fd5b6117e289828a016116ac565b979a9699509760608101359660809091013595509350505050565b60006020828403121561180f57600080fd5b5035919050565b634e487b7160e01b600052604160045260246000fd5b604051601f8201601f191681016001600160401b038111828210171561185457611854611816565b604052919050565b600082601f83011261186d57600080fd5b81356001600160401b0381111561188657611886611816565b611899601f8201601f191660200161182c565b8181528460208386010111156118ae57600080fd5b816020850160208301376000918101602001919091529392505050565b600080600080608085870312156118e157600080fd5b6118ea85611690565b93506118f860208601611690565b92506040850135915060608501356001600160401b0381111561191a57600080fd5b6119268782880161185c565b91505092959194509250565b6000806040838503121561194557600080fd5b8235915061195560208401611690565b90509250929050565b60008083601f84011261197057600080fd5b5081356001600160401b0381111561198757600080fd5b6020830191508360208260051b85010111156116ed57600080fd5b600080600080600080600080600060c08a8c0312156119c057600080fd5b89356001600160401b03808211156119d757600080fd5b6119e38d838e0161195e565b909b50995060208c01359150808211156119fc57600080fd5b611a088d838e0161195e565b909950975060408c0135915080821115611a2157600080fd5b50611a2e8c828d0161195e565b9a9d999c50979a969997986060880135976080810135975060a0013595509350505050565b60008060008060008060008060a0898b031215611a6f57600080fd5b88356001600160401b0380821115611a8657600080fd5b611a928c838d0161195e565b909a50985060208b0135915080821115611aab57600080fd5b611ab78c838d0161195e565b909850965060408b0135915080821115611ad057600080fd5b50611add8b828c0161195e565b999c989b509699959896976060870135966080013595509350505050565b600082601f830112611b0c57600080fd5b813560206001600160401b03821115611b2757611b27611816565b8160051b611b3682820161182c565b9283528481018201928281019087851115611b5057600080fd5b83870192505b84831015611b6f57823582529183019190830190611b56565b979650505050505050565b600080600080600060a08688031215611b9257600080fd5b611b9b86611690565b9450611ba960208701611690565b935060408601356001600160401b0380821115611bc557600080fd5b611bd189838a01611afb565b94506060880135915080821115611be757600080fd5b611bf389838a01611afb565b93506080880135915080821115611c0957600080fd5b50611c168882890161185c565b9150509295509295909350565b600080600080600060a08688031215611c3b57600080fd5b611c4486611690565b9450611c5260208701611690565b9350604086013592506060860135915060808601356001600160401b03811115611c7b57600080fd5b611c168882890161185c565b81835281816020850137506000828201602090810191909152601f909101601f19169091010190565b60018060a01b038716815285602082015260a060408201526000611cd860a083018688611c87565b60608301949094525060800152949350505050565b600060208284031215611cff57600080fd5b815180151581146108e957600080fd5b60018060a01b0385168152836020820152606060408201526000611d37606083018486611c87565b9695505050505050565b634e487b7160e01b600052601160045260246000fd5b8181038181111561073257610732611d41565b60208082526028908201527f5a69766f6554696d656c6f636b436f6e74726f6c6c65723a206c656e677468206040820152670dad2e6dac2e8c6d60c31b606082015260800190565b634e487b7160e01b600052603260045260246000fd5b600060208284031215611dda57600080fd5b6108e982611690565b6000808335601e19843603018112611dfa57600080fd5b8301803591506001600160401b03821115611e1457600080fd5b6020019150368190038213156116ed57600080fd5b600060018201611e3b57611e3b611d41565b5060010190565b81835260006020808501808196508560051b810191508460005b87811015611ec65782840389528135601e19883603018112611e7d57600080fd5b870185810190356001600160401b03811115611e9857600080fd5b803603821315611ea757600080fd5b611eb2868284611c87565b9a87019a9550505090840190600101611e5c565b5091979650505050505050565b60a0808252810188905260008960c08301825b8b811015611f14576001600160a01b03611eff84611690565b16825260209283019290910190600101611ee6565b5083810360208501528881526001600160fb1b03891115611f3457600080fd5b8860051b9150818a60208301370182810360209081016040850152611f5c9082018789611e42565b60608401959095525050608001529695505050505050565b8082018082111561073257610732611d41565b60005b83811015611fa2578181015183820152602001611f8a565b50506000910152565b7f416363657373436f6e74726f6c3a206163636f756e7420000000000000000000815260008351611fe3816017850160208801611f87565b7001034b99036b4b9b9b4b733903937b6329607d1b6017918401918201528351612014816028840160208801611f87565b01602801949350505050565b602081526000825180602084015261203f816040850160208701611f87565b601f01601f19169190910160400192915050565b6020808252602f908201527f5a69766f6554696d656c6f636b436f6e74726f6c6c65723a206f70657261746960408201526e6f6e206973206e6f7420726561647960881b606082015260800190565b8183823760009101908152919050565b60008160001904831182151516156120cc576120cc611d41565b500290565b6000816120e0576120e0611d41565b50600019019056fec2617efa69bab66782fa219543714338489c4e9e178271560a91b82c3f612b58a26469706673582212203dcc18409585a07ee2f599f9bd88e26cf4eb6914c612583273e7b69473a140fb64736f6c634300081000335f58e3a2316349923ce3780f8d587db2d72378aed66a8261c916544fa6846ca5b09aa5aeb3702cfd50b6b62bc4532604938f21248a27a1d5ca736082b6819cc1d8aa0f3194971a2a116679f7c2090f6939c8d4e01a2a8d7e41d55e5351469e63fd643c72710c63c0180259aba6b2d05451e3591a24e58b62239378085726f783",
    "linkReferences": {}
  },
  "methodIdentifiers": {
    "CANCELLER_ROLE()": "b08e51c0",
    "DEFAULT_ADMIN_ROLE()": "a217fddf",
    "EXECUTOR_ROLE()": "07bd0265",
    "GBL()": "3ce8d432",
    "PROPOSER_ROLE()": "8f61f4f5",
    "TIMELOCK_ADMIN_ROLE()": "0d3cf6fc",
    "cancel(bytes32)": "c4d252f5",
    "execute(address,uint256,bytes,bytes32,bytes32)": "134008d3",
    "executeBatch(address[],uint256[],bytes[],bytes32,bytes32)": "e38335e5",
    "getMinDelay()": "f27a0c92",
    "getRoleAdmin(bytes32)": "248a9ca3",
    "getTimestamp(bytes32)": "d45c4435",
    "grantRole(bytes32,address)": "2f2ff15d",
    "hasRole(bytes32,address)": "91d14854",
    "hashOperation(address,uint256,bytes,bytes32,bytes32)": "8065657f",
    "hashOperationBatch(address[],uint256[],bytes[],bytes32,bytes32)": "b1c5f427",
    "isOperation(bytes32)": "31d50750",
    "isOperationDone(bytes32)": "2ab0f529",
    "isOperationPending(bytes32)": "584b153e",
    "isOperationReady(bytes32)": "13bc9f20",
    "isOperationReadyKeeper(bytes32)": "1885c2b7",
    "onERC1155BatchReceived(address,address,uint256[],uint256[],bytes)": "bc197c81",
    "onERC1155Received(address,address,uint256,uint256,bytes)": "f23a6e61",
    "onERC721Received(address,address,uint256,bytes)": "150b7a02",
    "renounceRole(bytes32,address)": "36568abe",
    "revokeRole(bytes32,address)": "d547741f",
    "schedule(address,uint256,bytes,bytes32,bytes32,uint256)": "01d5062a",
    "scheduleBatch(address[],uint256[],bytes[],bytes32,bytes32,uint256)": "8f2a0bb0",
    "supportsInterface(bytes4)": "01ffc9a7",
    "updateDelay(uint256)": "64d62353"
  },
  "id": 73
}