{
  "abi": [
    {
      "inputs": [
        {
          "internalType": "address",
          "name": "DAO",
          "type": "address"
        },
        {
          "internalType": "address",
          "name": "_GBL",
          "type": "address"
        }
      ],
      "stateMutability": "nonpayable",
      "type": "constructor"
    },
    {
      "anonymous": false,
      "inputs": [
        {
          "indexed": false,
          "internalType": "uint256",
          "name": "stZVE",
          "type": "uint256"
        },
        {
          "indexed": false,
          "internalType": "uint256",
          "name": "stJTT",
          "type": "uint256"
        },
        {
          "indexed": false,
          "internalType": "uint256",
          "name": "stSTT",
          "type": "uint256"
        }
      ],
      "name": "EmissionsForwarded",
      "type": "event"
    },
    {
      "anonymous": false,
      "inputs": [
        {
          "indexed": true,
          "internalType": "address",
          "name": "previousOwner",
          "type": "address"
        },
        {
          "indexed": true,
          "internalType": "address",
          "name": "newOwner",
          "type": "address"
        }
      ],
      "name": "OwnershipTransferred",
      "type": "event"
    },
    {
      "anonymous": false,
      "inputs": [
        {
          "indexed": true,
          "internalType": "address",
          "name": "previousOwner",
          "type": "address"
        },
        {
          "indexed": true,
          "internalType": "address",
          "name": "newOwner",
          "type": "address"
        }
      ],
      "name": "OwnershipTransferredAndLocked",
      "type": "event"
    },
    {
      "anonymous": false,
      "inputs": [
        {
          "indexed": false,
          "internalType": "uint256[3]",
          "name": "oldRatios",
          "type": "uint256[3]"
        },
        {
          "indexed": false,
          "internalType": "uint256[3]",
          "name": "newRatios",
          "type": "uint256[3]"
        }
      ],
      "name": "UpdatedDistributionRatioBIPS",
      "type": "event"
    },
    {
      "anonymous": false,
      "inputs": [
        {
          "indexed": false,
          "internalType": "uint256",
          "name": "oldValue",
          "type": "uint256"
        },
        {
          "indexed": false,
          "internalType": "uint256",
          "name": "newValue",
          "type": "uint256"
        }
      ],
      "name": "UpdatedExponentialDecayPerSecond",
      "type": "event"
    },
    {
      "inputs": [],
      "name": "GBL",
      "outputs": [
        {
          "internalType": "address",
          "name": "",
          "type": "address"
        }
      ],
      "stateMutability": "view",
      "type": "function"
    },
    {
      "inputs": [],
      "name": "canPull",
      "outputs": [
        {
          "internalType": "bool",
          "name": "",
          "type": "bool"
        }
      ],
      "stateMutability": "view",
      "type": "function"
    },
    {
      "inputs": [],
      "name": "canPullERC1155",
      "outputs": [
        {
          "internalType": "bool",
          "name": "",
          "type": "bool"
        }
      ],
      "stateMutability": "view",
      "type": "function"
    },
    {
      "inputs": [],
      "name": "canPullERC721",
      "outputs": [
        {
          "internalType": "bool",
          "name": "",
          "type": "bool"
        }
      ],
      "stateMutability": "view",
      "type": "function"
    },
    {
      "inputs": [],
      "name": "canPullMulti",
      "outputs": [
        {
          "internalType": "bool",
          "name": "",
          "type": "bool"
        }
      ],
      "stateMutability": "view",
      "type": "function"
    },
    {
      "inputs": [],
      "name": "canPullMultiERC721",
      "outputs": [
        {
          "internalType": "bool",
          "name": "",
          "type": "bool"
        }
      ],
      "stateMutability": "view",
      "type": "function"
    },
    {
      "inputs": [],
      "name": "canPullMultiPartial",
      "outputs": [
        {
          "internalType": "bool",
          "name": "",
          "type": "bool"
        }
      ],
      "stateMutability": "view",
      "type": "function"
    },
    {
      "inputs": [],
      "name": "canPullPartial",
      "outputs": [
        {
          "internalType": "bool",
          "name": "",
          "type": "bool"
        }
      ],
      "stateMutability": "view",
      "type": "function"
    },
    {
      "inputs": [],
      "name": "canPush",
      "outputs": [
        {
          "internalType": "bool",
          "name": "",
          "type": "bool"
        }
      ],
      "stateMutability": "pure",
      "type": "function"
    },
    {
      "inputs": [],
      "name": "canPushERC1155",
      "outputs": [
        {
          "internalType": "bool",
          "name": "",
          "type": "bool"
        }
      ],
      "stateMutability": "view",
      "type": "function"
    },
    {
      "inputs": [],
      "name": "canPushERC721",
      "outputs": [
        {
          "internalType": "bool",
          "name": "",
          "type": "bool"
        }
      ],
      "stateMutability": "view",
      "type": "function"
    },
    {
      "inputs": [],
      "name": "canPushMulti",
      "outputs": [
        {
          "internalType": "bool",
          "name": "",
          "type": "bool"
        }
      ],
      "stateMutability": "view",
      "type": "function"
    },
    {
      "inputs": [],
      "name": "canPushMultiERC721",
      "outputs": [
        {
          "internalType": "bool",
          "name": "",
          "type": "bool"
        }
      ],
      "stateMutability": "view",
      "type": "function"
    },
    {
      "inputs": [
        {
          "internalType": "uint256",
          "name": "top",
          "type": "uint256"
        },
        {
          "internalType": "uint256",
          "name": "dur",
          "type": "uint256"
        }
      ],
      "name": "decay",
      "outputs": [
        {
          "internalType": "uint256",
          "name": "",
          "type": "uint256"
        }
      ],
      "stateMutability": "view",
      "type": "function"
    },
    {
      "inputs": [
        {
          "internalType": "uint256",
          "name": "",
          "type": "uint256"
        }
      ],
      "name": "distributionRatioBIPS",
      "outputs": [
        {
          "internalType": "uint256",
          "name": "",
          "type": "uint256"
        }
      ],
      "stateMutability": "view",
      "type": "function"
    },
    {
      "inputs": [],
      "name": "exponentialDecayPerSecond",
      "outputs": [
        {
          "internalType": "uint256",
          "name": "",
          "type": "uint256"
        }
      ],
      "stateMutability": "view",
      "type": "function"
    },
    {
      "inputs": [],
      "name": "forwardEmissions",
      "outputs": [],
      "stateMutability": "nonpayable",
      "type": "function"
    },
    {
      "inputs": [],
      "name": "lastDistribution",
      "outputs": [
        {
          "internalType": "uint256",
          "name": "",
          "type": "uint256"
        }
      ],
      "stateMutability": "view",
      "type": "function"
    },
    {
      "inputs": [],
      "name": "locked",
      "outputs": [
        {
          "internalType": "bool",
          "name": "",
          "type": "bool"
        }
      ],
      "stateMutability": "view",
      "type": "function"
    },
    {
      "inputs": [
        {
          "internalType": "address",
          "name": "",
          "type": "address"
        },
        {
          "internalType": "address",
          "name": "",
          "type": "address"
        },
        {
          "internalType": "uint256[]",
          "name": "",
          "type": "uint256[]"
        },
        {
          "internalType": "uint256[]",
          "name": "",
          "type": "uint256[]"
        },
        {
          "internalType": "bytes",
          "name": "",
          "type": "bytes"
        }
      ],
      "name": "onERC1155BatchReceived",
      "outputs": [
        {
          "internalType": "bytes4",
          "name": "",
          "type": "bytes4"
        }
      ],
      "stateMutability": "nonpayable",
      "type": "function"
    },
    {
      "inputs": [
        {
          "internalType": "address",
          "name": "",
          "type": "address"
        },
        {
          "internalType": "address",
          "name": "",
          "type": "address"
        },
        {
          "internalType": "uint256",
          "name": "",
          "type": "uint256"
        },
        {
          "internalType": "uint256",
          "name": "",
          "type": "uint256"
        },
        {
          "internalType": "bytes",
          "name": "",
          "type": "bytes"
        }
      ],
      "name": "onERC1155Received",
      "outputs": [
        {
          "internalType": "bytes4",
          "name": "",
          "type": "bytes4"
        }
      ],
      "stateMutability": "nonpayable",
      "type": "function"
    },
    {
      "inputs": [
        {
          "internalType": "address",
          "name": "",
          "type": "address"
        },
        {
          "internalType": "address",
          "name": "",
          "type": "address"
        },
        {
          "internalType": "uint256",
          "name": "",
          "type": "uint256"
        },
        {
          "internalType": "bytes",
          "name": "",
          "type": "bytes"
        }
      ],
      "name": "onERC721Received",
      "outputs": [
        {
          "internalType": "bytes4",
          "name": "",
          "type": "bytes4"
        }
      ],
      "stateMutability": "nonpayable",
      "type": "function"
    },
    {
      "inputs": [],
      "name": "owner",
      "outputs": [
        {
          "internalType": "address",
          "name": "",
          "type": "address"
        }
      ],
      "stateMutability": "view",
      "type": "function"
    },
    {
      "inputs": [
        {
          "internalType": "address",
          "name": "asset",
          "type": "address"
        }
      ],
      "name": "pullFromLocker",
      "outputs": [],
      "stateMutability": "nonpayable",
      "type": "function"
    },
    {
      "inputs": [
        {
          "internalType": "address",
          "name": "asset",
          "type": "address"
        },
        {
          "internalType": "uint256[]",
          "name": "ids",
          "type": "uint256[]"
        },
        {
          "internalType": "uint256[]",
          "name": "amounts",
          "type": "uint256[]"
        },
        {
          "internalType": "bytes",
          "name": "data",
          "type": "bytes"
        }
      ],
      "name": "pullFromLockerERC1155",
      "outputs": [],
      "stateMutability": "nonpayable",
      "type": "function"
    },
    {
      "inputs": [
        {
          "internalType": "address",
          "name": "asset",
          "type": "address"
        },
        {
          "internalType": "uint256",
          "name": "tokenId",
          "type": "uint256"
        },
        {
          "internalType": "bytes",
          "name": "data",
          "type": "bytes"
        }
      ],
      "name": "pullFromLockerERC721",
      "outputs": [],
      "stateMutability": "nonpayable",
      "type": "function"
    },
    {
      "inputs": [
        {
          "internalType": "address[]",
          "name": "assets",
          "type": "address[]"
        }
      ],
      "name": "pullFromLockerMulti",
      "outputs": [],
      "stateMutability": "nonpayable",
      "type": "function"
    },
    {
      "inputs": [
        {
          "internalType": "address[]",
          "name": "assets",
          "type": "address[]"
        },
        {
          "internalType": "uint256[]",
          "name": "tokenIds",
          "type": "uint256[]"
        },
        {
          "internalType": "bytes[]",
          "name": "data",
          "type": "bytes[]"
        }
      ],
      "name": "pullFromLockerMultiERC721",
      "outputs": [],
      "stateMutability": "nonpayable",
      "type": "function"
    },
    {
      "inputs": [
        {
          "internalType": "address[]",
          "name": "assets",
          "type": "address[]"
        },
        {
          "internalType": "uint256[]",
          "name": "amounts",
          "type": "uint256[]"
        }
      ],
      "name": "pullFromLockerMultiPartial",
      "outputs": [],
      "stateMutability": "nonpayable",
      "type": "function"
    },
    {
      "inputs": [
        {
          "internalType": "address",
          "name": "asset",
          "type": "address"
        },
        {
          "internalType": "uint256",
          "name": "amount",
          "type": "uint256"
        }
      ],
      "name": "pullFromLockerPartial",
      "outputs": [],
      "stateMutability": "nonpayable",
      "type": "function"
    },
    {
      "inputs": [
        {
          "internalType": "address",
          "name": "asset",
          "type": "address"
        },
        {
          "internalType": "uint256",
          "name": "amount",
          "type": "uint256"
        }
      ],
      "name": "pushToLocker",
      "outputs": [],
      "stateMutability": "nonpayable",
      "type": "function"
    },
    {
      "inputs": [
        {
          "internalType": "address",
          "name": "asset",
          "type": "address"
        },
        {
          "internalType": "uint256[]",
          "name": "ids",
          "type": "uint256[]"
        },
        {
          "internalType": "uint256[]",
          "name": "amounts",
          "type": "uint256[]"
        },
        {
          "internalType": "bytes",
          "name": "data",
          "type": "bytes"
        }
      ],
      "name": "pushToLockerERC1155",
      "outputs": [],
      "stateMutability": "nonpayable",
      "type": "function"
    },
    {
      "inputs": [
        {
          "internalType": "address",
          "name": "asset",
          "type": "address"
        },
        {
          "internalType": "uint256",
          "name": "tokenId",
          "type": "uint256"
        },
        {
          "internalType": "bytes",
          "name": "data",
          "type": "bytes"
        }
      ],
      "name": "pushToLockerERC721",
      "outputs": [],
      "stateMutability": "nonpayable",
      "type": "function"
    },
    {
      "inputs": [
        {
          "internalType": "address[]",
          "name": "assets",
          "type": "address[]"
        },
        {
          "internalType": "uint256[]",
          "name": "amounts",
          "type": "uint256[]"
        }
      ],
      "name": "pushToLockerMulti",
      "outputs": [],
      "stateMutability": "nonpayable",
      "type": "function"
    },
    {
      "inputs": [
        {
          "internalType": "address[]",
          "name": "assets",
          "type": "address[]"
        },
        {
          "internalType": "uint256[]",
          "name": "tokenIds",
          "type": "uint256[]"
        },
        {
          "internalType": "bytes[]",
          "name": "data",
          "type": "bytes[]"
        }
      ],
      "name": "pushToLockerMultiERC721",
      "outputs": [],
      "stateMutability": "nonpayable",
      "type": "function"
    },
    {
      "inputs": [],
      "name": "renounceOwnership",
      "outputs": [],
      "stateMutability": "nonpayable",
      "type": "function"
    },
    {
      "inputs": [
        {
          "internalType": "uint256",
          "name": "_exponentialDecayPerSecond",
          "type": "uint256"
        }
      ],
      "name": "setExponentialDecayPerSecond",
      "outputs": [],
      "stateMutability": "nonpayable",
      "type": "function"
    },
    {
      "inputs": [
        {
          "internalType": "bytes4",
          "name": "interfaceId",
          "type": "bytes4"
        }
      ],
      "name": "supportsInterface",
      "outputs": [
        {
          "internalType": "bool",
          "name": "",
          "type": "bool"
        }
      ],
      "stateMutability": "view",
      "type": "function"
    },
    {
      "inputs": [
        {
          "internalType": "address",
          "name": "newOwner",
          "type": "address"
        }
      ],
      "name": "transferOwnership",
      "outputs": [],
      "stateMutability": "nonpayable",
      "type": "function"
    },
    {
      "inputs": [
        {
          "internalType": "address",
          "name": "newOwner",
          "type": "address"
        }
      ],
      "name": "transferOwnershipAndLock",
      "outputs": [],
      "stateMutability": "nonpayable",
      "type": "function"
    },
    {
      "inputs": [
        {
          "internalType": "uint256[3]",
          "name": "_distributionRatioBIPS",
          "type": "uint256[3]"
        }
      ],
      "name": "updateDistributionRatioBIPS",
      "outputs": [],
      "stateMutability": "nonpayable",
      "type": "function"
    }
  ],
  "bytecode": {
    "object": "0x60a06040526305f5e100620000256b033b2e3c9fd0803ce80000006305f5e0fe62000269565b62000031919062000297565b6002553480156200004157600080fd5b50604051620030ef380380620030ef8339810160408190526200006491620002d7565b6200006f3362000091565b6200007a82620000e1565b6001600160a01b031660805250426001556200030f565b600080546001600160a01b038381166001600160a01b0319831681178455604051919092169283917f8be0079c531659141344cd1fd0a4f28419497f9722a3daafe3b4186f6b6457e09190a35050565b620000eb620001e5565b600054600160a01b900460ff1615620001595760405162461bcd60e51b815260206004820152602560248201527f5a69766f654f776e61626c654c6f636b65643a3a756e6c6f636b65642829206c6044820152641bd8dad95960da1b60648201526084015b60405180910390fd5b6001600160a01b038116620001d75760405162461bcd60e51b815260206004820152603e60248201527f5a69766f654f776e61626c654c6f636b65643a3a7472616e736665724f776e6560448201527f72736869702829206e65774f776e6572203d3d20616464726573732830290000606482015260840162000150565b620001e28162000091565b50565b6000546001600160a01b03163314620002675760405162461bcd60e51b815260206004820152603760248201527f5a69766f654f776e61626c654c6f636b65643a3a5f636865636b4f776e65722060448201527f6f776e6572282920213d205f6d736753656e6465722829000000000000000000606482015260840162000150565b565b60008160001904831182151516156200029257634e487b7160e01b600052601160045260246000fd5b500290565b600082620002b557634e487b7160e01b600052601260045260246000fd5b500490565b80516001600160a01b0381168114620002d257600080fd5b919050565b60008060408385031215620002eb57600080fd5b620002f683620002ba565b91506200030660208401620002ba565b90509250929050565b608051612d5b62000394600039600081816103060152818161077c01528181610d3201528181610e7501528181610f6e01528181611430015281816118e40152818161198401528181611a1901528181611aaa01528181611b3801528181611bc801528181611cc301528181611d5301528181611e4e0152611ede0152612d5b6000f3fe608060405234801561001057600080fd5b50600436106102535760003560e01c80638da5cb5b11610146578063cf309012116100c3578063f2fde38b11610087578063f2fde38b1461047c578063f3c1639f1461048f578063f596030914610498578063f6324fe1146104ab578063fd76f59d146104be578063ff0459ba146104d157600080fd5b8063cf3090121461042f578063d9821e3b14610443578063dd913bdb146102d4578063e7f4462914610456578063f23a6e611461045d57600080fd5b8063b892bcc01161010a578063b892bcc0146103d7578063b8e4514e146103ea578063bc197c81146103fd578063c9c6a4141461041c578063cf10b7ab146102d457600080fd5b80638da5cb5b146103a757806392ffcefb146103b8578063a4a3e79d146102d4578063a717639c146103c0578063b0607cf8146102d457600080fd5b80633ce8d432116101d457806364c777351161019857806364c77735146102d4578063715018a6146103795780637dbcdbc11461038157806384476591146103945780638b648ee2146102d457600080fd5b80633ce8d432146103015780633eda81ad146102d4578063422b20181461034057806358289c7e14610353578063607cd6491461036657600080fd5b80631d9389e91161021b5780631d9389e9146102db5780631de7a162146102ee578063215cccdd146102d45780632f08d48b146102d45780633c117244146102d457600080fd5b806301ffc9a7146102585780631205217614610280578063150b7a021461029557806315e98744146102c15780631852b383146102d4575b600080fd5b61026b61026636600461242c565b6104e4565b60405190151581526020015b60405180910390f35b61029361028e3660046124b3565b61051b565b005b6102a86102a33660046125c3565b61058d565b6040516001600160e01b03199091168152602001610277565b6102936102cf366004612672565b61059e565b600061026b565b6102936102e93660046124b3565b61070f565b6102936102fc36600461270b565b61077a565b6103287f000000000000000000000000000000000000000000000000000000000000000081565b6040516001600160a01b039091168152602001610277565b61029361034e366004612733565b6109d8565b6102936103613660046127df565b610a47565b6102936103743660046127fc565b610b22565b610293610c89565b61029361038f3660046127df565b610cc7565b6102936103a236600461283d565b610d28565b6000546001600160a01b0316610328565b610293610e6d565b6103c960015481565b604051908152602001610277565b6102936103e5366004612672565b61106d565b6103c96103f8366004612869565b6111d5565b6102a861040b3660046128ff565b63bc197c8160e01b95945050505050565b61029361042a3660046129ac565b611200565b60005461026b90600160a01b900460ff1681565b61029361045136600461283d565b6112f1565b600161026b565b6102a861046b366004612a0b565b63f23a6e6160e01b95945050505050565b61029361048a3660046127df565b611360565b6103c960025481565b6103c96104a6366004612a73565b611417565b6102936104b9366004612a73565b61142e565b6102936104cc366004612733565b61159d565b6102936104df3660046129ac565b61160a565b60006001600160e01b03198216630271189760e51b148061051557506301ffc9a760e01b6001600160e01b03198316145b92915050565b6105236116dc565b60405162461bcd60e51b815260206004820152603460248201527f5a69766f654c6f636b65723a3a70756c6c46726f6d4c6f636b65724552433732604482015273312829202163616e50756c6c455243373231282960601b60648201526084015b60405180910390fd5b630a85bd0160e11b5b949350505050565b6105a66116dc565b60405162461bcd60e51b815260206004820152603e60248201527f5a69766f654c6f636b65723a3a70756c6c46726f6d4c6f636b65724d756c746960448201527f4552433732312829202163616e50756c6c4d756c7469455243373231282900006064820152608401610584565b858110156107065786868281811061062e5761062e612ae9565b905060200201602081019061064391906127df565b6001600160a01b031663b88d4fde306106646000546001600160a01b031690565b88888681811061067657610676612ae9565b9050602002013587878781811061068f5761068f612ae9565b90506020028101906106a19190612aff565b6040518663ffffffff1660e01b81526004016106c1959493929190612ab5565b600060405180830381600087803b1580156106db57600080fd5b505af11580156106ef573d6000803e3d6000fd5b5050505080806106fe90612b5b565b915050610614565b50505050505050565b6107176116dc565b60405162461bcd60e51b815260206004820152603260248201527f5a69766f654c6f636b65723a3a70757368546f4c6f636b65724552433732312860448201527129202163616e50757368455243373231282960701b6064820152608401610584565b7f00000000000000000000000000000000000000000000000000000000000000006001600160a01b031663c76d41c86040518163ffffffff1660e01b8152600401602060405180830381865afa1580156107d8573d6000803e3d6000fd5b505050506040513d601f19601f820116820180604052508101906107fc9190612b74565b6001600160a01b0316336001600160a01b0316146108a85760405162461bcd60e51b815260206004820152605760248201527f4f43455f5a56453a3a757064617465446973747269627574696f6e526174696f60448201527f424950532829205f6d736753656e646572282920213d20495a69766f65476c6f60648201527f62616c735f4f43455f5a56452847424c292e544c432829000000000000000000608482015260a401610584565b61271060408201356108bf60208401358435612b91565b6108c99190612b91565b146109885760405162461bcd60e51b815260206004820152608060248201527f4f43455f5a56453a3a757064617465446973747269627574696f6e526174696f60448201527f424950532829205f646973747269627574696f6e526174696f424950535b305d60648201527f202b205f646973747269627574696f6e526174696f424950535b315d202b205f60848201527f646973747269627574696f6e526174696f424950535b325d20213d204249505360a482015260c401610584565b7f78de14f6b87332f7b42d6f9ce9534275c3f593bdc64e5514fabeac41322ba6796003826040516109ba929190612ba4565b60405180910390a18035600355602081013560045560400135600555565b6109e06116dc565b60405162461bcd60e51b815260206004820152603660248201527f5a69766f654c6f636b65723a3a70756c6c46726f6d4c6f636b6572455243313160448201527535352829202163616e50756c6c45524331313535282960501b6064820152608401610584565b610a4f6116dc565b600054600160a01b900460ff1615610a795760405162461bcd60e51b815260040161058490612bde565b6001600160a01b038116610b035760405162461bcd60e51b815260206004820152604560248201527f5a69766f654f776e61626c654c6f636b65643a3a7472616e736665724f776e6560448201527f7273686970416e644c6f636b2829206e65774f776e6572203d3d206164647265606482015264737328302960d81b608482015260a401610584565b6000805460ff60a01b1916600160a01b179055610b1f8161175c565b50565b610b2a6116dc565b60405162461bcd60e51b815260206004820152603260248201527f5a69766f654c6f636b65723a3a70756c6c46726f6d4c6f636b65724d756c74696044820152712829202163616e50756c6c4d756c7469282960701b6064820152608401610584565b81811015610c8457610c72610baa6000546001600160a01b031690565b848484818110610bbc57610bbc612ae9565b9050602002016020810190610bd191906127df565b6040516370a0823160e01b81523060048201526001600160a01b0391909116906370a0823190602401602060405180830381865afa158015610c17573d6000803e3d6000fd5b505050506040513d601f19601f82011682018060405250810190610c3b9190612c23565b858585818110610c4d57610c4d612ae9565b9050602002016020810190610c6291906127df565b6001600160a01b031691906117ac565b80610c7c81612b5b565b915050610b8d565b505050565b610c916116dc565b600054600160a01b900460ff1615610cbb5760405162461bcd60e51b815260040161058490612bde565b610cc5600061175c565b565b610ccf6116dc565b60405162461bcd60e51b815260206004820152602860248201527f5a69766f654c6f636b65723a3a70756c6c46726f6d4c6f636b65722829202163604482015267616e50756c6c282960c01b6064820152608401610584565b610d306116dc565b7f00000000000000000000000000000000000000000000000000000000000000006001600160a01b0316639af6c40e6040518163ffffffff1660e01b8152600401602060405180830381865afa158015610d8e573d6000803e3d6000fd5b505050506040513d601f19601f82011682018060405250810190610db29190612b74565b6001600160a01b0316826001600160a01b031614610e425760405162461bcd60e51b815260206004820152604160248201527f4f43455f5a56453a3a70757368546f4c6f636b6572282920617373657420213d60448201527f20495a69766f65476c6f62616c735f4f43455f5a56452847424c292e5a5645286064820152602960f81b608482015260a401610584565b610e69610e576000546001600160a01b031690565b6001600160a01b03841690308461180f565b5050565b611067610f6c7f00000000000000000000000000000000000000000000000000000000000000006001600160a01b0316639af6c40e6040518163ffffffff1660e01b8152600401602060405180830381865afa158015610ed1573d6000803e3d6000fd5b505050506040513d601f19601f82011682018060405250810190610ef59190612b74565b6040516370a0823160e01b81523060048201526001600160a01b0391909116906370a0823190602401602060405180830381865afa158015610f3b573d6000803e3d6000fd5b505050506040513d601f19601f82011682018060405250810190610f5f9190612c23565b6001546103f89042612c3c565b7f00000000000000000000000000000000000000000000000000000000000000006001600160a01b0316639af6c40e6040518163ffffffff1660e01b8152600401602060405180830381865afa158015610fca573d6000803e3d6000fd5b505050506040513d601f19601f82011682018060405250810190610fee9190612b74565b6040516370a0823160e01b81523060048201526001600160a01b0391909116906370a0823190602401602060405180830381865afa158015611034573d6000803e3d6000fd5b505050506040513d601f19601f820116820180604052508101906110589190612c23565b6110629190612c3c565b61184d565b42600155565b6110756116dc565b60405162461bcd60e51b815260206004820152603c60248201527f5a69766f654c6f636b65723a3a70757368546f4c6f636b65724d756c7469455260448201527f433732312829202163616e507573684d756c74694552433732312829000000006064820152608401610584565b85811015610706578686828181106110fd576110fd612ae9565b905060200201602081019061111291906127df565b6001600160a01b031663b88d4fde6111326000546001600160a01b031690565b3088888681811061114557611145612ae9565b9050602002013587878781811061115e5761115e612ae9565b90506020028101906111709190612aff565b6040518663ffffffff1660e01b8152600401611190959493929190612ab5565b600060405180830381600087803b1580156111aa57600080fd5b505af11580156111be573d6000803e3d6000fd5b5050505080806111cd90612b5b565b9150506110e3565b60006111f9836111f4600254856b033b2e3c9fd0803ce8000000611fd3565b612091565b9392505050565b6112086116dc565b60405162461bcd60e51b815260206004820152603060248201527f5a69766f654c6f636b65723a3a70757368546f4c6f636b65724d756c7469282960448201526f202163616e507573684d756c7469282960801b6064820152608401610584565b838110156112ea576112d86112866000546001600160a01b031690565b3085858581811061129957611299612ae9565b905060200201358888868181106112b2576112b2612ae9565b90506020020160208101906112c791906127df565b6001600160a01b031692919061180f565b806112e281612b5b565b915050611269565b5050505050565b6112f96116dc565b60405162461bcd60e51b815260206004820152603660248201527f5a69766f654c6f636b65723a3a70756c6c46726f6d4c6f636b65725061727469604482015275616c2829202163616e50756c6c5061727469616c282960501b6064820152608401610584565b6113686116dc565b600054600160a01b900460ff16156113925760405162461bcd60e51b815260040161058490612bde565b6001600160a01b03811661140e5760405162461bcd60e51b815260206004820152603e60248201527f5a69766f654f776e61626c654c6f636b65643a3a7472616e736665724f776e6560448201527f72736869702829206e65774f776e6572203d3d206164647265737328302900006064820152608401610584565b610b1f8161175c565b6003816003811061142757600080fd5b0154905081565b7f00000000000000000000000000000000000000000000000000000000000000006001600160a01b031663c76d41c86040518163ffffffff1660e01b8152600401602060405180830381865afa15801561148c573d6000803e3d6000fd5b505050506040513d601f19601f820116820180604052508101906114b09190612b74565b6001600160a01b0316336001600160a01b03161461155c5760405162461bcd60e51b815260206004820152605860248201527f4f43455f5a56453a3a7365744578706f6e656e7469616c44656361795065725360448201527f65636f6e642829205f6d736753656e646572282920213d20495a69766f65476c60648201527f6f62616c735f4f43455f5a56452847424c292e544c4328290000000000000000608482015260a401610584565b60025460408051918252602082018390527f0daf10a3c0545c8b5252c177d4d830a2497b8c178cf944cb5f9d099fed097272910160405180910390a1600255565b6115a56116dc565b60405162461bcd60e51b815260206004820152603460248201527f5a69766f654c6f636b65723a3a70757368546f4c6f636b6572455243313135356044820152732829202163616e5075736845524331313535282960601b6064820152608401610584565b6116126116dc565b6040805162461bcd60e51b81526020600482015260248101919091527f5a69766f654c6f636b65723a3a70756c6c46726f6d4c6f636b65724d756c746960448201527f5061727469616c2829202163616e50756c6c4d756c74695061727469616c28296064820152608401610584565b838110156112ea576116ca61169f6000546001600160a01b031690565b8484848181106116b1576116b1612ae9565b90506020020135878785818110610c4d57610c4d612ae9565b806116d481612b5b565b915050611682565b6000546001600160a01b03163314610cc55760405162461bcd60e51b815260206004820152603760248201527f5a69766f654f776e61626c654c6f636b65643a3a5f636865636b4f776e65722060448201527f6f776e6572282920213d205f6d736753656e64657228290000000000000000006064820152608401610584565b600080546001600160a01b038381166001600160a01b0319831681178455604051919092169283917f8be0079c531659141344cd1fd0a4f28419497f9722a3daafe3b4186f6b6457e09190a35050565b6040516001600160a01b038316602482015260448101829052610c8490849063a9059cbb60e01b906064015b60408051601f198184030181529190526020810180516001600160e01b03166001600160e01b031990931692909217909152612122565b6040516001600160a01b03808516602483015283166044820152606481018290526118479085906323b872dd60e01b906084016117d8565b50505050565b7f200bc13416e01daa18815e6e0a84612ed4d6ec7f549dae658548a504df3900b56127106003600001546118819084612c4f565b61188b9190612c6e565b6004546127109061189c9085612c4f565b6118a69190612c6e565b600554612710906118b79086612c4f565b6118c19190612c6e565b6040805193845260208401929092529082015260600160405180910390a1611a147f00000000000000000000000000000000000000000000000000000000000000006001600160a01b031663d9fa86ed6040518163ffffffff1660e01b8152600401602060405180830381865afa158015611940573d6000803e3d6000fd5b505050506040513d601f19601f820116820180604052508101906119649190612b74565b612710600360005b01546119789085612c4f565b6119829190612c6e565b7f00000000000000000000000000000000000000000000000000000000000000006001600160a01b0316639af6c40e6040518163ffffffff1660e01b8152600401602060405180830381865afa1580156119e0573d6000803e3d6000fd5b505050506040513d601f19601f82011682018060405250810190611a049190612b74565b6001600160a01b031691906121f4565b611aa57f00000000000000000000000000000000000000000000000000000000000000006001600160a01b03166372ad4ba06040518163ffffffff1660e01b8152600401602060405180830381865afa158015611a75573d6000803e3d6000fd5b505050506040513d601f19601f82011682018060405250810190611a999190612b74565b6127106003600161196c565b611b367f00000000000000000000000000000000000000000000000000000000000000006001600160a01b031663d8c58b6a6040518163ffffffff1660e01b8152600401602060405180830381865afa158015611b06573d6000803e3d6000fd5b505050506040513d601f19601f82011682018060405250810190611b2a9190612b74565b6127106003600261196c565b7f00000000000000000000000000000000000000000000000000000000000000006001600160a01b031663d9fa86ed6040518163ffffffff1660e01b8152600401602060405180830381865afa158015611b94573d6000803e3d6000fd5b505050506040513d601f19601f82011682018060405250810190611bb89190612b74565b6001600160a01b0316637db4e28f7f00000000000000000000000000000000000000000000000000000000000000006001600160a01b0316639af6c40e6040518163ffffffff1660e01b8152600401602060405180830381865afa158015611c24573d6000803e3d6000fd5b505050506040513d601f19601f82011682018060405250810190611c489190612b74565b60035461271090611c599086612c4f565b611c639190612c6e565b6040516001600160e01b031960e085901b1681526001600160a01b0390921660048301526024820152604401600060405180830381600087803b158015611ca957600080fd5b505af1158015611cbd573d6000803e3d6000fd5b505050507f00000000000000000000000000000000000000000000000000000000000000006001600160a01b03166372ad4ba06040518163ffffffff1660e01b8152600401602060405180830381865afa158015611d1f573d6000803e3d6000fd5b505050506040513d601f19601f82011682018060405250810190611d439190612b74565b6001600160a01b0316637db4e28f7f00000000000000000000000000000000000000000000000000000000000000006001600160a01b0316639af6c40e6040518163ffffffff1660e01b8152600401602060405180830381865afa158015611daf573d6000803e3d6000fd5b505050506040513d601f19601f82011682018060405250810190611dd39190612b74565b60045461271090611de49086612c4f565b611dee9190612c6e565b6040516001600160e01b031960e085901b1681526001600160a01b0390921660048301526024820152604401600060405180830381600087803b158015611e3457600080fd5b505af1158015611e48573d6000803e3d6000fd5b505050507f00000000000000000000000000000000000000000000000000000000000000006001600160a01b031663d8c58b6a6040518163ffffffff1660e01b8152600401602060405180830381865afa158015611eaa573d6000803e3d6000fd5b505050506040513d601f19601f82011682018060405250810190611ece9190612b74565b6001600160a01b0316637db4e28f7f00000000000000000000000000000000000000000000000000000000000000006001600160a01b0316639af6c40e6040518163ffffffff1660e01b8152600401602060405180830381865afa158015611f3a573d6000803e3d6000fd5b505050506040513d601f19601f82011682018060405250810190611f5e9190612b74565b60055461271090611f6f9086612c4f565b611f799190612c6e565b6040516001600160e01b031960e085901b1681526001600160a01b0390921660048301526024820152604401600060405180830381600087803b158015611fbf57600080fd5b505af11580156112ea573d6000803e3d6000fd5b60008280156120855784801561207a57600185168015611ff557869350611ff9565b8493505b50600284046002860495505b8515612074578687028760801c1561201c57600080fd5b8181018181101561202c57600080fd5b869004975050600186161561206957868402848882041415881515161561205257600080fd5b8181018181101561206257600080fd5b8690049450505b600286049550612005565b5061207f565b600092505b50612089565b8291505b509392505050565b600061209d8284612c4f565b90508115806120b45750826120b28383612c6e565b145b61210c5760405162461bcd60e51b8152602060048201526024808201527f4f43455f5a56453a3a726d756c2829207920213d2030202626207a202f2079206044820152630427a40f60e31b6064820152608401610584565b6111f96b033b2e3c9fd0803ce800000082612c6e565b6000612177826040518060400160405280602081526020017f5361666545524332303a206c6f772d6c6576656c2063616c6c206661696c6564815250856001600160a01b03166123099092919063ffffffff16565b805190915015610c8457808060200190518101906121959190612c90565b610c845760405162461bcd60e51b815260206004820152602a60248201527f5361666545524332303a204552433230206f7065726174696f6e20646964206e6044820152691bdd081cdd58d8d9595960b21b6064820152608401610584565b80158061226e5750604051636eb1769f60e11b81523060048201526001600160a01b03838116602483015284169063dd62ed3e90604401602060405180830381865afa158015612248573d6000803e3d6000fd5b505050506040513d601f19601f8201168201806040525081019061226c9190612c23565b155b6122d95760405162461bcd60e51b815260206004820152603660248201527f5361666545524332303a20617070726f76652066726f6d206e6f6e2d7a65726f60448201527520746f206e6f6e2d7a65726f20616c6c6f77616e636560501b6064820152608401610584565b6040516001600160a01b038316602482015260448101829052610c8490849063095ea7b360e01b906064016117d8565b6060610596848460008585600080866001600160a01b031685876040516123309190612cd6565b60006040518083038185875af1925050503d806000811461236d576040519150601f19603f3d011682016040523d82523d6000602084013e612372565b606091505b50915091506123838783838761238e565b979650505050505050565b606083156123fd5782516000036123f6576001600160a01b0385163b6123f65760405162461bcd60e51b815260206004820152601d60248201527f416464726573733a2063616c6c20746f206e6f6e2d636f6e74726163740000006044820152606401610584565b5081610596565b61059683838151156124125781518083602001fd5b8060405162461bcd60e51b81526004016105849190612cf2565b60006020828403121561243e57600080fd5b81356001600160e01b0319811681146111f957600080fd5b6001600160a01b0381168114610b1f57600080fd5b60008083601f84011261247d57600080fd5b5081356001600160401b0381111561249457600080fd5b6020830191508360208285010111156124ac57600080fd5b9250929050565b600080600080606085870312156124c957600080fd5b84356124d481612456565b93506020850135925060408501356001600160401b038111156124f657600080fd5b6125028782880161246b565b95989497509550505050565b634e487b7160e01b600052604160045260246000fd5b604051601f8201601f191681016001600160401b038111828210171561254c5761254c61250e565b604052919050565b600082601f83011261256557600080fd5b81356001600160401b0381111561257e5761257e61250e565b612591601f8201601f1916602001612524565b8181528460208386010111156125a657600080fd5b816020850160208301376000918101602001919091529392505050565b600080600080608085870312156125d957600080fd5b84356125e481612456565b935060208501356125f481612456565b92506040850135915060608501356001600160401b0381111561261657600080fd5b61262287828801612554565b91505092959194509250565b60008083601f84011261264057600080fd5b5081356001600160401b0381111561265757600080fd5b6020830191508360208260051b85010111156124ac57600080fd5b6000806000806000806060878903121561268b57600080fd5b86356001600160401b03808211156126a257600080fd5b6126ae8a838b0161262e565b909850965060208901359150808211156126c757600080fd5b6126d38a838b0161262e565b909650945060408901359150808211156126ec57600080fd5b506126f989828a0161262e565b979a9699509497509295939492505050565b60006060828403121561271d57600080fd5b8260608301111561272d57600080fd5b50919050565b60008060008060008060006080888a03121561274e57600080fd5b873561275981612456565b965060208801356001600160401b038082111561277557600080fd5b6127818b838c0161262e565b909850965060408a013591508082111561279a57600080fd5b6127a68b838c0161262e565b909650945060608a01359150808211156127bf57600080fd5b506127cc8a828b0161246b565b989b979a50959850939692959293505050565b6000602082840312156127f157600080fd5b81356111f981612456565b6000806020838503121561280f57600080fd5b82356001600160401b0381111561282557600080fd5b6128318582860161262e565b90969095509350505050565b6000806040838503121561285057600080fd5b823561285b81612456565b946020939093013593505050565b6000806040838503121561287c57600080fd5b50508035926020909101359150565b600082601f83011261289c57600080fd5b813560206001600160401b038211156128b7576128b761250e565b8160051b6128c6828201612524565b92835284810182019282810190878511156128e057600080fd5b83870192505b84831015612383578235825291830191908301906128e6565b600080600080600060a0868803121561291757600080fd5b853561292281612456565b9450602086013561293281612456565b935060408601356001600160401b038082111561294e57600080fd5b61295a89838a0161288b565b9450606088013591508082111561297057600080fd5b61297c89838a0161288b565b9350608088013591508082111561299257600080fd5b5061299f88828901612554565b9150509295509295909350565b600080600080604085870312156129c257600080fd5b84356001600160401b03808211156129d957600080fd5b6129e58883890161262e565b909650945060208701359150808211156129fe57600080fd5b506125028782880161262e565b600080600080600060a08688031215612a2357600080fd5b8535612a2e81612456565b94506020860135612a3e81612456565b9350604086013592506060860135915060808601356001600160401b03811115612a6757600080fd5b61299f88828901612554565b600060208284031215612a8557600080fd5b5035919050565b81835281816020850137506000828201602090810191909152601f909101601f19169091010190565b6001600160a01b03868116825285166020820152604081018490526080606082018190526000906123839083018486612a8c565b634e487b7160e01b600052603260045260246000fd5b6000808335601e19843603018112612b1657600080fd5b8301803591506001600160401b03821115612b3057600080fd5b6020019150368190038213156124ac57600080fd5b634e487b7160e01b600052601160045260246000fd5b600060018201612b6d57612b6d612b45565b5060010190565b600060208284031215612b8657600080fd5b81516111f981612456565b8082018082111561051557610515612b45565b60c08101818460005b6003811015612bcc578154835260209092019160019182019101612bad565b50505060608360608401379392505050565b60208082526025908201527f5a69766f654f776e61626c654c6f636b65643a3a756e6c6f636b65642829206c6040820152641bd8dad95960da1b606082015260800190565b600060208284031215612c3557600080fd5b5051919050565b8181038181111561051557610515612b45565b6000816000190483118215151615612c6957612c69612b45565b500290565b600082612c8b57634e487b7160e01b600052601260045260246000fd5b500490565b600060208284031215612ca257600080fd5b815180151581146111f957600080fd5b60005b83811015612ccd578181015183820152602001612cb5565b50506000910152565b60008251612ce8818460208701612cb2565b9190910192915050565b6020815260008251806020840152612d11816040850160208701612cb2565b601f01601f1916919091016040019291505056fea26469706673582212205f464ea16974936fc8e4a6e03d32f3bade9c0e52665189c9687fb3ebbee94a8f64736f6c63430008100033",
    "linkReferences": {}
  },
  "methodIdentifiers": {
    "GBL()": "3ce8d432",
    "canPull()": "215cccdd",
    "canPullERC1155()": "b0607cf8",
    "canPullERC721()": "3c117244",
    "canPullMulti()": "3eda81ad",
    "canPullMultiERC721()": "1852b383",
    "canPullMultiPartial()": "2f08d48b",
    "canPullPartial()": "64c77735",
    "canPush()": "e7f44629",
    "canPushERC1155()": "cf10b7ab",
    "canPushERC721()": "8b648ee2",
    "canPushMulti()": "a4a3e79d",
    "canPushMultiERC721()": "dd913bdb",
    "decay(uint256,uint256)": "b8e4514e",
    "distributionRatioBIPS(uint256)": "f5960309",
    "exponentialDecayPerSecond()": "f3c1639f",
    "forwardEmissions()": "92ffcefb",
    "lastDistribution()": "a717639c",
    "locked()": "cf309012",
    "onERC1155BatchReceived(address,address,uint256[],uint256[],bytes)": "bc197c81",
    "onERC1155Received(address,address,uint256,uint256,bytes)": "f23a6e61",
    "onERC721Received(address,address,uint256,bytes)": "150b7a02",
    "owner()": "8da5cb5b",
    "pullFromLocker(address)": "7dbcdbc1",
    "pullFromLockerERC1155(address,uint256[],uint256[],bytes)": "422b2018",
    "pullFromLockerERC721(address,uint256,bytes)": "12052176",
    "pullFromLockerMulti(address[])": "607cd649",
    "pullFromLockerMultiERC721(address[],uint256[],bytes[])": "15e98744",
    "pullFromLockerMultiPartial(address[],uint256[])": "ff0459ba",
    "pullFromLockerPartial(address,uint256)": "d9821e3b",
    "pushToLocker(address,uint256)": "84476591",
    "pushToLockerERC1155(address,uint256[],uint256[],bytes)": "fd76f59d",
    "pushToLockerERC721(address,uint256,bytes)": "1d9389e9",
    "pushToLockerMulti(address[],uint256[])": "c9c6a414",
    "pushToLockerMultiERC721(address[],uint256[],bytes[])": "b892bcc0",
    "renounceOwnership()": "715018a6",
    "setExponentialDecayPerSecond(uint256)": "f6324fe1",
    "supportsInterface(bytes4)": "01ffc9a7",
    "transferOwnership(address)": "f2fde38b",
    "transferOwnershipAndLock(address)": "58289c7e",
    "updateDistributionRatioBIPS(uint256[3])": "1de7a162"
  },
  "id": 75
}