{
  "abi": [
    {
      "inputs": [
        {
          "internalType": "address",
          "name": "mrv",
          "type": "address"
        }
      ],
      "name": "try_fullWithdraw",
      "outputs": [
        {
          "internalType": "bool",
          "name": "ok",
          "type": "bool"
        }
      ],
      "stateMutability": "nonpayable",
      "type": "function"
    },
    {
      "inputs": [
        {
          "internalType": "address",
          "name": "stk",
          "type": "address"
        },
        {
          "internalType": "uint256",
          "name": "ind",
          "type": "uint256"
        }
      ],
      "name": "try_getRewardAt",
      "outputs": [
        {
          "internalType": "bool",
          "name": "ok",
          "type": "bool"
        }
      ],
      "stateMutability": "nonpayable",
      "type": "function"
    },
    {
      "inputs": [
        {
          "internalType": "address",
          "name": "mrv",
          "type": "address"
        }
      ],
      "name": "try_getRewards",
      "outputs": [
        {
          "internalType": "bool",
          "name": "ok",
          "type": "bool"
        }
      ],
      "stateMutability": "nonpayable",
      "type": "function"
    },
    {
      "inputs": [
        {
          "internalType": "address",
          "name": "stk",
          "type": "address"
        },
        {
          "internalType": "uint256",
          "name": "amount",
          "type": "uint256"
        }
      ],
      "name": "try_stake",
      "outputs": [
        {
          "internalType": "bool",
          "name": "ok",
          "type": "bool"
        }
      ],
      "stateMutability": "nonpayable",
      "type": "function"
    },
    {
      "inputs": [
        {
          "internalType": "address",
          "name": "mrv",
          "type": "address"
        }
      ],
      "name": "try_withdraw",
      "outputs": [
        {
          "internalType": "bool",
          "name": "ok",
          "type": "bool"
        }
      ],
      "stateMutability": "nonpayable",
      "type": "function"
    }
  ],
  "bytecode": {
    "object": "0x608060405234801561001057600080fd5b5061043a806100206000396000f3fe608060405234801561001057600080fd5b50600436106100565760003560e01c806293d6ca1461005b5780635af8f71414610082578063796a2018146100955780639d6b127a146100a8578063aa4b2486146100bb575b600080fd5b61006e610069366004610378565b6100ce565b604051901515815260200160405180910390f35b61006e610090366004610378565b6101af565b61006e6100a33660046103a2565b6101fb565b61006e6100b63660046103a2565b6102ca565b61006e6100c93660046103a2565b610314565b604080518082018252600e81526d7374616b652875696e743235362960901b6020820152905160248101839052600091906001600160a01b0385169082906044015b60408051601f19818403018152908290529161012b916103e8565b60408051918290039091206020830180516001600160e01b03166001600160e01b03199092169190911790525161016291906103e8565b6000604051808303816000865af19150503d806000811461019f576040519150601f19603f3d011682016040523d82523d6000602084013e6101a4565b606091505b509095945050505050565b604080518082018252601481527367657452657761726441742875696e743235362960601b6020820152905160248101839052600091906001600160a01b038516908290604401610110565b604080518082018252600e81526d66756c6c5769746864726177282960901b602082015281516004815260248101928390526000926001600160a01b03851691906102479084906103e8565b60408051918290039091206020830180516001600160e01b03166001600160e01b03199092169190911790525161027e91906103e8565b6000604051808303816000865af19150503d80600081146102bb576040519150601f19603f3d011682016040523d82523d6000602084013e6102c0565b606091505b5090949350505050565b604080518082018252600c81526b67657452657761726473282960a01b602082015281516004815260248101928390526000926001600160a01b03851691906102479084906103e8565b604080518082018252600a8152697769746864726177282960b01b602082015281516004815260248101928390526000926001600160a01b03851691906102479084906103e8565b80356001600160a01b038116811461037357600080fd5b919050565b6000806040838503121561038b57600080fd5b6103948361035c565b946020939093013593505050565b6000602082840312156103b457600080fd5b6103bd8261035c565b9392505050565b60005b838110156103df5781810151838201526020016103c7565b50506000910152565b600082516103fa8184602087016103c4565b919091019291505056fea26469706673582212207a37b4788e04b272f5db44c070e5d0bf130c503be636cee98a155715d64fa3d564736f6c63430008100033",
    "linkReferences": {}
  },
  "methodIdentifiers": {
    "try_fullWithdraw(address)": "796a2018",
    "try_getRewardAt(address,uint256)": "5af8f714",
    "try_getRewards(address)": "9d6b127a",
    "try_stake(address,uint256)": "0093d6ca",
    "try_withdraw(address)": "aa4b2486"
  },
  "id": 119
}