{
  "abi": [
    {
      "inputs": [
        {
          "internalType": "address",
          "name": "token",
          "type": "address"
        },
        {
          "internalType": "address",
          "name": "to",
          "type": "address"
        },
        {
          "internalType": "uint256",
          "name": "amount",
          "type": "uint256"
        }
      ],
      "name": "transferByTrader",
      "outputs": [],
      "stateMutability": "nonpayable",
      "type": "function"
    },
    {
      "inputs": [
        {
          "internalType": "address",
          "name": "occ",
          "type": "address"
        },
        {
          "internalType": "uint256",
          "name": "id",
          "type": "uint256"
        }
      ],
      "name": "try_fundLoan",
      "outputs": [
        {
          "internalType": "bool",
          "name": "ok",
          "type": "bool"
        }
      ],
      "stateMutability": "nonpayable",
      "type": "function"
    },
    {
      "inputs": [
        {
          "internalType": "address",
          "name": "occ",
          "type": "address"
        },
        {
          "internalType": "uint256",
          "name": "id",
          "type": "uint256"
        }
      ],
      "name": "try_markRepaid",
      "outputs": [
        {
          "internalType": "bool",
          "name": "ok",
          "type": "bool"
        }
      ],
      "stateMutability": "nonpayable",
      "type": "function"
    },
    {
      "inputs": [
        {
          "internalType": "address",
          "name": "occ",
          "type": "address"
        },
        {
          "internalType": "uint256",
          "name": "id",
          "type": "uint256"
        }
      ],
      "name": "try_processPayment",
      "outputs": [
        {
          "internalType": "bool",
          "name": "ok",
          "type": "bool"
        }
      ],
      "stateMutability": "nonpayable",
      "type": "function"
    },
    {
      "inputs": [
        {
          "internalType": "address",
          "name": "token",
          "type": "address"
        },
        {
          "internalType": "address",
          "name": "to",
          "type": "address"
        },
        {
          "internalType": "uint256",
          "name": "amount",
          "type": "uint256"
        }
      ],
      "name": "try_transferByTrader",
      "outputs": [
        {
          "internalType": "bool",
          "name": "ok",
          "type": "bool"
        }
      ],
      "stateMutability": "nonpayable",
      "type": "function"
    }
  ],
  "bytecode": {
    "object": "0x608060405234801561001057600080fd5b506104e8806100206000396000f3fe608060405234801561001057600080fd5b50600436106100575760003560e01c806367d6ec411461005c5780638eb7d93914610083578063b0bd3faf14610096578063d8b47343146100a9578063e5d04d63146100bc575b600080fd5b61006f61006a3660046103e3565b6100d1565b604051901515815260200160405180910390f35b61006f6100913660046103e3565b6101b5565b61006f6100a43660046103e3565b610200565b61006f6100b736600461040d565b610255565b6100cf6100ca36600461040d565b61034e565b005b604080518082018252601181527066756e644c6f616e2875696e743235362960781b6020820152905160248101839052600091906001600160a01b0385169082906044015b60408051601f1981840301815290829052916101319161046d565b60408051918290039091206020830180516001600160e01b03166001600160e01b031990921691909117905251610168919061046d565b6000604051808303816000865af19150503d80600081146101a5576040519150601f19603f3d011682016040523d82523d6000602084013e6101aa565b606091505b509095945050505050565b60408051808201825260138152726d61726b5265706169642875696e743235362960681b6020820152905160248101839052600091906001600160a01b038516908290604401610116565b604080518082018252601781527f70726f636573735061796d656e742875696e74323536290000000000000000006020820152905160248101839052600091906001600160a01b038516908290604401610116565b604080518082018252601981527f7472616e7366657228616464726573732c75696e743235362900000000000000602082015290516001600160a01b038481166024830152604482018490526000929190861690829060640160408051601f1981840301815290829052916102c99161046d565b60408051918290039091206020830180516001600160e01b03166001600160e01b031990921691909117905251610300919061046d565b6000604051808303816000865af19150503d806000811461033d576040519150601f19603f3d011682016040523d82523d6000602084013e610342565b606091505b50909695505050505050565b60405163a9059cbb60e01b81526001600160a01b0383811660048301526024820183905284169063a9059cbb906044016020604051808303816000875af115801561039d573d6000803e3d6000fd5b505050506040513d601f19601f820116820180604052508101906103c19190610489565b50505050565b80356001600160a01b03811681146103de57600080fd5b919050565b600080604083850312156103f657600080fd5b6103ff836103c7565b946020939093013593505050565b60008060006060848603121561042257600080fd5b61042b846103c7565b9250610439602085016103c7565b9150604084013590509250925092565b60005b8381101561046457818101518382015260200161044c565b50506000910152565b6000825161047f818460208701610449565b9190910192915050565b60006020828403121561049b57600080fd5b815180151581146104ab57600080fd5b939250505056fea26469706673582212207968907f571d824b776cc83321e1d3c5cd1da3ddc0be1e1f35dfc0baa4107c3964736f6c63430008100033",
    "linkReferences": {}
  },
  "methodIdentifiers": {
    "transferByTrader(address,address,uint256)": "e5d04d63",
    "try_fundLoan(address,uint256)": "67d6ec41",
    "try_markRepaid(address,uint256)": "8eb7d939",
    "try_processPayment(address,uint256)": "b0bd3faf",
    "try_transferByTrader(address,address,uint256)": "d8b47343"
  },
  "id": 118
}